:020000040400F6
:1000100000000000000000000000000014000400C8
:10002000815C3A6900000000000000000000000050
:1000300000000000000000000000000000000000C0
:1000400000000000000000000000000000000000B0
:10005000010900000000000000CDDD0200000000EA
:100060000000000000000000000000000000000090
:100070000000000000000000000000000000000080
:1008000048B80320000000000000000000000000C5
:1008100000000000E2660104C4B00320E5BA032032
:1008400001F4FEB8FFF304BC01F451BE01F490BE04
:1008500001F4D6BEFFF3FEBBFFF3FEBB01F43FBEC7
:1008600001F43BBE01F43DBEFFF3FEBBFFF3FEBB54
:1008700001F413BE01F421BEFFF3FEBBFFF3FEBB88
:1008800001F409BE01F4FEBD01F4F0BDFFF3FEBBAF
:10089000FFF3FEBBFFF3FEBBFFF3FEBBFFF3FEBBAC
:1008A000FFF3FEBBFFF3FEBBFFF3FEBBFFF3FEBB9C
:1008B00001F48ABFFFF3FCBBFFF3FCBBFFF3FCBBFF
:1008C00001F484BF02F498B8FFF3F8BBFFF3F8BB60
:1008D000FFF3F8BBFFF3F8BBFFF3F8BB02F4C4BBB4
:1008E00002F4C4BB02F4C5BB00F0EEBD00F0ECBDE9
:1008F00005F440BCFFF3ECBBFFF3ECBBFFF3ECBB38
:10090000FFF3ECBB04F48CB904F48AB8FFF3E8BB42
:1009100000F0DABD00F0D8BD01F450BBFFF3E2BB3C
:10092000FFF3E2BBFFF3E2BBFFF3E2BBFFF3E2BB8B
:1009300001F4AEBB01F4A2BB01F49ABB01F49ABB73
:1009400001F49ABB07F4C0BF07F4F2BF07F41EBD61
:1009500007F41ABD07F416BD08F453BB08F453BBE3
:1009600000F0B2BD00F0B0BD00F0AEBD00F0ACBD17
:1009700000F0AABD00F0A8BDFFF3BEBBFFF3BEBBF5
:100980000FF448B90FF432B90FF4D2B80FF4FCB831
:100990000FF460B90FF46AB80FF48AB90FF402BA11
:1009A0000FF420B9FFF3ACBB00F08EBD00F08CBD9E
:1009B00000F08ABD0FF436BD0FF4F4BC0FF410BD87
:1009C0000FF488BD10F4D0B910F4D4B910F4D8B92C
:1009D00010F4F8BF11F4FEB813F458B810F440BF87
:1009E00010F43FBF10F43EBF10F490BF13F4A8B84A
:1009F00000F06ABD00F068BD11F431BE11F432BEE2
:100A000011F4F0B811F472BBFFF37CBB00F05CBDD5
:100A100000F05ABDFFF378BBFFF378BBFFF378BB60
:100A2000FFF378BBFFF378BBFFF378BBFFF378BB32
:100A3000FFF378BBFFF378BBFFF378BB00F044BD56
:100A400000F042BD00F040BD00F03EBD00F03CBDF6
:100A500000F03ABD00F038BD00F036BD00F034BD06
:100A600000F032BD00F030BD00F02EBD00F02CBD16
:100A700000F02ABD00F028BD00F026BD00F024BD26
:100A800000F022BD00F020BD00F01EBD00F01CBD36
:100A900000F01ABD00F018BD00F016BD00F014BD46
:100AA00000F012BD00F010BD00F00EBD00F00CBD56
:100AB00000F00ABD00F008BD00F006BD00F004BD66
:100AC00000F002BD00F000BD00F0FEBCFFF330BB43
:100AD00000F0FABC00F0F8BC00F0F6BC00F0F4BC8A
:100AE000FFF328BBFFF328BBFFF328BBFFF328BBB2
:100AF000FFF328BBFFF328BBFFF328BBFFF328BBA2
:100B0000FFF328BBFFF328BBFFF328BBFFF328BB91
:100B1000FFF328BB00F0D8BC00F0D6BCFFF324BB29
:100B2000FFF324BBFFF324BBFFF324BB00F0CCBCDA
:100B3000FFF324BBFFF324BBFFF324BBFFF324BB71
:100B4000FFF324BBFFF324BBFFF324BBFFF324BB61
:100B5000FFF324BBFFF324BBFFF324BBFFF324BB51
:100B6000FFF324BBFFF324BBFFF324BBFFF324BB41
:100B7000FFF324BBFFF324BBFFF324BB00F0A4BCB2
:100B800000F0A2BCFFF320BBFFF320BBFFF320BBB0
:100B9000FFF320BBFFF320BBFFF320BB00F094BCAE
:100BA00000F092BC00F090BC00F08EBCFFF318BBCC
:100BB000FFF318BBFFF318BBFFF318BBFFF318BB21
:100BC000FFF318BB00F080BC00F07EBC00F07CBCE2
:100BD000FFF312BBFFF312BBFFF312BBFFF312BB19
:100BE000FFF312BBFFF312BBFFF312BBFFF312BB09
:100BF000FFF312BBFFF312BBFFF312BBFFF312BBF9
:100C0000FFF312BBFFF312BBFFF312BBFFF312BBE8
:100C1000FFF312BBFFF312BBFFF312BBFFF312BBD8
:100C2000FFF312BBFFF312BBFFF312BBFFF312BBC8
:100C3000FFF312BBFFF312BBFFF312BBFFF312BBB8
:100C4000FFF312BB00F040BCFFF312BBFFF312BB7B
:100C5000FFF312BB00F038BC00F036BC00F034BC2F
:100C600000F032BC00F030BC00F02EBC00F02CBC18
:100C700000F02ABC00F028BC00F026BC00F024BC28
:100C800000F022BC00F020BC00F01EBC00F01CBC38
:100C900000F01ABC00F018BC00F016BC00F014BC48
:100CA00000F012BC00F010BC00F00EBC00F00CBC58
:100CB00000F00ABC00F008BC00F006BC00F004BC68
:100CC00000F002BC00F000BC0BF47AB80BF488B85A
:100CD0000BF4A8B80BF43CB90BF45EB90BF4E2BA10
:100CE0000BF4E6BA0BF4E6BA0BF40CBB0BF40CBB3A
:100CF0000BF40CBB0BF40CBB0BF40CBB0BF424BBC4
:100D00000BF43CBB0BF456BB0BF470BB0BF488BB71
:100D10000BF4A0BB0BF4D0BB0BF4B6BB0BF45EBC66
:100D20000BF45EBC0BF45EBC0BF4BEBDFFF3A6BAC5
:100D3000FFF3A6BAFFF3A6BA00F0C6BB00F0C4BB2F
:100D400000F0C2BB00F0C0BBFFF39EBA00F0BCBB1A
:100D5000FFF39CBA00F0B8BB00F0B6BBFFF398BA43
:100D600000F0B2BBFFF396BAFFF396BA00F0ACBB4B
:100D7000FFF394BA00F0A8BBFFF392BA00F0A4BB53
:100D8000FFF390BA00F0A0BBFFF38EBAFFF38EBA68
:100D900000F09ABBFFF38CBAFFF38CBAFFF38CBA66
:100DA000FFF38CBAFFF38CBAFFF38CBAFFF38CBA63
:100DB000FFF38CBAFFF38CBAFFF38CBAFFF38CBA53
:100DC000FFF38CBAFFF38CBAFFF38CBAFFF38CBA43
:100DD000FFF38CBAFFF38CBAFFF38CBAFFF38CBA33
:100DE000FFF38CBAFFF38CBAFFF38CBAFFF38CBA23
:100DF000FFF38CBAFFF38CBAFFF38CBAFFF38CBA13
:100E0000FFF38CBAFFF38CBAFFF38CBAFFF38CBA02
:100E1000FFF38CBAFFF38CBAFFF38CBAFFF38CBAF2
:100E2000FFF38CBAFFF38CBAFFF38CBAFFF38CBAE2
:100E3000FFF38CBAFFF38CBAFFF38CBAFFF38CBAD2
:100E4000FFF38CBAFFF38CBAFFF38CBAFFF38CBAC2
:100E5000FFF38CBAFFF38CBAFFF38CBA00F034BB0B
:100E600000F032BB00F030BBFFF386BAFFF386BA66
:100E7000FFF386BAFFF386BA00F026BB00F024BB6E
:100E8000FFF382BAFFF382BAFFF382BAFFF382BAAA
:100E9000FFF382BAFFF382BAFFF382BAFFF382BA9A
:100EA000FFF382BAFFF382BAFFF382BAFFF382BA8A
:100EB000FFF382BAFFF382BAFFF382BAFFF382BA7A
:100EC000FFF382BAFFF382BAFFF382BAFFF382BA6A
:100ED000FFF382BAFFF382BAFFF382BAFFF382BA5A
:100EE000FFF382BAFFF382BAFFF382BAFFF382BA4A
:100EF000FFF382BAFFF382BAFFF382BAFFF382BA3A
:100F0000FFF382BAFFF382BAFFF382BAFFF382BA29
:100F1000FFF382BAFFF382BAFFF382BAFFF382BA19
:100F2000FFF382BAFFF382BAFFF382BAFFF382BA09
:100F3000FFF382BAFFF382BAFFF382BAFFF382BAF9
:100F4000FFF382BAFFF382BAFFF382BAFFF382BAE9
:100F5000FFF382BAFFF382BAFFF382BAFFF382BAD9
:100F6000FFF382BAFFF382BAFFF382BAFFF382BAC9
:100F7000FFF382BAFFF382BAFFF382BAFFF382BAB9
:100F8000FFF382BAFFF382BAFFF382BAFFF382BAA9
:100F9000FFF382BAFFF382BAFFF382BAFFF382BA99
:100FA000FFF382BAFFF382BAFFF382BAFFF382BA89
:100FB000FFF382BAFFF382BAFFF382BAFFF382BA79
:100FC000FFF382BAFFF382BAFFF382BAFFF382BA69
:100FD000FFF382BAFFF382BAFFF382BAFFF382BA59
:100FE000FFF382BAFFF382BA00F06EBA00F06CBA77
:100FF00000F06ABA00F068BA00F066BA00F064BAAD
:1010000000F062BA00F060BA00F05EBA00F05CBABC
:1010100000F05ABA00F058BA00F056BA00F054BACC
:1010200000F052BA00F050BA00F04EBA00F04CBADC
:1010300000F04ABA00F048BA00F046BA0BF45EBDC0
:101040000BF47ABD0BF492BD0BF49CBD0BF4B2BD56
:1010500000F03ABA00F038BA0BF4B2BD00F034BA7E
:101060000BF47CBDFFF344BAFFF344BAFFF344BA78
:10107000FFF344BAFFF344BAFFF344BAFFF344BAB0
:10108000FFF344BAFFF344BAFFF344BAFFF344BAA0
:10109000FFF344BAFFF344BAFFF344BAFFF344BA90
:1010A000FFF344BAFFF344BAFFF344BAFFF344BA80
:1010B000FFF344BAFFF344BAFFF344BA0BF4BABDEA
:1010C000FFF342BA00F000BAFFF342BAFFF342BAAC
:1010D000FFF342BAFFF342BAFFF342BAFFF342BA58
:1010E000FFF342BAFFF342BAFFF342BA0BF472BD08
:1010F0000BF4A1BD0BF4A0BD0CF416BE0CF420BE85
:101100000CF438BE0CF456BE0CF470BE0CF490BE59
:101110000CF4CABE0CF4C9BE0CF4AEBE13F4C6BCCB
:1011200013F4B4BC13F41CBE13F42BBE13F431BE81
:1011300013F43FBE14F43ABC14F432BC13F48ABC6A
:1011400013F4A2BE15F40EB9FFF318BAFFF318BAE0
:10115000FFF31CBAFFF31CBAFFF31EBAFFF31EBA6B
:10116000FFF31EBAFFF31EBAFFF31EBAFFF31EBA57
:10117000FFF31EBAFFF31EBAFFF31EBAFFF31EBA47
:10118000FFF31EBAFFF31EBAFFF31EBAFFF31EBA37
:10119000FFF31EBAFFF31EBAFFF31EBAFFF31EBA27
:1011A000FFF31EBAFFF31EBAFFF31EBAFFF31EBA17
:1011B000FFF31EBAFFF31EBAFFF31EBAFFF31EBA07
:1011C000FFF31EBAFFF31EBAFFF31EBAFFF31EBAF7
:1011D000FFF31EBAFFF31EBAFFF31EBAFFF31EBAE7
:1011E000FFF31EBAFFF31EBA15F48AB9FFF31CBA57
:1011F000FFF31CBAFFF31CBAFFF31CBAFFF31CBACF
:10120000FFF31CBAFFF31CBAFFF31CBAFFF31CBABE
:1012100015F42FB9FFF31CBAFFF31CBAFFF31CBA85
:10122000FFF31CBAFFF31CBAFFF31CBAFFF31CBA9E
:10123000FFF31CBAFFF31CBAFFF31CBAFFF31CBA8E
:10124000FFF31CBAFFF31CBAFFF31CBAFFF31CBA7E
:10125000FFF31CBAFFF31CBAFFF31CBAFFF31CBA6E
:10126000FFF31CBAFFF31CBAFFF31CBAFFF31CBA5E
:10127000FFF31CBAFFF31CBAFFF31CBAFFF31CBA4E
:10128000FFF31CBAFFF31CBAFFF31CBAFFF31CBA3E
:10129000FFF31CBAFFF31CBAFFF31CBAFFF31CBA2E
:1012A000FFF31CBAFFF31CBAFFF31CBAFFF31CBA1E
:1012B000FFF31CBAFFF31CBAFFF31CBAFFF31CBA0E
:1012C000FFF31CBAFFF31CBAFFF31CBAFFF31CBAFE
:1012D000FFF31CBAFFF31CBAFFF31CBAFFF31CBAEE
:1012E000FFF31CBAFFF31CBAFFF31CBAFFF31CBADE
:1012F000FFF31CBAFFF31CBA15F4D9B8FFF31ABAFE
:10130000FFF31ABAFFF31ABAFFF31ABAFFF31ABAC5
:10131000FFF31ABAFFF31ABAFFF31ABAFFF31ABAB5
:10132000FFF31ABAFFF31ABAFFF31ABAFFF31ABAA5
:10133000FFF31ABAFFF31ABAFFF31ABAFFF31ABA95
:10134000FFF31ABAFFF31ABAFFF31ABAFFF31ABA85
:10135000FFF31ABAFFF31ABAFFF31ABAFFF31ABA75
:0813600015F4D6B815F4DAB853
:1014000000800520ED420104854701047165010457
:10141000706501047065010470650104000000003E
:1014200000000000000000000000000070650104E2
:1014300070650104000000001F6301043D630104A6
:10144000415F01045F5F01047D5F01049B5F010454
:10145000B95F0104D75F0104F55F01041360010463
:10146000316001044F6001046D6001048B60010470
:10147000A9600104C7600104E5600104036101047F
:10148000216101043F6101045D6101047B6101048C
:1014900099610104B7610104D5610104F36101049C
:1014A000116201042F6201044D6201046B620104A8
:1014B00089620104A7620104C5620104E3620104B8
:0414C00001630104BF
:1014C800704608F4C1BFEC46A0E8F00FA0E8005051
:1014D800EFF3148CC0F800C04FF0000070470029EB
:1014E80008BF0131B0E8F00FB0E80050026892F090
:1014F800020F0CBF8CF309888CF3088882F31488D8
:1015080008007047844641EA000313F003036DD1D5
:10151800403A41D351F8043B40F8043B51F8043BAE
:1015280040F8043B51F8043B40F8043B51F8043BB5
:1015380040F8043B51F8043B40F8043B51F8043BA5
:1015480040F8043B51F8043B40F8043B51F8043B95
:1015580040F8043B51F8043B40F8043B51F8043B85
:1015680040F8043B51F8043B40F8043B51F8043B75
:1015780040F8043B51F8043B40F8043B51F8043B65
:1015880040F8043B51F8043B40F8043B51F8043B55
:1015980040F8043B403ABDD2303211D351F8043BF5
:1015A80040F8043B51F8043B40F8043B51F8043B35
:1015B80040F8043B51F8043B40F8043B103AEDD2A4
:1015C8000C3205D351F8043B40F8043B043AF9D2F5
:1015D800043208D0D2071CBF11F8013B00F8013BC8
:1015E80001D30B8803806046704700BF082A13D3D5
:1015F8008B078DD010F003038AD0C3F10403D21AED
:10160800DB071CBF11F8013B00F8013B80D331F820
:10161800023B20F8023B7BE7043AD9D3013A11F8A0
:10162800013B00F8013BF9D20B7803704B7843700B
:101638008B7883706046704753B94AB9002908BF50
:1016480000281CBF4FF0FF314FF0FF3000F06CB99D
:10165800ADF1080C6DE904CE00F006F8DDF804E001
:10166800DDE9022304B070472DE9F047089E0D46D6
:1016780004468E46002B40F082808A42174646D99F
:10168800B2FA82F24AB1C2F1200105FA02F320FA55
:1016980001F1974041EA030E94404FEA1748230CA2
:1016A800BEFBF8FCB9B208FB1CEE43EA0E430CFB88
:1016B80001F098420AD9FB180CF1FF3580F0168129
:1016C800984240F21381ACF1020C3B441B1AA4B2BD
:1016D800B3FBF8F008FB103344EA034400FB01F1C4
:1016E800A14209D93C1900F1FF3380F00181A142E0
:1016F80040F2FE8002383C44641A40EA0C40002163
:101708001EB1D4400023C6E90043BDE8F08702B902
:10171800FFDEB2FA82F2002A4FD1CB1B4FEA174EF6
:101728001FFA87F80121B3FBFEFC250C0EFB1C33C6
:1017380045EA034508FB0CF3AB4207D97D190CF1C8
:10174800FF3002D2AB4200F2E7808446ED1AA3B222
:10175800B5FBFEF00EFB105543EA054408FB00F804
:10176800A04507D93C1900F1FF3302D2A04500F289
:10177800D7801846A4EB080440EA0C40C0E78B4227
:1017880008D9002E00F0AF800021C6E90005084600
:10179800BDE8F087B3FA83F100294BD1AB4202D3FD
:1017A800824200F2B780841A65EB030301209E464B
:1017B800002EAAD0C6E9004EA7E7C2F1200C01FA14
:1017C80002F3974020FA0CF04FEA174E21FA0CFC6E
:1017D8001843BCFBFEF1050C0EFB11CC1FFA87F871
:1017E80045EA0C4501FB08F3AB4204FA02F409D9B7
:1017F8007D1901F1FF3C80F08B80AB4240F288807C
:1018080002393D44EB1A85B2B3FBFEF00EFB1033F0
:1018180045EA034500FB08F3AB4207D97D1900F1FF
:10182800FF3C71D2AB426FD902383D44EB1A40EA13
:10183800014178E7C1F1200C8B4022FA0CF71F43D5
:1018480020FA0CF405FA01F34FEA174E25FA0CF5C5
:101858001C43230CB5FBFEF91FFA87F80EFB19553C
:1018680043EA054509FB08FAAA4502FA01F200FA1B
:1018780001F308D97D1909F1FF3047D2AA4545D9A6
:10188800A9F102093D44A5EB0A05A4B2B5FBFEF097
:101898000EFB105544EA054400FB08F8A04507D99B
:1018A8003C1900F1FF352DD2A0452BD902383C4414
:1018B80040EA0940A4EB0804A0FB02894C45C6464F
:1018C8004D4619D316D05EB1B3EB0E0264EB050496
:1018D80004FA0CFCCA404CEA0202CC40C6E90024D7
:1018E8000021BDE8F087314630460EE7AC46EDE60C
:1018F800184601E74345E6D2B8EB020E69EB070547
:101908000138E0E72846D3E760468FE78146BAE723
:10191800614677E708464BE7ACF1020C3D4415E712
:1019280002383C4426E700BF704700BF10B5441E8C
:101938001470013B0122904201D8012010BD8C5C3B
:10194800013403F8014F0132F5E700000549064B61
:10195800064801221A600A6000220A6004491A60D7
:10196800FEF3D6B524000242280002428096980071
:101978005519000409F074BD7047000008B500F05F
:1019880075F801F0A1F909F099FC0A200CF0DCFBCC
:1019980008490020FEF3BCF507490848FEF3B8F5EE
:1019A800074900200AF05CF9BDE808400549012014
:1019B8000AF056B981190004551900048096980058
:1019C800351900047D190004032810B5044606D90A
:1019D80013F03CF8042014F08BFA201F10BD0020EF
:1019E800FCE7000013B50648046834B18DF8001010
:1019F800ADF8023001926846A04702B010BD00BFA2
:101A0800B890032073B501230A4D8DF807301C46A2
:101A180000269DF807300BB902B070BD13F016F818
:101A28002B682BB12E604FF4FA7014F071FAF0E7BE
:101A38002C60F8E72400024208B513460A4601461E
:101A48000020FFF7CFFFBDE80840FFF7DBBFF8B580
:101A58000D4616461F46FFF7B7FF044620B93A461B
:101A680031462846FFF7E8FF2046F8BD08B506F0DE
:101A780041FC002011F066FD1E481F4903680A78E2
:101A880043F4843343F08403036042F001031B4AA8
:101A98000B7011681A4B0B4313600AF0E0FEFEF35B
:101AA800D3F2014620B94FF489722320FFF7C4FF0F
:101AB800FEF31AF54FF0FF300BF09AF80AF088FDA4
:101AC8000CF015FAFEF31AF50020FEF311F50AF0F2
:101AD800BBFF0BF003F80AF0CFFB0AF023F911F073
:101AE800EDFC14F049FC0AF02DFFBDE8084007F0B2
:101AF80088BA00BF240B0040280B004000E100E03A
:101B08001008240810B5044602F0FCFA2046BDE887
:101B1800104000F093BC0000072838B504460BD8E5
:101B280088B107280CBF022301230F4A062101FBB5
:101B380003231A79FF2A08D1EE220021BDE8384094
:101B48009A20FFF779BF0346EFE7084D55F82410B0
:101B580009B9F722F2E712B108460AF03DFD002361
:101B680045F8243038BD00BFD0660104BC9003207E
:101B780038B50B4C05467022002104F1200014F002
:101B880053FD0023C4E90033C4E90233C4E9043334
:101B9800C4E9063300F0E6F9024BAB6138BD00BF7B
:101BA800BC9003200D1B000400F0DDB970B528B10E
:101BB800012835D0022838D000231EE01D4B1B68B1
:101BC800ABB340F2022200219A20FFF735FFF3E77A
:101BD80056F82520DAB923798BB9174B46F8253002
:101BE80056F825304BB162881846002114F01CFDC8
:101BF8003544FF22034685F89020184670BD618859
:101C080001229A200AF0E6FC46F82500E8E70135AB
:101C18009D42DDD32379022BCED14FF4CA72D2E78D
:101C2800064C25786378034EF2E7054CF9E7054C36
:101C3800F7E700BFBC900320DC900320D6660104C0
:101C4800DC660104D0660104064A002352F8041B2E
:101C5800814201D1D8B270470133082BF6D1FF2059
:101C6800704700BFBC90032007B50023ADF80430CF
:101C7800FFF7EAFFFF288DF8040008D0074B184447
:101C880090F89030FF2B08BF01238DF8053001A88C
:101C980008F07CF903B05DF804FB00BFBC9003209A
:101CA800FFF7E2BF07289ABF024B53F82000002035
:101CB800704700BFBC90032010B500240C80072893
:101CC80014704FF0FF041C8009D8054B53F82030DE
:101CD8002BB1188808803E2804BF1B79137010BDEB
:101CE800BC900320FF2910B415D0072911D871B171
:101CF80007290CBF022301230A4A062404FB0323F5
:101D08005A88094B10BC53F82110FFF7FBBB0B4650
:101D1800F2E70022F5E710B14FF6FF73038010BC1D
:101D2800704700BFD0660104BC9003202DE9F8433A
:101D38001D462B4B16461A68074688469946002AC0
:101D48004BD12DB940F2672229469A20FFF774FE3D
:101D58002EB94FF41A7231469A20FFF76DFE002013
:101D6800FFF724FF044628B901464FF41B729A2056
:101D7800FFF762FE4FF6FE73012F238021462846A7
:101D880023D1B04705462046FFF75EFF09EB000365
:101D9800228883F890704FF6FE739A42064605D162
:101DA80040F28E2200219A20FFF746FE2A4641463D
:101DB8002046FEF399F122884FF6FD739A4207D820
:101DC8002046BDE8F843FFF74FBF01F03BF9D9E7DC
:101DD8003046BDE8F843FFF79FBEBDE8F88300BF73
:101DE800BC90032038B504460120FFF7DFFE054606
:101DF80028B9014640F2A2229A20FFF71DFE2A4682
:101E0800FF2322F8043B04F11001234653F8040B86
:101E180042F8040B8B42F9D12846BDE83840FFF759
:101E280023BF38B505460120FFF7C0FE044628B990
:101E3800014640F2AF229A20FFF7FEFD20460E230E
:101E480020F8043B29464822FFF75CFB2046BDE802
:101E58003840FFF709BFFFF707BF0000F8B5054690
:101E680001200F461646FFF7A1FE044638B9014681
:101E780040F2D7229A20FFF7DFFD2046F8BD6C22FA
:101E8800314620F8047BFFF73DFB284602492246ED
:101E9800FEF340F30120F1E7A91C0004FFF73CBE64
:101EA800F7B52F4C01A904200AF0FAFC9DF805208B
:101EB8009DF80430934207D19DF80620934203D140
:101EC8009DF807209A42EDD000260123019831465B
:101ED80037461A469C46551E0CFA05F505420CFA7B
:101EE80002F50CBF4FF0010E4FF0000E054214BF73
:101EF80001250025AE4522D00133DBB29E4238BF12
:101F08001E46062ECED8182FCCD80132202AE2D170
:101F18000129C7D900221346012505FA03F1084211
:101F280014BF01260026214214BF012100218E4240
:101F380001D072B901220133202BEED1B2E71A2A5F
:101F480007F1010788BF0131FFB288BFC9B2012379
:101F5800D4E70CF055FC0028A4D1019803B0F0BDDB
:101F6800D6BE898E7047704711F0010F14BF5520F7
:101F7800AA20704708B1014B18607047549103209C
:101F8800034B1B681B6803B118474FF6FF70704777
:101F980054910320024B1B685B6803B118477047D4
:101FA80054910320024B1B689B6803B11847704784
:101FB8005491032013B50C460DF1060202210AF0D4
:101FC800D9F9BDF8063003F00F022270C3F380126E
:101FD800A270C3F3C012C3F30523E270237102B0E9
:101FE80010BD002313B50B800288012A0C4602D8C5
:101FF8000B7002B010BD0DF1060202210AF0BAF909
:10200800BDF8063003F003021B0A22706370F0E784
:1020180070470378082B06D8007906381F288CBF2C
:1020280000200120704700207047091A121A89B24F
:1020380092B2914204D38CBF0120002040B2704775
:102048004FF0FF30704781421DBF081AC043C00FD0
:102058000020704738B515461A461C46FFF752FA55
:102068002A7814442C7038BD00207047002070472F
:102078000020704710B5044608460AF015F92046B6
:10208800BDE8104001F032BB10B54FF4867104462C
:1020980001200AF007F920710AF008F920B940F286
:1020A8000B132080638010BD0720FCE770470000F9
:1020B80008B5002002F066FC30B141880348BDE84D
:1020C80008400131FEF32EB208BD00BFE122000432
:1020D800144B1B6870B506460D4623B145220021F6
:1020E800E420FFF7A9FC104B1C6829462046FFF79F
:1020F800AAFFA8B12C1B304603F068F9062101FBA2
:102108000044304602F0DAFD451C29460748FEF334
:1021180009F22A4620460549BDE87040FEF3FAB1A7
:10212800641BE8E7542101420C090040E122000445
:10213800FF2808B50AD008B1430607D502F0BEFD4E
:10214800BDE80840411C0248FEF3ECB108BD00BFE1
:10215800E122000408B502F015FC58B10378FF2B02
:1021680008D0037F33B941880348BDE808400131EE
:10217800FEF3D8B108BD00BFE12200042DE9F34108
:1021880004460D46007A01A900F0ECF8002875D045
:102198009DF80610E1B13C4F6B683A68EE689342CF
:1021A800A6EB03064DD03B60FEF3AAF1FEF3A8F1BF
:1021B8003B68A18940F271224A43C11AB1EB021F60
:1021C8004FEA02172ED908216089FFF7EBFE52E08B
:1021D800AA6863689A420ED0012360898DF8063098
:1021E800FFF7D8FE618929480131FEF39BF19DF87C
:1021F8000630002BCFD16B68E968E089C91A237CC7
:10220800002B40F2712303FB00F314BF06220722C0
:102218005B00534399422ED33E216089FFF7BAFEF3
:102228003E21D1E7B4F80A801B1A08F101081F44BF
:1022380041461648FEF376F1144942463846FEF305
:1022480069F1E289A08940F271235A4343431B0193
:1022580003EB42039E424FEA4201B4D2237C53B9B6
:102268002A6891420DD89DF805300133DBB2012B65
:102278008DF80530A7D801A800F08AF802B0BDE8AB
:10228800F0818DF80530F6E758910320E12200042B
:1022980038B50C4602F0DCFC02F074FB142205464B
:1022A8000021204614F0C0F92DB9FF2323724FF600
:1022B800FF73638138BD6B6823602B7823722B7F93
:1022C80063726B8863812B6A63602B8BA381AB8AF3
:1022D800E3816B782374EDE700B501388FB002A96C
:1022E80080B2FFF7D5FF9DF8100001A900F03AF879
:1022F80098B19DF81000FF280FD09DF8113063B9F0
:1023080007A90CF0D1FD9DF80630BDF81200002B8E
:1023180014BF08213E21FFF745FE0FB05DF804FB0E
:10232800430644BF20F04003013300F0FD024CBFD8
:10233800DBB20346802A07D0044903EB4303CA18DB
:10234800C854002393705370704700BF5C910320FA
:1023580010B504460EF00AF8236803F543435033DA
:10236800236010BD430642BF20F040000130C0B2D8
:10237800012809D800EB4000044B1A181B5A0B809F
:1023880093788B7001207047002070475C91032080
:1023980003785A0642BF23F040030133DBB2012B16
:1023A80010B507D803EB4303034A0488D452D11865
:1023B80083788B7010BD00BF5C910320FFF776BE59
:1023C800024BFF221A70DA70FFF772BE5C9103208D
:1023D80038B505460C460846FFF7BAFF6B88A38058
:1023E800002038BD00F16003DBB20F2B01D9FFF7E5
:1023F80097BF704770470000430610B544BF20F0F0
:102408004004013400F0FD034CBFE4B20446802BC5
:1024180009D0FFF78DFE044B04EB44041A19FF2181
:1024280019550023937010BD5C91032007B501A8CE
:10243800FFF78EFF019803B05DF804FB10B58CB070
:1024480002F0A0FA044605A900780CF02DFD60887A
:102458006946FFF71DFF05A96846FFF78FFE0CB018
:1024680010BD704708B5FDF30DF608B9002008BD8A
:10247800FDF30AF60028F9D00C20F8E710B5044659
:10248800FFF7F0FF10B9022C28BF122010BDFDF392
:10249800F3B538B50E230B80044600780D46FFF7D8
:1024A800EDFF28B929462046BDE83840FDF3DCB5E4
:1024B80038BD38B50E230B80044600780D46FFF76B
:1024C800DDFF28B929462046BDE83840FDF3CEB5E2
:1024D80038BDFDF3C1B5FDF3BDB5FDF3BFB570471C
:1024E8000120FFF7D4BF30B587B003283AD8DFE81A
:1024F80000F00A3735020821084600220DF04EFC8C
:10250800002007B030BD022000F0BEFC08B90F2142
:10251800F2E70024E5B228460DF098FBD0B1030796
:1025280018D0694628460DF09FFB1022002102A80A
:1025380014F07AF80223DDF802008DF80830BDF8AF
:1025480006300390ADF8103002A800238DF8123041
:10255800FFF748FC0134212CDCD1D8E70421CBE774
:102568000221C9E7FF20CCE770B50E4686B01546B4
:1025780003283DD8DFE800F0253936020024082377
:102588000122009230461A4629460DF08DFB064678
:1025980080BB012C12D10146102202A814F044F885
:1025A8002868039002238DF8083002A8AB888DF8BC
:1025B8001240ADF81030FFF715FC3446204606B03F
:1025C80070BD022000F060FC044648B120230022C0
:1025D800294630460DF046FAA0F1FF035C425C4103
:1025E8000123CDE700240423CAE700240223C7E718
:1025F800FF24E3E70724E1E770B50D4686B01646E9
:1026080003283CD8DFE800F02438350200240822EB
:1026180000232846009331460DF046FB054670BB63
:10262800012C12D10146102202A813F0FDFF3068D8
:10263800039002238DF8083002A8B388ADF8103053
:102648008DF81250FFF7CEFB2C46204606B070BD21
:10265800022000F019FC044648B12023002231462C
:1026680028460DF0FFF9B0F1FF0418BF01240F222E
:10267800CEE700240422CBE700240222C8E7FF2487
:10268800E3E70000F7B52F4B019305460C46FFF72B
:10269800FBFC0646002846D114F0FD0F2A4F01D056
:1026A800062C12D1397E19B1284A284609F048FE6D
:1026B800274A0621284609F043FE062C3DD8DFE8C4
:1026C80004F03512353C393C3500012C02D1FA1D95
:1026D8000621EAE7042CEBD197F839100029E7D056
:1026E80007F13A02E1E70C237A79920102F04001FE
:1026F800012C04F03F0242EA010220D1B979481EB8
:102708004142414142EA032343EAC1130DF1020267
:1027180002212846ADF8023009F012FE01AA042170
:10272800284609F00DFE304603B0F0BD3B7E063367
:10273800DBB2D9E797F83930F9E70023D4E700216D
:10274800E0E700BFD6BE898E649103207D91032007
:10275800BF91032010B5194A034692F85A0038BBB6
:102768001A79042A28D85979032925D8012921D882
:10277800012A01D0042A04D1997901291CD8012AF7
:102788000DD019885A88914216D8203989B243F653
:10279800E074A14210D8203A92B2A2420CD85A7BD7
:1027A800013A062A08D89B7B042B28BF122010BDAB
:1027B8000C20FCE71120FAE71220F8E764910320C7
:1027C800FFF7C8BF2DE9F047814D824A28798CB0C0
:1027D800FF238DF808308DF8103001920392FDF335
:1027E8006DF406462846FFF7B5FF6B79042B0446BF
:1027F80004D15CB120460CB0BDE8F087D907F8D504
:1028080000F0EEFA0028F4D11224F3E7012E08D1E3
:10281800714802F0D3F820B16F48FFF7F9FB0B2499
:10282800E8E769796D4800F0C1FA04460028E1D16B
:102838002B796B49012B04BF4FF006132B602B68D3
:1028480000930CBF0122002200236846FFF7C0FD59
:1028580004460028CED1012E18D9314601A8FFF729
:1028680011FF044628B3012E1FD8297995F859007D
:102878004B1E59425941002202F0C0FA95F85900FE
:1028880002F0AEF9FF2385F859300EE0554AA979D0
:10289800A2F1520002F06EF995F85930FF2B044668
:1028A80003D0002BD9D05A06D7D48020FFF7D9FD02
:1028B800A0E79EB1062E11D0012E1FD1464AA97954
:1028C8003046FFF751FEAB7B1BB101210220FFF719
:1028D80000FE00210220FFF700FE10E00121022087
:1028E800FFF7F7FD042103A8FFF7CCFE04460028F4
:1028F800E2D003A901A8FDF3E3F3B4E7E3D91C226E
:10290800002105A89DF80890DDF804A0BDF80C800A
:10291800BDF80E709DF8104013F086FE0322687B08
:102928000DF12701FDF3BEF32879FDF3C7F3AA8A59
:10293800CDF814A040F27123534308932B798DF8F6
:102948001890012B0BBF95F8683095F869308DF811
:1029580024308DF824300CBF00230F238DF8263047
:1029680001284FF000038DF82530ADF81A80ADF836
:102978001C708DF81E408DF82A3023D820238DF83E
:102988002A3028B99DF82A3043F008038DF82A30F8
:10299800A87BFDF391F38DF82B000BF0E9FB05A95B
:1029A80085F8380028690CF055FB044668B92B797E
:1029B800012B03D10C490D48FDF3AAF5012385F835
:1029C8005A3017E70628E3D1DCE7072491E700BF70
:1029D8006491032000000B016B910320BF91032039
:1029E80074910320BD910320BD008004008813006A
:1029F8002DE9F043334C94F85A3097B0064689468F
:102A08001746002B59D00022FF23207900928DF819
:102A1800043002928DF80C30FDF350F3012805467E
:102A280003D894F85930FF2B47D002A968460BF019
:102A380075FF02A96846FDF343F38020FFF711FDF7
:102A4800012D09D1204AA1792846FFF7D5FD00219B
:102A58000220FFF73EFD02E0F9D9062DF7D02379D1
:102A6800012B02D11948FDF357F54FF0000884F8FF
:102A78005A80B9F1000F10D04822414604A813F03B
:102A8800D3FD01238DF8103004A842F20A038DF813
:102A98001480ADF81230FFF7C4F9012D0DD894F861
:102AA80059003246394602F0A9F91EB994F859007E
:102AB80002F096F8FF2384F85930002017B0BDE8DB
:102AC800F08300BF649103206B910320BD00800454
:102AD80070B594B04C220446002101A813F0A4FD5F
:102AE80001A92046FDF302F30DF10E0001F066FF87
:102AF800304EA8B10DF10E00FFF78AFA96F85A3059
:102B0800002B51D0684635690DF030FC009BB18A26
:102B18002A469A420D44FBD328460BF0F3FE43E0C5
:102B2800079801F061FF0028E8D101A8FFF771FAC2
:102B38000028E3D0BDF828108B1F9BB240F67A42DC
:102B48009342DBD8BDF8260002F0D7FA0028D5D08A
:102B5800BDF828109DF8240002F0D4FA10B9082313
:102B68008DF82430BDF82A10B1F5FA7FC6D2BDF829
:102B78002820BDF82C00FDF3B1F20028BED09DF846
:102B88003330053B0B2BB9D8207909F045FC96F872
:102B98005A300F9043B10122002101A88DF841203D
:102BA8008DF84220FFF724FF21790020FFF762FA11
:102BB80014B070BD6491032038B5084B084C1C60F4
:102BC800054601200BF08CFE064B6B60CC2384F885
:102BD8006930662384F8683038BD00BFC4B003206C
:102BE80064910320D92A000470B50246184C30B30A
:102BF800002384F85A304FF0082300252360072368
:102C08006373A580A571A5730BF0B2FA114E84F811
:102C180038001F22294606F11200C4F80750B58073
:102C280013F002FD1F22294606F13300257613F022
:102C3800FBFCFF2384F8395084F8593070BD94F8B0
:102C48005A30002BD7D00146FFF7D2FED3E700BF9A
:102C5800649103206B91032010B5044606F0DAF95D
:102C6800204601F069FF204603F0EAF92046FFF705
:102C7800BBFF204600F07AF8204601F00BF820460A
:102C880001F044FB204601F035F9204600F05EFDD6
:102C9800204600F0E1FB204603F008FD2046FFF740
:102CA8001FFC2046FFF78CFB204604F0FBFE04F0D7
:102CB80038FF204605F00EFB204600F027FA204694
:102CC800BDE81040FEF770BF00B5ABB03822002158
:102CD80001A813F0A9FC01A8FEF74AFF06F0A2F923
:102CE80000F03AF801A801F017FF03F087F901A8EE
:102CF800FFF762FF00F08BFE01F006FB01A800F071
:102D08000BFD01A800F0A2FB01A803F0BEFCFFF731
:102D1800E6FB01A8FFF752FB04F002FF01A805F04B
:102D28001EFA00F0EDF901A80CF07AF80120FFF77F
:102D380093FF002001230FAA0E21ADF83E008DF865
:102D480040008DF83C30FFF789F82BB05DF804FBA4
:102D58000020FFF781BF0000034B4FF48270002171
:102D6800C3E90001704700BFD09103200A4B4FF020
:102D7800FF3041F6FF71C3E9020100220020002163
:102D8800C3E9040183F82A201F200021FC22C3E99B
:102D980006019A85704700BFD091032008B5FDF35E
:102DA80071F1002818BF0C2008BD0000032910B5D8
:102DB800034610D811F0FD0403D10BF0BDFB2046EB
:102DC80010BD064A92F82A1029B1506A1860128D6F
:102DD8009A800024F3E71224F1E700BFD091032082
:102DE800014B93F82A007047D0910320024A03460A
:102DF80003CA186059607047D0910320132830B572
:102E080029D0A0F10E03022B25D9592823D0FF2859
:102E180021D03F2812D8124AD2E90234451EC0F107
:102E28002101A0F1210223FA05F004FA01F1084377
:102E380024FA02F2104300F0010030BD40383F2868
:102E48000BD8074AC3B2D2E90404C3F12001A3F1A5
:102E58002002D840E9E70120EFE70020EDE700BFB6
:102E6800D0910320074A431E0120984030B5D2E98B
:102E78000613C5172B400840034314BF0120002048
:102E880030BD00BFD0910320431E01209840034B62
:102E98009B8D184214BF012000207047D091032059
:102EA8000E230B80037804495A1E012393408A8D10
:102EB80013438B8500207047D091032002780E239E
:102EC8000B8005490123013A03FA02F28B8D23EAAC
:102ED80002038B8500207047D091032008B50E238C
:102EE8000B80044B1B6A03B19847FFF731FF0020A2
:102EF80008BD00BFD09103201FB50E230C460B80E0
:102F080001A800F0B5F89DF804302373BDF8063029
:102F1800E3819DF808302374BDF80C306382BDF856
:102F28000A30A382002004B010BD000008B50B468B
:102F38000E2223F80C2B00214022184613F074FBB4
:102F4800064A034602F1280152F8040B43F8040B21
:102F58008A42F9D112881A80002008BDE56601046A
:102F68000B460E2223F80C2B0020C8605860602303
:102F78000B7470470E230B800120704708B5084674
:102F88000E2320F80C3B0BF0D7FA002008BD0000F8
:102F98000E2310B50B800446FFF700FF034638B92F
:102FA800044A20685062A1881185012182F82A10FC
:102FB800184610BDD091032008B50E230B800BF0E6
:102FC800C5FA002008BD0B460E2223F80C2B4FF043
:102FD800FF32CA6000201A7103234B74488270477D
:102FE80010B50C460E2224F80C2B034A0B4603CAD4
:102FF800D8606160002010BDD091032002460E23E6
:103008000B8000685168024B03C30020704700BF63
:10301800D891032002460E230B8000685168024BAA
:1030280003C30020704700BFE091032002460E232F
:103038000B8000685168024B03C30020704700BF33
:10304800E89103200E230B800120704708B508463D
:103058000E2321F80D3B0C300BF05CF8002008BD66
:103068000B20704740F25340704701207047000022
:10307800034B1A6802605A681B89426003817047D3
:1030880010670104044A138801339BB2B3F5706FCB
:1030980008BF002313807047009203207047000088
:1030A80010B5064C208802F065F818B92088FFF79B
:1030B800E9FF10BDFFF7E6FFF4E700BF0092032029
:1030C80030B59DB005460C4602F054F8A8B1284624
:1030D80001F0BEFD214602F076F86C22002101A81D
:1030E80013F0A2FA002001AA05218DF80400ADF81A
:1030F80006508DF80840FEF7B1FE1DB030BD000047
:103108000148FEF737BF00BF1C670104014B0022CE
:103118001A807047009203200F2310B504460B80D5
:10312800008802F027F828B1A1782088BDE810406F
:1031380002F02EB8022010BD10B504468EB0382219
:103148000021684613F070FA4FF484732078ADF8C4
:103158000030694603F01EF80EB010BD38B5094CB2
:10316800094D04EB800421462846FDF3DBF10028D5
:10317800F9D1064D21462846FDF3D4F10028F9D1AE
:1031880038BD00BF029203204131000421320004FF
:10319800F8B50D460446FFF7E1FFB5B35720FFF732
:1031A8002DFE90B3194E06EB840340F271255B881F
:1031B80020465D4302F00AF9074620462D0102F039
:1031C80013F9C0B1204602F00AF9431C7B430A22D6
:1031D8005A43954211D903EB8303E81A06EB84049A
:1031E80022460B49FDF396F1224628460949BDE8D7
:1031F800F840FDF38FB10123E8E703EB430303F540
:10320800FA639D42E9D80020E8E7F8BD029203205E
:10321800413100042132000410B504469CB0007806
:1032280001F04CFD01AAADF8040057210020FEF77B
:1032380015FE20780121FFF7ABFF1CB010BD000080
:1032480070B5094DEA88824206460BD00BF026FD80
:10325800044620B1AE220021DA20FEF7EDFBEE8015
:10326800204670BD0024FBE702920320F7B56F46A5
:1032780087E80600FF289DF80410064602D038B1FA
:10328800430605D4FF2003B0BDE8F040FEF7F2BEC8
:10329800BDF80030012B01D83046F4E7154C237AED
:1032A80003F0FF05B3B140F207220021DA20FEF750
:1032B800C3FB012504EBC505BB8800986B82237A04
:1032C800C5F80E004FF6FF702E7303B0BDE8F0404E
:1032D800FFF7B6BF637A237A237A2BB963891BB9C0
:1032E80005492846FDF314F1237A0133DBB2237232
:1032F800E0E700BF0292032005330004F0B5514C0B
:10330800678989B00023CDE90633002F3FD111F03A
:10331800B9FB237A03F0FF06002B3AD0627AD5B2C4
:1033280004EBC20206AB52F80C0F516803C3637A70
:103338000133DBB2012B637208BF6772267A013E44
:10334800F6B2267211F0AEFB012D20D0DDF81A007E
:10335800BDF81E30ADF80C3002AF029097E80300BC
:103368000490ADF81410384601A99DF81850FEF7DE
:1033780038FE9DF8043073B99DF80C102846FEF706
:1033880079FE6089E8B9F6B12F49FDF3C1F009B0BB
:10339800F0BD0125D6E7A2889DF805302A41D2075D
:1033A8004CD55A1E032A12D8284601F087FC3D2125
:1033B800FEF7F8FDE0E797E80C00284600F0FEFD70
:1033C800DFE7002EE3D10020FFF73AFFDFE7002B0D
:1033D800D2D0BDF812109DF80C0008F08FFFBDF890
:1033E800121000F0E3029DF80C0008F089FF04A910
:1033F800284604F062FB0028D6D101212846FFF7B1
:10340800C7FE9DF80520BDF81210BDF808309DF8DC
:103418000C00043A0131043BD2B289B2ADF808304D
:103428008DF8052008F06CFF9DF804100329C2D11F
:1034380097E80600284603F0C9F8A2E7002BF3D165
:103448009AE700BF0292032005330004014BC361D1
:10345800704700BF7532000438B50F4CFF23237046
:10346800002540F6B83300206380FFF777FEA5807B
:10347800E58011F007FB237AAB4207D8002363727B
:1034880063812372BDE8384011F00CBBA07C637ADD
:10349800013508F009FFEEE702920320014B03F81B
:1034A800200070470292032010B50446FFF756FE2D
:1034B800084B03EB840240F6B8315180012202FA2E
:1034C80004F19A8822EA01029A80FF2203F8242054
:1034D80010BD00BF02920320024B03EB8003588803
:1034E800704700BF02920320074A10B402EB800421
:1034F8009288618042FA00F3DB0703D510BC0121F2
:10350800FFF746BE10BC70470292032038B5044648
:1035180011F0B8FA074B1D7A5C81EDB211F0C2FACE
:1035280034B92DB120460449BDE83840FCF3F0B762
:1035380038BD00BF0292032005330004014BD88830
:10354800704700BF02920320436800781847FEF7CF
:1035580091BD0000F7B506460F4600F0B5FA0446DF
:1035680030460BF0ADFB2146012200F075FB01222D
:1035780005462146384600F06FFB0446304600F009
:103588003BFB164A0C23A54203FB062338BF2546FE
:10359800ACB29D6804F596746B1C044406D1104BBC
:1035A8001D681DB1137BB3B12C44002501A9304619
:1035B8000BF0D4FC304601F067FD034618B13046E5
:1035C80001F00DFF03462A46214630460BF0E4FC85
:1035D800019803B0F0BD1D46E8E700BF189203202C
:1035E8006490032008B5002000F032FA28B1BDE845
:1035F800084006210020FFF7ADBF08BD034A044973
:10360800137B002001331373FCF382B71892032055
:10361800ED350004034A0449137B0020013B137372
:10362800FCF376B718920320ED35000438B50A4D3F
:103638000C2303FB005304465B6863B10BF0B0FB3B
:1036480048B104EB440405EB84020449BDE8384062
:103658000020FCF35FB738BD1892032051350004F1
:1036680030B585B00446684680E806000DF10E02C4
:1036780002219DF8045008F07DFE9DF804102046B4
:10368800FEF7F8FCFF2C29D00CB1620626D5BDF850
:103698000E301B0A14D0144A0C2303FB04235A7857
:1036A80022B901225A70204601F0AEFDBDF80E3055
:1036B80003F00303032B13D12946204602F09CFF95
:1036C8000CB163060AD520460BF06AFB18B1062137
:1036D8002046FFF73FFF2046FFF7A8FF05B030BDA3
:1036E800204600F053FEEBE718920320094AD389DD
:1036F80073B900F087BE013043FA00F1C907FAD563
:103708000121814023EA0103C0B2D38102F09BBEAC
:103718000020F1E71892032008B5074B0362074B16
:10372800836207480DF02EFB06480DF031FB064B6F
:1037380000221A7308BD00BF69360004573500041B
:10374800053600041D36000418920320074B08496B
:10375800002241F2BA30C3E900221A82DA819A6063
:103768001A7008601A739A74704700BF1892032081
:1037780064900320084B997C0C2202FB003239B17B
:10378800002191600C2202FB003000234370704737
:103798004FF0FF31F5E700BF18920320012303FA29
:1037A80000F0054BC043DA8900B20240DA811A8A78
:1037B80010401882704700BF1892032037B50023C5
:1037C800009301294FF0FF0305460C468DF804309D
:1037D80005D10F4BDB8913B1FF2003B030BD28465C
:1037E8000BF004FB84B90028F6D06846FEF74CFCC1
:1037F80038B134B9064A012303FA05F0D3891843CE
:10380800D0819DF80400E8E70128EED8E4E700BF7E
:10381800189203207FB56D4685E8060004469DF89A
:1038280000608DF80B3003AA0023012128468DF88B
:1038380008308DF80C6008F083FD2F4B1B8A23415C
:10384800DB0751D5002E4FD09DF80B30012123F016
:103858001C03284603AA8DF80C3008F071FD294690
:10386800204604F027F910B1032004B070BD9DF87C
:103878000B20BDF802109DF8040008F041FDBDF8CA
:1038880002109DF80400321D0131D2B289B208F04D
:1038980037FDBDF800300433ADF8003003A92046E9
:1038A80001F0B0F803AA0421284608F049FDBDF844
:1038B80000102046FFF74EFE95E80600064602ABCC
:1038C80020460BF023FA0028CFD0204601F0DCFB7D
:1038D800034618B1204601F082FD03460022314616
:1038E80020460BF059FBBFE70DF10B0201212846DA
:1038F80008F026FDD2E700BF18920320034B0C22E4
:1039080002FB00335960FFF791BE00BF18920320F5
:1039180038B5094C094D0C2303FB0043002200EB8A
:1039280040005A6004EB800421462846FCF3FAF56F
:103938000028F9D138BD00BF189203205135000482
:1039480040F2712330B403FB01F403FB02F5B4EB3E
:10395800450F9CBFC1EB42014B4306494FF00C0297
:1039680002FB001288BF4FF0FF3330BC9360062182
:10397800FFF7F0BD18920320014B1860704700BF95
:1039880064900320014B9874704700BF189203207D
:10399800014B987C704700BF18920320024B0078B7
:1039A8005A7B197B03F087BD2C92032070B58EB02B
:1039B80004784688C58838220021684612F034FE0B
:1039C80040F2091369462046ADF80030ADF80460AE
:1039D800ADF8065002F0DEFB0EB070BD431E022BA0
:1039E80005D8012804D0022818BF052070470520F3
:1039F8007047431E022B06D8012806D0022814BFA0
:103A0800022001207047022070470020704708B547
:103A180001200AF06BFF01200AF06EFFBDE80840A4
:103A2800FF200BF0F9BA000070B5074D04461626C2
:103A380005F10E0100FB061106FB04540348FCF3D4
:103A480071F5FF23A37370BD2C920320B5390004D0
:103A5800044B162202FB0030807BFF3818BF012080
:103A6800704700BF2C920320044B162202FB003340
:103A7800188A5B8B984228BF184670472C920320FF
:103A8800044B162202FB0033988ADB8B984228BF2E
:103A9800184670472C920320044B162202FB003371
:103AA800588A1B8B984228BF184670472C920320CF
:103AB800044B162202FB0033D88A9B8B984228BFFE
:103AC800184670472C920320034B162202FB003045
:103AD80090F82000704700BF2C920320034B162259
:103AE80002FB003090F82100704700BF2C920320A1
:103AF800034B162202FB003090F82200704700BFEB
:103B08002C920320034B162202FB003090F823006E
:103B1800704700BF2C920320034B162202FB003093
:103B280080F82210704700BF2C920320034B162206
:103B380002FB003080F82310704700BF2C9203204E
:103B480073B50D461946002304468DF8063045B175
:103B5800144E2846FFF742FF162303FB046383F83D
:103B680020002AB10F48162303FB040383F8212001
:103B78002846FFF73EFF531E022B8DF804000DD890
:103B8800012A0DD0022A14BF0223012301A92046CD
:103B98008DF805300AF06EFF02B070BD0223F5E71C
:103BA8000023F3E72C920320014B1888704700BFCD
:103BB8002C920320014B1873704700BF2C920320EE
:103BC800014B5873704700BF2C9203201FB5094C56
:103BD80003466168206801AA03C2A06810605A1EE3
:103BE800032A9BBF04AA02EB4303002033F80C0C02
:103BF80004B010BD2E67010437B5154B162202FB21
:103C0800003393F82120DD8A5C8A188B511E012924
:103C1800998B104B88BF03228D4228BF0D468442E2
:103C280028BF044618681B798DF8043002AB13448A
:103C3800009013F8080C10FB04F084B21046FFF74C
:103C4800C5FF204480B2A84228BF284603B030BD33
:103C58002C9203202867010473B5054608460C46D4
:103C68001646FFF7B3FF0A4A0346106812798DF823
:103C7800042002AA1444009014F8082C12FB05F042
:103C8800034498B216B9A0EB820080B202B070BDAE
:103C98002867010438B501220B4CFB250023114687
:103CA80028466380A580FFF7D7FF0122E0801146F0
:103CB8001B202081FFF7D0FF40F20333A381FF23AD
:103CC80060812580A37338BD2C9203204B1E032BE3
:103CD80037B504460D4615D80846FFF777FFA042CA
:103CE80003460FD2084A106812798DF8042002AAF8
:103CF80015440090E01A15F8082C80B2B0FBF2F0D9
:103D080003B030BD0020FBE728670104431E022BE7
:103D180006D8012806D0022814BF022001207047C7
:103D28000220704700207047012802D0022818BFDF
:103D380004207047034B162202FB003090F8200045
:103D4800FFF7F2BF2C9203202DE9F843314DAB88E1
:103D5800B5F80090FB2B4FF0160606FB005428BF61
:103D6800FB23B9F1FB0F28BF4FF0FB0901220746DF
:103D78008846A07323821146A4F81290FB20FFF70F
:103D88006BFFEB88834228BF03460122A3821146BA
:103D98004846FFF761FF0122E0821B20114620837D
:103DA8006083FFF759FF84F82080A083E0834046B2
:103DB800FFF7BAFF2B7B84F822306B7B84F8210055
:103DC800014684F823303846FFF7B4FF17FB06F6A0
:103DD80006F1140405F10E0238B10138145D01230F
:103DE8008340D8B2234098420BD106F1150079B12F
:103DF8000123105C013903FA01F1CBB201408B4277
:103E080006D032440449BDE8F8430020FCF382B3ED
:103E1800BDE8F8832C920320A53900040138C0B20C
:103E2800704740F00300C0B2033818BF0120704744
:103E380048B10138C0B2022807D8032343FA00F07A
:103E480000F0010070470120704700207047000013
:103E5800064A002391880429D8B205D00133042BDF
:103E680002F58572F6D11846704700BF50920320BC
:103E780038B505460C46FFF7EBFF03280BD8064A72
:103E88004FF485734343D118D5528C7006330424FC
:103E98008C800021D15038BD5092032013B50246C2
:103EA8004FF485740748544301190023CB70A31DB0
:103EB800034400938B88005B897806F09BF802B076
:103EC80010BD00BF5092032010B50446FFF76CFEEA
:103ED800074B4FF4857202FB0434A388C3F1040333
:103EE800FF2894BF181803F1FF0080B210BD00BF6F
:103EF8005092032010B528B10A484FF4856200217A
:103F080012F092FB074B00224FF6FF7101240420A8
:103F18000132042A19809970DC70988003F5857342
:103F2800F6D110BD50920320044B03EBC0000023D0
:103F380080F82834C0F82C34704700BF5092032012
:103F480010B500F0BBFE094A01460023D478D8B268
:103F580014B114888C4205D00133042B02F5857204
:103F6800F4D110BDBDE81040FFF798BF5092032070
:103F780010B54FF48573104C584323184FF6FF7251
:103F8800225240F2FF125A8004229A8094F8303468
:103F98004BB1FFF75DFF032806D80020FFF7B6FAFC
:103FA800002384F8303410BDBDE8104040F271128F
:103FB8000021DD20FDF740BD509203202DE9F04F90
:103FC80087B00DF1080888E80C000546BDF808A080
:103FD8009DF80C908B46FFF73BFD20B949462846D3
:103FE800FEF748F80DE0464E284600F067FEEB0065
:103FF800019306EBC5030746D3F82C3423B12846B2
:10400800984707B0BDE8F08FFFF7CEFDFF2828BF1F
:10401800FF2080B28245E1D8BBF1020F04D0BBF18A
:10402800010F18BF4FF0FF0B354A0023D078DCB2E0
:1040380010B11088B84257D00133042B02F58572AD
:10404800F4D159463846FFF713FF0328044605D92B
:1040580040F2D7120021DD20FDF7EEFC98E80300BE
:104068004FF48577049067432046ADF81410FFF7A6
:104078002BFFBA1D37449DF81010BB88BDF810807F
:104088001A44324404A808F075F9BB889844A7F884
:104098000480FFF7DDFE04280AD14FF6FF70FFF712
:1040A80035FA012386F830342046FFF7F7FE08E09A
:1040B8002046FFF709FF07462846FFF7EDFC874231
:1040C800F2D349462846FDF7D5FF019B1E4496F8D2
:1040D8002834002B95D108220121284600F01CFE27
:1040E800012386F828348CE72046FFF7EDFE50457B
:1040F80002D3BBF1020FB1D12046FFF7CFFEA0E7F4
:104108005092032010B50446FFF71AFF074B03EB44
:10411800C40393F8281429B920460822BDE81040A2
:1041280000F0FABD002283F8282410BD5092032025
:104138000949142210B5424301F15004C0EB002094
:104148008B1820448850FF229A7100224FF6FF7185
:10415800DA739A60998110BD849603200428024678
:104168001EBF1248142303FB0203F0B518BF9D8934
:104178000E4B08BF4FF6FF7510460024E6B2B24258
:104188000DD09F798F420AD19F89AF4207D2B3F8E9
:104198000AE0B3F808C0E6453CBF3D463046013466
:1041A800042C03F11403E9D1F0BD00BF8496032069
:1041B80010B500230A4A19469479FF2C1CBF013315
:1041C800DBB2844201D1D47B44B90131042902F124
:1041D8001402F1D1181E18BF012010BD0020FCE701
:1041E8008496032038B5044600790D4608F05EF839
:1041F80020B101212846FFF7E1FA2071207908F063
:1042080055F820B94FF084732360012038BD002091
:10421800FCE700002DE9F74F3A4C142303FB004359
:104228000F465A89002A5ED19B7B13F0FD0F14BFFD
:104238004FF0010A4FF0020A4FF0140808FB00F88B
:1042480004EB080595F806B05846FFF70DFC8146C3
:104258005846FFF715FC06465846FFF735FC00227E
:1042680001463046FFF732FD6B892E8954F8082045
:10427800814528BF8146F61A1FFA89F08642A8BFF1
:1042880006464FF08473F1B23B60384608F058F8A0
:104298006B891FFA86F94B446B8154F8083013FA7E
:1042A80086F6002344F80860009397E80600A8798A
:1042B8005346FFF7AFFA0646CB46A879B6B16B89E5
:1042C800A3EB090954F80830A5F80A90A3EB0B03EF
:1042D80044F808303979FDF7CDFEFF2330463B71AD
:1042E80003B0BDE8F08F4FF0010AA5E700EB4000EE
:1042F800044494F84D34013384F84D342B7C013355
:104308002B74EAE7849603207047000070B50D4CC3
:10431800FF250126002084F84F54A4F85064FFF7C5
:1043280007FF3046FFF704FF0220FFF701FF0320D5
:10433800FFF7FEFE002384F84C5484F84D3484F8CB
:104348004E3470BD8496032013B50123ADF80200E6
:1043580018468DF80030ADF80430FDF727FC044608
:1043680020B90146EF22DE20FDF766FB2346132223
:1043780023F8042B0098BDF80420606020469A803A
:1043880002B0BDE81040FDF766BD000038B51C4B13
:1043980000EB40021A44014683F84F0492F84D049A
:1043A800013882F84D041C4600209A798A4217D1B8
:1043B800FF2915D01A899AB15D89954210D1142226
:1043C80002FB0042137C013BDBB21374BBB9948837
:1043D800C0B2FFF7ADFE2046BDE83840FFF7B4BFD6
:1043E8000130042803F11403DFD1FFF7B7FE0428D6
:1043F80005D0142303FB0040037C013B037438BD44
:10440800849603202DE9F341FF23984204468DF852
:10441800043020D1224C0026A046628923899A4282
:104428001FD30136042E04F11404F6D102B0BDE8FE
:10443800F08121460420FFF791FE03280546E9D8BC
:104448006846FFF7CFFE0028E4D069462846FFF704
:10445800E1FE0028DED12046FFF7AAFE0028E8D1B9
:10446800D8E7A27998F84F349A42DAD0A779384633
:10447800FFF79EFE0028D4D039460420FFF76EFED1
:1044880003280546CDD86846FFF7ACFE0028C8D0FB
:1044980069462846FFF7BEFE0028E7D0C1E700BFFF
:1044A800849603200078FFF7ADBF0000054B00EBB2
:1044B80040021344002283F84C0483F84D2483F807
:1044C8004E2470478496032030B4174B02464500AB
:1044D80000EB4000184490F84C44FF2C1C4621D0B7
:1044E80090F84E34E1B10133D8B2AB18234400211F
:1044F80083F84E040C4B9C79944203D1041E18BFD8
:104508000124DC730131042903F11403F3D148B900
:10451800064B074902EB420230BC1A44FBF3FAB7D8
:10452800013BE1E730BC704784960320D09A032012
:10453800AD440004F8B5114F044600263D46BB794A
:10454800A34202D1F0B2FFF7F3FD0136042E07F1C2
:104558001407F4D195F84F34A34204EB44042C44D7
:1045680004BFFF2385F84F34002384F84D3484F8C2
:104578004E34FF2384F84C34F8BD00BF84960320E2
:104588002DE9F04FC0F30B0A9FB006465046894606
:10459800934600F05DFBFF28074605D15046FFF71C
:1045A800D3FE1FB0BDE8F08FFFF752FA0028F5D010
:1045B800DFF84C810025434644469A79FF2A43D0C8
:1045C8000135042D03F11403F7D1012303AA1A219D
:1045D80000208DF80C30FDF741FCE2E716F4405F4F
:1045E80001BF142303FB05440823A373D6E7012363
:1045F800A4F8503482468B46C446914604210026CE
:104608009CF806E0BEF1FF0F07D0BCF80CE0D645D9
:1046180003D9CE453CBFF1B2F1460136042E0CF168
:10462800140CEDD1042904D100283FD0A4F850344B
:104638003CE00BFB01410120B1F80CA08B81013358
:104648009BB2052BD8D1F1E7B9F1000FC6D01420E1
:10465800684323184A46594620580193FCF752FFED
:10466800019BB4F85024A3F80890A3F804A09B7BFE
:104678001421082B01FB054314BFC6F3013600269D
:104688009E7307EB47062644002096F84E649A81ED
:10469800361A18BF012601329F711874DE7392B260
:1046A8004FF6FF739A42A2D0A4F850245FFA85F817
:1046B80039464046FFF752FDA8427FF472AF1423F3
:1046C80003FB0544628923899A42BFF46AAFA6793D
:1046D8003046FFF76DFD00283FF463AF01213046F7
:1046E800FFF76CF88DF8100007F0E0FD00287FF464
:1046F80058AF03A94046FFF78DFD0028E2D050E7E8
:104708008496032082B0FF23ADF8043004238DF88B
:1047180006300E230B80019BCB60002002B070474F
:1047280070B530220F4CA02616FB0022054600214A
:10473800A018A15006FB0546818096F82D00FF2899
:1047480004D0FDF7ABFBFF2386F82D30A0204543AE
:104758006319FF2262554FF6FF725A80002283F8D0
:10476800982070BDD89A032010B5044690F82C0004
:104778006378003818BF012004F1300143B10123E8
:104788000822FDF7A8FE2078BDE81040FFF7C8BF53
:1047980001230222F5E7000010B58EB0A8B1047815
:1047A8000B4AA02303FB042393F89830022B0CD167
:1047B80000213822684611F037FF4FF482736946AA
:1047C8002046ADF8003001F0E5FC0EB010BD00BF8A
:1047D800D89A032038B50546846B90F83D1000221E
:1047E8002220FFF739FA6A8C40F27123534304F20E
:1047F800E24404EB4304204438BD000070B504468D
:104808000D4649B100780AF0F9F928B140F2CB22F7
:104818000021E020FDF710F96378114EA3B935B1F6
:1048280094F82E000AF006F8FF2384F82E3096F844
:10483800A030013B86F8A03065B122460949BDE8A1
:1048480070400020FBF366B696F8A130013B86F86D
:10485800A130F1E72046BDE87040FFF785BF00BFF3
:10486800D89A03207147000438B51B4C2578FF2DD2
:1048780001D0002038BD0220FDF798F9FDF7E4F9D2
:10488800FF2884F82D00F4D0042284F82C20134A41
:10489800E26100234FF6FF724FF0FF304FF0FF3117
:1048A800C4E9093323706280636023612363A386AC
:1048B8002367A4F874304FF4407284F8533003230C
:1048C800C4E90201C4E9240184F87A50E28684F834
:1048D80054302046CEE700BFD89A032000010126B5
:1048E8002DE9F8430C46154600218046442220460F
:1048F8009946089F11F098FE40F299132380AB8CDB
:1049080040F271225A43002652006260267295F8DE
:104918002F306372AB69E360EB6923610A9B6361C3
:10492800174B84F80A90B3F8A4302383BDF82430D9
:1049380063834FF080732362E66184F8246084F80F
:104948002860E684FEF7FAFD98F80030C4E90D7790
:10495800184100F0010084F8290095F83D00FFF7A0
:10496800E3F9A969FDF700FBA68784F83E0095F8EE
:104978003D00FFF753FA84F84100BDE8F88300BF13
:10498800D89A0320FF28024613D010B110F0400037
:1049980010D0A02308495343CB5CFF2B09D013B197
:1049A80013F0400006D022F04002A02000FB0210C5
:1049B80070470020704700BFD89A032010B5094CF3
:1049C8002378FF2B0BD0062204F1300111F0FCFDF7
:1049D80028B994F89800831E5842584110BD002009
:1049E800FCE700BFD89A0320054B1A78FF2A04D0A9
:1049F8005B681B1A5842584170470020704700BF37
:104A0800D89A0320034BA02202FB003043680B60B6
:104A1800704700BFD89A032038B50D461446FFF7F3
:104A2800B1FF50B190F82C30003B18BF01232B7018
:104A380050F8303F23608388A38038BD10B50B68D9
:104A480003600B790371044625220021053011F01B
:104A5800EBFD002384F82A30DA08D8B2A15CA0EB79
:104A6800C202D2B241FA02F2D20706D594F82A203D
:104A7800A1180132487184F82A200133252BEBD183
:104A880010BD000010B58EB009F096FE094B83F8F2
:104A9800A2004FF0FF330446019301A91F2303A886
:104AA8008DF80830FFF7CAFF03A9204609F0CAFEAF
:104AB8000EB010BDD89A0320064B1A78FF2A07D0EB
:104AC8005B88C0F30B00834214BF022000207047AC
:104AD80002207047D89A032010B58CB00C46FFF717
:104AE80051FF437863B1084B93F8A20001A909F07C
:104AF800CFFE01989DF80830206023710CB010BDDE
:104B080090F82E00F2E700BFD89A0320014BA3F8D3
:104B1800A4007047D89A0320064BFF22002183F88F
:104B2800A22083F8A01083F8A1101A7083F82D2012
:104B3800704700BFD89A032010B50D4C94F8A20016
:104B4800FF2804D009F076FEFF2384F8A2302378EA
:104B58003BB994F89830022B03D105480121FFF79F
:104B68004DFEFFF78FFF0323A4F8A43010BD00BF4C
:104B7800D89A03202DE9F843DFF8608098F8A05010
:104B8800FF2307468946164613701DBBFFF76CFEC8
:104B9800044608B345703B680363BB8883864FF6B9
:104BA800FF73A0F88C3080F82C90FEF7F1FE98F88F
:104BB800A030B0FA80F00133400988F8A030012312
:104BC80084F8983040422378A4F88E003370284641
:104BD800BDE8F8830925FAE70725F8E7D89A0320FE
:104BE80008B5FFF7CFFE20B1BDE808400021FFF768
:104BF80005BE08BD024BA02202FB0030407870477A
:104C0800D89A0320A023034A4343D35C1B1A584273
:104C180058417047D89A0320FF28034613D010B193
:104C280010F0400010D0A02208495A4388188A5C26
:104C38009A4206D190F89800831E58425841C0B253
:104C480070470020FBE70020704700BFD89A032078
:104C5800044B5A88C0F30B0082420CBF1878FF201F
:104C6800704700BFD89A0320F8B50C46FFF7F0FF4D
:104C7800FFF788FE0346F0B1272C1CD8042C18D067
:104C8800012202FA04F1D0E90202CF1701EA000476
:104C980007EA020554EA05020DD0587C022807D01D
:104CA800D3E9242311403B400B4314BF01200020CB
:104CB800F8BD0220FCE70020FAE7000010B9034B1A
:104CC800588870474FF6FF70704700BFD89A032086
:104CD80038B5074C054694F8A20009F083FD18B1D1
:104CE80094F8A20009F0A6FD84F8A25038BD00BFD0
:104CF800D89A032038B50C460546FFF743FE43789B
:104D0800C48243B990F82F302BB921462846BDE814
:104D180038400AF09DB838BD70B50E461546FFF705
:104D280031FE4378044683B990F82F1005EA010351
:104D380066B153B921B9C38A13B100780AF088F86B
:104D480094F82F10294384F82F1070BD002BFCD045
:104D580021EA050180F82F100029F6D1C18A00291F
:104D6800F3D0BDE8704000780AF072B870B58B8C4B
:104D78008382CB8CC3820B8D0383002380F82F3072
:104D880043780262164604460D4600F130026BB3C2
:104D98000B4653F8101F01639B889380EB7884F8C7
:104DA8002C30012211462078FFF7B6FF20783146D3
:104DB800FDF78EF995F83D102078FEF7C5FF2078AD
:104DC800FFF774FB2078FEF7D5FC2078FFF7ACF8E6
:104DD8002078FEF763FB207801F03EF9A28AB4F848
:104DE8008E102078BDE87040FEF7AABD0B4653F838
:104DF8000A1F01639B889380AB78D0E72DE9F04FB9
:104E08001446A7B0142207460E460DEB02000021F7
:104E180011F00AFC3846FFF7B5FD0546002C00F0F6
:104E28000E81024696490020FBF374F3FDF7A8F8BB
:104E38006B7868803846002B00F0A780FFF7A2FD4A
:104E4800A3694360B4F84230A0F88830B4F844301D
:104E5800A0F88A30B4F84630A0F88C30B4F848305E
:104E6800A0F88E3080462046FFF7B4FC94F83C301A
:104E78008146002B00F082803846FDF7D7FA40F2D1
:104E8800712A064649463046FDF7DDF800286FD1FD
:104E98007C4B93F8A20001F0A1FD00220346CDE966
:104EA800012215A9224640460096FFF719FD94F8FD
:104EB8003C308DF8933015AA314638460AF06AFA24
:104EC800324621464046FFF751FF022385F89830C5
:104ED80000238DF814306B786A88ADF81620002B03
:104EE8000CBF012300238DF818300BBFA378E3789B
:104EF80004F10A0204F11002003B18BF01238DF8E7
:104F080019301368CDF81A309388ADF81E30238D08
:104F1800626AADF8243094F8303008928DF8263063
:104F280095F82D00FCF7BEFE044628B9014640F26C
:104F38005F62E020FCF780FD3E232380012323717C
:104F480004F1080205AB09AF1E4603CEBE4210604D
:104F58005160334602F10802F6D1306810602046ED
:104F6800FCF779FFFF2385F82D3027B0BDE8F08FD7
:104F7800A38C0AFB03F306EB430683E794F820604F
:104F880040F2712000FB069682E7FFF7FBFC06461D
:104F980094F83000FBF3A4F080460EF059FE40442C
:104FA80070832046FFF716FC628C94F8209040F23C
:104FB800712303FB09F95343728B5B004FF47A7139
:104FC8004FEA490B03F2E243B3FBF1F303FB02237D
:104FD800B3FBF1F308330BEB430B814409F0ECFB13
:104FE80004F12A0182460AA8FFF728FD0AA95046BB
:104FF80009F028FC86F82EA0A3697360A9EB5B0969
:105008005346224615A93046CDE9018BCDF80090CC
:10501800FFF766FC15AA494638460AF087F9B38AAD
:10502800A18C3078A6F88830A6F88A304FF6FF723F
:105038004B46FDF7D7F94A462146304643E7034633
:1050480053F8302FCDF81A209B88ADF81E3090F811
:105058002C308DF81930042380F82C30437880F8F0
:105068009840002B0CBF3C2202228DF81420002E01
:105078003FF47BAFB3FA83F35B098DF818304FE741
:10508800A1470004D89A032008B5FFF77BFC20B19C
:1050980090F82F00B0FA80F0400908BD70B50E46B0
:1050A8001C461546FFF76EFC838AB34207D1C38AB4
:1050B800AB4204D1008B031B5842584170BD0020FD
:1050C800FCE770B50E4614461D46FBF305F008B91B
:1050D800002070BDB4F5FA7FFAD232462146284640
:1050E800FAF3FCF70028F3D0BDF81000BDF814302F
:1050F80098428CBF00200120EBE788428CBF00203B
:105108000120704709299ABF01F1FF31C9B208216E
:1051180018B1814234BF0020012070472DE9F041C9
:1051280090461D460E46FFF72DFC069F08EB05042A
:105138004FF47A72B4FBF2F3448B05EB570003FB90
:1051480004444044079BB4FBF2F4083407EB4404DE
:1051580030441C60A0EB5400BDE8F08108B5FCF7B2
:105168009FFE0146C0B2FFF73FFC0028F7D1084672
:1051780008BD0000054B1A78FF2A04D05B881B1A6B
:105188005842584170470020704700BFD89A032002
:1051980030B58FB00D46FFF75BFDFFF7F3FB017FDE
:1051A800044671B93822684611F03EFA06238DF894
:1051B80000308DF804502078694600F0EBFF0FB0FE
:1051C80030BD0020FBE738B5FFF7DCFB01250446BE
:1051D80005770078FFF7AEF92078FEF7DFFA207838
:1051E800FEF7AEFE2078FEF75FF92078FEF71CFC8C
:1051F8002078FDF701F9207800F038FF294620468D
:10520800BDE83840FFF7FABA01220021FFF784BD54
:1052180030B505880F238FB00B802846FFF74CFC6C
:10522800044690B92846FFF713FDFFF7ABFB21466C
:1052380005463822684611F0F7F905238DF8003045
:105248002878694600F0A6FF044620460FB030BD16
:1052580030B505880F238FB00B802846FFF72CFC4C
:10526800044690B92846FFF7F3FCFFF78BFB21466D
:1052780005463822684611F0D7F904238DF8003026
:105288002878694600F086FF044620460FB030BDF6
:1052980038B50D4601880E232B800846FFF70CFC15
:1052A800044628B90846FFF7D3FCFEF715F9E8814C
:1052B800204638BD0E2370B50B8001880546084688
:1052C800FFF7FAFB0446D0B96E88D6B10846FFF757
:1052D800BFFC0546FFF756FB818A40F2712303FBAA
:1052E80006F24B43C18A5B0001FB0333B3EB021F99
:1052F80007D831462846FEF7F7F8204670BD022445
:10530800FBE71224F9E773B50D4601880E2306461C
:105318002B800846FFF7D0FBC1F30B01A981044697
:1053280030B9B378012B0FD82BB908F021FFA87337
:10533800204602B070BD0DF106000DF1070108F01E
:10534800E9FE9DF90700F2E71224F1E710B5048899
:105358000E230B802046FFF7AFFB20B9C4F30B04E4
:105368007F238C818B7310BD38B505880E230B8085
:105378002846FFF7A1FB044640B9C5F30B038B8110
:105388002846FFF765FC0E31FFF7A6FB204638BD1F
:1053980010B50E230B800C46FFF7E0FEE0600020FE
:1053A80010BD10B50E230B8004460088FFF750FC93
:1053B800A1781022FFF7B0FC002010BD08B50E231D
:1053C80000780B80FEF7DEFA002008BD08B5FFF76D
:1053D800D9FA838A40F271205843400008BD08B5C5
:1053E800FFF7D0FAC08A08BD08B5FFF7CBFA4078B6
:1053F80008BD08B54388022B07D1436818880E23D7
:105408000B80FFF783FB002008BD1220FCE710B5D6
:1054180004780A2C02460B460DD0A4F11301C8B239
:10542800082827D8082925D8DFE801F00F172424F1
:1054380024241E240900BDE8104002F027BFBDE85F
:1054480010401946104602F02BBF52680E211980F1
:105458001068FEF791FA002010BD52680E211980DD
:10546800107810F015FAF6E7BDE810401946104616
:10547800FFF7BFBF0E221A801120EDE70346007820
:105488000E22032810B50A8011D85C7848B101288B
:1054980007D0022805D00020FBF32AF0002420467C
:1054A80010BD0EF0ADFB002CF9D00120F4E712245A
:1054B800F5E7034630B1807820B15868003818BF46
:1054C800012070477047000038B50B4C0146002298
:1054D80004EBC2035D682846FFF7EBFF30B16B6849
:1054E8001B788B4202D114F8320038BD0132062AEB
:1054F800EED11120F9E700BF809B0320C37C013B5C
:10550800DBB20146C37413B90148FBF30BB0704713
:105518009F5D0004102B2DE9F84F074688469146F9
:105528009A466FD890F800C0374D1C2303FB0C53E4
:10553800052493F84A6093F84B20CCEBCC0C0CEB89
:10554800060305EB8303052AD3F84CB05AD0BBF108
:10555800000F4FD15A461021E12007F03BF80446CE
:105568002A4B38786360FF23607084F8039084F8CE
:10557800028084F800A0C4F80CB02381B8F1000FB1
:105588002FD0C0EBC0031E441C2303FB005305EBC4
:10559800860693F84B30F4641BB902220121FFF709
:1055A800BBFB3A781C2101FB025301FB025593F81F
:1055B8004B00013083F84B0093F84A301448032B12
:1055C8009ABF0133DBB2002385F84A303946FAF333
:1055D800ABF718B90E493A46FAF39CF72046BDE8EE
:1055E800F88F1C2303FB005504222C660121FFF7CA
:1055F80093FBF3E7032E9ABF0136F6B20026013C6F
:105608009DD1EBE70024E9E7809B0320002626FFD5
:10561800C964000410B4084B027893F830409442EF
:1056280008D15A6BD2E90032002908BF13460BB1E2
:1056380010BC184710BC7047809B032010280CD85A
:10564800074A002312F83310814203D102EBC30347
:10565800586870470133062BF4D10020704700BF0B
:10566800809B032010B504460846FFF7E7FF637CDC
:10567800022B02D003789B070DD4D0E9020150EA2F
:1056880001030AD0D4E9242302400B40134314BF7A
:105698000120002010BD0020FCE70120FAE770B5CA
:1056A800054608780C46FFF7C9FF436923B1214630
:1056B8002846BDE870401847184670BD70B50546C5
:1056C80008780C461646FFF7B9FF036A2BB1324635
:1056D80021462846BDE870401847184670BD102876
:1056E80008B505D8FFF7AAFF007800F0010008BD4B
:1056F8000020FCE7F8B5124F0546002207EBC2036D
:105708005E683046FFF7D5FE20B196F802C0002348
:10571800634504D30132062AF0D10020F8BD706831
:1057280003EB430400EB040E005DA84205D19EF88C
:1057380002301942EED12420F0E70133E8E700BF38
:10574800809B032010B5044608460021FEF736F872
:10575800207106F0ABFD10B94FF08473236010BDC3
:105768002DE9F843254E03781C2202FB0362074605
:1057780092F84B1019B900242046BDE8F88392F836
:105788004950C3EBC3032B4406EB83034FF00008D7
:10579800DC6C002CEFD0B8F1050FECD02379DB07D7
:1057A8000CD5032D08F1010825D900253B78C3EB5A
:1057B800C3032B4406EB8303DC6CEAE76078FFF74E
:1057C800E1F8436A3BB9D0F82890B9F1000FD3D07B
:1057D800B8F1000F03D02378062BE2D1CCE720786C
:1057E800FFF77DFF0028C7D099F80000FFF777FF83
:1057F8000028D6D1C0E70135EDB2D7E7809B03205A
:1058080010B50446FFF7ACFF78B1227807491C248D
:1058180004FB021304FB021293F84930032B9ABFCE
:105828000133DBB2002382F8493010BD809B03208E
:105838002DE9F04105464078FFF7A4F86B7A044655
:1058480023B1E86806F0C8FE00236B72A36A184FFC
:105858009D424FF000060DD12378A6621C2505FB5A
:105868000373186E06F0B8FE237805FB03773E66CF
:10587800BDE8F081636A9D4208BF66620026B046B3
:105888002378C3EBC303334407EB8303DB6C9D42EC
:105898000AD1284606F0A0FE2378C3EBC30333449D
:1058A80007EB8303C3F84C800136052EE8D1DFE708
:1058B800809B0320FFF7BCBFF8B505460C4612B124
:1058C8000846FFF71BFE636A2078AB4273D13F4E50
:1058D8001C2202FB006292F84B100139C9B282F80F
:1058E8004B1011B90222FFF717FA03F0A5FB48B9CC
:1058F80023781C2202FB036393F84B30022B01D858
:1059080003F0C6FB32482146FAF30EF658B923785D
:105918002E4A1C2101FB032393F84B301BB12C4961
:105928002246FAF3F7F52B7AFF2B04BF00232B72DC
:105938002B795B0706D52078FDF7EAFF2B7923F052
:1059480004032B712B7A2E781A2B13D13046FFF7CC
:1059580075FE042ED0E9027104D16378002B04BFD0
:1059680008270021D4E9242322EA070223EA0103B5
:10597800C4E924233046FFF761FE036B43B12A795B
:1059880012F0420F0CBF01220022294620469847F8
:1059980000212846FFF73EFE237F8BB1636AAB42A6
:1059A8000ED12B78062B0BD12A460A49BDE8F840C0
:1059B8000020FAF3AFB504220021FFF7ADF9A1E703
:1059C8002846BDE8F840FFF733BF00BF809B03209F
:1059D800C9640004BD5800042DE9F84F0F46FEF7CE
:1059E800D1FF0446002800F094800378FF2B00F0D4
:1059F800908013B15B0640F18C80D4E9090530B181
:105A0800037AFF2B7ED000222146FFF755FF6DB1A8
:105A18002B7AFF2B05D12A232B722B7943F04003D5
:105A28002B71002221462846FFF746FFDFF8F48055
:105A3800DFF8F490002546462378C3EBC3032B44D4
:105A480008EB8303D96C00293CD06FB14846FAF3C0
:105A58006BF548B12378C3EBC3032B4408EB8303EE
:105A68004846D96CFAF35EF52378C3EBC3032B449D
:105A780006EB83034846D96CFAF356F5824608BB11
:105A88002378C3EBC3032B4406EB8303D3F84CB052
:105A98009BF809302BB1DBF80C0006F09DFD8BF864
:105AA80009A02378C3EBC3032B4406EB8303D86C0C
:105AB80006F092FD2378C3EBC3032B4406EB830364
:105AC8000022DA640135052DB6D123781248134D2A
:105AD8001C2202FB03660023B3642146FAF322F575
:105AE80021462846FAF31EF50028F9D10C4D214627
:105AF8002846FAF317F50028F9D12046BDE8F84FF3
:105B080001F03ABE2A230372037943F0400303717C
:105B180079E7BDE8F88F00BF9F5D0004C964000401
:105B280005640004809B0320BD5800042DE9F04360
:105B3800436A85B005460C461646002B56D0994256
:105B480054D1437F002B4ED00DF1080829784046E8
:105B5800FFF7F8FD9DF80C0006F0A8FB07460028A3
:105B680041D13246404612F8021B06F0E9FB3CB12F
:105B78009DF80C00BDF80A10E07106F0BFFBA0719B
:105B88004FF00009CDF8009098E806002878032324
:105B9800FDF740FE86F800902CB329461948FAF321
:105BA800C1F4184918482A46FAF3B4F4A679112E14
:105BB80003D8164BF340DB071AD42078FFF73EFDD5
:105BC800836ACBB91E466379262B03D12846FFF793
:105BD80095FC0127032E06D187F00102D2B229468F
:105BE8002046FFF769FE05B0BDE8F083AB7FA9E763
:105BF800262363710326E6E732462146284698475E
:105C08000646E0E79F5D0004005A62028020020019
:105C1800F0B587B0252A05460E461F468DF80F2099
:105C280043D890F836401CB190F853301BBB012480
:105C38001D2303FB0454363407BB30788DF81770E6
:105C4800FFF7FCFC876947B1E31C00930DF10F02D5
:105C58000DF1170331462846B8479DF80F30A37059
:105C68009DF8173022780133134423706B6AB342CE
:105C78001DD1002313E000F13604DDE72078A2707F
:105C88000130C0B2207002303A460C992044FBF72C
:105C980039FC227817442770002EE7D1022363705D
:105CA800224631462846FFF741FF07B0F0BDAB6AF0
:105CB800B342F5D10123F2E7F0B50D4685B017469A
:105CC8001E46044670B900210D2204AB0B44204641
:105CD80003F8046C03AB00934B1C2946FFF798FFAD
:105CE80005B0F0BD40880221FEF7BEFF022806D0AD
:105CF800002DE8D02B78072B01D00A2BE3D18DF8A3
:105D08000C7001211122E0E72DE9F3414478C77FA7
:105D1800002C05460CBF012102213846FFF7EAFC9A
:105D28000346D0B924B36B6A13B31C782046FFF737
:105D3800D6FCE8B13846FFF7C7FB4FF00608064621
:105D4800102E12D83046FFF7CAFC70B1072E00D1CA
:105D5800FCB1B4420CBF23232A23252F0CD83A4682
:105D680000212846FFF7A8FF0FE0B8F10108E7D1A6
:105D7800252F01D8012009E005F11F030093072210
:105D8800012300212846FFF743FF002002B0BDE8A9
:105D9800F0812323E1E738B50446B0B1D0E909051D
:105DA80028B12223037201222146FFF785FD35B170
:105DB80022232B72012221462846FFF77DFD6088A9
:105DC8002221BDE83840FCF7EDB838BD022A10B5ED
:105DD80003460C4612D1426A12B11279510708D40F
:105DE8009A6A12B11279520703D40E491878FDF74E
:105DF80085FD237943F00403237110BD012A08D1DE
:105E08008B79262B01D1FFF779FB237923F0010346
:105E1800F2E7032AF1D1014601222046BDE81040ED
:105E2800FFF74ABDE96000042DE9FF419846437831
:105E380005460C461646D3B1837FD3B9022E1FD12F
:105E4800236803F0FF13062B18D0012362792B7700
:105E58002A2323722379263A43F04003237118BF7B
:105E6800012229462046FFF727FD002685E0437FCB
:105E7800E3E72846FFF748FF0028DFD101267CE04A
:105E88006779262FF1D02078FFF7D8FBB74238D1B1
:105E9800C7697FB9324621462846FFF70FFC94F8B8
:105EA8000680B8F1260F07464FD12846FFF726FB94
:105EB800012653E03346424621462846B84704287F
:105EC8000AD1237943F0200323713246237A2146ED
:105ED8002846FFF7F1FED1E705280FD123798DF881
:105EE8000F6043F0200323710DF10F030093072285
:105EF800012321462846FFF78BFEBFE70128BDD0C6
:105F0800C8E7476A2FB14346324621462846B84774
:105F180007466E7806B3AB7F3B4313F0FF0330D1DF
:105F2800B8F800200132A8F80020B8F80220013A99
:105F3800A8F80220D8F80020C5F87620B8F8042080
:105F4800A5F87A200A9A137098E70328ADD001289B
:105F58001BD0012688B909E04FF02608012F14D07C
:105F6800032F17D04FB9B8F1260F06D0002300939E
:105F7800424621462846FFF74BFE304604B0BDE8AE
:105F8800F0814FF026080026E8E7237923F0010383
:105F9800237173E786F0010229462046FFF78CFC3F
:105FA8006CE770B5044640780E46FEF7EBFCE379E3
:105FB800B342054620D12078FFF740FBC36A1BB9DE
:105FC800FF23E37101200BE0A27921462846984778
:105FD800FF230128E37104D1237923F001032371FE
:105FE80070BD0328EED16279263A18BF01222946EE
:105FF8002046FFF761FCE5E70020F1E70F4810B500
:1060080000240346112221460134072C80F8382049
:1060180080F8391000F10200F6D11A701A721A7459
:106028001A7683F8202083F8282083F83020C3E9E3
:106038001311C3E915115963D96510BD809B03205D
:1060480008B501210020FFF7C7FC024B002283F8A6
:10605800482008BD809B0320034B1C2202FB003014
:10606800012380F848307047809B03200021FFF708
:10607800B3BC000010B5084A002312F83340112CB5
:1060880005D102F8330002EBC303596010BD013398
:10609800062BF2D1FAE700BF809B032010B5094A0E
:1060A800002302EB430494F83840112C06D11C332A
:1060B80002F8130002EB4303597010BD0133072B9C
:1060C800EFD1FAE7809B032013B500230C46009319
:1060D800FFF79EFD237943F00103237102B010BD41
:1060E80070B5FEF74FFC04460078FDF711FC656AB1
:1060F8009DB195F9046071070FD52878FFF79EFACE
:1061080026F004062E710246FFF7D3F9A0B15368B2
:106118001A7829462046FFF7D7FFA16A71B191F98D
:1061280004305A070AD523F004030B7120468A79F4
:10613800BDE87040FFF7C8BF2622EAE770BDD0E986
:106148000920002918BF1046704710B50C46FEF705
:106158007FFDFEF717FC0146D0E9090300229442AF
:1061680008BF1846BDE81040FFF7A6BB70B5064645
:106178001546E12000220C4606F02CFA2246F06073
:1061880029461DB910F050FA747270BDFBF7BAF9C0
:10619800FAE7000070B50C46FEF7F4FB26783146A6
:1061A8000546FFF75FFA40B36978174B002293F86A
:1061B8003800B04203D193F8390088421FD0013229
:1061C800072A03F10203F2D13046FFF737FA0369D1
:1061D800064663B92378627801212846FFF79AF9C1
:1061E80078B1717839B1221DFFF7C0FF03E0284666
:1061F80098470328EED1002070BD1A20FCE70C2038
:10620800FAE70720F8E700BF809B03202DE9F0415B
:1062180088B002AD85E806000446002800F0DC805E
:10622800744E03781C2202FB036393F84830002B5A
:1062380000F0D280BDF80830002B00F0CD8000F1CE
:106248001F020121284606F095F895E8030001236E
:10625800E27FADF81C1006908DF81630C5B200210B
:1062680006EBC1035F683846FFF723F928B197F8B2
:1062780002C07B68002060451AD301310629EFD19E
:10628800237F13B1022A40F0A780616AD1B1637FEE
:106298001BB9A36A0BB1072A14D10DF11603009399
:1062A800204606ABFFF7C0FD60B19DF8160094E0EC
:1062B8001F78974203D15F78AF4240F09180013058
:1062C8000333D8E7A16A49B10DF116030093E27FC1
:1062D80006AB2046FFF7A8FD0028E6D12046E67F5A
:1062E800FFF712FD0028E0D0112E03D8424BF340EF
:1062F800DB07DAD4A76A37B1E27F242300212046DE
:10630800FFF7DAFCD1E73046FFF7DEF80122034653
:1063180039462046FFF7FEF80546A062002858D007
