:020000040400F6
:1000100000000000000000000000000014000400C8
:10002000815C3A6900000000000000000000000050
:1000300000000000000000000000000000000000C0
:1000400000000000000000000000000000000000B0
:1000500000070000000000000078E202000000003D
:100060000000000000000000000000000000000090
:100070000000000000000000000000000000000080
:1008000058D104201CB30320BC8206040000000061
:1008100000000000E4860604FCD10420C5D10420B9
:1008400046F4F8BBFFF304BC53F428BA53F463BA7C
:1008500053F4A9BAFFF3FEBBFFF3FEBB53F416BA81
:1008600053F412BA53F414BAFFF3FEBBFFF3FEBB0A
:1008700053F4EAB953F4F8B9FFF3FEBBFFF3FEBB40
:1008800053F4E0B953F4D5B953F4C7B9FFF3FEBB41
:10089000FFF3FEBBFFF3FEBBFFF3FEBBFFF3FEBBAC
:1008A000FFF3FEBBFFF3FEBBFFF3FEBBFFF3FEBB9C
:1008B00053F45CBBFFF3FCBBFFF3FCBBFFF3FCBBDF
:1008C00053F456BB53F46ABCFFF3F8BBFFF3F8BB19
:1008D000FFF3F8BBFFF3F8BBFFF3F8BB53F498BE8C
:1008E00053F498BE53F499BE00F02ABE00F028BE1F
:1008F00056F41EB9FFF3ECBBFFF3ECBBFFF3ECBB0C
:10090000FFF3ECBB54F464BF54F482BEFFF3E8BBC6
:1009100000F016BE00F014BE53F4F6B8FFF3E2BBCD
:10092000FFF3E2BBFFF3E2BBFFF3E2BBFFF3E2BB8B
:1009300053F461B953F455B953F44DB953F44DB967
:1009400053F44DB946F44CBD46F47CBD46F42EBC80
:1009500046F42ABC46F426BC46F406BF46F406BF5D
:1009600000F0EEBD00F0ECBD00F0EABD00F0E8BD27
:1009700000F0E6BD00F0E4BDFFF3BEBBFFF3BEBB7D
:100980004CF4FABC4CF4E2BC4CF488BC4CF4AABC69
:100990004CF414BD4CF420BC4CF43EBD4CF48ABD68
:1009A0004CF4D0BCFFF3ACBB57F486BC57F49EBCF0
:1009B00057F4FABB4DF4A2B84DF45CB84DF47AB8D4
:1009C0004DF4F8B858F452B858F456B858F45AB828
:1009D0004EF444B84EF44EB94FF4E0BE4DF459BF56
:1009E0004DF458BF4DF458BF4DF4E4BF4FF430BF41
:1009F00057F4DEBC57F4E2BC4EF410BF4EF411BF06
:100A00004EF440B94EF44EBCFFF37CBB46F4C0BE7E
:100A100046F4E4BEFFF378BBFFF378BBFFF378BB8B
:100A2000FFF378BBFFF378BBFFF378BBFFF378BB32
:100A3000FFF378BBFFF378BBFFF378BB57F494B9AF
:100A400056F429BF56F450BF56F4D4BF56F4E0BF55
:100A500056F4E6BF56F4ECBF56F4F2BF56F4F8BFB6
:100A600057F408B857F430B857F438B857F444B8C6
:100A700057F452B857F46AB857F480B857F4A6B888
:100A800057F4D6B857F4E2B857F4EAB857F48AB82E
:100A900057F404B957F4A4B857F4ACB800F050BDFB
:100AA00057F444B957F44AB957F48AB957F4BAB964
:100AB00057F4ACB957F4C4B957F4D0B957F4EAB9FC
:100AC00057F486B957F494B957F4D6B9FFF330BB4D
:100AD00057F456B957F462B957F4EAB957F408B95C
:100AE000FFF328BBFFF328BBFFF328BBFFF328BBB2
:100AF000FFF328BBFFF328BBFFF328BBFFF328BBA2
:100B0000FFF328BBFFF328BBFFF328BBFFF328BB91
:100B1000FFF328BB46F464BE56F4A8BEFFF324BB23
:100B2000FFF324BBFFF324BBFFF324BBFFF324BB81
:100B3000FFF324BBFFF324BBFFF324BBFFF324BB71
:100B4000FFF324BBFFF324BBFFF324BBFFF324BB61
:100B5000FFF324BBFFF324BBFFF324BBFFF324BB51
:100B6000FFF324BBFFF324BBFFF324BBFFF324BB41
:100B7000FFF324BBFFF324BBFFF324BB56F466BE94
:100B800056F4C0BEFFF320BBFFF320BBFFF320BB36
:100B9000FFF320BBFFF320BBFFF320BB56F45EBE88
:100BA00000F0CEBC00F0CCBC00F0CABCFFF318BB18
:100BB000FFF318BBFFF318BBFFF318BBFFF318BB21
:100BC000FFF318BB00F0BCBC00F0BABC00F0B8BC2E
:100BD000FFF312BBFFF312BBFFF312BBFFF312BB19
:100BE000FFF312BBFFF312BBFFF312BBFFF312BB09
:100BF000FFF312BBFFF312BBFFF312BBFFF312BBF9
:100C0000FFF312BBFFF312BBFFF312BBFFF312BBE8
:100C1000FFF312BBFFF312BBFFF312BBFFF312BBD8
:100C2000FFF312BBFFF312BBFFF312BBFFF312BBC8
:100C3000FFF312BBFFF312BBFFF312BBFFF312BBB8
:100C4000FFF312BBFFF312BBFFF312BBFFF312BBA8
:100C5000FFF312BB46F42CBE46F4CFBD46F4CFBD25
:100C600046F4D3BD46F4D7BD46F4EDBD46F4F2BD1F
:100C700046F4F2BD46F4F6BD46F4F6BD46F4F6BDC4
:100C800046F4F6BD46F4F6BD46F4F8BD46F4F8BDAC
:100C900046F4F8BD46F4F8BD46F4F8BD46F4F8BD98
:100CA00046F4FABD46F4FABD46F4FABD00F048BC7D
:100CB00046F4F8BD46F4F8BD46F4F8BD46F4F2BF7C
:100CC00046F4F3BF47F40EB849F41EBC49F42CBCFB
:100CD00049F44EBC49F492BC49F4B6BC49F4FABD9F
:100CE00049F4FEBD49F4FEBD49F426BE49F426BED2
:100CF00049F426BE49F426BE49F426BE49F43EBE58
:100D000049F456BE49F470BE49F48CBE49F4A6BEFF
:100D100049F4C0BE49F4F2BE49F4D8BE49F47DBFDF
:100D200049F47DBF49F47DBF4AF492B8FFF3A6BAF7
:100D3000FFF3A6BAFFF3A6BA00F002BC00F000BCB5
:100D400000F0FEBB00F0FCBBFFF39EBA00F0F8BB66
:100D5000FFF39CBA00F0F4BB00F0F2BBFFF398BACB
:100D600000F0EEBBFFF396BAFFF396BA00F0E8BBD3
:100D7000FFF394BA00F0E4BBFFF392BA00F0E0BBDB
:100D8000FFF390BA00F0DCBBFFF38EBAFFF38EBA2C
:100D900000F0D6BBFFF38CBAFFF38CBAFFF38CBA2A
:100DA000FFF38CBAFFF38CBAFFF38CBAFFF38CBA63
:100DB000FFF38CBAFFF38CBAFFF38CBAFFF38CBA53
:100DC000FFF38CBAFFF38CBAFFF38CBAFFF38CBA43
:100DD000FFF38CBAFFF38CBAFFF38CBAFFF38CBA33
:100DE000FFF38CBAFFF38CBAFFF38CBAFFF38CBA23
:100DF000FFF38CBAFFF38CBAFFF38CBAFFF38CBA13
:100E0000FFF38CBAFFF38CBAFFF38CBAFFF38CBA02
:100E1000FFF38CBAFFF38CBAFFF38CBAFFF38CBAF2
:100E2000FFF38CBAFFF38CBAFFF38CBAFFF38CBAE2
:100E3000FFF38CBAFFF38CBAFFF38CBAFFF38CBAD2
:100E4000FFF38CBAFFF38CBAFFF38CBAFFF38CBAC2
:100E5000FFF38CBAFFF38CBAFFF38CBA00F070BBCF
:100E600000F06EBB00F06CBBFFF386BAFFF386BAEE
:100E7000FFF386BAFFF386BA00F062BB00F060BBF6
:100E8000FFF382BAFFF382BAFFF382BAFFF382BAAA
:100E9000FFF382BAFFF382BAFFF382BAFFF382BA9A
:100EA000FFF382BAFFF382BAFFF382BAFFF382BA8A
:100EB000FFF382BAFFF382BAFFF382BAFFF382BA7A
:100EC000FFF382BAFFF382BAFFF382BAFFF382BA6A
:100ED000FFF382BAFFF382BAFFF382BAFFF382BA5A
:100EE000FFF382BAFFF382BAFFF382BAFFF382BA4A
:100EF000FFF382BAFFF382BAFFF382BAFFF382BA3A
:100F0000FFF382BAFFF382BAFFF382BAFFF382BA29
:100F1000FFF382BAFFF382BAFFF382BAFFF382BA19
:100F2000FFF382BAFFF382BAFFF382BAFFF382BA09
:100F3000FFF382BAFFF382BAFFF382BAFFF382BAF9
:100F4000FFF382BAFFF382BAFFF382BAFFF382BAE9
:100F5000FFF382BAFFF382BAFFF382BAFFF382BAD9
:100F6000FFF382BAFFF382BAFFF382BAFFF382BAC9
:100F7000FFF382BAFFF382BAFFF382BAFFF382BAB9
:100F8000FFF382BAFFF382BAFFF382BAFFF382BAA9
:100F9000FFF382BAFFF382BAFFF382BAFFF382BA99
:100FA000FFF382BAFFF382BAFFF382BAFFF382BA89
:100FB000FFF382BAFFF382BAFFF382BAFFF382BA79
:100FC000FFF382BAFFF382BAFFF382BAFFF382BA69
:100FD000FFF382BAFFF382BAFFF382BAFFF382BA59
:100FE000FFF382BAFFF382BA00F0AABA00F0A8BAFF
:100FF00000F0A6BA00F0A4BA00F0A2BA00F0A0BABD
:1010000000F09EBA00F09CBA00F09ABA00F098BACC
:1010100000F096BA00F094BA00F092BA00F090BADC
:1010200000F08EBA00F08CBA00F08ABA00F088BAEC
:1010300000F086BA00F084BA00F082BA4AF440B8F0
:101040004AF45CB84AF474B84AF478B84AF48EB8F2
:1010500000F076BA00F074BA4AF48EB800F070BAB4
:101060004AF45EB84AF460B94AF46AB94AF463BA19
:101070004AF460BA4AF45CBAFFF344BAFFF344BAE4
:10108000FFF344BA4AF46CB94AF484B9FFF344BAA2
:101090004AF490B9FFF344BAFFF344BAFFF344BAF9
:1010A0004AF4CCB94AF4E2B9FFF344BA4AF4F6B9C7
:1010B0004AF442BAFFF344BAFFF344BA4AF454BBC9
:1010C0004AF4C0B84AF406BA4AF40EB94AF49AB9D6
:1010D0004AF488B84AF46AB84AF4E8B800F030BA7A
:1010E000FFF342BA4AF45CB84AF4F2B84AF48ABA56
:1010F0004AF474BB4AF473BB4AF4AABB4AF4C8BBB3
:101100004AF4E2BB4AF404BC4AF420BC4AF442BCB0
:101110004AF47CBC4AF486BC4AF462BC50F4AABBD4
:1011200050F498BB50F408BD50F417BD50F41DBDE9
:1011300050F42BBD51F454BB51F44CBB50F46CBB78
:1011400050F498BD52F432BCFFF318BAFFF318BA4A
:10115000FFF31CBAFFF31CBAFFF31EBAFFF31EBA6B
:10116000FFF31EBAFFF31EBAFFF31EBAFFF31EBA57
:10117000FFF31EBAFFF31EBAFFF31EBAFFF31EBA47
:10118000FFF31EBAFFF31EBAFFF31EBAFFF31EBA37
:10119000FFF31EBAFFF31EBAFFF31EBAFFF31EBA27
:1011A000FFF31EBAFFF31EBAFFF31EBAFFF31EBA17
:1011B000FFF31EBAFFF31EBAFFF31EBAFFF31EBA07
:1011C000FFF31EBAFFF31EBAFFF31EBAFFF31EBAF7
:1011D000FFF31EBAFFF31EBAFFF31EBAFFF31EBAE7
:1011E000FFF31EBAFFF31EBA52F41ABCFFF31CBA87
:1011F000FFF31CBAFFF31CBAFFF31CBAFFF31CBACF
:10120000FFF31CBAFFF31CBAFFF31CBAFFF31CBABE
:1012100059F4A6B9FFF31CBAFFF31CBAFFF31CBACA
:10122000FFF31CBAFFF31CBAFFF31CBAFFF31CBA9E
:10123000FFF31CBAFFF31CBAFFF31CBAFFF31CBA8E
:10124000FFF31CBAFFF31CBAFFF31CBAFFF31CBA7E
:10125000FFF31CBAFFF31CBAFFF31CBAFFF31CBA6E
:10126000FFF31CBAFFF31CBAFFF31CBAFFF31CBA5E
:10127000FFF31CBAFFF31CBAFFF31CBAFFF31CBA4E
:10128000FFF31CBAFFF31CBAFFF31CBAFFF31CBA3E
:10129000FFF31CBAFFF31CBAFFF31CBAFFF31CBA2E
:1012A000FFF31CBAFFF31CBAFFF31CBAFFF31CBA1E
:1012B000FFF31CBAFFF31CBAFFF31CBAFFF31CBA0E
:1012C000FFF31CBAFFF31CBAFFF31CBAFFF31CBAFE
:1012D000FFF31CBAFFF31CBAFFF31CBAFFF31CBAEE
:1012E000FFF31CBAFFF31CBAFFF31CBAFFF31CBADE
:1012F000FFF31CBAFFF31CBA52F469BBFFF31ABA2E
:10130000FFF31ABAFFF31ABAFFF31ABAFFF31ABAC5
:10131000FFF31ABAFFF31ABAFFF31ABAFFF31ABAB5
:10132000FFF31ABAFFF31ABAFFF31ABAFFF31ABAA5
:10133000FFF31ABAFFF31ABAFFF31ABAFFF31ABA95
:10134000FFF31ABAFFF31ABAFFF31ABAFFF31ABA85
:10135000FFF31ABAFFF31ABAFFF31ABAFFF31ABA75
:0813600052F466BB52F46ABBB3
:101400000080052051100504F9140504D93A05049B
:10141000D83A0504D83A0504D83A0504000000007B
:10142000000000000000000000000000A180030494
:10143000D83A05040000000067320504853205042F
:10144000892E0504A72E0504C52E0504E32E0504E8
:10145000012F05041F2F05043D2F05045B2F0504F4
:10146000792F0504972F0504B52F0504D32F050404
:10147000F12F05040F3005042D3005044B30050411
:101480006930050487300504A5300504C330050420
:10149000E1300504FF3005041D3105043B3105042E
:1014A000593105047731050495310504B33105043C
:1014B000D1310504EF3105040D3205042B3205044A
:0414C00049320504A4
:1015000010B5054C237833B9044B13B10448AFF33D
:1015100000800123237010BD70A80320000000008C
:10152000A43F070408B5034B1BB103490348AFF3BD
:10153000008008BD0000000074A80320A43F070439
:10154000704656F475B9EC46A0E8F00FA0E80050DC
:10155000EFF3148CC0F800C04FF000007047002972
:1015600008BF0131B0E8F00FB0E80050026892F017
:10157000020F0CBF8CF309888CF3088882F314885F
:10158000080070470000000000000000000000009C
:1015900001F0FF01102A2BDB10F0070F08D010F824
:1015A000013B013A8B422DD010F0070F42B3F6D128
:1015B000F0B441EA012141EA014122F007047FF041
:1015C00000070023F0E80256083C85EA010586EA98
:1015D000010685FA47F5A3FA87F586FA47F6A5FAD4
:1015E00087F68EB9EED1F0BC01F0FF0102F00702E0
:1015F00032B110F8013B013A83EA010313B1F8D18B
:101600000020704701387047002D06BF354603386B
:10161000073815F0010F07D1013015F4807F02BFA4
:10162000013015F4C03F0130F0BC0138704700BFF5
:10163000844641EA000313F003036DD1403A41D3DD
:1016400051F8043B40F8043B51F8043B40F8043B9C
:1016500051F8043B40F8043B51F8043B40F8043B8C
:1016600051F8043B40F8043B51F8043B40F8043B7C
:1016700051F8043B40F8043B51F8043B40F8043B6C
:1016800051F8043B40F8043B51F8043B40F8043B5C
:1016900051F8043B40F8043B51F8043B40F8043B4C
:1016A00051F8043B40F8043B51F8043B40F8043B3C
:1016B00051F8043B40F8043B51F8043B40F8043B2C
:1016C000403ABDD2303211D351F8043B40F8043BCC
:1016D00051F8043B40F8043B51F8043B40F8043B0C
:1016E00051F8043B40F8043B103AEDD20C3205D3DC
:1016F00051F8043B40F8043B043AF9D2043208D0D4
:10170000D2071CBF11F8013B00F8013B01D30B8845
:1017100003806046704700BF082A13D38B078DD023
:1017200010F003038AD0C3F10403D21ADB071CBFF5
:1017300011F8013B00F8013B80D331F8023B20F85F
:10174000023B7BE7043AD9D3013A11F8013B00F898
:10175000013BF9D20B7803704B7843708B78837020
:10176000604670470000000000000000000000001C
:101770000000000000000000000000000000000069
:10178000A2EB0300704700BF02780B78012A28BF44
:101790009A42F5D16DE9044540EA0104CDE90267BA
:1017A0006FF0000C4FEA447212B380EA010414F0A7
:1017B000070F6AD100F0070420F0070004F00305CA
:1017C00021F007014FEAC505F0E8042314F0040FE7
:1017D000F1E804670CFA05F462EA040266EA04061A
:1017E0000AD063EA0403624667EA0407664603E038
:1017F000F0E80423F1E8046782FA4CF582EA060473
:10180000A4FA8CF46CBB83FA4CF583EA0705A5FABD
:101810008CF595B950E9022351E9026782FA4CF53B
:1018200082EA0604A4FA8CF483FA4CF583EA0705ED
:10183000A5FA8CF52543DBD09CB92DBAB5FA85F411
:1018400024F0070427FA04F1DDE9026723FA04F320
:1018500003F0FF0001F0FF01FDE80445A0EB0100EB
:10186000704724BAB4FA84F424F0070426FA04F189
:10187000DDE9026722FA04F202F0FF0001F0FF0145
:10188000FDE80445A0EB0100704714F0030F3CD1C4
:1018900010F0030428D150F8082B51F8083B82FAC5
:1018A0004CF582EA0305A5FA8CF55DB950F8042CD5
:1018B00051F8043C82FA4CF582EA0305A5FA8CF54E
:1018C000002DE8D02DBAB5FA85F424F0070423FAE8
:1018D00004F122FA04F202F0FF0001F0FF01FDE83A
:1018E0000445A0EB010070474FEAC40420F0030058
:1018F00050F8082B21F0030151F8083B0CFA04F4CE
:1019000062EA040263EA0403C9E710F003041AD090
:10191000A1EB040120F00300E40750F8042B06D0EB
:101920000FD28B785FFAA2F4E41A06D12BB1CB78F0
:101930005FFAB2F4E41A00D11BB920465DF8104BEF
:10194000704701F1040150F8042BCC0721F003018A
:1019500051F8043B48D824D222F07F4482FA4CF557
:1019600094EA1325A5FA8CF50AD165B951F8043B20
:1019700084EA0204B4EB036F0ED150F8042BEBE7BA
:101980004FEA132355E035F07F454DD10878FDE847
:101990000445C0F1000070474FEA126203F0FF03F4
:1019A00047E002EA1C4482FA4CF594EA1345A5FA92
:1019B0008CF50AD165B951F8043B84EA0204B4EB12
:1019C000034F0CD150F8042BEBE74FEA134330E000
:1019D00015EA1C4528D10B884FEA124229E04FEA4C
:1019E000124203EA1C4324E002F0FF0482FA4CF5A1
:1019F00094EA1365A5FA8CF50AD165B951F8043B50
:101A000084EA0204B4EB032F09D150F8042BEBE76E
:101A10004FEA13630DE015F0FF0F05D10B684FEA95
:101A2000122223F07F4304E04FF00000FDE804455C
:101A3000704712BA1BBA82FA4CF482EA0304A4FA81
:101A40008CF5B5FA85F402FA04F203FA04F34FEACE
:101A50001260FDE80445A0EB136070470000000031
:101A60000000000000000000000000000000000076
:101A70000000000000000000000000000000000066
:101A800090F800F06DE9024520F007016FF0000CBE
:101A900010F0070491F820F040F049804FF0000466
:101AA0006FF00700D1E9002391F840F000F1080041
:101AB00082FA4CF2A4FA8CF283FA4CF3A2FA8CF379
:101AC0004BBBD1E9022382FA4CF200F10800A4FAE0
:101AD0008CF283FA4CF3A2FA8CF3E3B9D1E9042334
:101AE00082FA4CF200F10800A4FA8CF283FA4CF36B
:101AF000A2FA8CF37BB9D1E9062301F1200182FA25
:101B00004CF200F10800A4FA8CF283FA4CF3A2FA2A
:101B10008CF3002BC6D0002A04BF04301A4612BA38
:101B2000B2FA82F2FDE8024500EBD2007047D1E93B
:101B3000002304F00305C4F100004FEAC50514F0CA
:101B4000040F91F840F00CFA05F562EA05021CBF9B
:101B500063EA050362464FF00004A9E781F0004103
:101B600002E000BF83F0004330B54FEA41044FEA82
:101B7000430594EA050F08BF90EA020F1FBF54EA1D
:101B8000000C55EA020C7FEA645C7FEA655C00F0B9
:101B9000E2804FEA5454D4EB5555B8BF6D420CDD8A
:101BA0002C4480EA020281EA030382EA000083EA0D
:101BB000010180EA020281EA0303362D88BF30BDAD
:101BC00011F0004F4FEA01314FF4801C4CEA113103
:101BD00002D0404261EB410113F0004F4FEA033362
:101BE0004CEA133302D0524263EB430394EA050FED
:101BF00000F0A780A4F10104D5F1200E0DDB02FA5C
:101C00000EFC22FA05F2801841F1000103FA0EF2EF
:101C1000801843FA05F359410EE0A5F120050EF1B5
:101C2000200E012A03FA0EFC28BF4CF0020C43FAE6
:101C300005F3C01851EBE37101F0004507D54FF0F3
:101C4000000EDCF1000C7EEB00006EEB0101B1F543
:101C5000801F1BD3B1F5001F0CD349085FEA300089
:101C60004FEA3C0C04F101044FEA445212F5800F94
:101C700080F09A80BCF1004F08BF5FEA500C50F131
:101C8000000041EB045141EA050130BD5FEA4C0C14
:101C9000404141EB0101013C28BFB1F5801FE9D271
:101CA00091F0000F04BF01460020B1FA81F308BF94
:101CB0002033A3F10B03B3F120020CDA0C3208DD60
:101CC00002F1140CC2F10C0201FA0CF021FA02F13B
:101CD0000CE002F11402D8BFC2F1200C01FA02F1AB
:101CE00020FA0CFCDCBF41EA0C019040E41AA2BFD0
:101CF00001EB0451294330BD6FEA04041F3C1CDA98
:101D00000C340EDC04F11404C4F1200220FA04F0B7
:101D100001FA02F340EA030021FA04F345EA030161
:101D200030BDC4F10C04C4F1200220FA02F001FA23
:101D300004F340EA0300294630BD21FA04F02946A5
:101D400030BD94F0000F83F4801306BF81F480113E
:101D50000134013D4EE77FEA645C18BF7FEA655CB1
:101D600029D094EA050F08BF90EA020F05D054EA83
:101D7000000C04BF1946104630BD91EA030F1EBF88
:101D80000021002030BD5FEA545C05D1400049418C
:101D900028BF41F0004130BD14F580043CBF01F57F
:101DA000801130BD01F0004545F0FE4141F4700165
:101DB0004FF0000030BD7FEA645C1ABF1946104640
:101DC0007FEA655C1CBF0B46024650EA013406BF41
:101DD00052EA033591EA030F41F4002130BD00BF00
:101DE00090F0000F04BF0021704730B54FF48064BD
:101DF00004F132044FF000054FF0000150E700BF3E
:101E000090F0000F04BF0021704730B54FF480649C
:101E100004F1320410F0004548BF40424FF0000189
:101E20003EE700BF42004FEAE2014FEA31014FEACC
:101E300002701FBF12F07F4393F07F4F81F060511B
:101E4000704732F07F4208BF704793F07F4F04BF66
:101E500041F40021704730B54FF4607401F0004543
:101E600021F000411CE700BF50EA010208BF7047A3
:101E700030B54FF000050AE050EA010208BF704794
:101E800030B511F0004502D5404261EB41014FF4FD
:101E9000806404F132045FEA915C3FF4D8AE4FF005
:101EA00003025FEADC0C18BF03325FEADC0C18BFE8
:101EB000033202EBDC02C2F1200300FA03FC20FA39
:101EC00002F001FA03FE40EA0E0021FA02F1144486
:101ED000BDE600BF70B54FF0FF0C4CF4E06C1CEA9F
:101EE00011541DBF1CEA135594EA0C0F95EA0C0F10
:101EF00000F0DEF82C4481EA030621EA4C5123EA83
:101F00004C5350EA013518BF52EA033541F48011B1
:101F100043F4801338D0A0FB02CE4FF00005E1FB64
:101F200002E506F00042E0FB03E54FF00006E1FBAE
:101F300003569CF0000F18BF4EF0010EA4F1FF04F1
:101F4000B6F5007F64F5407404D25FEA4E0E6D4131
:101F500046EB060642EAC62141EA55514FEAC52042
:101F600040EA5E504FEACE2EB4F1FD0C88BFBCF5BE
:101F7000E06F1ED8BEF1004F08BF5FEA500E50F16F
:101F8000000041EB045170BD06F0004646EA010135
:101F900040EA020081EA0301B4EB5C04C2BFD4EB67
:101FA0000C0541EA045170BD41F480114FF0000E60
:101FB000013C00F3AB8014F1360FDEBF002001F0CE
:101FC000004170BDC4F10004203C35DA0C341BDC48
:101FD00004F11404C4F1200500FA05F320FA04F01A
:101FE00001FA05F240EA020001F0004221F000414E
:101FF00010EBD37021FA04F642EB06015EEA430EC1
:1020000008BF20EAD37070BDC4F10C04C4F12005F0
:1020100000FA04F320FA05F001FA04F240EA0200A3
:1020200001F0004110EBD37041F100015EEA430E74
:1020300008BF20EAD37070BDC4F1200500FA05F294
:102040004EEA020E20FA04F301FA05F243EA020313
:1020500021FA04F001F0004121FA04F220EA020022
:1020600000EBD3705EEA430E08BF20EAD37070BD68
:1020700094F0000F0FD101F00046400041EB010148
:1020800011F4801F08BF013CF7D041EA060195F02A
:10209000000F18BF704703F00046520043EB0303E4
:1020A00013F4801F08BF013DF7D043EA06037047D1
:1020B00094EA0C0F0CEA135518BF95EA0C0F0CD0DC
:1020C00050EA410618BF52EA4306D1D181EA030122
:1020D00001F000414FF0000070BD50EA410606BF1C
:1020E0001046194652EA430619D094EA0C0F02D161
:1020F00050EA013613D195EA0C0F05D152EA0336A6
:102100001CBF104619460AD181EA030101F00041C3
:1021100041F0FE4141F470014FF0000070BD41F00C
:10212000FE4141F4780170BD70B54FF0FF0C4CF4E6
:10213000E06C1CEA11541DBF1CEA135594EA0C0F05
:1021400095EA0C0F00F0A7F8A4EB050481EA030E52
:1021500052EA03354FEA013100F088804FEA033339
:102160004FF0805545EA131343EA12634FEA022207
:1021700045EA111545EA10654FEA00260EF00041C8
:102180009D4208BF964244F1FD0404F5407402D21A
:102190005B084FEA3202B61A65EB03055B084FEAAB
:1021A00032024FF480104FF4002CB6EB020E75EBA8
:1021B000030E22BFB61A754640EA0C005B084FEAD0
:1021C0003202B6EB020E75EB030E22BFB61A75464D
:1021D00040EA5C005B084FEA3202B6EB020E75EB98
:1021E000030E22BFB61A754640EA9C005B084FEA10
:1021F0003202B6EB020E75EB030E22BFB61A75461D
:1022000040EADC0055EA060E18D04FEA051545EA0B
:1022100016754FEA06164FEAC30343EA52734FEAB4
:10222000C2025FEA1C1CC0D111F4801F0BD141EA2D
:1022300000014FF000004FF0004CB6E711F4801F92
:1022400004BF01430020B4F1FD0C88BFBCF5E06F72
:102250003FF6AFAEB5EB030C04BFB6EB020C5FEA82
:10226000500C50F1000041EB045170BD0EF0004ED7
:102270004EEA113114EB5C04C2BFD4EB0C0541EA09
:10228000045170BD41F480114FF0000E013C90E606
:1022900045EA060E8DE60CEA135594EA0C0F08BFCA
:1022A00095EA0C0F3FF43BAF94EA0C0F0AD150EAC9
:1022B00001347FF434AF95EA0C0F7FF425AF10465C
:1022C00019462CE795EA0C0F06D152EA03353FF484
:1022D000FDAE1046194622E750EA410618BF52EA01
:1022E00043067FF4C5AE50EA41047FF40DAF52EAD5
:1022F00043057FF4EBAE12E74FF0FF3C06E000BF72
:102300004FF0010C02E000BF4FF0010C4DF804CD7E
:102310004FEA410C7FEA6C5C4FEA430C18BF7FEA3E
:102320006C5C1BD001B050EA410C0CBF52EA430C6C
:1023300091EA030F02BF90EA020F0020704710F1EC
:10234000000F91EA030F58BF994208BF90422CBF7B
:10235000D8176FEAE37040F0010070474FEA410C74
:102360007FEA6C5C02D150EA013C07D14FEA430C92
:102370007FEA6C5CD6D152EA033CD3D05DF8040B03
:10238000704700BF8446104662468C461946634635
:1023900000E000BF01B5FFF7B7FF002848BF10F10C
:1023A000000F01BD4DF808EDFFF7F4FF0CBF012051
:1023B00000205DF808FB00BF4DF808EDFFF7EAFFCD
:1023C00034BF012000205DF808FB00BF4DF808ED88
:1023D000FFF7E0FF94BF012000205DF808FB00BF7D
:1023E0004DF808EDFFF7CEFF94BF012000205DF807
:1023F00008FB00BF4DF808EDFFF7C4FF34BF012014
:1024000000205DF808FB00BF4FEA410C7FEA6C5CDE
:1024100002D150EA013C0AD14FEA430C7FEA6C5CDE
:1024200002D152EA033C02D14FF0000070474FF056
:10243000010070474FEA410212F5001215D211D582
:102440006FF47873B3EB625212D94FEAC12343F0B1
:10245000004343EA505311F0004F23FA02F018BF33
:10246000404270474FF00000704750EA013005D1FC
:1024700011F0004008BF6FF0004070474FF00000BF
:10248000704700BF53B94AB9002908BF00281CBFD4
:102490004FF0FF314FF0FF3000F06CB9ADF1080C98
:1024A0006DE904CE00F006F8DDF804E0DDE9022372
:1024B00004B070472DE9F047089E0D4604468E464D
:1024C000002B40F082808A42174646D9B2FA82F247
:1024D0004AB1C2F1200105FA02F320FA01F1974056
:1024E00041EA030E94404FEA1748230CBEFBF8FC68
:1024F000B9B208FB1CEE43EA0E430CFB01F0984214
:102500000AD9FB180CF1FF3580F01681984240F291
:102510001381ACF1020C3B441B1AA4B2B3FBF8F0DC
:1025200008FB103344EA034400FB01F1A14209D93E
:102530003C1900F1FF3380F00181A14240F2FE809E
:1025400002383C44641A40EA0C4000211EB1D440D9
:102550000023C6E90043BDE8F08702B9FFDEB2FA06
:1025600082F2002A4FD1CB1B4FEA174E1FFA87F891
:102570000121B3FBFEFC250C0EFB1C3345EA034591
:1025800008FB0CF3AB4207D97D190CF1FF3002D2E6
:10259000AB4200F2E7808446ED1AA3B2B5FBFEF031
:1025A0000EFB105543EA054408FB00F8A04507D987
:1025B0003C1900F1FF3302D2A04500F2D780184643
:1025C000A4EB080440EA0C40C0E78B4208D9002E77
:1025D00000F0AF800021C6E900050846BDE8F0879D
:1025E000B3FA83F100294BD1AB4202D3824200F20D
:1025F000B780841A65EB030301209E46002EAAD003
:10260000C6E9004EA7E7C2F1200C01FA02F3974099
:1026100020FA0CF04FEA174E21FA0CFC1843BCFBD1
:10262000FEF1050C0EFB11CC1FFA87F845EA0C45AC
:1026300001FB08F3AB4204FA02F409D97D1901F158
:10264000FF3C80F08B80AB4240F2888002393D44F1
:10265000EB1A85B2B3FBFEF00EFB103345EA0345DF
:1026600000FB08F3AB4207D97D1900F1FF3C71D2A2
:10267000AB426FD902383D44EB1A40EA014178E79A
:10268000C1F1200C8B4022FA0CF71F4320FA0CF406
:1026900005FA01F34FEA174E25FA0CF51C43230CFB
:1026A000B5FBFEF91FFA87F80EFB195543EA0545FD
:1026B00009FB08FAAA4502FA01F200FA01F308D967
:1026C0007D1909F1FF3047D2AA4545D9A9F1020980
:1026D0003D44A5EB0A05A4B2B5FBFEF00EFB105578
:1026E00044EA054400FB08F8A04507D93C1900F16D
:1026F000FF352DD2A0452BD902383C4440EA094091
:10270000A4EB0804A0FB02894C45C6464D4619D3EC
:1027100016D05EB1B3EB0E0264EB050404FA0CFCB8
:10272000CA404CEA0202CC40C6E900240021BDE8C0
:10273000F087314630460EE7AC46EDE6184601E735
:102740004345E6D2B8EB020E69EB07050138E0E736
:102750002846D3E760468FE78146BAE7614677E7C8
:1027600008464BE7ACF1020C3D4415E702383C4407
:1027700026E700BF704700BF10B50C4670B90A4A83
:1027800002210EF073FD14B9084B0122DA703222D7
:10279000BDE810401146022051F0C0B80128F2D126
:1027A000034A02210020ECE71893060464E10320A9
:1027B0003793060410B50488022C06D1027981688B
:1027C0000A4800F057FB50B110BD002CFCD107485F
:1027D00000F0E1FA80F00102D2B22146F0E7BDE854
:1027E0001040034A02210EF041BD00BF6CE10320FE
:1027F000589306041FB50024114A124B009410216F
:102800000A200EF015FE104A106030B90F4A01215F
:102810000EF02CFD0B2004B010BD0D4B02930D4BA0
:102820000193012300930C490C4823464FF4007296
:102830000FF042FA002814BF00200B20EBE700BF86
:1028400076D8032018D9032070D80320819306047A
:102850001CD8032064D90320A49306048D2B000404
:1028600010B5054B054904461868036822469B6964
:1028700098470023A37010BDA43804202D2A00041B
:1028800070B50F4E0446306803680D469B690D49CC
:102890002246984730680B4A036829465E692346FA
:1028A000B04710B90123A37070BD0EF093FBBDE8D3
:1028B00070400346044A012100200EF0D7BC00BF3F
:1028C000A43804202D2A0004A893060470B50579C5
:1028D000042D0DD142792E4C012AA37809D13BB9A0
:1028E00063782BB940F2DC512046FFF7C9FF6570D1
:1028F00070BD002BFCD06578042D23D12046FFF756
:10290000AFFF00252348657017F07EF8044630B10C
:10291000214A02212846BDE870400EF0A7BC1F489E
:1029200017F061FE024648B91D484FF6FF7109F0E5
:10293000F5FB0028DCD11B4A0221ECE71A4A0121F1
:102940002046E8E7022D11D12046FFF789FF002637
:102950001248667018F042FD0EF03CFB2946034613
:10296000124A3046BDE870400EF080BC032DBFD146
:102970000F4800F010FA80F00101C9B2022050F0B7
:1029800079FF2046FFF76CFF00200A4A6070D3E70A
:1029900064E103201C390420BF930604285404205A
:1029A000C8090420E4930604129406045094060413
:1029B0006CE103206C94060408B5074B186850B10D
:1029C000002301220EF07CFD28B9BDE80840034A2F
:1029D00001210EF04BBC08BD70D803208C94060476
:1029E00030B5C31E012B85B004460D4614D8102205
:1029F0000021684661F07EF90023032CADF8003019
:102A00008DF804408DF8055008D12DB1044B0548D0
:102A100003936946FFF7D0FF05B030BD024BF6E7E0
:102A2000B527000464E10320CD2800041FB501236D
:102A3000ADF800300191044B044803936946FFF759
:102A4000BBFF05B05DF804FB592C000464E10320D2
:102A5000CB68084603B11847024A012118460EF018
:102A600005BC00BFB99406041FB50E4800F093F9E9
:102A7000102380F0010001930DF10F038DF80F007A
:102A80000093002240230621012003F0BFF90346F2
:102A900020B1054A012100200EF0E8FB05B05DF8E9
:102AA00004FB00BF6CE10320E994060410B580B973
:102AB00002210C4A0EF0DAFB0121022050F0DAFE6E
:102AC000094CE37823B12046FFF7CEFF0023E370E3
:102AD00010BD0128F4D10221044A00200EF0C6FBEB
:102AE0000021EAE70395060464E103202295060429
:102AF00038B51D4A1D4B0221054600200EF0B6FBDD
:102B00001B4800F01DF9044630B11A4A012100208B
:102B10000EF0ACFB204638BD174A1849144800F0A7
:102B200037F9174850F02CFF114800F034F980F0C5
:102B30000101C9B2022050F09DFE41F2AE5341F2B4
:102B4000A45221460F480AF073FB2CF095FB2CF0A1
:102B50009BFA2846FFF788FF0B4816F0A5FD4FF0BB
:102B600002000AF07FF9D5E74C9506044395060468
:102B70006CE1032069950604AD2A0004792700045E
:102B8000E129000480F50320849D03207FB52848B7
:102B9000FFF7AEFF034620B1264A012100200EF0C8
:102BA00065FB254A254C224D022100200EF05EFBDC
:102BB000264620680A2269460EF000FE012807D149
:102BC00069462846FFF744FF306800226946F3E76C
:102BD0001B4817F080F8A0B11A4817F004FD1A4BF3
:102BE0001870184817F0B3FC184B1870184816F0F6
:102BF00019FF184B003818BF01201870104817F043
:102C000073F86B78032BD4D00F4B1B781BB10F4B91
:102C10001B78002BCDD10F4B1B782BB164221146B2
:102C2000012050F07BFEC4E740F2B6323221F7E7D4
:102C300064E1032085950604A095060470D803205E
:102C4000243904202854042060D9032074D8032098
:102C50001C39042075D8032070B50688012E48D190
:102C6000244CA378002B44D06578042D12D1224A3D
:102C7000022100200EF0FAFA022100201F4A0EF075
:102C8000F5FA02236370204640F6B831BDE8704083
:102C9000FFF7F6BD022D23D1194A40F6B833294675
:102CA00000200EF0E3FA204640F6B831FFF7E8FDC9
:102CB000032300213046637050F0DCFD00212846DC
:102CC00050F0D8FD4FF4FA721146304650F026FE0F
:102CD0004FF4FA7228461146BDE8704050F01EBE0F
:102CE000032D06D1002363700648BDE8704016F03E
:102CF0000FBE70BD64E10320B1950604DB950604A8
:102D0000F9950604849D03201FB510F0E9F801230E
:102D1000017D084AADF80030074B0190002908BF3B
:102D20001346064803936946FFF746FE05B05DF873
:102D300004FB00BF252E0004C12E000464E1032023
:102D400013B50E4B01930E4B00930022034604462D
:102D500001210C480FF00AFF0B4A106038B90B4AEA
:102D600002210EF083FA40F2017002B010BD002083
:102D70000123A370207520732061F6E788E103200A
:102D8000092D00043896060484E1032040960604C9
:102D9000C0E9011270478078C31E584258417047FD
:102DA00007B500230848009300681A4603210FF076
:102DB00021FF30B9054A012103B05DF804EB0EF0A4
:102DC00055BA03B05DF804FB84E103205F96060466
:102DD00073B5114C064620680D4610F06BF838B1FB
:102DE00000200E4A01210EF041FA3046FFF7D8FFCD
:102DF00064230093206800232A4604210FF0FAFE82
:102E0000012807D0064A0121002002B0BDE8704029
:102E10000EF02CBA02B070BD84E103207E96060449
:102E20009996060470B54468A578CDB90123A370BE
:102E3000A3680BB128469847237BBBB1012D15D160
:102E400023694FF47A7159432046FFF7C1FF257576
:102E50002369074ABDE87040022100200EF006BA3F
:102E6000022D03D10323A3700125E1E770BD00BF4C
:102E7000B9960604F8B58378012B04460F4615462B
:102E800003D1012A1AD00020F8BD032BFBD1002A60
:102E9000F9D11646237D23B11EB926752046FFF7CA
:102EA0007FFF4FF4FA612046FFF792FF6368A67038
:102EB00013B13946284698470120E5E70226E9E79D
:102EC00038B54468237D6BB100252846064A257530
:102ED00002210EF0CBF92A4629462046BDE83840AB
:102EE000FFF7C8BF38BD00BFF09606044268009BDC
:102EF000062A08D1816831B91A780348B2FA82F2F9
:102F00005209FFF7B7BF70476CE103200148FFF794
:102F1000ABBD00BF64E1032008B50D4A02210020CB
:102F20000EF0A4F90B4A022100200EF09FF90020B8
:102F3000074A02210EF09AF90748FFF75BFC30B10F
:102F40000020064A01210EF091F94FF0FF3008BD34
:102F5000119706042E97060464E1032047970604A0
:102F6000002170B508460EF01BF8044630B1244A23
:102F7000012100200EF07AF9204670BD214D224A31
:102F800002210EF073F92E7856B9284617F034F85E
:102F9000041E0CBF012300232B7001D01B4AE7E75E
:102FA0001B4A022100200EF061F91A4817F0C9FFF0
:102FB0000446054608B1184ADAE71648032117F017
:102FC0007DFB044618B1154A01212846D2E7144A70
:102FD00002210EF04BF9134817F00CFA044605468F
:102FE00008B1114AC4E7114A02210EF03FF9104816
:102FF00016F000FF04460028BED00E4AE4E700BFEA
:1030000062970604203904208097060490970604EE
:10301000B597060428540420D3970604FD970604A8
:103020002C980604905D0420459806046F980604C9
:10303000243904209498060408B508F083FC00287D
:1030400008DBFFF78DFF28B9FFF766FF002801DBDB
:103050000EF082FF002008BD2DE9F04302215668E2
:1030600099B015461D202D4A0EF000F92C4A41F268
:103070005443D35C002B49D1AB68502B46D12B690C
:10308000284AA3F57A71914240D8AA69103A102AC9
:103090003CD8B5F800E0BEF5617F37D8AA89B2F513
:1030A000805F33D204AF344606F12809B846206861
:1030B0006168BC46ACE8030008344C456746F6D16D
:1030C0000DF1380C503620686168674603C7083434
:1030D000B442BC46F7D1A98B0391D5E9050101ACF7
:1030E00084E80300009310484346714609F02FF826
:1030F000044658B91D200D4A02210EF0B7F82046AB
:1031000003F09CFF012019B0BDE8F08301231D20CE
:10311000074A19460EF0AAF80120F1E7BE98060406
:1031200080F50320B8820100C8090420EC98060449
:103130000D99060410B5022114461D20114A0EF007
:1031400095F8114A41F25443D25C92B92188B1F505
:10315000617F0ED80D4808F0E1FF044648B91D20F4
:103160000B4A02210EF082F8204603F067FF01208F
:1031700010BD01231D20074A19460EF077F80120E3
:10318000F3E700BF3C99060480F50320C80904203A
:10319000EC9806040D99060408B5094A02211D2081
:1031A0000EF064F8074808F083FE074A02211D204C
:1031B0000EF05CF8002003F041FF012008BD00BFC5
:1031C00070990604C80904209F99060470B5B8B028
:1031D00004AD044621224A48294616F051F990B917
:1031E0002846FEF74DFC2946CDE9275002462046E9
:1031F00007F0BBFA034630B1424A01211D200EF010
:1032000035F838B070BD3E480DF1020116F012F9E4
:1032100040B9BDF80210204607F0C2FA034608B1D3
:10322000394AEAE70DAD36482122294616F036F92B
:1032300068B92846FEF724FC2946CDE92750024606
:10324000204607F0BBFA034608B1304AD5E72C48C0
:1032500001A916F0F4F840B9BDF80410204607F0B3
:10326000C8FA034608B12A4AC7E716AD24484122E6
:10327000294616F021F968B92846FEF701FC2946CF
:10328000CDE927500246204607F0CFFA034608B1A1
:10329000204AB2E71A480DF1060116F05DF940B96F
:1032A000BDF80610204607F0B2FA034608B11A4AE4
:1032B000A3E727AE12484122314616F00BF902ADC2
:1032C00068B93046FEF7DCFBCDE90260204695E8A0
:1032D000060007F0C5FA034608B1104A8DE7084812
:1032E000294616F0B1F800288BD1BDF80810204609
:1032F00007F08DFA0346002883D0094A7DE700BF16
:10330000849D0320C2990604E4990604049A0604E5
:10331000279A0604489A0604769A06049D9A06049B
:10332000CB9A0604704710B5102104465FF0E8FD03
:10333000204610BD2DE9F043054687B0006802AB7A
:1033400083E8060008B903200AE00DF11703019392
:1033500016230093D5E9022312F097FE044610B11C
:1033600007B0BDE8F083DDF808809DF80C90B8F850
:1033700000002F68494602F0A3FA0646E1B28E42E9
:1033800013D9B8F800004A4602F0C2FA002FDAD08A
:10339000036800934FF0FF324FF0FF33384612F0CE
:1033A000A0FD01340028E9D0DAE79DF9171028685C
:1033B00012F09AFED4E700002DE9F0414B681D2B76
:1033C00086B0154601D04EF06FF98E68032E00F2DC
:1033D0009D80DFE806F002364A5510680F88012309
:1033E0001374C0B10DF10E03019316230093D2E9BB
:1033F000022312F04AFE064668B938462C6802F0ED
:1034000011FA464B03EB0010037942880492ADF8A1
:10341000143024B90326304606B0BDE8F0814FF0E1
:10342000FF324FF0FF33214604A815F017F9064686
:103430000028F0D19DF90E10286812F055FE0646BE
:10344000E9E70B88ADF80E300DF10E03049301236C
:103450008DF8143028682B740028DDD006AB13E9F2
:1034600006002846FFF766FFD6E70B88ADF80E305A
:103470000DF10E03049300238DF814300123E9E7C6
:1034800017680A8801232B745ABB002F3BD004AB6A
:103490000193162300933846D5E9022312F0F5FD77
:1034A000044688BB2F6801F0F5FF1FFA84F84045F9
:1034B0002ED9404601F0F4FF08B90134F3E7404645
:1034C00002F0F8F90028F8D037B300904FF0FF323F
:1034D0004FF0FF33384612F0FAFC0028EDD00446D6
:1034E00012E087B104AB0193162300933846D5E967
:1034F000022312F0CAFD044630B99DF91010384677
:1035000012F0F2FDEBE73C46204685E7002083E71A
:103510009DF910102868F3E73046E0E7F0EB032050
:10352000014802F033BB00BFB0E103200548064963
:1035300000231D22C0E902230371044B044A0360E7
:103540005FF062BCB0E10320253300045C9B0604FD
:10355000489B032008B5002003F070FD012008BD42
:103560006C2070476C2070476C2070476C2070474F
:103570006C2070476C2070476C2070476C2070473F
:10358000704710B5102104465FF0BAFC204610BD0C
:1035900010B586B002AB83E803000E48029B04A975
:1035A000144698476C2810D100220023CDE904234B
:1035B00020680121DDE90423217440B1CDE9002315
:1035C000D4E9022312F05DFC01E00028F0D006B03F
:1035D00010BD00BF1C39042010B586B002AB83E8D3
:1035E00003000D48029B0DF11701144698476C2803
:1035F0000ED100238DF8173020689DF81730012276
:10360000227438B10093D4E9022312F02AFC01E0BD
:103610000028F1D006B010BD1C39042000B54B685D
:10362000372B93B003D02F2013B05DF804FB8868CC
:10363000082850D8DFE800F005122B323940471B2C
:1036400022001168012313740029EDD00023009398
:10365000D2E90223084612F030FCE5E71F4B029343
:103660001E48002303931946FFF7B6FFDCE71C4B07
:10367000049300231A4805931946F5E7194B06935E
:103680001848002307931946FFF782FFCCE7164B33
:1036900008930023144809931946F5E7134B0A933E
:1036A000002312480B931946EEE7114B0C930023AD
:1036B0000F480D931946E7E70E4B0E9300230D4874
:1036C0000F931946E0E70C4B10930023119312ABB4
:1036D00013E90300D8E70020A6E700BF6135000426
:1036E00065350004693500046D350004713500044A
:1036F00075350004793500047D3500040548064918
:1037000000233722C0E902230371044B044A0360FB
:103710005FF07ABBC0E1032081350004AC9B060456
:10372000489B032010B5148814F09CFE4FF47A7166
:10373000614314F0B9FE003818BF012003F07EFC8D
:10374000012010BD08B514F08DFE14F0C9FE00383C
:1037500018BF012003F072FC012008BD37B51446E4
:1037600014F080FE2246D4E9044512F8041BCDE98A
:10377000004514F0DFFE003818BF012003F05EFCA6
:10378000012003B030BD704710B5102104465FF032
:10379000B7FB204610BD000030B54B68332B85B019
:1037A000144602D02F2005B030BD886804287FD889
:1037B000DFE800F00319324D64001568012313742B
:1037C000002DF0D002AB019316230093D2E902231F
:1037D000284612F05AFC0028E5D19DF90810284629
:1037E00012F082FCDFE7334802A916F0E2F96C28F8
:1037F0000FD10023ADF808302068BDF80830012251
:1038000022740028CFD00093D4E9022312F05FFB8A
:10381000C9E70028C7D1EFE7264802A916F0CBF97F
:103820006C2811D100220023CDE902232068012158
:10383000DDE9022321740028B5D0CDE90023D4E9C5
:10384000022312F01EFBAEE70028ACD1EEE71948C8
:1038500002A916F0B2F96C280DD10023029320685A
:10386000029B0122227400289DD00093D4E90223F8
:1038700012F037FB97E7002895D1F0E70D4802A931
:1038800016F09DF96C280FD100238DF808302068C0
:103890009DF8083001222274002884D00093D4E9D6
:1038A000022312F00AFB7EE700287FF47CAFEEE7EC
:1038B000002078E724390420014802F067B900BFEE
:1038C000D0E103200548064900233322C0E9022342
:1038D0000371044B044A03605FF096BAD0E1032001
:1038E00087370004FC9B0604489B032030B50B4B34
:1038F0001B681B6885B0D98813690293D2E9024519
:10390000CDE9004500200CCA00F050F8003818BF7F
:10391000012003F093FB012005B030BD9CF403208F
:1039200010B50E4B1B681B6886B0DC889369049346
:10393000D2E90401CDE90201D2E902018DE80300D8
:1039400021460CCA002000F05BF8003818BF0120A7
:1039500003F074FB012006B010BD00BF9CF40320EF
:1039600030B50B4B1B681B6885B0D988136902936F
:10397000D2E90245CDE9004500200CCA00F07AF8F2
:10398000003818BF012003F059FB012005B030BDFD
:103990009CF40320002070470020704700207047EF
:1039A00000207047002070470020704730B5134C4E
:1039B00085B094F82250694681E80C005DB906C9CB
:1039C00004F123000DF0E2FBB0B902A904F12300D9
:1039D0000DF00DFC08B102250BE002AB03CB082370
:1039E00084F8203002232060616084F8223084F85B
:1039F0002150284605B030BD1325FAE7E0E1032049
:103A00002DE9F3411A4C94F8225002A901E90C0067
:103A100065BB019E212E04D90125284602B0BDE8D0
:103A2000F081099F0099324604F12300FDF700FE62
:103A30005FFA86F8402F84F84480EDD808993A461A
:103A400004F14500FDF7F4FD212E84F88570E3D0E4
:103A5000324604F123012046FDF7EAFD012384F8F4
:103A6000208084F8223084F82150D6E70225D4E75C
:103A7000E0E103207FB51D4D6E4686E80C0095F809
:103A800020209A422DD195F8224054B3009928461F
:103A900060F094F8014620BB022C24D1144816F0A3
:103AA00068FD00BB95F82131114805F12302CDE9ED
:103AB000022304AB13E9060016F0A6FD98B90C48E2
:103AC000012116F056FD044668B9012385F821301E
:103AD00014F0C8FC96E8060014F018FD204604B067
:103AE00070BD0320FBE71320F9E700BFE0E10320EE
:103AF0002854042073B50B46024605460E46402066
:103B0000184902F015FE0DF10701284606F014FED3
:103B1000044628B114490246402002F009FE07E09D
:103B20009DF807203AB946B91049402002F000FE3E
:103B3000204602B070BD012EF6D082F001040C497F
:103B40002346402002F0F4FD4CB10121284606F046
:103B5000FEFD04460028EBD006490246DCE721467C
:103B6000F4E700BF089C0604209C0604379C06046A
:103B7000579C0604739C060408B5064B1B681B681B
:103B80000022D8881146FFF7B5FF03F057FA01204D
:103B900008BD00BF9CF4032008B5064B1B681B68DA
:103BA0000022D8880121FFF7A5FF03F047FA012082
:103BB00008BD00BF9CF4032008B5064B1B681B68BA
:103BC0000022D8880221FFF795FF03F037FA012081
:103BD00008BD00BF9CF40320704700207047002000
:103BE0007047704768B1C52808D0712808D05C2894
:103BF00006D00B2814BF0320052070470120704712
:103C00000220704770477047704710B50421044682
:103C10005FF076F9204610BD10B5042104465FF030
:103C20006FF9204610BD10B5102104465FF068F909
:103C3000204610BD10B50446006818B10DF029FBF0
:103C40000023236010BD000070B50C4CA66B254608
:103C50007EB94FF414700DF018FB034658B1084AB2
:103C60000260084A4260A863036880F84C62DB691E
:103C70009847A86B70BDA0631B68FFDE18E30320A4
:103C800040E1060470E1060482B0F0B587B0174643
:103C90000D93224B1B681B68DB88ADF808300023AE
:103CA0003E22ADF80A300823CDE9032301220E4657
:103CB0008DF81420044628B9032007B0BDE8F04071
:103CC00002B0704702A909F098FE0028F5D12046FD
:103CD00009F00CFE009600224FF0FF33054612F06B
:103CE000ECF80028E9D146B9009701224FF0FF33E4
:103CF000284612F0E2F80028DFD1DDE90D010222AA
:103D00008DE803004FF0FF33284612F090FA0028A8
:103D1000D3D10121204609F012FECEE79CF4032006
:103D200008B5D1E90023C0E900230B7A03720BB177
:103D30004B8943810B7B03730BB1CB89C3810B7C14
:103D400003740B7D037543B18A6982611368591C42
:103D500001D14DF0A9FC0133136008BD07B5002364
:103D6000CDE900330B783BB10A1D00F1440128F086
:103D700071FA03B05DF804FB6A46F6E71FB500234D
:103D80000193D0E90F2301A902A8CDE902232AF06B
:103D9000F0FA019805B05DF804FB10B500F13C01A4
:103DA000044628F04DFA04F14401204628F048FA70
:103DB00004F14C012046BDE8104028F041BA10B58E
:103DC000D0E90123934205D1D1E90103C31A584236
:103DD000584110BD04680868844204D14868904284
:103DE00001D18868F2E70020F3E78168F0B54FF071
:103DF000600C6FF001066FF0100743688B423CBF08
:103E000001334360436899420CD002680CFB0323E2
:103E1000D3E9002312F1FF3443F1FF35AF4208BF6D
:103E2000A642EAD3F0BD9A4270B5C0E90012064638
:103E3000836002D34360304670BD602303FB0212EF
:103E4000D2E9003213F1FF3442F1FF356FF0100375
:103E50006FF00102AB4208BFA242ECD2FFF7C5FFF0
:103E6000E9E700002DE9F04F4B683E2B9BB014466C
:103E700001D04DF019FCD1F80880B8F1040F7BD0C7
:103E8000B8F1050F00F0CF80B8F1010F40F0D780F6
:103E9000106882F8108000286BD00DF12703019381
:103EA00016230093D2E9022312F0EFF8002860D124
:103EB00002466449276804230AA8FFF7B4FF0423D5
:103EC00060491A460DA8FFF7AEFF4FF0600A0DA932
:103ED0000AA8FFF774FF002840F09F80DDE90A354B
:103EE0000AFB0535D5E9006916F1FF33029349F164
:103EF000FF330393DDE902016FF010036FF001025D
:103F00008B4208BF824203D20AA8FFF76EFFDEE7AA
:103F10002B7C0793D5E9162305F114082021404690
:103F2000CDE9042360F0D2FA06902846B5F812B025
:103F3000FFF724FF079B8DF8403041231293DDE902
:103F40000423CDE91423069A1190CDE91669ADF842
:103F50004CB0CDF8608019920FB9032009E04FF002
:103F6000FF324FF0FF33394610A814F06EFF0028DF
:103F7000CAD01BB0BDE8F08F10680123137400286D
:103F8000F7D00DF12703019316230093D2E9022302
:103F900012F07BF80028ECD14346024629492568F7
:103FA0000DA8FFF740FF43464246264910A8FFF7F9
:103FB0003AFF4FF0600B6FF001086FF010090DF140
:103FC000280A10A90DA8FFF7FAFE30BBDDE90D2382
:103FD0000BFB0323D3E9002112F1FF3641F1FF3738
:103FE000B94508BFB04514D31A6C002AB5D0DB6BB5
:103FF000002DB2D0CDE90A329AE803004FF0FF322B
:104000008DE803004FF0FF33284612F0FAF800283D
:10401000AFD10DA8FFF7E9FED3E79DF9271020687F
:1040200012F062F8A5E72068537C01222274002870
:104030009FD00093D4E9022311F03FFF99E70020BD
:1040400097E700BF4007042010B588B0012402465E
:104050003E200023049021444020CDE900418DF80A
:104060001400194603A8ADF80C30ADF81C300694C6
:1040700001F06AFA08B010BD2DE9F04F85B007468F
:104080002820DDE90EA9BDF840B09DF84C8015460A
:104090001E460DF0FAF8044688B3282200215FF08E
:1040A00029FE0022C4E90822C4E90456129A62607B
:1040B000C4E906A94122119B2770A260A4F80CB0A4
:1040C0005A682AB193E8030004F1200282E8030051
:1040D000CDE900590B49334642464FF45460CDE9CF
:1040E00002AB02F025FB41462046FFF7ADFF054637
:1040F00020460DF0CEF8284605B0BDE8F08F01252A
:10410000F9E700BF8A9C06042DE9F04F4749DFF824
:1041100038B193B04FF4546002F00AFB44490423D1
:1041200000220CA8FFF77FFE042341491A460FA87E
:10413000FFF779FE00244FF0600A0FA90CA8FFF7E3
:104140003EFE064600285ED1DDE90C350AFB05354A
:10415000D5E90023CDE9062305F1140318462021F3
:10416000099360F0B3F9099BB5F81290CDE90A30D4
:10417000DDE906231343D5E916870DD1CDE90169A1
:10418000009643463A4659464FF4546002F0D0FA3E
:104190000CA8FFF72AFED0E728462E7CFFF7EEFD9D
:1041A0000AABCDE90293DDE90623CDE90404CDE9AC
:1041B0000023304642463B46FFF75EFF00B31D49F1
:1041C00043463A464FF4546002F0B2FA9F251A492A
:1041D0004FF45460224602F0ABFA4FF0FF310FA8C3
:1041E000ADF83C40FFF730FF78B1144922464FF458
:1041F000546002F09DFA9F25284613B0BDE8F08F69
:104200000134E4B2C4E70025E1E7002DF4D12146F2
:1042100006F04FFB10B10A492246E8E7042106F0F8
:104220003AFB0028E8D007490422E0E7009D060495
:1042300040070420A39D0604EE9D0604269E060466
:10424000619E0604A59E0604369D06041FB5D1E9AD
:1042500000028B6D4C8ACDE90032CDE902044FF4A7
:104260005460CB6D0A7C044902F062FA04B0BDE8E8
:104270001040FFF749BF00BFE69E06041FB5D1E915
:1042800000028B6D4C8ACDE90032CDE902044FF477
:104290005460CB6D0A7C044902F04AFA04B0BDE8D0
:1042A0001040FFF731BF00BF4E9F060408B50A4615
:1042B0004FF45460034902F03BFABDE80840FFF7B1
:1042C00023BF00BFBE9F060408B508494FF45460E1
:1042D00002F02EFA064801F059FC0649064828F07B
:1042E000F8F8BDE80840FFF70FBF00BFF69F0604CF
:1042F00004E303206C9D032040070420F0B504462E
:10430000ADF51B7D0E464FF454602A49174602F066
:104310000FFA04AB002500934FF41673CDE9013575
:1043200003952AF0ABFE002C41D03A78012A10D137
:10433000036869461B699847A8B10CF04BFE1E49FB
:1043400002464FF4546002F0F3F9012002F076FEC9
:1043500027E0022A29D1036869465B6998476C28DF
:10436000EAD1CDE90055DDE900233146CDE902234C
:104370002046032209F0E6FC0028DED1204609F0A1
:10438000B5FA014698B101224FF0FF3302A814F0AC
:104390003EFE0028D1D10146204609F0D0FA00287F
:1043A000CBD101200DF51B7DF0BD2F20C5E70320EB
:1043B000C3E700BF45A0060488A0060408B5012095
:1043C00002F03CFE012008BD08B5037833B1426815
:1043D00013680BB94DF068F9013B136008BD00008C
:1043E000F0B515461B4989B006464FF4546002F0FB
:1043F0009FF92978184828F03DFB044680B901460A
:10440000164808F0DBF92746FFF77EFE384602F033
:1044100015FEB4B9346C94F828301BB94DF044F94A
:104420000127F1E704F130016846FFF779FC05A8A0
:104430009DF81060FFF7C8FF2978B14204D1084BFE
:10444000E361012009B0F0BD236A186928F0D4FEA9
:10445000F7E700BFB4A0060440070420509D0320E6
:10446000689D032030B591F8283089B00C460BB90F
:104470004DF01AF930316846FFF752FC05A89DF857
:104480001050FFF7A1FF236A2946186928F0B4FEEF
:1044900009B030BD10B5104B1B68986888B0C0B12A
:1044A00090F828300BB94DF0FFF800F13001684664
:1044B000FFF736FC9DF8104005A8FFF785FF074978
:1044C0004FF45460224602F033F90548214628F0A3
:1044D00063FA08B010BD00BF9CF40320CAA0060414
:1044E0004007042038B50F494FF45460154602F0D8
:1044F0001FF9FFF7CFFF044638B90124FFF704FE88
:10450000204602F09BFD012038BD294627F043FEDE
:104510000028F2D1217C044828F066FA041E18BF56
:104520000124EBE7F6A0060440070420F0B51D497E
:1045300085B006464FF45460144602F0F9F8FFF7D0
:10454000A9FF0746A8B97120FFF74CFB00250446D8
:10455000002300932A4621463046FFF795FB2CB1F5
:10456000114922464FF4546002F0E2F8012005B0F0
:10457000F0BD224600F14C0127F06CFE05460028F4
:10458000E2D104F108013846FFF7E8FB044618B110
:10459000FFF728FB0446DBE704483D7C07F09EFE5E
:1045A000D6E700BF11A1060443A10604509D0320D5
:1045B00010B5036804461B6898472046BDE81040C4
:1045C0000CF067BE38B5002200230025C0E90023A7
:1045D000C0E90223044645820575806B10B1FFF7E0
:1045E000E7FFA5632046FFF7D8FB38BD10B50E499D
:1045F0004FF45460144602F09BF80C492246A1F196
:104600003C0027F027FE0446003818BF012002F0C6
:1046100015FD3CB10648FFF7D5FF06494FF454603D
:1046200002F086F8012010BD70A1060454E30320B7
:1046300018E30320A4A1060470B5244C244986B0D5
:104640001646002305464FF454608DF80F3002F0F3
:104650006FF8324604F14C01204627F0FBFDB8B15B
:10466000FFF7C0FA04461948FFF7ACFF00239DF896
:104670000F20009321462846FFF706FB2CB1154971
:1046800022464FF4546002F053F8012006B070BD8A
:1046900006F108012046FFF761FB0028E0D1338DC9
:1046A0000D4863820DF10F02214628F02DFA0028F3
:1046B000D6D19DF80F10084828F096F90446002836
:1046C000CED1064807F00AFECDE700BF18E303206D
:1046D000D0A10604FBA1060440070420509D03203E
:1046E00010B50446806B08B1FFF762FF2046FFF764
:1046F00054FB204610BD38B50D460446FFF79AFA24
:1047000028460CF0C2FD206038BD00002DE9F04FB6
:10471000ADF5317D00240891074678490A944FF49D
:1047200054604FF0100B91462F9402F001F85A4656
:10473000214613A85FF0DEFA2AF0A0FC8046002F85
:1047400000F0D980D9F804300793202B40F0D180B5
:10475000CDE90F440DAE4FF4007330AD356073609A
:10476000036831469B6898470246002840F0AD80B8
:104770007168D9F804300990403101EB030A5146C1
:104780000AA8FFF7B8FF0A9B002B00F09D8011AC30
:10479000C4E9003AD6E90013099A04940DF15C0AC1
:1047A000CDE91713CDE90222CDE900220FAB49462E
:1047B00050462AF0CAFB0246002840F08680396C39
:1047C000079B0C930B6ACDF82CA0D3F810A091F89E
:1047D0002830D4F804900BB94CF066FF30312846ED
:1047E000FFF79EFA2946504628F056FD5530C6E997
:1047F000000B35A8FFF7E8FD284610F0DCFB284643
:1048000010F0DFFB024600286DD10A9BC4E9003995
:10481000284694E8060010F0DDFB0246002862D12D
:1048200096E80600284610F0D5FB024600285AD12B
:104830000BA9284610F0DDFB0246002853D1402387
:104840001FAEDDE90B120F961093D8F800304046EA
:104850009B69C4E900120FAA214698470246002826
:1048600041D1109B402B3DD82846336410F0EDFB1E
:104870000A9B0899CDE91339336C01223846CDE9FA
:10488000156309F05FFA0246F8B9384609F02EF8C8
:10489000014680B301224FF0FF3313A814F05BFBF5
:1048A000024690B90146384609F049F8024660B917
:1048B00040211FA810F02FFC0AA8FFF7BBF9012028
:1048C0000DF5317DBDE8F08F0B2210460CF082FB18
:1048D0000B4902464FF4546001F02AFF012002F018
:1048E000ADFBE5E72F222846079210F0AEFB079AB2
:1048F000EBE72F22E9E70322E7E700BF25A2060442
:1049000055A206042DE9F043ADF5217D00244FF4B6
:10491000007705460E464FF4546080490594914651
:10492000CDE9034701F004FF1022214608A85FF0FB
:10493000E1F9394603A8FFF7DEFE039B83B90B2498
:104940007748FFF73FFE20460CF044FB75490246CE
:104950004FF4546001F0ECFE012002F06FFBCEE05A
:10496000FFF772F9A0B9704B0C938DF87C026F4B76
:104970000D930CA810F0F4FB69480CA927F0C2FDB8
:1049800004460CA814B110F0D5FBD9E710F0D2FB07
:10499000FFF75AF9036803999B6804AA984764498A
:1049A000044602464FF4546001F0C2FE002CC7D109
:1049B000049BFE2B00F2AE804FF4617105A8FFF757
:1049C0009AFE05990029BAD04FF461720CA811F033
:1049D000E9F80DF10B071523009301974FF0FF3213
:1049E0004FF0FF330CA811F050FB04460028A7D16C
:1049F000DDE90323CDE906230DF1180898E803004B
:104A000001228DE803004FF0FF330CA811F0F9FBF1
:104A10000446002894D199E8030002228DE803009F
:104A20004FF0FF330CA811F0ECFB0446002887D1AF
:104A3000C8E9000098E8030003228DE803004FF066
:104A4000FF330CA811F0DDFB044600287FF478AF9B
:104A5000C8E9000098E8030004228DE803004FF045
:104A6000FF330CA811F0CDFB044600287FF468AF9B
:104A7000C8E9000098E8030005228DE803004FF024
:104A8000FF330CA811F0BDFB044600287FF458AF9B
:104A900097F900100CA811F027FB044600287FF4BA
:104AA0004FAF0CA811F0ACF8044600287FF448AFD3
:104AB00095B3059A129BCDE90A00CDE9082331464A
:104AC0000522284609F03EF9044600287FF438AF55
:104AD000284608F00BFF0146F0B101224FF0FF33EA
:104AE00008A814F0E3FA044600287FF429AF014631
:104AF000284608F024FF044600287FF421AF05A8CB
:104B0000FFF798F803A8FFF795F801200DF5217D30
:104B1000BDE8F083AC2413E7032411E77CA206046C
:104B200018E30320DCA2060440E1060470E1060459
:104B3000A9A206041E481F492DE970433E23002503
:104B40001D4E0571C0E902351C4B036032461C4CFA
:104B50005EF05AF932461B491B485EF055F9324661
:104B60001A491B485EF050F94FF000084FF0000959
:104B70002946212204F11400C4E90089C4E902890C
:104B8000257465825FF0B6F82046C4E90E55C4E985
:104B90001055C4E91255C4E916892565FFF712FDC1
:104BA0002574324620460B49BDE870435EF02CB9AF
:104BB00004E30320093C0004489B032044A40604AA
:104BC00018E30320073C00046C9D0320053C00040F
:104BD000689D0320E1460004704715F062B915F0A6
:104BE00053B915F044B910B5102104465EF088F9A8
:104BF000204610BD10B586B002AB83E803000E4816
:104C0000029B04A9144698476C2810D10022002367
:104C1000CDE9042320680121DDE90423217440B19A
:104C2000CDE90023D4E9022311F02BF901E000289B
:104C3000F0D006B010BD00BF203904204B68342BE3
:104C400086B002D02F2006B070478B68022B0ED0A2
:104C5000032B4FF0000011D0012BF4D10A4BCDE90A
:104C6000043006AB13E9030006B0FFF7C3BF074BE0
:104C700000930023054801931946F5E7044B0146CC
:104C8000CDE902301846EFE7E34B0004DF4B0004A8
:104C9000DB4B0004014800F079BF00BF78E303203C
:104CA0000548064900233422C0E902230371044B5E
:104CB000044A03605EF0A8B878E30320D94B0004EF
:104CC00094A40604489B0320704710B510210446A5
:104CD0005EF016F9204610BD08B54B68352B01D0A3
:104CE0002F2008BD8968054816F090F96C2803D07C
:104CF0002D2808BF0020F4E70020F2E72854042004
:104D0000014800F043BF00BF88E30320054806497F
:104D100000233522C0E902230371044B044A0360D7
:104D20005EF072B888E30320C94C0004E4A40604D2
:104D3000489B03206C2070476C2070476C207047A4
:104D40006C2070476C2070476C2070476C20704757
:104D50006C2070476C2070476C207047704710B50E
:104D6000102104465EF0CCF8204610BD10B586B088
:104D700002AB83E803000E48029B04A9144698473F
:104D80006C2810D100220023CDE9042320680121E2
:104D9000DDE90423217440B1CDE90023D4E90223E5
:104DA00011F06FF801E00028F0D006B010BD00BF90
:104DB0001C39042010B586B002AB83E803000C4810
:104DC000029B05A9144698476C280CD10023059333
:104DD0002068059B0122227438B10093D4E9022394
:104DE00011F07FF801E00028F2D006B010BD00BF3E
:104DF0001C39042010B586B002AB83E803000D48CF
:104E0000029B0DF11701144698476C280ED1002320
:104E10008DF8173020689DF817300122227438B1C0
:104E20000093D4E9022311F048F801E00028F1D002
:104E300006B010BD1C39042000B54B68362B97B066
:104E400003D02F2017B05DF804FB896801390023D7
:104E50000B2962D8DFE801F0060E14202C343A400A
:104E6000464C525A2E492E48CDE902131946FFF7F7
:104E7000C1FFE7E72B492B48CDE904131946F6E7B4
:104E80001068012313740028DCD000230093D2E9BA
:104E9000022311F01CF8D5E71068012313740028D1
:104EA000D0D000230093D2E9022311F050F8C9E7D3
:104EB0001D491D48CDE906131946FFF77BFFC1E7E1
:104EC0001A491A48CDE908131946F6E7184918484F
:104ED000CDE90A131946F0E716491648CDE90C1337
:104EE0001946EAE714491448CDE90E131946E4E7D8
:104EF00012491248CDE910131946DEE7104910484F
:104F0000CDE912131946FFF731FF9BE70D49CDE9B3
:104F1000141316AB13E90300F5E7002092E700BF76
:104F2000354D0004394D00043D4D0004414D000451
:104F3000454D0004494D00044D4D0004514D000401
:104F4000554D0004594D0004014800F01FBE00BF3C
:104F500098E303200548064900233622C0E90223CE
:104F60000371044B044A03605DF04EBF98E30320D5
:104F70005D4D000430A50604489B03202DE9F34154
:104F80000D46002117461E4604469DF830800BF062
:104F9000EAFF04232A460093022500230BF0EDFFCD
:104FA0003A46002300950BF0E8FF324600230095B7
:104FB0000BF0E3FFBDF82020009500230BF0DDFF90
:104FC000BDF82420009500230BF0D7FF9DF8281092
:104FD0000BF0C9FF9DF82C100BF0C5FFA068B8F1CD
:104FE000000F0CD16268904209D9074A1D200121A7
:104FF0000CF03CF9002080B202B0BDE8F081B0F5C1
:10500000803FF8D3014AF1E73CA5060467A50604F2
:1050100010B500238AB09842099308BF0123049376
:10502000537B0393137B0293538901931389079056
:10503000144618BF08460093D388089092882168C8
:1050400007A8FFF79BFF0AB010BD000010B5064A85
:10505000044602211D200CF009F900F001FA204657
:10506000BDE8104001F0B4BD8FA5060430B50B6853
:1050700089B005460C465868598904AA0BF088FB8C
:1050800068B1236803AA598958680BF0C5FB002151
:105090000346CDE90051039A04A801F031FE09B09E
:1050A00030BD7047F0B58BB04FF0FF0C109F87F804
:1050B00000C007680C4615461E469FB9007A02A933
:1050C00000F00EFF60B99DF80830012B07D1DDE933
:1050D000060100962B46224600F086FF00E06C2079
:1050E0000BB0F0BD022F05D1009313460A46D0E95C
:1050F0000201F1E7072F06D10024ADF800408068D7
:1051000000F00EFFECE70120EAE700002DE9F04F88
:1051100099B09846022A4FF0FF03DDF894908DF87D
:10512000163005460E46174640F29D8098F800401E
:1051300014F0040403D0042A40F2958000244F4B5D
:105140009B4603EBC4025FFA84FA1279FF2A08D067
:1051500001340A2CF5D1B9F1000F40F086804FF0F0
:10516000FF0A0023B0888DF8173006AA0DF1170149
:1051700006F0ABFB78B12B68CDF84080CDE90E96F8
:1051800012938BB1012B12D0022B21D1D5E902232E
:10519000CDE914230BE0B08800F044FB4FF6FF7319
:1051A0009842E8D1A32010E02B7A8DF850309DF87A
:1051B0008830ADF858700DF115010EA88DF85A30F1
:1051C00006F07DFB88B19DF8150019B0BDE8F08FA1
:1051D000032B03D12B89ADF85030E8E7042BF9D02D
:1051E000072B04BFAB681493E1E7404601F04EFE85
:1051F00006F1080001F038FEB7F5806F26D89DF85B
:1052000090300293BDF88C3001930DF1160300939A
:105210003A46434631462846FFF744FF8DF81500CD
:105220009DF81530B9F1000F14D01BBB9DF8163056
:10523000FF2B07D0BAF1090F04D80BEBCA024BF8C9
:105240003A901371112006F031FBBCE774238DF8FE
:105250001530E5E7BA2B0AD13389DB06B3D5002335
:105260008DF81530EEE70120AFE7B420ADE7002B55
:10527000A9D1E7E7BA2BEFD0A5E700BFA8E3032049
:10528000F0B51F4603688DB004460D46164653B967
:10529000007A04A900F024FE88B9BDF81230AB8072
:1052A000BDF81830EB80129B03930023CDE9013346
:1052B000009332463B4629462046FFF727FF0DB0B4
:1052C000F0BD70B586B00023012904460D46164690
:1052D000ADF8063002D82F2006B070BD0028059327
:1052E000CDE902000CBF0346022302A80DF106011E
:1052F00004930BF0E6FD05980028EDD1BDF80630CB
:10530000013D9D42C6BF0234C6E900431920E3E7D0
:105310002DE9F0410129576886B005460E469046B2
:1053200003D8192006B0BDE8F0810024A0424FF058
:1053300002030CBF02461A46039004920093BAB2CD
:10534000002303A805940BF018FED0E901239A422C
:10535000E7D3BAB2013E9642E3DDD8F80010A81CAC
:105360005EF05CFC2046DDE770B5002486B0A0420C
:10537000CDE9020018BF0846049001A902A816460C
:105380000594ADF804400BF09CFD059D05BB2C4633
:10539000AE4218D00DF1060102A8ADF806400BF0A0
:1053A00090FD059B63B9BDF80610049B994205F179
:1053B000010505D8039A5B1A0A4403920493E7E7B0
:1053C000002006B070BDDDE90240001B80B2F8E7A6
:1053D0002046F6E710B5074A00236A2B03F10101C6
:1053E00006D09C5C844201D1505C10BD0233F4E7CE
:1053F0000020FAE7AAA50604F8B5064610460F46AF
:1054000015461C4600F056F888B10CB90020F8BDCE
:10541000284600F055F828B1204601F090FA0130F6
:1054200080B2F4E7204601F08FFA0230F8E7284610
:1054300000F04CF840B1002CE8D022463946304606
:10544000BDE8F84006F07CB92846FFF7C3FFE7E760
:10545000704770477047704770477047704700004B
:10546000094B02221A80094B00221A60084A9A60EE
:1054700001214FF4807008321971988119611975F2
:105480009A619883704700BF10EC0320F0EB032073
:10549000ACB70604014B1888704700BF10EC03201E
:1054A000034B03EB0013587B00F00100704700BF73
:1054B000F0EB0320413803288CBF00200120704707
:1054C000413801288CBF002001207047A0F148031B
:1054D00058425841704700207047002070470368C9
:1054E000B3F57C4F01D3FFF7F8BF0846FFF7F3BFD2
:1054F00010B54C680268A2420DD1037B0C7A2340A0
:1055000009D0B2F57C4F08D3FFF7E7FF0B8A1B1ACF
:105510005842584110BD0020FCE70120FAE738B599
:105520000D68D468A5420AD10368B3F57C4F08D250
:10553000FFF7D5FF138A1B1A5842584138BD002087
:10554000FCE70120FAE700002DE9F04F8FB0074695
:105550000693199B0793874B9DF860A01B880A93BD
:1055600000230991914604931D469DF810B00A9BB3
:105570009B4580F2F78080494FEA0B1201EB0B1339
:10558000895A3A88914240F0E2805A7BD40740F130
:10559000E5809B6808931B790B9300230B99DAB283
:1055A000914240F2DB80089A05931268142101FBB6
:1055B000032840463946FFF79BFF059B002800F073
:1055C000C080B8F808200C9200260C99B2B2914223
:1055D00040F2BB80D8F804400D9304EB06143A4621
:1055E00021464046FFF79BFF0D9B0590002800F0E9
:1055F0009F80099B03B11C60237A980620D55F4ADF
:105600000023944207D9117A890642BFD588ED1844
:10561000ABB21032F5E75A4D1D44BAF1000F11D06C
:1056200021464046FFF75BFF2368796802463888C9
:1056300006F041F978BB7E2630460FB0BDE8F08F0A
:10564000504BE9E7B9F1000F00F08E80214640464B
:10565000FFF745FF236879680246388806F029F984
:105660000028E8D04846267A16F0100620D02146B9
:105670004046FFF734FF3D887968079A0346BAF140
:10568000000F0BD0CDE91892284622460FB0BDE896
:10569000F04F06F018B928464D46E4E70292E2883A
:1056A0002846CDE90092224606F00BF90646C3E7EC
:1056B000BBF1010F5AD82379BAF1000F01D1069A34
:1056C0005AB9E288A3F1410101290AD8002A4FD032
:1056D000013A294601F0BDFCAEE7069ACDF814A0C8
:1056E000F0E7A3F14301012906D8012A40D9023A83
:1056F000294601F0C8FC9FE7482B0BD1012A37D976
:10570000079B5246CDE9005321460346786805F0D1
:10571000B3FB91E7059BE28813B9069B934227D31D
:10572000294615B95EF0E6FA86E75EF077FA83E778
:10573000227A12F0300F02BFE288AD18ADB2013606
:1057400043E7B8F80A201544ADB2013326E7BBF1B0
:10575000010F9FBF9B68DB88ED18ADB2049B01333E
:10576000049302E7862667E74E4665E7012663E76E
:10577000892661E710EC0320F0EB032004AF060458
:1057800012EC0320FCE3032010B588B01C460692FF
:10579000BDF82820ADF81C2000234FF0FF32CDE9E2
:1057A0000032ADF80C0004911A4602A903A8029336
:1057B0008DF81440FFF7C8FE029808B010BD2DE91F
:1057C000F0410779064600254FF01408E8B28742F9
:1057D00026D9D6F800C008FB05F00CEB00045CF8F5
:1057E000000088421AD132B1802A10D194F90CC03D
:1057F000BCF1000F12DAB0F57C4F05D32046FFF75D
:105800006CFE984200D04BB92046BDE8F081402A9A
:1058100004D194F80CC01CF0400FECD10135D5E751
:105820000024F1E730B50A4B1C880A4B01460022E0
:1058300090B2844208D91D888D4202D15D7BED076C
:1058400004D401321033F3E74FF6FF7030BD00BFD0
:1058500010EC0320F0EB03202DE9F0411F460D462C
:105860001646FFF7DFFF4FF6FF7398420AD0074C4A
:1058700004EB00103B46324629468068BDE8F04103
:10588000FFF79DBF0020BDE8F08100BFF0EB0320D3
:1058900008B513460022FFF7DFFF003818BF0120CC
:1058A00008BD08B540220023FFF7D6FF003818BF17
:1058B000012008BD014B0001185A7047F0EB03208E
:1058C00070B50C46FFF7AEFF4FF6FF73984217D046
:1058D0000E4B03EB0010826892B100231579184635
:1058E0001426D9B28D420CD9116806FB0311097B2D
:1058F00044B111F0400F1CBF0130C0B20133F0E7DA
:10590000002070BD11F0800FF5E700BFF0EB032021
:10591000F8B50D461646FFF785FF4FF6FF73984220
:105920001CD00F4B03EB00100023826817791C4634
:105930004FF0140CD9B28F4210D910680CFB030041
:10594000017B46B111F0400F03D0AC4207D00134C7
:10595000E4B20133EEE711F0800FF5E70020F8BD67
:10596000F0EB03202DE9F04F394BDFF8E8A0B3F856
:1059700000B089B0074600245C4565D2FF2F07D0F0
:105980003846FFF74FFF4FF6FF73984204465BD04F
:10599000FF2F4FEA041806D10AEB08031D7B1DB147
:1059A0000134A4B2E8E70025D044D8F808301A79C9
:1059B000EEB2B24246D91B68142202FB06364FF003
:1059C000000932891FFA89F39A4239D919464FEAF8
:1059D000031C736803EB01110A7AD00627D4B8F8C8
:1059E0000000ADF80C0012F0400F3068049014BFB6
:1059F000802240228DF8142053F80C300693304654
:105A0000FFF76DFDADF81C000B7A13F0040FCB8887
:105A100010D0022BCA6800D9126801234FF0FF3161
:105A2000CDE900310023194603A8FFF78DFD09F1E8
:105A30000109C6E7022B8CBFCA6801F10C02ECE732
:105A40000135B2E7FF2FABD009B0BDE8F08F00BF42
:105A500010EC0320F0EB03200021FFF783BF704719
:105A600030B5057B044615EA01000FD00022012362
:105A70008B4208D21D4218BF01324FEA430318BFC0
:105A8000D2B2DBB2F4E7236953F8220030BD2DE92E
:105A9000F04116461F469DF81820BDF81C300546FB
:105AA000FFF7DAFE58B10421FFF7DAFF044630B100
:105AB0003A46314628462346BDE8F0411847BDE83E
:105AC000F08110B50A460446416800880023FFF7BC
:105AD000C3FE40B10221FFF7C3FF034618B12046C1
:105AE000BDE81040184710BD2DE9F04105461646A7
:105AF0001F460A46002341680088DDF81880FFF73A
:105B0000ABFE60B12021FFF7ABFF044640B1434636
:105B10003A4631462846A446BDE8F0416047862013
:105B2000BDE8F0812DE9F041866804460025142780
:105B30003279EBB29A4211D97B4332682088D1582E
:105B400002EB030805F070FE01214046FFF788FFD5
:105B5000034608B1208898470135E9E7BDE8F081A0
:105B600070B5084D084E00242B88E0B2984208DA40
:105B700006EB0010437BDB0701D5FFF7D3FF0134B1
:105B8000F2E770BD10EC0320F0EB032038B50E4AAD
:105B900011680B46A3B19D688468A5420ED11C799B
:105BA0002CB104791CB1DD88C488A54206D11D2022
:105BB000064A01210BF05AFB002038BDDB68E9E7FB
:105BC000C16010600120F8E7F8E3032014A6060482
:105BD000074A0346106848B1027912B1C2889A4256
:105BE00002D18268914201D0C068F4E7704700BFDB
:105BF000F8E303202DE9F04F93B09846BDF87030DC
:105C0000059310921746059AADF8442000234FF0F3
:105C1000FF32CDE90032ADF834000E911A468146CC
:105C20000E460DA808A908931D9D9DF878A09DF823
:105C30007C409DF880B08DF83C80FFF785FC089B88
:105C40009BB9BBB203933F0CB3B2360C0193544AD9
:105C50005449029700964B4640F6026000F068FDFA
:105C60008624204613B0BDE8F08FACB91A795245AE
:105C700007D04B4A4C4940F6026000F059FD8D2494
:105C8000EFE71A7AD00707D4454A484940F6026040
:105C900000F04EFD8824E4E71A7A51072FD5DA6820
:105CA000516892680A921879099101F05BFA089A92
:105CB000D488022C034613D807902246294609A807
:105CC00001F002FA079B0690224629460AA801F035
:105CD000FBF9069B012B01D0013010D18724C0E7CE
:105CE000069022460998294601F0EEF90128F5D0E0
:105CF000069B0A982246294601F0E6F9ECE7BBF13B
:105D0000000F46D1CDE90B67089BADF82890DB88E2
:105D10000095524641460AA805F0DBFD18B100F097
:105D20006DFD04469DE7089B5246DB880095414681
:105D30000AA8FFF7D9FE0446002892D101234FF0AC
:105D4000FF32CDE9003259465B462A460DA8FFF7DF
:105D5000FBFB0446002884D1089B3246494628466E
:105D6000FFF77DFE059B00933A4643463146484681
:105D7000CDE901A500F0CBFC089B4146DB880095EE
:105D80000AA85246FDF7B2F841460AA8FFF799FE65
:105D900067E7074940F6026000F0CAFC002460E7AC
:105DA000BCB70604C8B7060404B8060418B806044D
:105DB0002CB806042DE9F04786B00446DDF83C9087
:105DC0009DF840A0BDF83880CDF80080CDE9019A5B
:105DD0000D4616461F4605F06AFDA8B1431EDBB20C
:105DE000012B0ED800230493831E58425841CDE95D
:105DF00002A0CDE900893B46324629462046FFF7FE
:105E0000F9FE06B0BDE8F0870120FAE730B587B0AB
:105E100000240125CDE903549DF82C5002950A9DDC
:105E2000CDE90045FFF7E6FE07B030BD30B587B0DD
:105E300000240125CDE903549DF828500094CDE9B4
:105E400001354023FFF7D6FE07B030BD30B589B02D
:105E500000248DF81430BDF83030ADF81C304FF010
:105E6000FF33CDE90043ADF80C0004910692BDF874
:105E700038300D9A029402A903A80F9DFFF764FB26
:105E8000044630B915B1029B1B792B70204609B02E
:105E900030BD8928FAD1034940F6026000F048FC81
:105EA000F4E700BF49B806041FB5089C0394BDF889
:105EB0001C400294069C019400240094FFF7C6FF46
:105EC00004B010BD30B585B00024BDF82050039457
:105ED000CDE9013500944023FFF7B8FF05B030BD90
:105EE00030B509289CBF074D05EB40150C469DBFFA
:105EF0000FCD0FC495E80F0002209CBF84E80F006F
:105F0000002030BD08ED0320704700207047704727
:105F1000704710B5042104465CF0F2FF204610BD26
:105F20002DE9FF4790460D460A4600218146084666
:105F30009A46FFF76DF800EB0804B4F5803F07467A
:105F40004AD248B9254A01211D200BF08FF90124BE
:105F5000204604B0BDE8F087A4B240F276439C42EC
:105F600017D900230393039E002E33D070682A466E
:105F70002146FFF74DF8B84212D0194A01211D20E1
:105F80000BF074F9012403980028E1D012F004F812
:105F9000DEE77A2204F1100103A811F0A9FFE2E77D
:105FA000039B5868424651463844FBF741FB214663
:105FB0000398002211F02DFF0A490CAB00930968E9
:105FC00003AB022248460DF0F8F800280CBF00246D
:105FD0006624D8E77424D6E77424B9E773B80604B6
:105FE0008CB806041CB90604F0B58BB007460C4605
:105FF00015461E4601F0BCF818B9662528460BB0B8
:10600000F0BDCDE90274012302AF00228DF81030FB
:106010008DF8143039464FF6FF73ADF816308DF811
:1060200018208DF81C20ADF812200DF006FD9DF80B
:106030001C30044633B1089B186808B94BF034FB98
:1060400001381860002CD8D0094B02934FF4C0637C
:10605000E7612946ADF800303246109B2046FFF735
:106060005FFF05460028C9D020460DF08EF8C5E731
:1060700004B9060410B5044C2060044801800449AA
:106080000A60044A136010BD50EE032054EE032052
:106090004CEE032048EE0320F9282FD8E22804D83C
:1060A0001F281ED8172812D87047A0F1E303162B1B
:1060B00024D8DFE803F0201C2323231C1C1C1C1CF9
:1060C00022231C201E1C201E1E1C201E2200A0F1AC
:1060D0001803072B12D8DFE803F0100C110A111176
:1060E000110E302809D0312808BF21207047232005
:1060F00070472120704727207047202070470000FC
:1061000010B50D4B4A681A600A88046CDA800122C7
:106110009A8074B194F850201A73084A8968136001
:10612000074B1362074B91611A60074B946018602C
:1061300010BD2246F0E700BFECEF0320FCEF032088
:1061400024F003209CF40320E8EF032030B50E4B2D
:106150001C6885B0ACB10D4BD9881A680C4BADF8F2
:1061600004109B69CDE9022323689D6800F04EFB73
:1061700001A902462046A847B0FA80F0400905B0C0
:1061800030BD2046FBE700BFE8EF0320ECEF032023
:10619000FCEF0320024A00231360024A1360704799
:1061A0009CF40320E8EF032041680088FFF779BBE7
:1061B0002DE9F0430E468DB00546496830881446F7
:1061C0001F46FFF705FD28B34FF002084FF0FF39D7
:1061D000CDE9088900228DF8282006948DF82950F1
:1061E000036806AA9B683146984780B99DF8283015
:1061F00083B10FB101233B7044B10023009301220E
:106200004FF0FF3320460FF06CFE00B900200DB0B8
:10621000BDE8F0830DF117039A4D029340F29113FC
:106220000193D6E90112308800954023FFF73CFE28
:106230001FB1B0FA80F35B093B70002CE6D048B187
:1062400000F0E4FA009003224FF0FF3320460FF0F5
:106250003EFEDCE79DF817100846FFF71DFF2F28CC
:1062600034D81F280CD800284AD010285AD00B4602
:10627000854A01210D200AF0F9FF8F230093E2E700
:1062800020380F28F3D801A353F820F03D63000411
:106290004F6300046F620004616300046F620004D6
:1062A0006F6200046F620004736300049163000472
:1062B000A56300046F620004B96300046F62000408
:1062C0006F6200046F620004CB6300044138C3B204
:1062D000072BCCD80728CAD801A353F820F000BF59
:1062E00017640004E96300043B64000405640004CF
:1062F0006F6200046F6200046F6200044B6400046C
:1063000002224FF0FF3320460FF03EFE00287FF4BC
:106310007EAF0023009301224FF0FF3320460FF0A1
:10632000E0FD74E72B78003B18BF012300930222A5
:106330004FF0FF3320460FF094FDE7E72B780093F2
:1063400002224FF0FF3320460FF0B7FDDEE72B8827
:10635000009302224FF0FF3320460FF0B8FDD5E73F
