:020000040400F6
:1000100000000000000000000000000014000400C8
:10002000815C3A6900000000000000000000000050
:1000300000000000000000000000000000000000C0
:1000400000000000000000000000000000000000B0
:1000500000000000000000000000000000000000A0
:100060000000000000000000000000000000000090
:100070000000000000000000000000000000000080
:100800002C9D0320000000000000000000000000FC
:1008100000000000000000000000000000000000D8
:1008400001F46EBFFFF304BC00F05ABE00F058BEC6
:1008500000F056BEFFF3FEBBFFF3FEBBFFF3FEBB93
:10086000FFF3FEBBFFF3FEBBFFF3FEBBFFF3FEBBDC
:10087000FFF3FEBBFFF3FEBBFFF3FEBBFFF3FEBBCC
:10088000FFF3FEBBFFF3FEBBFFF3FEBBFFF3FEBBBC
:10089000FFF3FEBBFFF3FEBB00F032BEFFF3FEBB77
:1008A000FFF3FEBBFFF3FEBBFFF3FEBBFFF3FEBB9C
:1008B00000F026BEFFF3FCBB00F022BE00F020BE1D
:1008C00000F01EBE00F01CBEFFF3F8BBFFF3F8BB48
:1008D000FFF3F8BBFFF3F8BB00F012BE00F010BE50
:1008E00000F00EBE00F00CBE00F00ABE00F008BE24
:1008F00000F006BEFFF3ECBBFFF3ECBBFFF3ECBB79
:10090000FFF3ECBB00F0FCBD00F0FABDFFF3E8BB69
:1009100000F0F6BD00F0F4BD00F0F2BDFFF3E2BB65
:10092000FFF3E2BBFFF3E2BBFFF3E2BBFFF3E2BB8B
:1009300000F0E6BD00F0E4BD00F0E2BD00F0E0BD77
:1009400000F0DEBD02F410B802F436B801F47EBF48
:1009500001F47ABF01F476BF00F0D2BD00F0D0BD43
:1009600000F0CEBD00F0CCBD00F0CABD00F0C8BDA7
:1009700000F0C6BD00F0C4BDFFF3BEBBFFF3BEBBBD
:1009800000F0BEBD00F0BCBD00F0BABD00F0B8BDC7
:1009900000F0B6BD00F0B4BD00F0B2BD00F0B0BDD7
:1009A00000F0AEBDFFF3ACBB00F0AABD00F0A8BDE7
:1009B00000F0A6BD03F402B802F4C6BF02F4DCBF27
:1009C00003F458B800F09CBD00F09ABD00F098BD4B
:1009D00000F096BD00F094BD00F092BD00F090BD17
:1009E00000F08EBD00F08CBD00F08ABD00F088BD27
:1009F00000F086BD00F084BD00F082BD00F080BD37
:100A000000F07EBD00F07CBDFFF37CBB02F4C4BAF5
:100A100002F414BBFFF378BBFFF378BBFFF378BBA2
:100A2000FFF378BBFFF378BBFFF378BBFFF378BB32
:100A3000FFF378BBFFF378BBFFF378BB00F060BD3A
:100A400000F05EBD00F05CBD00F05ABD00F058BD86
:100A500000F056BD00F054BD00F052BD00F050BD96
:100A600000F04EBD00F04CBD00F04ABD00F048BDA6
:100A700000F046BD00F044BD00F042BD00F040BDB6
:100A800000F03EBD00F03CBD00F03ABD00F038BDC6
:100A900000F036BD00F034BD00F032BD00F030BDD6
:100AA00000F02EBD00F02CBD00F02ABD00F028BDE6
:100AB00000F026BD00F024BD00F022BD00F020BDF6
:100AC00000F01EBD00F01CBD00F01ABDFFF330BBEE
:100AD00000F016BD00F014BD00F012BD00F010BD16
:100AE000FFF328BBFFF328BBFFF328BBFFF328BBB2
:100AF000FFF328BBFFF328BBFFF328BBFFF328BBA2
:100B0000FFF328BBFFF328BBFFF328BBFFF328BB91
:100B1000FFF328BB00F0F4BC00F0F2BCFFF324BBF1
:100B2000FFF324BBFFF324BBFFF324BB00F0E8BCBE
:100B3000FFF324BBFFF324BBFFF324BBFFF324BB71
:100B4000FFF324BBFFF324BBFFF324BBFFF324BB61
:100B5000FFF324BBFFF324BBFFF324BBFFF324BB51
:100B6000FFF324BBFFF324BBFFF324BBFFF324BB41
:100B7000FFF324BBFFF324BBFFF324BB00F0C0BC96
:100B800000F0BEBCFFF320BBFFF320BBFFF320BB94
:100B9000FFF320BBFFF320BBFFF320BB00F0B0BC92
:100BA00000F0AEBC00F0ACBC00F0AABCFFF318BB78
:100BB000FFF318BBFFF318BBFFF318BBFFF318BB21
:100BC000FFF318BB00F09CBC00F09ABC00F098BC8E
:100BD000FFF312BBFFF312BBFFF312BBFFF312BB19
:100BE000FFF312BBFFF312BBFFF312BBFFF312BB09
:100BF000FFF312BBFFF312BBFFF312BBFFF312BBF9
:100C0000FFF312BBFFF312BBFFF312BBFFF312BBE8
:100C1000FFF312BBFFF312BBFFF312BBFFF312BBD8
:100C2000FFF312BBFFF312BBFFF312BBFFF312BBC8
:100C3000FFF312BBFFF312BBFFF312BBFFF312BBB8
:100C4000FFF312BB00F05CBCFFF312BBFFF312BB5F
:100C5000FFF312BB00F054BC00F052BC00F050BCDB
:100C600000F04EBC00F04CBC00F04ABC00F048BCA8
:100C700000F046BC00F044BC00F042BC00F040BCB8
:100C800000F03EBC00F03CBC00F03ABC00F038BCC8
:100C900000F036BC00F034BC00F032BC00F030BCD8
:100CA00000F02EBC00F02CBC00F02ABC00F028BCE8
:100CB00000F026BC00F024BC00F022BC00F020BCF8
:100CC00000F01EBC00F01CBC00F01ABC00F018BC08
:100CD00000F016BC00F014BC00F012BC00F010BC18
:100CE00000F00EBC00F00CBC00F00ABC00F008BC28
:100CF00000F006BC00F004BC00F002BC00F000BC38
:100D000000F0FEBB00F0FCBB00F0FABB00F0F8BB4B
:100D100000F0F6BB00F0F4BB00F0F2BB00F0F0BB5B
:100D200000F0EEBB00F0ECBB02F4A0B9FFF3A6BAF2
:100D3000FFF3A6BAFFF3A6BA00F0E2BB00F0E0BBF7
:100D400000F0DEBB00F0DCBBFFF39EBA00F0D8BBC6
:100D5000FFF39CBA00F0D4BB00F0D2BBFFF398BA0B
:100D600000F0CEBBFFF396BAFFF396BA00F0C8BB13
:100D7000FFF394BA00F0C4BBFFF392BA00F0C0BB1B
:100D8000FFF390BA00F0BCBBFFF38EBAFFF38EBA4C
:100D900000F0B6BBFFF38CBAFFF38CBAFFF38CBA4A
:100DA000FFF38CBAFFF38CBAFFF38CBAFFF38CBA63
:100DB000FFF38CBAFFF38CBAFFF38CBAFFF38CBA53
:100DC000FFF38CBAFFF38CBAFFF38CBAFFF38CBA43
:100DD000FFF38CBAFFF38CBAFFF38CBAFFF38CBA33
:100DE000FFF38CBAFFF38CBAFFF38CBAFFF38CBA23
:100DF000FFF38CBAFFF38CBAFFF38CBAFFF38CBA13
:100E0000FFF38CBAFFF38CBAFFF38CBAFFF38CBA02
:100E1000FFF38CBAFFF38CBAFFF38CBAFFF38CBAF2
:100E2000FFF38CBAFFF38CBAFFF38CBAFFF38CBAE2
:100E3000FFF38CBAFFF38CBAFFF38CBAFFF38CBAD2
:100E4000FFF38CBAFFF38CBAFFF38CBAFFF38CBAC2
:100E5000FFF38CBAFFF38CBAFFF38CBA00F050BBEF
:100E600000F04EBB00F04CBBFFF386BAFFF386BA2E
:100E7000FFF386BAFFF386BA00F042BB00F040BB36
:100E8000FFF382BAFFF382BAFFF382BAFFF382BAAA
:100E9000FFF382BAFFF382BAFFF382BAFFF382BA9A
:100EA000FFF382BAFFF382BAFFF382BAFFF382BA8A
:100EB000FFF382BAFFF382BAFFF382BAFFF382BA7A
:100EC000FFF382BAFFF382BAFFF382BAFFF382BA6A
:100ED000FFF382BAFFF382BAFFF382BAFFF382BA5A
:100EE000FFF382BAFFF382BAFFF382BAFFF382BA4A
:100EF000FFF382BAFFF382BAFFF382BAFFF382BA3A
:100F0000FFF382BAFFF382BAFFF382BAFFF382BA29
:100F1000FFF382BAFFF382BAFFF382BAFFF382BA19
:100F2000FFF382BAFFF382BAFFF382BAFFF382BA09
:100F3000FFF382BAFFF382BAFFF382BAFFF382BAF9
:100F4000FFF382BAFFF382BAFFF382BAFFF382BAE9
:100F5000FFF382BAFFF382BAFFF382BAFFF382BAD9
:100F6000FFF382BAFFF382BAFFF382BAFFF382BAC9
:100F7000FFF382BAFFF382BAFFF382BAFFF382BAB9
:100F8000FFF382BAFFF382BAFFF382BAFFF382BAA9
:100F9000FFF382BAFFF382BAFFF382BAFFF382BA99
:100FA000FFF382BAFFF382BAFFF382BAFFF382BA89
:100FB000FFF382BAFFF382BAFFF382BAFFF382BA79
:100FC000FFF382BAFFF382BAFFF382BAFFF382BA69
:100FD000FFF382BAFFF382BAFFF382BAFFF382BA59
:100FE000FFF382BAFFF382BA00F08ABA00F088BA3F
:100FF00000F086BA00F084BA00F082BA00F080BA3D
:1010000000F07EBA00F07CBA00F07ABA00F078BA4C
:1010100000F076BA00F074BA00F072BA00F070BA5C
:1010200000F06EBA00F06CBA00F06ABA00F068BA6C
:1010300000F066BA00F064BA00F062BA00F060BA7C
:1010400000F05EBA00F05CBA00F05ABA00F058BA8C
:1010500000F056BA00F054BA00F052BA00F050BA9C
:1010600000F04EBAFFF344BAFFF344BAFFF344BAB8
:10107000FFF344BAFFF344BAFFF344BAFFF344BAB0
:10108000FFF344BAFFF344BAFFF344BAFFF344BAA0
:10109000FFF344BAFFF344BAFFF344BAFFF344BA90
:1010A000FFF344BAFFF344BAFFF344BAFFF344BA80
:1010B000FFF344BAFFF344BAFFF344BA02F46CB846
:1010C000FFF342BA00F01CBAFFF342BAFFF342BA90
:1010D000FFF342BAFFF342BAFFF342BA00F010BA8C
:1010E000FFF342BAFFF342BAFFF342BA02F42CB85C
:1010F00002F453B802F452B802F46FB802F478B8AC
:1011000002F492B802F4B2B802F4CEB802F4F0B825
:1011100002F42CB902F42BB902F410B903F45ABE4C
:1011200003F448BE03F4B6BF03F4C5BF03F4CBBF5A
:1011300003F4D9BF04F416BE04F40EBE03F41CBEBF
:1011400004F412B800F0DCB9FFF318BAFFF318BAD0
:10115000FFF31CBAFFF31CBAFFF31EBAFFF31EBA6B
:10116000FFF31EBAFFF31EBAFFF31EBAFFF31EBA57
:10117000FFF31EBAFFF31EBAFFF31EBAFFF31EBA47
:10118000FFF31EBAFFF31EBAFFF31EBAFFF31EBA37
:10119000FFF31EBAFFF31EBAFFF31EBAFFF31EBA27
:1011A000FFF31EBAFFF31EBAFFF31EBAFFF31EBA17
:1011B000FFF31EBAFFF31EBAFFF31EBAFFF31EBA07
:1011C000FFF31EBAFFF31EBAFFF31EBAFFF31EBAF7
:1011D000FFF31EBAFFF31EBAFFF31EBAFFF31EBAE7
:1011E000FFF31EBAFFF31EBA00F08AB9FFF31CBA70
:1011F000FFF31CBAFFF31CBAFFF31CBAFFF31CBACF
:10120000FFF31CBAFFF31CBAFFF31CBAFFF31CBABE
:10121000FFF31CBAFFF31CBAFFF31CBAFFF31CBAAE
:10122000FFF31CBAFFF31CBAFFF31CBAFFF31CBA9E
:10123000FFF31CBAFFF31CBAFFF31CBAFFF31CBA8E
:10124000FFF31CBAFFF31CBAFFF31CBAFFF31CBA7E
:10125000FFF31CBAFFF31CBAFFF31CBAFFF31CBA6E
:10126000FFF31CBAFFF31CBAFFF31CBAFFF31CBA5E
:10127000FFF31CBAFFF31CBAFFF31CBAFFF31CBA4E
:10128000FFF31CBAFFF31CBAFFF31CBAFFF31CBA3E
:10129000FFF31CBAFFF31CBAFFF31CBAFFF31CBA2E
:1012A000FFF31CBAFFF31CBAFFF31CBAFFF31CBA1E
:1012B000FFF31CBAFFF31CBAFFF31CBAFFF31CBA0E
:1012C000FFF31CBAFFF31CBAFFF31CBAFFF31CBAFE
:1012D000FFF31CBAFFF31CBAFFF31CBAFFF31CBAEE
:1012E000FFF31CBAFFF31CBAFFF31CBAFFF31CBADE
:1012F000FFF31CBAFFF31CBA00F002B9FFF31ABAED
:10130000FFF31ABAFFF31ABAFFF31ABAFFF31ABAC5
:10131000FFF31ABAFFF31ABAFFF31ABAFFF31ABAB5
:10132000FFF31ABAFFF31ABAFFF31ABAFFF31ABAA5
:10133000FFF31ABAFFF31ABAFFF31ABAFFF31ABA95
:10134000FFF31ABAFFF31ABAFFF31ABAFFF31ABA85
:10135000FFF31ABAFFF31ABAFFF31ABAFFF31ABA75
:0813600000F0CEB800F0CCB89B
:1014000000800520ED450004954A0004696B000446
:10141000686B0004686B0004686B00040000000047
:10142000000000000000000000000000686B0004E5
:10143000686B000400000000FF6600041D670004E4
:10144000216300043F6300045D6300047B630004C8
:1014500099630004B7630004D5630004F3630004D8
:10146000116400042F6400044D6400046B640004E4
:1014700089640004A7640004C5640004E3640004F4
:10148000016500041F6500043D6500045B65000400
:101490007965000497650004B5650004D365000410
:1014A000F16500040F6600042D6600044B6600041D
:1014B0006966000487660004A5660004C36600042C
:0414C000E1660004DD
:10150000704601F435BDEC46A0E8F00FA0E80050AD
:10151000EFF3148CC0F800C04FF0000070470029B2
:1015200008BF0131B0E8F00FB0E80050026892F057
:10153000020F0CBF8CF309888CF3088882F314889F
:1015400008007047844641EA000313F003036DD19D
:10155000403A41D351F8043B40F8043B51F8043B76
:1015600040F8043B51F8043B40F8043B51F8043B7D
:1015700040F8043B51F8043B40F8043B51F8043B6D
:1015800040F8043B51F8043B40F8043B51F8043B5D
:1015900040F8043B51F8043B40F8043B51F8043B4D
:1015A00040F8043B51F8043B40F8043B51F8043B3D
:1015B00040F8043B51F8043B40F8043B51F8043B2D
:1015C00040F8043B51F8043B40F8043B51F8043B1D
:1015D00040F8043B403ABDD2303211D351F8043BBD
:1015E00040F8043B51F8043B40F8043B51F8043BFD
:1015F00040F8043B51F8043B40F8043B103AEDD26C
:101600000C3205D351F8043B40F8043B043AF9D2BC
:10161000043208D0D2071CBF11F8013B00F8013B8F
:1016200001D30B8803806046704700BF082A13D39C
:101630008B078DD010F003038AD0C3F10403D21AB4
:10164000DB071CBF11F8013B00F8013B80D331F8E8
:10165000023B20F8023B7BE7043AD9D3013A11F868
:10166000013B00F8013BF9D20B7803704B784370D3
:101670008B78837060467047000000000000000017
:1016800090F800F06DE9024520F007016FF0000CC2
:1016900010F0070491F820F040F049804FF000046A
:1016A0006FF00700D1E9002391F840F000F1080045
:1016B00082FA4CF2A4FA8CF283FA4CF3A2FA8CF37D
:1016C0004BBBD1E9022382FA4CF200F10800A4FAE4
:1016D0008CF283FA4CF3A2FA8CF3E3B9D1E9042338
:1016E00082FA4CF200F10800A4FA8CF283FA4CF36F
:1016F000A2FA8CF37BB9D1E9062301F1200182FA29
:101700004CF200F10800A4FA8CF283FA4CF3A2FA2E
:101710008CF3002BC6D0002A04BF04301A4612BA3C
:10172000B2FA82F2FDE8024500EBD2007047D1E93F
:10173000002304F00305C4F100004FEAC50514F0CE
:10174000040F91F840F00CFA05F562EA05021CBF9F
:1017500063EA050362464FF00004A9E700000000B9
:1017600001F0FF01102A2BDB10F0070F08D010F852
:10177000013B013A8B422DD010F0070F42B3F6D156
:10178000F0B441EA012141EA014122F007047FF06F
:1017900000070023F0E80256083C85EA010586EAC6
:1017A000010685FA47F5A3FA87F586FA47F6A5FA02
:1017B00087F68EB9EED1F0BC01F0FF0102F007020E
:1017C00032B110F8013B013A83EA010313B1F8D1B9
:1017D0000020704701387047002D06BF354603389A
:1017E000073815F0010F07D1013015F4807F02BFD3
:1017F000013015F4C03F0130F0BC0138704700BF24
:1018000081F0004102E000BF83F0004330B54FEAB1
:1018100041044FEA430594EA050F08BF90EA020F1E
:101820001FBF54EA000C55EA020C7FEA645C7FEAB1
:10183000655C00F0E2804FEA5454D4EB5555B8BFD4
:101840006D420CDD2C4480EA020281EA030382EA45
:10185000000083EA010180EA020281EA0303362DD7
:1018600088BF30BD11F0004F4FEA01314FF4801CAA
:101870004CEA113102D0404261EB410113F0004FBC
:101880004FEA03334CEA133302D0524263EB430373
:1018900094EA050F00F0A780A4F10104D5F1200E11
:1018A0000DDB02FA0EFC22FA05F2801841F100016C
:1018B00003FA0EF2801843FA05F359410EE0A5F140
:1018C00020050EF1200E012A03FA0EFC28BF4CF071
:1018D000020C43FA05F3C01851EBE37101F0004527
:1018E00007D54FF0000EDCF1000C7EEB00006EEB34
:1018F0000101B1F5801F1BD3B1F5001F0CD34908BE
:101900005FEA30004FEA3C0C04F101044FEA445214
:1019100012F5800F80F09A80BCF1004F08BF5FEA9B
:10192000500C50F1000041EB045141EA050130BD7B
:101930005FEA4C0C404141EB0101013C28BFB1F58D
:10194000801FE9D291F0000F04BF01460020B1FAD8
:1019500081F308BF2033A3F10B03B3F120020CDAAB
:101960000C3208DD02F1140CC2F10C0201FA0CF089
:1019700021FA02F10CE002F11402D8BFC2F1200CEE
:1019800001FA02F120FA0CFCDCBF41EA0C019040A4
:10199000E41AA2BF01EB0451294330BD6FEA0404ED
:1019A0001F3C1CDA0C340EDC04F11404C4F12002D8
:1019B00020FA04F001FA02F340EA030021FA04F3EA
:1019C00045EA030130BDC4F10C04C4F1200220FA41
:1019D00002F001FA04F340EA0300294630BD21FA7F
:1019E00004F0294630BD94F0000F83F4801306BF45
:1019F00081F480110134013D4EE77FEA645C18BF39
:101A00007FEA655C29D094EA050F08BF90EA020FCF
:101A100005D054EA000C04BF1946104630BD91EAC7
:101A2000030F1EBF0021002030BD5FEA545C05D1CA
:101A30004000494128BF41F0004130BD14F5800409
:101A40003CBF01F5801130BD01F0004545F0FE417D
:101A500041F470014FF0000030BD7FEA645C1ABFB2
:101A6000194610467FEA655C1CBF0B46024650EAE9
:101A7000013406BF52EA033591EA030F41F4002115
:101A800030BD00BF90F0000F04BF0021704730B59B
:101A90004FF4806404F132044FF000054FF0000170
:101AA00050E700BF90F0000F04BF0021704730B531
:101AB0004FF4806404F1320410F0004548BF404206
:101AC0004FF000013EE700BF42004FEAE2014FEA5B
:101AD00031014FEA02701FBF12F07F4393F07F4F36
:101AE00081F06051704732F07F4208BF704793F039
:101AF0007F4F04BF41F40021704730B54FF460744C
:101B000001F0004521F000411CE700BF50EA01024E
:101B100008BF704730B54FF000050AE050EA0102F7
:101B200008BF704730B511F0004502D5404261EB67
:101B300041014FF4806404F132045FEA915C3FF4A8
:101B4000D8AE4FF003025FEADC0C18BF03325FEA45
:101B5000DC0C18BF033202EBDC02C2F1200300FAF6
:101B600003FC20FA02F001FA03FE40EA0E0021FA1B
:101B700002F11444BDE600BF70B54FF0FF0C4CF409
:101B8000E06C1CEA11541DBF1CEA135594EA0C0FBB
:101B900095EA0C0F00F0DEF82C4481EA030621EAF6
:101BA0004C5123EA4C5350EA013518BF52EA033531
:101BB00041F4801143F4801338D0A0FB02CE4FF0E3
:101BC0000005E1FB02E506F00042E0FB03E54FF013
:101BD0000006E1FB03569CF0000F18BF4EF0010E0B
:101BE000A4F1FF04B6F5007F64F5407404D25FEA07
:101BF0004E0E6D4146EB060642EAC62141EA5551BA
:101C00004FEAC52040EA5E504FEACE2EB4F1FD0CFB
:101C100088BFBCF5E06F1ED8BEF1004F08BF5FEA79
:101C2000500E50F1000041EB045170BD06F000462B
:101C300046EA010140EA020081EA0301B4EB5C04D8
:101C4000C2BFD4EB0C0541EA045170BD41F48011D0
:101C50004FF0000E013C00F3AB8014F1360FDEBFF5
:101C6000002001F0004170BDC4F10004203C35DAD1
:101C70000C341BDC04F11404C4F1200500FA05F354
:101C800020FA04F001FA05F240EA020001F00042F5
:101C900021F0004110EBD37021FA04F642EB06016B
:101CA0005EEA430E08BF20EAD37070BDC4F10C0495
:101CB000C4F1200500FA04F320FA05F001FA04F259
:101CC00040EA020001F0004110EBD37041F1000145
:101CD0005EEA430E08BF20EAD37070BDC4F1200550
:101CE00000FA05F24EEA020E20FA04F301FA05F2B8
:101CF00043EA020321FA04F001F0004121FA04F260
:101D000020EA020000EBD3705EEA430E08BF20EA2F
:101D1000D37070BD94F0000F0FD101F00046400069
:101D200041EB010111F4801F08BF013CF7D041EAEB
:101D3000060195F0000F18BF704703F000465200EF
:101D400043EB030313F4801F08BF013DF7D043EAC0
:101D50000603704794EA0C0F0CEA135518BF95EA76
:101D60000C0F0CD050EA410618BF52EA4306D1D1FD
:101D700081EA030101F000414FF0000070BD50EA1C
:101D8000410606BF1046194652EA430619D094EAA6
:101D90000C0F02D150EA013613D195EA0C0F05D190
:101DA00052EA03361CBF104619460AD181EA0301E4
:101DB00001F0004141F0FE4141F470014FF000009C
:101DC00070BD41F0FE4141F4780170BD70B54FF037
:101DD000FF0C4CF4E06C1CEA11541DBF1CEA1355B7
:101DE00094EA0C0F95EA0C0F00F0A7F8A4EB050499
:101DF00081EA030E52EA03354FEA013100F0888090
:101E00004FEA03334FF0805545EA131343EA126358
:101E10004FEA022245EA111545EA10654FEA00260D
:101E20000EF000419D4208BF964244F1FD0404F5C6
:101E3000407402D25B084FEA3202B61A65EB030522
:101E40005B084FEA32024FF480104FF4002CB6EBDF
:101E5000020E75EB030E22BFB61A754640EA0C005F
:101E60005B084FEA3202B6EB020E75EB030E22BF9F
:101E7000B61A754640EA5C005B084FEA3202B6EBE0
:101E8000020E75EB030E22BFB61A754640EA9C009F
:101E90005B084FEA3202B6EB020E75EB030E22BF6F
:101EA000B61A754640EADC0055EA060E18D04FEA2D
:101EB000051545EA16754FEA06164FEAC30343EACD
:101EC00052734FEAC2025FEA1C1CC0D111F4801F9A
:101ED0000BD141EA00014FF000004FF0004CB6E793
:101EE00011F4801F04BF01430020B4F1FD0C88BF32
:101EF000BCF5E06F3FF6AFAEB5EB030C04BFB6EB3D
:101F0000020C5FEA500C50F1000041EB045170BD2F
:101F10000EF0004E4EEA113114EB5C04C2BFD4EB5C
:101F20000C0541EA045170BD41F480114FF0000EE0
:101F3000013C90E645EA060E8DE60CEA135594EA5C
:101F40000C0F08BF95EA0C0F3FF43BAF94EA0C0F5F
:101F50000AD150EA01347FF434AF95EA0C0F7FF4D4
:101F600025AF104619462CE795EA0C0F06D152EA28
:101F700003353FF4FDAE1046194622E750EA41060C
:101F800018BF52EA43067FF4C5AE50EA41047FF41D
:101F90000DAF52EA43057FF4EBAE12E74FF0FF3C82
:101FA00006E000BF4FF0010C02E000BF4FF0010C53
:101FB0004DF804CD4FEA410C7FEA6C5C4FEA430CCC
:101FC00018BF7FEA6C5C1BD001B050EA410C0CBF1B
:101FD00052EA430C91EA030F02BF90EA020F00207D
:101FE000704710F1000F91EA030F58BF994208BFE4
:101FF00090422CBFD8176FEAE37040F001007047A1
:102000004FEA410C7FEA6C5C02D150EA013C07D1F7
:102010004FEA430C7FEA6C5CD6D152EA033CD3D042
:102020005DF8040B704700BF8446104662468C463C
:102030001946634600E000BF01B5FFF7B7FF00286F
:1020400048BF10F1000F01BD4DF808EDFFF7F4FF98
:102050000CBF012000205DF808FB00BF4DF808ED23
:10206000FFF7EAFF34BF012000205DF808FB00BF46
:102070004DF808EDFFF7E0FF94BF012000205DF868
:1020800008FB00BF4DF808EDFFF7CEFF94BF01201D
:1020900000205DF808FB00BF4DF808EDFFF7C4FF16
:1020A00034BF012000205DF808FB00BF4FEA410C5F
:1020B0007FEA6C5C02D150EA013C0AD14FEA430C42
:1020C0007FEA6C5C02D152EA033C02D14FF000007F
:1020D00070474FF0010070474FEA410212F50012BD
:1020E00015D211D56FF47873B3EB625212D94FEA5F
:1020F000C12343F0004343EA505311F0004F23FA49
:1021000002F018BF404270474FF00000704750EA9D
:10211000013005D111F0004008BF6FF0004070475A
:102120004FF00000704700BF53B94AB9002908BFFB
:1021300000281CBF4FF0FF314FF0FF3000F06CB9AA
:10214000ADF1080C6DE904CE00F006F8DDF804E00E
:10215000DDE9022304B070472DE9F047089E0D46E3
:1021600004468E46002B40F082808A42174646D9AC
:10217000B2FA82F24AB1C2F1200105FA02F320FA62
:1021800001F1974041EA030E94404FEA1748230CAF
:10219000BEFBF8FCB9B208FB1CEE43EA0E430CFB95
:1021A00001F098420AD9FB180CF1FF3580F0168136
:1021B000984240F21381ACF1020C3B441B1AA4B2CA
:1021C000B3FBF8F008FB103344EA034400FB01F1D1
:1021D000A14209D93C1900F1FF3380F00181A142ED
:1021E00040F2FE8002383C44641A40EA0C40002170
:1021F0001EB1D4400023C6E90043BDE8F08702B910
:10220000FFDEB2FA82F2002A4FD1CB1B4FEA174E03
:102210001FFA87F80121B3FBFEFC250C0EFB1C33D3
:1022200045EA034508FB0CF3AB4207D97D190CF1D5
:10223000FF3002D2AB4200F2E7808446ED1AA3B22F
:10224000B5FBFEF00EFB105543EA054408FB00F811
:10225000A04507D93C1900F1FF3302D2A04500F296
:10226000D7801846A4EB080440EA0C40C0E78B4234
:1022700008D9002E00F0AF800021C6E9000508460D
:10228000BDE8F087B3FA83F100294BD1AB4202D30A
:10229000824200F2B780841A65EB030301209E4658
:1022A000002EAAD0C6E9004EA7E7C2F1200C01FA21
:1022B00002F3974020FA0CF04FEA174E21FA0CFC7B
:1022C0001843BCFBFEF1050C0EFB11CC1FFA87F87E
:1022D00045EA0C4501FB08F3AB4204FA02F409D9C4
:1022E0007D1901F1FF3C80F08B80AB4240F2888089
:1022F00002393D44EB1A85B2B3FBFEF00EFB1033FE
:1023000045EA034500FB08F3AB4207D97D1900F10C
:10231000FF3C71D2AB426FD902383D44EB1A40EA20
:10232000014178E7C1F1200C8B4022FA0CF71F43E2
:1023300020FA0CF405FA01F34FEA174E25FA0CF5D2
:102340001C43230CB5FBFEF91FFA87F80EFB195549
:1023500043EA054509FB08FAAA4502FA01F200FA28
:1023600001F308D97D1909F1FF3047D2AA4545D9B3
:10237000A9F102093D44A5EB0A05A4B2B5FBFEF0A4
:102380000EFB105544EA054400FB08F8A04507D9A8
:102390003C1900F1FF352DD2A0452BD902383C4421
:1023A00040EA0940A4EB0804A0FB02894C45C6465C
:1023B0004D4619D316D05EB1B3EB0E0264EB0504A3
:1023C00004FA0CFCCA404CEA0202CC40C6E90024E4
:1023D0000021BDE8F087314630460EE7AC46EDE619
:1023E000184601E74345E6D2B8EB020E69EB070554
:1023F0000138E0E72846D3E760468FE78146BAE731
:10240000614677E708464BE7ACF1020C3D4415E71F
:1024100002383C4426E700BF704700BF012003F0AC
:102420007FBA0000012838B5114D044611D12B7830
:10243000012B04D00F4A0023014600F0ADFD00201F
:102440002C7003F06DFABDE838400B490B48FEF3E1
:1024500063B038B92B78002BF1D001210346084A2C
:102460000846EAE707497222012000F059F9E6E739
:10247000A0890320A5AF00041D24000440420F00E2
:10248000BAAF000498AD000408B5002003F072FB59
:10249000012108460023044A00F07EFDBDE8084003
:1024A00002490348FEF338B0CFAF000441250004D1
:1024B000404B4C000121024A0023084600F06CBD4D
:1024C000F4AF000437B50022114601230B2003F0BE
:1024D0008BFA0B2003F08CF904460B2003F08EFAE4
:1024E0004FF47A75C4F30D036B4301219B0BC4F3C6
:1024F0008F340193009408460F4A002300F04CFDEE
:1025000000231A4619460C2003F06EFA0C2003F043
:102510006FF904460C2003F071FAE3B25D43012128
:102520002D0A44F30724054A019500940023084628
:1025300000F032FD03B030BD0DB0000425B0000442
:1025400037B5274C2378052B03D1FFF7B3FF0023C2
:1025500023702378234A009301210846002300F0CA
:102560001BFD2378002201331146104623700123FE
:1025700003F03AFA002003F03BF90546002003F08F
:102580003DFAC5F30D024FF47A7353439B0B0121BF
:10259000C5F38F350193144A00950023084600F0D7
:1025A000FBFC2378052B18D1FFF78CFF012108468F
:1025B0000E4A002300F0F0FC0D4B00934FF48041D5
:1025C00001234FF40042002003F0FAF909490A48B8
:1025D00003B0BDE83040FDF39FB70849F7E700BFFF
:1025E000689303203CB0000455B000046EB00004B2
:1025F0002524000489240004404B4C00412500049C
:1026000008B500F0A7F803F087F80121152003F0C2
:1026100015FB074B0021587D03F00AFB4FF47A703D
:1026200003F062FEFFF746FFBDE80840FFF788BFF2
:1026300074AF0004032810B5044606D902F09CFBD1
:10264000042003F041FE201F10BD0020FCE7000025
:10265000F0B51446164A8FB00D460646516810680C
:1026600003AB03C31E271189927A19809A70002147
:102670003A460DF1170004F0A7FA02F09BFB0D4B50
:102680001D600D4B3A4629460DF116001C8004F0E2
:10269000EBFA00F0D3FC022303AA00213046009499
:1026A00000F07AFC00F0CAFC02F094FB0FB0F0BD21
:1026B0009DAD0004089D03200C9D032007B508462E
:1026C00011461A46074B1B684BB18DF80000ADF858
:1026D000022001916846984703B05DF804FBFFF7BC
:1026E000B7FFF9E76C93032073B501230B4D8DF809
:1026F00007301C4600269DF807300BB902B070BDAC
:1027000002F03AFB2B683BB12E604FF4FA7003F0F5
:10271000EBFD00F093FCEEE72C60F6E700280242A8
:1027200008B513460A4601460020FFF7C7FFBDE87B
:102730000840FFF7D9BFF8B50D4616461F46FFF70C
:1027400079FF044620B93A4631462846FFF7E8FFAC
:102750002046F8BD07B500F045F800F017FC002052
:1027600001F0CCFC19481A4903680A7843F4843311
:1027700043F08403036042F00103164A0B701168B2
:10278000154B0B431360FDF363F4144A00900023D0
:102790000121232000F000FCFDF35AF428B9104970
:1027A0004FF489722320FFF7BBFFFDF3A1F6FDF381
:1027B000A9F60020FDF3A0F600F0AAFC01F05CFCF5
:1027C00003B05DF804EB00F0A1BC00BF240B004097
:1027D000280B004000E100E0100824088FB000043E
:1027E000C6AD000408B500F093F8BDE8084000F05D
:1027F0005BBA000010B504460C48984308D00C485A
:10280000984305D00B48984302D00B48984304D115
:10281000204600F065FA00B110BD0B2C04D007492A
:10282000F2220A20FFF77CFF0020F5E7010000807C
:10283000020000800020008000400080DDAD000428
:1028400000F026BB00F034BB00F042BB00F0F0BA51
:1028500010B502F0AFFA0B49087810F0010302D06E
:1028600083070CD401230122074C9A40024388209D
:102870000A7000FB034402F0ADFA204610BD0024AC
:10288000F9E700BF709303207493032010B504464A
:1028900002F090FA0F4B9C42A3F104010BD0883355
:1028A0009C4214D002F096FABDE810400A49EA2290
:1028B0000A20FFF735BF0022012303FA02F20B784A
:1028C00023EA02030B70BDE8104002F083BA012234
:1028D000F2E700BF74930320E4AD000438B5054669
:1028E00002F068FA094BD3F814411CB1D3F818214F
:1028F00052B9012403EB8403C3F8145102F06AFABD
:10290000A01E18BF012038BD0224F7E770930320F2
:10291000064B0022C3E9452283F81C21C3F820217D
:1029200083F82421C3F828211A707047709303207C
:1029300010B40C4B827993F81C11914202D1D3F858
:10294000204134B993F82411914208D1D3F8284199
:102950002CB10268C11D2346808810BC184710BCEA
:10296000704700BF70930320034BD3F81401003865
:1029700018BF0120704700BF7093032010B500F00E
:10298000AEFA02F017FA0B4BD3F8144134B1D3F876
:102990001821C3F814210022C3F8182102F01AFAF2
:1029A0003CB12046FFF7C4FF2046BDE81040FFF7CA
:1029B0006DBF10BD70930320FFF7E0BF38B505462B
:1029C000FFF78CFF044680B92846FFF75FFF074AF0
:1029D000234601210A2000F0DFFABDE8384004490F
:1029E00040F263220A20FFF79BBE38BDBDB0000451
:1029F000E4AD00042DE9F04F87B04318DFF878917B
:102A0000DFF878A1DFF878B1059314460646012770
:102A10004FF00008059BB34203D1384607B0BDE82C
:102A2000F08FA17916F8015B022958D00329238978
:102A30007AD019BB052B21D8DFE803F0031E383A02
:102A40003C4F532DE6D10023A3800127B8F1000F9E
:102A500014D12946201D00F0A5FC238901339BB227
:102A6000052B2381D6D96389A4F80880002B14BFD5
:102A700002230323A371CDE7592DE7D02389A2793F
:102A800003B952B16189CDE90053CDE90221082390
:102A90004A4601210A2000F07FFA206818B1FFF7AA
:102AA000F5FE002323604FF001085DE04E2DE4E7C2
:102AB0006581CBE761892B0203F470630B449BB201
:102AC0007F2B6381C2D97F22CDE90032012104230B
:102AD0005A460A2000F060FAD0E72573B6E723686B
:102AE00053B9FFF7B5FE0346206028B952460121CD
:102AF0000A2000F051FAC1E7218923680B44201D08
:102B0000DD71294600F04EFC2389618901339BB2B7
:102B10009942238103D80323A37100232381B8F1B1
:102B2000000F3FF477AFA9E733B1012BA6D1A188FD
:102B3000B5EB112FA2D102E021798D429ED1B8F1DF
:102B4000000F9BD101339BB2012B23817FF662AF33
:102B500063894BB120688380237B83712369036081
:102B6000FFF72CFFC4F800800023A371A360237338
:102B70004FEA48074EE700BFEDB00004DDB00004A7
:102B8000D0B00004074B33EA000100EA030202D090
:102B90000549814303D1D01A18BF01207047FF2097
:102BA000704700BF01000080020000802DE9F84F4F
:102BB00099460B88DDF82880834204460F46164666
:102BC00037D31288DFF870A0B8F800009442504460
:102BD0001AD94946FEF7B6FC3588A4EB050B1FFA57
:102BE0008BFB09EB05015A465046FEF7ABFCA8F8F3
:102BF00000B0308804442D1B3C882544ADB23D8094
:102C000035800020BDE8F88F22464946FEF79AFC41
:102C1000B8F8003023449BB2B3F5C06F28BF00233F
:102C2000A8F800303B881B1B3B803088041B348095
:102C3000E7E70120E6E700BF9C94032008B5054BB9
:102C4000834305D0FFF79EFFBDE8084000F078B948
:102C500008BD00BF0020008008B5FFF793FF054BBB
:102C600003EB4003B3F80006B3F80236C01A18BFEE
:102C7000012008BD9C94032010B5FFF783FF09498C
:102C800001EB40024FF4C064B2F8003604FB0010C0
:102C9000C05C01339BB2A34228BF0023A2F80036D8
:102CA00010BD00BF9C94032010B50B4C02F082F8BD
:102CB0000023A4F80236A4F8003684F80436A4F8F9
:102CC0000636064BFF221A7500F02AF902F082F848
:102CD000012384F8083610BD9C940320109D032026
:102CE0002DE9F04389B081460E4690461F46FFF716
:102CF000A7FD044600284DD03846FFF743FF0446A1
:102D0000002840F09180494DADF8140045F653136A
:102D1000ADF818304E238DF81A3095F809368DF835
:102D20001B60C6F3032242EA0312013303F00703D8
:102D30008DF81C2006A9062205A885F809368DF80D
:102D40001D9000F015FB05A83246414600F010FB2F
:102D500002F030F8B5F80006B5F8023698421DD8F2
:102D600000F2FF50C01AC3F5C062ADF81000ADF814
:102D70001220BDF8101006F1080292B2914215D24D
:102D8000012385F80436B5F806360133A5F8063672
:102D900002F020F8204609B0BDE8F0830138C01ADF
:102DA00080B2ADF81000ADF81200E2E795F8042605
:102DB000002AE8D10DF11609ADF81630CDF80090D3
:102DC00006AB0DF1120204A90620FFF7EFFE044640
:102DD000E8B9CDF8009043460DF1120204A930463F
:102DE000FFF7E4FE044690B9BDF81430ADF80C309E
:102DF000CDF8009003AB0DF1120204A90220FFF7F9
:102E0000D5FE044618B9BDF81630A5F8023601F013
:102E1000E1FFB4FA84F401F0CDFF3846FFF70EFF6E
:102E2000640901F0D7FFB5E70024B3E79C940320C1
:102E300037B5154D95F8043623B301F0BBFFB5F84F
:102E40000036B5F80226934294BF03F2FF5403F113
:102E5000FF34A41AA4B201F0BDFF802C12D9B5F83A
:102E60000636002485F8044663B102228DF804205A
:102E7000ADF8053001AA054B03210A20FFF7BAFC83
:102E8000A5F8064603B030BD9C94032001000080E5
:102E900008B5002003F02AF9044A034692F8080610
:102EA00010B1181E18BF012008BD00BF9C9403205C
:102EB00008B5FFF7EDFF38B1044BB3F80006B3F8DF
:102EC0000236C01A18BF012008BD00BF9C94032021
:102ED00008B500F02FF8BDE80840FFF7A9BF00F0E3
:102EE0002CB80000024A034B1361FFF783BD00BFFB
:102EF000109D03200100008010B501F05BFF074822
:102F0000FFF7AAFE38B10548FFF7B6FE04B201F09C
:102F100061FF204610BD4FF0FF34F8E7010000804C
:102F200002490348002203F0D7B800BFF92E00047D
:102F3000E52E0004002003F0FFB8002003F03CB9A8
:102F400008B903F0E1B87047084B00221A7001225B
:102F50005A7002229A700322DA7004221A71052232
:102F60005A7106229A710722DA7170474C0C0040A0
:102F700007B500230090044A01213C2000F00CF822
:102F8000002003B05DF804FB02B10004014B0022F5
:102F90001A707047A69A032008B430B59EB0044654
:102FA0001546FFF74DFC002839D022AB2A465B219D
:102FB0000DF11100019303F0C3FE02238DF80830D8
:102FC0000023ADF80A308DF8094001F0F3FE164AEF
:102FD00013780133DBB213708DF80C3001F0FAFE78
:102FE000124B1B6823B1124945220B20FFF798FBB7
:102FF000104B1B680DF111005B09CDF80D30FEF789
:103000003FFB1EAB0930C1B253FA80F0002300F839
:10301000703C02AA084B01310B20FFF7EBFB1EB0FE
:10302000BDE8304001B07047A69A03205421014208
:10303000EEAD00040C09004001000080FFF704BC65
:1030400038B5002001F098F8074D102400F03CFE40
:10305000013C14F0FF0405F8010BF7D1BDE838403E
:10306000012001F089B800BFA89A03202DE9F74F8D
:10307000244FDFF89480019106460025B54202D323
:1030800003B0BDE8F08F741B102C28BF1024FDF393
:103090003BF2D8E9001200F00303E4B23B744FF0B6
:1030A000000C49F2690B44F2506A03EB0C0E88B233
:1030B0000EF0030E090C0BFB001190B2120C0AFB70
:1030C000002257F82E0002EB01490CF1010C89EAAD
:1030D0000000BCF1040F47F82E00E6D1C8E9001249
:1030E000019A9B0050190022D1B28C4202D825448B
:1030F000EDB2C3E7991801F00F010132795C00F8D5
:10310000011BF1E7A89A0320A4890320FFF798BFC9
:1031100007B50B4B18681B7900908DF8043001F04F
:1031200037FE04280AD801F033FE02AB184410F829
:10313000083C044A137003B05DF804FB0023F8E771
:10314000FFAD0004289D032010B5064C0648234619
:103150000A22182100F02EF84FF4807323820023F6
:10316000A37410BD389D03204C9D032008B572B692
:10317000054B01221A7001F07BFE01F02BFEBDE829
:103180000840FFF73DBA00BF8A9C032008B5FFF74F
:10319000EDFFFDF3D3F1FCE770477047704703681C
:1031A00023B1586043681BB1186070474860F9E765
:1031B0000860704770B5013A0546002489B2A24202
:1031C00006D84A43811800248450C3E9000170BD29
:1031D0006E182E6001343546F1E710B5044601F053
:1031E000E9FD0023C4E90033BDE8104001F0F2BD61
:1031F00010B5044630B10A4B1B781BB1206848B9A2
:10320000002010BD0749A3220420FFF789FA002CF3
:10321000F4D1F5E70368236003B963600830F0E791
:103220008A9C032004AE000438B505460C4611B153
:103230000C4B1B7823B90C49CD220420FFF770FA00
:1032400025B90949CE220420FFF76AFAA5F1080042
:1032500063684360002345F8083C2146BDE83840D8
:10326000FFF79DBF8A9C032004AE000470B506469C
:103270000C46154612B10A4B1B7823B90949DE22C8
:103280000420FFF74DFAA6F10800083C636843608C
:10329000294646F8084CBDE87040FFF780BF00BFE4
:1032A0008A9C032004AE000438B504460D4611B1D3
:1032B0000D4B1B7823B90D49F0220420FFF730FA9B
:1032C00024B90A49F4220420FFF72AFA54E9022318
:1032D0002BB11A6054F8082C1AB1536038BD2A601B
:1032E000F8E76B60FAE700BF8A9C032004AE000495
:1032F00038B505460C4611B10E4B1B782BB90E495B
:1033000040F21D120420FFF70BFA2DB90A4940F2D2
:1033100021120420FFF704FA6268A5F1080302B144
:1033200013600022636045F8082C226802B923600C
:1033300038BD00BF8A9C032004AE000438B5094B99
:1033400004461B78006800F108052BB9064940F2D5
:103350003D120420FFF7E4F92368002B14BF284630
:10336000002038BD8A9C032004AE000470477047DB
:10337000F0B501394FF6FF754AF20106013A92B2F3
:10338000AA4200D1F0BD048811F8013F634008242F
:1033900003F001075B080FB173409BB2013CF7D10A
:1033A0000380EBE707B501228DF807100DF1070147
:1033B000FFF7DEFF03B05DF804FB000010B1084B1F
:1033C00040221A70074B1860C3F86C0703F58E4350
:1033D00038331860A3F58E43303B1960704700BF47
:1033E0006E0900402020014238B50A4B0A4C0B4DB3
:1033F00018608022596042F2107003F81C2C236878
:103400003BB140F207132A460721FFF794F9002841
:10341000F5D138BD240900405021014210AE00040E
:10342000024B40221A70BFF34F8F704708090040CB
:1034300008B500F0EDFE012819D1144B18680003FF
:10344000134B002218605A60012203F82B2C114AFA
:103450001368002BFCD1104A1368002BFCD001200C
:1034600002F032FF0D4A1368002BFCD108BD48B9A9
:10347000064B59680A4B08059A88090B0023FEF78A
:1034800053FEDDE74FF08040DAE700BFAC89032050
:10349000340900405C2101424C210142502101428B
:1034A000BC9A032010B50446E8B900F03BFFC0B950
:1034B000154B9979B1FA81F14909C9B20120FFF799
:1034C0007DFF94B91149104B0A789B8802F08F0256
:1034D0000A70013B0E4A9BB21380BDE81040FFF713
:1034E0009FBF0121E9E70121E8E7012C0AD1074A42
:1034F000137803F08F0343F010031370044BFF2283
:103500001A80EAE710BD00BFBC9A03200109004001
:103510000209004038B5074D074B01240A201B68FB
:10352000EC7100F0BDFF2C722046BDE83840FFF77B
:10353000B9BF00BFBC9A03200C09004008B5094B75
:1035400000221A72D8601B78012B05D0064940F280
:10355000E2220720FFF7E4F8BDE808400020FFF76B
:10356000A1BF00BFBC9A032010AE00047FB5104D70
:1035700004461022002168462E7A03F025FBA4B9E8
:10358000FF2E12D105238DF800300A4942F2107344
:103590006846019300F0DEFEFF28287205D1064937
:1035A00040F2C6220720FFF7BBF804B070BD00BF91
:1035B000AC890320ED35000410AE0004094B70B552
:1035C0001D6855B9084B1E6800F022FE044630B94C
:1035D0003046FFF7B3FF204670BD0124FBE72C46C1
:1035E000F9E700BF586701420C09004010B500F030
:1035F0000FFE044600F096FEA4B978B10A4B1B6892
:1036000043B10A4B1B7A2BB9094B196811B908460B
:10361000FFF7D4FEBDE81040FFF7D0BF034B5B7847
:10362000002BF7D110BD00BF58670142BC9A0320A0
:1036300028200142F8B5431E17469BB240F6FE72A1
:10364000934206460D4605D9174940F2C512072098
:10365000FFF766F86B1E1F2B05D913494FF4E37271
:103660000720FFF75DF8114C01230021802204F1AF
:1036700010002370A680A570677003F0A5FA217A68
:10368000002384F89030A37169B9094B4FF0FF32E1
:103690005A60084B1B6833B10846FFF78FFEBDE840
:1036A000F840FFF78BBFF8BD10AE0004BC9A0320B2
:1036B000AC8903205867014208B5134B002098716C
:1036C000A3F8920083F89400D86083F89000024633
:1036D00010330130202843F8042BFAD10B4A138809
:1036E0009BB26BB10A4B108819785A7880B2C9B274
:1036F000D2B2FFF79FFF074BFF221A725A7208BD22
:1037000001220821F5E700BFBC9A032060003804BD
:1037100062003804AC890320022808B50ED100F0FD
:1037200077FD0128014609D100230720044AFFF74D
:1037300033FCBDE80840002000F040BD08BD00BFDC
:1037400026B10004F8B5464B1B685BB3454B01221C
:103750001A60BFF34F8F444A15880232ADB2127817
:1037600045EA024500221A60404C277A012F3CD1DD
:10377000284600F09FFE054698B300210846FFF753
:103780001DFE012D3A4E10D0022D25D00023394ABE
:1037900039460720FFF700FC0223E3714FF0FF33A7
:1037A000336007E04FF0FF35DEE70323E37100F0FD
:1037B00017FF306000F0E0FE0146E079FFF7ACFF54
:1037C0002D4B00221A607368013348D12B4B1868C7
:1037D000BDE8F840FFF7B2BE0323E37100F0EAFE54
:1037E000E7E7BDE8F840FFF71BBE002F37D16E1C9E
:1037F000F7D0A6782EB9224940F2A1320720FEF771
:103800008FFF94F8903004EB830201331561B3FB12
:10381000F6F21C4D06FB1233002284F8903013465A
:10382000D1B2B14210D3751A68426841A07199B9FA
:103830004FF0FF330E4A8E425360D2D10021BDE8D3
:10384000F8400846FFF7BABD55F8040B571C00288E
:10385000E9D003443A46E3E7B3FBF2F3EAE7F8BD05
:10386000682101422C2001421C090040BC9A03201F
:10387000AC89032051B1000440C000420C09004053
:1038800010AE0004CC9A0320012806D9022809D1E1
:103890004FF496716420FFF7A7BD40F2A4614FF486
:1038A0009660F8E700210846F5E7000008B500F04B
:1038B000AFFC02280DD0074B18680538B0F5C87F5B
:1038C00038BF4FF4C870BDE8084000F5FA71FFF743
:1038D0008BBD08BD2409004038B505460C4601F0F3
:1038E00069FA05F00700ED0805F18045231E4FF049
:1038F000010218BF012395F8381B82408340134012
:10390000DBB221EA0202134385F8383BBDE83840B8
:1039100001F060BA094B1B6810B504462BB1084989
:1039200040F2F6320720FEF7FBFE01F043FA054BAA
:103930001B682360BDE8104001F04CBA54210142DD
:1039400010AE00040C090040094A08B5B2F89230E4
:1039500013F0010004D143F00103A2F8923008BD36
:103960000720044940F20E42FEF7DAFEFF20F6E798
:10397000BC9A032010AE000438B5054628B10D49A5
:1039800040F215420720FEF7CBFE0B4CB4F8923004
:103990002B41DB0705D4074940F216420720FEF70A
:1039A000BFFE0120A840B4F8925025EA0005A4F813
:1039B000925038BD10AE0004BC9A03202DE9F047A8
:1039C00005460C4629B1284940F21C420720FEF763
:1039D000A7FE01F0EFF9E708012304F00706234AE8
:1039E00003FA06F607F18047F6B287F842691370CA
:1039F000BFF34F8FDFF87890DFF86CA042F21070C1
:103A0000C846D9F800303BB140F221435246072165
:103A1000FEF791FE0028F4D104F1022440342B4635
:103A20002401103518685968224603C20833AB4296
:103A30001446F7D10D4B87F8406901221A70BFF385
:103A40004F8F094C42F21070D8F800303BB140F271
:103A5000264322460721FEF76EFE0028F4D1BDE87A
:103A6000F04701F0B7B900BF10AE00044E090040A6
:103A7000F82B014270B5044628B1194940F22F4293
:103A80000720FEF74DFE01F095F904F102234033C3
:103A90001B019D7B05F00F05042D1CD0012204F0B5
:103AA0000703E40802FA03F304F18044DBB284F86C
:103AB00042390C4B1A70BFF34F8F0B4C084E42F239
:103AC000107023683BB140F2374332460721FEF7BE
:103AD00032FE0028F5D101F07DF9284670BD00BF07
:103AE00010AE00044E090040F82B01422DE9F843C6
:103AF0000F461646044628B1134940F241420720BA
:103B0000FEF70EFE4FEAD40804F007054FF0010956
:103B100004F1022408F1804809FA05F54034EDB2B9
:103B2000240101F047F9052088F8425902F0CCFB46
:103B30002760A67388F8405901F04CF9034B83F8CD
:103B40000090BDE8F88300BF10AE00044E090040AD
:103B500008B500F05DFB02280DD0074B18686430F3
:103B6000B0F57A6F28BF4FF47A60BDE8084000F5E1
:103B7000FA71FFF739BC08BD24090040014BD87920
:103B8000704700BFBC9A0320234B1B6810B54BB194
:103B9000224B02221A70224B1B68002B3AD0BDE840
:103BA000104018471F4B1B781A0702D01E4B0F22DC
:103BB000F0E71E4B1B682BB11D494FF4FB72072029
:103BC000FEF7AEFD1B4B1B6833B1174B40221A703A
:103BD000BDE81040FFF7B6BD174B1B889BB23BB941
:103BE000BDE81040124940F20E220720FEF798BDB2
:103BF000DB070FD5114B1B78C3F30113023B012BDD
:103C000001D8FFF7A5FF064B5B6803B198470C4B43
:103C100001221A8010BD00BFE46E01426F0900400E
:103C2000549B0320760B00406E090040E06E014279
:103C30001AAE0004D86E0142680900400E2400202C
:103C40006C09004010B5034C236803B910BDFFF7A1
:103C50009BFFF9E79C6001422DE9F047134BDFF829
:103C60005C80134F134EDFF85890DFF858A0012402
:103C700000251C6064205C60C8F800503D60356021
:103C8000C9F80040CAF8004002F01EFB0A4BCAF80F
:103C900000500222C9F800501C701A7004221A70D9
:103CA000C8F800403C603460BDE8F087049A0042E8
:103CB00004690142006901420F01004008690142A4
:103CC000009A004214830042034B01221A60034A07
:103CD000107800221A607047009A0042D404004015
:103CE00010B5084B01241C600A2043F8084C1C61E5
:103CF00002F0EAFA044B20461C60BDE8104002F0D6
:103D0000E3BA00BF3CA7014250A701423A4A002350
:103D10002DE9F047137002F1007202F57842042594
:103D20001360536002F51E42C0321360334B4FF4F0
:103D300044721A804FF43C7223F8022C022003F8DC
:103D40000B5C5C7E02F0C0FA2D4B012628461E70EB
:103D500002F0BAFA2B4B1B889BB2B3F5407F04F0FC
:103D60001F04A3F54077B4BF35464FF0FF358CB341
:103D70001F2C08BF4FF0FF35DFF88C80DFF88090F4
:103D8000DFF880A02C44E3B288F80030022002F073
:103D90009BFA012389F80030042002F095FABAF862
:103DA0000030012DA4EB05069BB215D1B3F5407F81
:103DB0001CDA1F2C14D1C3F54073002FB8BF7F420B
:103DC0009F4216DA104BF6B21E70BDE8F047022093
:103DD00002F07ABA3546CFE7B3F5407F05DD2CB166
:103DE000A3F5407706EB4504CDE7E4D1A3F5407396
:103DF000E3E7BDE8F08700BF000D00400C0D004078
:103E00002A0D0040200D0040020D0040F8B5214B66
:103E1000214E224D224F00241C600A2002F054FA49
:103E20002048346001232C60036040F8043C40F8D3
:103E3000143C1D4B1D4C8020187042F210702368FA
:103E4000012B06D085233A460721FEF774FC002893
:103E5000F5D1154C80232370022002F035FA10238F
:103E6000237020232370124A4023237001231370F0
:103E70000022336004202A6008210222237022706D
:103E8000207021700B490A70087001F82A3C0A4B17
:103E90001A70F8BD34A70142000501420405014231
:103EA00025AE0004D4A30142280D00409CA5014288
:103EB000290D00402A0D00400408004038B50C4B85
:103EC0000C4C0D4D01221A6042F210702368012B38
:103ED00006D09E232A460721FEF72DFC0028F5D1A7
:103EE000FFF7FEFEFFF712FFBDE83840FFF78EBF79
:103EF0003CC00042A0C4004225AE000438B5124BBD
:103F0000124C134D01221A6042F210702368012BEB
:103F100006D0A7232A460721FEF70DFC0028F5D17D
:103F20000C4A0023137002F1007202F5784213600C
:103F3000536002F51E42C0321360C2F89033C2F8DB
:103F40008C33C2F87C3338BD38C00042A4C4004270
:103F500025AE0004000D004038B50B4B0B4C0C4D4A
:103F600001221A6042F210702368012B06D0B4239C
:103F70002A460721FEF7DFFB0028F5D1FFF7B0FE48
:103F8000BDE83840FFF742BF3CC00042A0C4004239
:103F900025AE0004014B01221A6070479CC6004206
:103FA00070470000134B144919221A7026225A70C8
:103FB0005A7906331B789B1A104ADBB2137003F14F
:103FC0000C02D2B20A7015330D4ADBB213700D4ADF
:103FD0000023136002F5E132DC3213600A4A1378E1
:103FE00003F01F0343F0E0031370084B01221A6033
:103FF000704700BF3D020040400200403F020040C9
:1040000041020040844A00422C06004030C7004272
:10401000154B03221A70154A012302211370917364
:1040200004211177124A136053609360D3600C32FD
:10403000536193619363D36353659365D36513664B
:1040400053679367C2F88030C2F88430C2F8883072
:10405000C2F88C30C2F89030064A4FF6FF731380D6
:1040600022F84C3C704700BFBB2600208026002071
:10407000E0D80422CE26002008B5FFF74BFA00F066
:1040800015F9BDE80840012000F076B8174B1B88F1
:1040900010B59CB21B0505D515494FF4AC7207202D
:1040A000FEF73EFBC4F384130F2B05D010494FF4E9
:1040B000B0720720FEF734FBE30B05D00C494FF438
:1040C000B1720720FEF72CFB04F03F04013C032CE7
:1040D0008CBFFF240024074BFF2C1C7005D1064A1F
:1040E000127802F0FF0102B1197010BD0008004003
:1040F00030AE00045C9B03200B01380408B5FFF7C9
:10410000C5FF074B01221A60FFF782FFFFF7A4FDEE
:10411000FFF748FF00F028F8BDE8084000F080B83D
:1041200040C0004238B50D4B01251D60A3F5FF537B
:1041300000221A600446FFF7A7FB09490B7803F039
:10414000FC0204F0030313430B70023C054B18BF41
:1041500001241C60A3F294531D6038BD3C20014231
:1041600000060040E0050142024B012202201A70C5
:10417000FFF7D8BFB689032010B5044600F01AFE39
:104180000C4A13786CB1012B9DBF0B4B01211970A8
:1041900003F1FF3398BF00231370BDE8104000F017
:1041A00019BE0133DBB2012B137004BF024B1C702C
:1041B000F3E700BFB68903202E080040012810B5A0
:1041C000044610D1FFF7DAFC02280CD10D4A002377
:1041D00021460720FEF7E0FE07200B49EC22FEF700
:1041E0009FFAC22010BD094B1B7803F003039C42C9
:1041F00005D02046FFF796FF2046FFF7B7F90020CD
:10420000F0E700BF7CB100043DAE000400060040B2
:10421000024B187800F00300704700BF0006004012
:1042200002480E22002102F0CFBC00BF3C9E0320BA
:1042300007B5B0F908301A49002BB4BF803B803372
:104240000A7843F307233B2B42F342121CDD032A77
:1042500011D00B7803F01F0343F060030B700B7851
:1042600043F34213CDE9002301210E4A0023072026
:10427000FEF792FE0AE03C2B08D109490B7803F0C7
:104280001F0343F0E003E9E7531CF6D1044B064A51
:104290001B7843F34213137003B05DF804FB00BFB7
:1042A0002C06004096B10004B78903201FB50E4BC1
:1042B0007F221A7000211022684602F085FC02233A
:1042C0008DF8003009494FF4A0636846ADF802301C
:1042D00000F040F8FF2804D1054956220720FEF7D8
:1042E0001FFA05B05DF804FBB789032031420004D2
:1042F0004AAE000408B5054B1B6823B104494522AA
:104300000720FEF70DFA034B186808BD542101423F
:1043100060AE00040C090040014B5870704700BFAC
:10432000609B0320014B5878704700BF609B0320BF
:1043300038B5064C0025A5702570657001F0ECF9C4
:10434000034800F0EDFCE570656038BD609B03201C
:1043500000E204002DE9F843144CA378052B054630
:10436000894621D8FFF7C6FFA378804633B901F00C
:104370004DFC08F51C5310332081E36095E80F00D5
:10438000A7781C2606FB074606F1100C8CE80F00E8
:1043900068682389338540447B1CC6F8209070628E
:1043A000A3703846BDE8F883FF27FAE7609B032037
:1043B000F8B5394CA3788BB3FFF79CFFE368C31AB9
:1043C000002B01DA63787BB100F51C501030E060FF
:1043D000FFF790FF314D07460026A3789E421ED37B
:1043E00063780BB100236370FFF784FFD4F8B83013
:1043F000C31A002B12DB00F5742000F51070C4F80E
:10440000B80001F003FC10F5004F07D0E3786568B1
:10441000032B1ED801330544E3706560F8BD237893
:104420003341D80701D5637853B92A78D10703D52A
:104430006B69FB1A002B03DA520707D563782BB19F
:104440006B683B446B6128462B69984701361C35E5
:10445000C3E7002DB8BF0335002345F38F050027C0
:104460000E4EE37025816760A3789F42D6D23378E1
:104470009B070ED5B6F918307288EB1A002BB8BF1F
:104480005B429BB29A4204D833693583358130460A
:10449000984701371C36E7E7609B0320709B032099
:1044A000034B0022DA62C3E9092283F82C0070472B
:1044B0001C9C032038B52E4A948C034692F82600A3
:1044C0000134A4B201289484114626D0022835D0A4
:1044D000002844D15D1C08D1C82C3ED1012381F8AD
:1044E000263000238B848B6238E0926A551EAB42E3
:1044F00010D3013293420DD891F82D30013381F859
:104500002D3091F82D3091F82C2001339A42E3DCC4
:10451000012023E08B620023F1E7591C25D0906A2B
:10452000B4F5807F0344936217D11B0A0020936285
:10453000022382F82630D06290840FE0926A934280
:1045400034BFD31A9B1ACA6A5B43D31828BF4FF0F3
:10455000FF33B4F5807FCB6200D0002038BD054921
:104560004FF4B2720720FEF7DBF80320F6E700BF36
:104570001C9C032073AE00040C4B93F826001A46D3
:1045800030B993F82C1093F82D30013399420CDD9B
:10459000536A074923F07F438B4204D1D06A431CFE
:1045A00003D0000A70474FF0FF3070471C9C032077
:1045B00000010200084B09495A6A22F07F428A42F0
:1045C00002D1986A000A704793F82620022A0CBF8D
:1045D000986A4FF0FF3070471C9C032000010100D7
:1045E000014B986A704700BF1C9C0320684620F06E
:1045F00007018D46F1B5FFF7CDFC72B6614B1C6823
:1046000014F0FF0401BF604B1C68B4FA84F4640921
:104610000120FFF781FE002C40F0F2805B4B83F31A
:104620000888594A5A4B15681460B3EB153F37D0C8
:10463000584B552119705849584B80200870146008
:10464000574A022111705988A2F81A116FF4597053
:104650000244197953481170191D0322013211F8CF
:10466000014F04700A2AF9D14F4905220132212A4B
:1046700033F812000880F9D14C4A1368012BFCD0A2
:104680004B4A4C490123136093604B4A32F8023B7A
:10469000002B71D1494A01211160A2F5007213600B
:1046A000474A484F002313603B60474B1B6823B1C8
:1046B00002F25C421368002BFCD0A90707D5374BE8
:1046C0001A781B78414ADBB21370FFF745FC6A0782
:1046D00048BF3F4B374E3F4C44BF00221A602B0768
:1046E00042BF3D4B01221A603C4A012313605360D4
:1046F00002F5894258321360394B726D1A60B26DFF
:104700005A6006F15C050FCD0FC40FCD0FC43246C1
:104710002B68236052F8800F324B5168324C334D76
:1047200003C390681860A3F55163D6F88C205A60D3
:10473000D6F890201A604FF47A7023683BB140F2AB
:104740005F132A460621FDF7F6FF0028F5D1FFF793
:10475000ADF8274A01233B601370264B00221A70E4
:1047600062B625492548C022FCF7ECFE00F08CFA21
:10477000BDE8F1408546704703F1804311F8010B15
:10478000187083E78006014200800320207F052007
:10479000BCAB0A0024110040910E0040BC810320F4
:1047A000260800408F04004080050040C091004270
:1047B000E4040142388203208EAE0004100301425B
:1047C00044C00042180301423CC00042020D0040B8
:1047D000A004014200E400E0A404014208C0004239
:1047E00000E100E018ED00E05421014236AF000482
:1047F000000B00408A9C0320CC820320407F0520D0
:10480000864B9A683AB19A689B68854AC3F30F2130
:104810001B0E11809370834A83498448FCF792FEF3
:10482000834A8448002102F0CFF902F0A9F9824BB3
:10483000824AC3F38F031380814BC3F38F0322F8A3
:10484000023C804BC3F38F0322F8443C7E4B0C2286
:104850001A807F221A71012283F859204FF4E852FE
:10486000A3F85A2002F1005202F6BE124FF4F051A2
:10487000518001F10051002301F6C701137013713B
:1048800003200F220A704870CA7006206F4A887091
:10489000FB2111703F2151706D4940F6B830A1F8ED
:1048A00040004FF4AF70A1F8420041F2F800A1F8C7
:1048B0004400962081F846006648C1F84A0002206C
:1048C00081F84E0040F20120A1F85A006248C1F878
:1048D0005E00AA2081F86A004FF6FF7245F255503B
:1048E0000A80A1F86E00552081F870001E2081F822
:1048F000710042F23810A1F8760000F1A850A0F53E
:104900006D00A0F62770C1F8820000F1043081F834
:104910007830C1F8860000F1043000F18070C1F8F1
:104920008A0000F1806000F1051000F5A060C1F878
:104930008E0000F10430C1F8920000F10430C1F89B
:10494000960000F10430C1F89A0000F10430C1F87B
:104950009E0000F10430C1F8A20000F1F37000F5F0
:10496000EE3000F58270C1F8A60081F8C620102054
:104970003A4A81F8C4007031FF2111704FF4F851A8
:10498000A2F84A104FF40251A2F84E10082182F802
:104990004C3082F8501082F8543042F2B801304B5B
:1049A000A2F8521033221A702E482422402102F01D
:1049B0000BF92D4B202283F81B232C4B1B681BB1BA
:1049C0002B4A1368002BFCD02A4B01241C60FFF7F4
:1049D00075FA294B1C60294B1C70294B1C60A3F5F0
:1049E000007300221A60FEF7AFFA264A1368002B04
:1049F000FCD1254A137062B6244C254D4FF47A70D1
:104A000023683BB14FF4EA732A460621FDF793FE73
:104A10000028F5D1FEF7BAFBFEE700BF00ED00E08D
:104A2000400C0040C409000070B70004A0890320B6
:104A30001C0B0000689303208C030000440E004010
:104A40008C0500009C05000062260020CB2600207B
:104A5000CE26002020FFD0FFD6BE898E96270020CC
:104A60002E07004000E400E000E100E03CC000420E
:104A7000A0C40042EC040142A4040142000B004027
:104A800010030142C80601428A9C032054210142BE
:104A900036AF0004684620F007018D462DE9F1434A
:104AA0004E4ADFF89881DFF89891D8F80030116805
:104AB0004B4C00294B494FEA83030968DBB20CBF1A
:104AC000022700270B433B43DFB2474B00251D70F5
:104AD000A3F2CB23012616601E70FEF7A9FC042367
:104AE00089F80030414B1B78DBB22370C8F80050C6
:104AF000FFF704FA3E4B1D605D6003F589435833B0
:104B00001D603C4B1B7803F00303022B2DD13A4E62
:104B10003A493B4DC02206F19400FCF713FD394B96
:104B20001A6872655B68B3650FCD06F15C040FC44B
:104B30000FCD0FC42B682360334B03CBC6F8841012
:104B4000C6F880001868C6F88800A3F551635A6853
:104B5000C6F88C201B68C6F890302C4B08221A70BF
:104B6000FFF71EFA384600F0B3F8294B1D60294BB9
:104B700089F8006040221A70A3F25353A01C1B88CE
:104B80006380254B254A1B788370254B043412F82B
:104B9000021B01F03F019A4204F8011FF7D1214B9B
:104BA000214A224932F8024B23F8024F8A42F9D1B6
:104BB0001F4B1B1A412B05D81E4940F2BA22062072
:104BC000FDF7AEFD1C4A0C4932F8023B002B9ED08B
:104BD00003F180431B7801F8013BF5E7A004014293
:104BE000BC810320C0A30142000B0040250D004002
:104BF00008C000420006004038820320407F0520A4
:104C000000E400E000E100E018ED00E035080040BD
:104C1000E4040142910E0040C104004080040040C1
:104C20008E040040C68103208E050040C60500406A
:104C30003882032036AF00048EAE0004A404014283
:104C400026080040FEE77047704700000B4A0C48FA
:104C5000136943F0040310B51361FCF754FC094CCD
:104C600040B972B6BFF36F8F01F070F810B12378BE
:104C700003B930BF62B60023237010BD00ED00E021
:104C8000509C03208B9C032001480121FCF747BC6A
:104C9000509C03200B4B1B780E28DBB285BF03F022
:104CA0000302094840B280560E2981BF064AC3F369
:104CB00082039B181979054B090149B2084383F80F
:104CC000380070472906004048AF0004509C03207C
:104CD00008B50F490F4B104A1B780978126801F08C
:104CE000030102290D494FEA401003F0070391F830
:104CF000381002F0080242EA0302C3B20CBF1020CF
:104D0000002042EA01221843104301F033FF00BFA4
:104D1000000600400208004000800320509C032051
:104D200038B5114D2B7804462BB1104940F2AD1225
:104D30000620FDF7F5FC0E4B0E490022013CE02059
:104D40001A605C6081F823009A601A6842F00402DD
:104D50001A601A6842F002021A601A6842F00102F0
:104D60001A6001232B7038BD899C032054AF0004C6
:104D700010E000E000ED00E0034B1B6813B9034BAB
:104D8000AA221A70704700BFE0240242241100409A
:104D9000064B1A78D3B212075FBF03F00F02044B21
:104DA0009B18587948BF0020704700BF2406004078
:104DB00054AF000472B6064B5A7812B9202282F31F
:104DC00011885A780132D2B25A7062B6704700BF69
:104DD000899C032072B6084A5378012B83BF53780D
:104DE00003F1FF33DBB200238ABF537053702023DB
:104DF00083F3118862B67047899C032070B504461E
:104E0000FFF7D8FF102001F05FFA1249124A134D44
:104E1000134E55230B70134B1C80137803F0F103D2
:104E200043F004031370104A01231360536042F8E7
:104E3000A03CFFF7CFFF0D480C462B683BB140F27A
:104E4000D51332460621FDF776FC0028F5D1AA23BA
:104E5000237070BD2411004020110040E024024264
:104E600054AF000422110040A024024240420F002F
:104E70006E4A6F4838B50121002311700360042089
:104E800010706C4A6C4C11606C4A6D4DFF201070B4
:104E90006C4A1160227802F0C10242F00E022270C8
:104EA000694A1160694A1360694A1070627C02F0B5
:104EB000C10242F006026274664A116002F5A23233
:104EC0001360654A1070A27C02F0C10242F0080231
:104ED000A274624A116002F5A2326032136094F843
:104EE000812C02F0F00242F0070284F8812C5C4A27
:104EF0001080138411715B4A5B481160027802F0E4
:104F0000F80242F002020270A0F63F20027802F09E
:104F1000FC0242F003020270544A107800F0FC00D8
:104F200040F00200107052480360107800F0CF008B
:104F300040F0200010704F480360107800F03F00F0
:104F400040F0800010704C4803604C48047804F036
:104F5000FC0444F002040470494C2360047804F01B
:104F6000F30444F008040470464C23602C7804F0E9
:104F7000CF0444F020042C70434C2360434B1C7836
:104F800004F0FC041C701C7804F0F3041C7013780B
:104F900003F0CF031370137803F03F031370A2F2F2
:104FA0007D62137803F0F80343F002031370D378A3
:104FB00003F0C70343F01003D37092F8833203F079
:104FC000C70343F0380382F8833292F8833203F048
:104FD000F80343F0070382F883322D4B19700378EE
:104FE00003F0CF0343F010030370037803F03F0393
:104FF00043F04003037092F8803603F0F30343F06C
:10500000040382F88036FFF741F8FFF791F9FEF7C5
:1050100053FB00F029FE00F045FF4FF6FF70FFF74D
:10502000EDFEBDE8384001F03DB900BF3508004055
:10503000846801428868014217070040411100401E
:105040000D07004044280242E0E2004200280242EC
:105050004911004000E500424D11004020E50042AA
:105060009A130040287702424F1100400807004081
:1050700020000242280002422C00024209070040A0
:105080003000024234000242780002420A07004027
:1050900007030040024B5878B0FA80F0400970478F
:1050A000899C032010B50023934200D110BDCC5C35
:1050B000C4540133F8E703460244934200D17047D9
:1050C00003F8011BF9E7FFF7EDBF30B50139002404
:1050D000A24201D1002005E0035D01340D5DAB4229
:1050E000F6D0581B30BDFFF7F0BF0000014B012286
:1050F0009A707047899C032070470000014B002282
:105100001A6070479C640142014B00221A7070477C
:10511000280B004008B50B4B1B682BB10A4940F225
:10512000C1320620FDF7FCFA084B1B6813B1084B8F
:1051300000221A60074B1B6813B1074B00221A604C
:1051400008BD00BF0870014254AF00040470014262
:10515000846801420070014280680142014B0122D3
:10516000DA707047899C032038B5FFF723FE154B92
:10517000154D1B68A3B1FFF72DFE0124D0B1FEF73A
:1051800061FDFFF717FE114B1C6043F8104C104BEC
:105190001C70104B1C600023AB70FFF71BFE09E076
:1051A0000D4B1B68002BE6D10C4B1C68FFF712FE61
:1051B000002CE2D1EB781BB1FFF7FAF80023EB707B
:1051C000204638BD9C600142899C0320AC640142AA
:1051D000280B00408864014288600142C06001429F
:1051E00011F0FA0FF0B501D00B2931D1234BDFF8C4
:1051F000A0E01F78002307F0030707261C461D4682
:105200003EF823201FFA82FC02F00F02914209D1DE
:105210001CF4005F18BF01241CF4805FCCF342260D
:1052200018BF012501339F42EAD2F5B98CB1144B66
:105230001A882C4612B2134B1B889BB201210BB962
:1052400049F69A130670417084708280C380F0BD65
:1052500007260D4B1A88002412B20C4B1B889BB2F8
:105260004BB9194649F6C013ECE70CB10022E2E74E
:105270002C460022F1E70021E4E700BF4110004086
:105280004E0038044C0038044A0038044800380402
:1052900044100040104B114A1B8812881BB2B0F515
:1052A000FE4FD4BFC3EB0000C3F5FE4000F58830CD
:1052B00049F69A1192B200F59370002A08BF0A4687
:1052C00040F23B230002B0FBF3F00002B0FBF2F02F
:1052D00000F5007080B27047440038044C00380478
:1052E00013B5044606291BD8DFE801F0040B131A96
:1052F000061A16001AB18408204602B010BD8400B8
:10530000FAE71AB10323B0FBF3F4F5E700EB40042E
:10531000F2E71AB16408EFE7002AFBD06400EBE77C
:105320000091064A002301210620FDF735FE0449BD
:10533000AD220620FDF7F4F9DEE700BFC5B1000499
:1053400061AF000473B505466846FFF749FF0122C7
:105350009DF80010BDF90440BDF80660A802FFF7F3
:10536000BFFF9DF801204AB1B0FBF6F004F2FD1436
:10537000204480B2013080B202B070BD4000B0FB6A
:10538000F6F304FA83F1002901DBE018F1E7104697
:10539000F0E700002DE9F04F85B004460393BDF817
:1053A0003C300193B04BBDF838A01B789DF840B05D
:1053B000029117462BB9AD4940F2CD120620FDF7F8
:1053C000AFF9AB4B1B8864B1012C0AD0022C00F062
:1053D0008780032C00F086800B2C02D00C2C18BF89
:1053E000FF24A44DA44A2E786B78FF3E18BF0126F7
:1053F000FF2BAB7818BF0136FF2B137818BF01368F
:1054000003F0F80318BFF6B2137016B99B4B0122D4
:105410001A60DFF8D492DFF8D482002F64D040F213
:10542000FF33A9F80030A8F800300C2C61D1944B60
:1054300001221A604BF60C6B2B78FF2B40F0858015
:10544000904B914A0BEA030343F0100301211170C2
:10545000039A0AB143F48073022E99B28B4AC3F3C4
:10546000074300F09A80032E00F0A180012E00F087
:105470008A808748018087490B70137803F0FC030A
:105480001370029B002B40F09C803A1E18BF012233
:10549000039B002B40F0A080002F00F0948040F28E
:1054A000FF33A9F80030A8F800302B78FF2B40F02C
:1054B000CF8079492C700B7803F09F0343EA4213A5
:1054C0000B700123704A137053706B4A137803F00A
:1054D000F80343F001031370012005B0BDE8F08F1D
:1054E00004247EE705247CE7A9F80070A8F8007082
:1054F0009BE70B2C26D0BBF1000F05D044F4844B66
:105500002CB9664B1C6097E744F4904BF8E7012CEC
:1055100003D1634B00221A608EE7042C01D1614B4A
:10552000F8E7052C01D1604BF4E7604A0023012124
:105530000620FDF731FD4D4940F22A220620FDF7F5
:10554000EFF879E7DFF8A8B176E76B78FF2B07D1A2
:10555000574B4D4A0BEA030343F02003022176E741
:10556000AB78FF2B07D1534B474A0BEA030343F0B9
:10557000400304216BE740F2432206203B49FDF73C
:10558000CFF80020A9E74C4801804C490B701378F4
:1055900003F0FC0343F0010372E7494801804949E5
:1055A0000B70137803F0FC0343F0020368E74648EE
:1055B000018046490B70137803F0FC0343F00303AA
:1055C0005EE7022264E7029B002B3FF46EAFA9F86E
:1055D0000070A8F8007068E70C2C26D10FFA8AFA40
:1055E0005046FFF757FE5046FFF754FEBDF90460E2
:1055F000A9F800003046FFF74DFE3046FFF74AFE9F
:10560000214BA8F8000008221A70314A01231360C8
:10561000304A1360304A20211170102111702F4A36
:1056200013602F4A137000223FE721465046FFF7D0
:1056300089FE21465046FFF785FE2146A9F8000065
:105640000198FFF77FFE01982146FFF77BFED7E721
:105650006B78FF2B4ED123496C700B7803F0FC0361
:1056600013430B7002232DE7909C032061AF0004CD
:105670005C100040B8890320401000400C08024232
:10568000A40D0242EFFF03005A10004041100040F9
:10569000441000404610004058100040D0E5004241
:1056A000D4E50042C0E50042C4E50042DFB1000499
:1056B000DFFF0300BFFF0300481000404A10004016
:1056C0004C1000404E10004050100040521000405E
:1056D000B064014200E100E05B1000409C6B0142BD
:1056E0005D0B00405910004056100040541000401F
:1056F0000B700300AB78FF2B09D10649AC700B7817
:1057000003F0E70343EAC2030B700423DAE64FF425
:10571000307232E7591000400D4B1A78BAB90122A5
:105720001A7002F1804202F58252137803F0F303FB
:1057300043F008031370137803F00F0343F02003C2
:10574000137012F8013C03F0F80302F8013C7047B3
:10575000909C03200C2913B5044623D1224B1A88B0
:1057600049F69A1192B2002A08BF0A46A0F50074C1
:105770006243121240F23B20083B504300121B8848
:10578000A0F58830A0F5937000FA83F0174B98428B
:10579000B8BF1846B0F5FE4FA8BF4FF4FE4080B228
:1057A00002B010BD6846FFF71BFD9DF80100BDF972
:1057B0000430BDF8062080B16FF4FE716018C01A85
:1057C00050439DF800100022FFF78AFD4FF6FF734B
:1057D000800A984228BF1846E1E7A342BCBFE01AFE
:1057E00050434008EDE700BF4C0038040080FFFF45
:1057F00038B5424B1B7804462BB9414940F20D3273
:105800000620FCF78DFF54B1012C08D0022C18D0D3
:10581000032C18D00B2C02D00C2C18BFFF24394BB2
:105820001A78A24225D1384B1B7813F0600F0CD0A8
:105830000023364A01211170B2F80300C0F30900B9
:1058400010E00424EBE70524E9E7314D64202B68E0
:105850001BB9FCF7EFFE0028F9D100280CBF01238B
:105860000023E6D1002B45D12146BDE83840FFF7A3
:1058700071BF5A78A24218D1264B1B789B0706D0DD
:105880000023224A02211170B2F80500D6E7224D0A
:1058900064202B681BB9FCF7CDFE0028F9D1002845
:1058A0000CBF01230023DDD0EBE79B78A34219D185
:1058B000184B1B7813F0180F06D00023134A04214D
:1058C0001170B2F80700B9E7144D64202B681BB9BA
:1058D000FCF7B0FE0028F9D100280CBF01230023FB
:1058E000C0D0EBE740F23B3205490620FCF718FF39
:1058F000002038BD40F24732F6E700BF909C0320FD
:1059000061AF0004B8890320581000405B100040CC
:10591000C00C024259100040C40C0242C80C0242A2
:1059200010B50446FFF746FA064A074B34B1012189
:1059300011701960BDE81040FFF74CBA14701C607C
:10594000F8E700BF5D0B00409C6B014238B5154C79
:10595000154DFFF72FFA22683AB92B682BB9134976
:1059600040F27B320620FCF7DBFE23684BB1104B84
:1059700000205B6898470F4B00221A600E4B2022D4
:105980001A702B684BB10A4B01205B6898470B4B90
:1059900000221A70102283F8FE24BDE83840FFF779
:1059A00019BA00BF1C7301422073014261AF0004A9
:1059B000909C03209C6B01425B1000405D0B0040FB
:1059C0007FB5084D14466A6852B9CDE90143089E77
:1059D0000091012311466E60FFF7DCFC04B070BD3E
:1059E0000020FBE7909C03201FB502930023CDE924
:1059F0000033FFF7CFFC05B05DF804FBF8B54F4B63
:105A00001B7804462BB94E494FF470720620FCF700
:105A100087FE54B1012C08D0022C51D0032C51D058
:105A20000B2C02D00C2C18BFFF24464A137803F02D
:105A3000F8031370444B1A78A24245D1FF221A7022
:105A40001D785A789B78FF3D18BF0125FF2A18BFA3
:105A50000135FF2B1CBF0135ADB20C2C40D13B4BA7
:105A600000221A603A493B4E0B78002203F00303F0
:105A70009A421BD836F8220000F00F00844206EB51
:105A800082074DD100209A42388007D003F180521E
:105A900002F211429200128892B23A8033B10A782F
:105AA000013B02F0FC02DBB213430B70002D39D036
:105AB000244A137803F0F80343F001031370F8BD90
:105AC0000424B2E70524B0E75A78A24202D1FF22AB
:105AD0005A70B5E79A78A24204BFFF229A70AFE7E6
:105AE0000B2CBFD014B91C4B0122BAE7012C02D1F8
:105AF0001A4B1C60B6E7042C01D1194BF4E7052CB6
:105B000001D1184BF0E7184A002301210620FDF7C8
:105B100043FA0B4940F2F9320620FCF701FEA1E7F7
:105B20000132A5E7114C322023681BB1FCF782FD3E
:105B30000028F9D10E4B00221A60C0E7909C032088
:105B400061AF000440100040B8890320A40D024258
:105B50004110004044100040D0E50042D4E500422E
:105B6000C0E50042C4E50042DFB10004B80C0242C7
:105B70000C0802420B4A002353600B4A13600B4A85
:105B80000121C2F88010BFF34F8FBFF36F8F084A17
:105B90001360084A1370084B20221A7010221A70E2
:105BA000FFF72CBF909C0320B064014200E100E0AD
:105BB0009C6B01425D0B00405B10004038B5114BFF
:105BC0001B78044615462BB90F4940F23242062095
:105BD000FCF7A6FD2DB90C4940F233420620FCF734
:105BE0009FFD0022012311462046FFF7FDFE38B13C
:105BF0002046FFF7FDFD28802046FFF7FFFE01202D
:105C000038BD00BF909C032061AF000407B50021A0
:105C10000DF106020C20FFF7D1FF18B94FF4004335
:105C2000ADF80630BDF9060003B05DF804FB0000D6
:105C3000014BC0B2C15070472000024200F0030384
:105C40005A0011B101219140C9B2800800F1804091
:105C50000323934090F80827194022EA03021143D6
:105C600080F80817704700001FB510220021684611
:105C700000F0AAFFFDF768FE2C4CFF28207004D12D
:105C80002B4980220620FCF74BFDFF238DF80F30B7
:105C9000684643F60473ADF80C30FDF73BFE009BFD
:105CA000217803F10043013B00939DF80E3023F06F
:105CB0000F0343F0010368468DF80E30FDF77EFEBA
:105CC0002078FDF7D7FE01212078FDF705FE0120A1
:105CD000FEF752FA174A002A0CBF00210521B2F53F
:105CE000803F21D8B2F5004F8CBF102318230AB98A
:105CF00043F00403104AB2F5005F104A98BF43F026
:105D0000020313700520FEF7C5FF0D4B01221A7028
:105D10000C4A0D4B9A4205D805494FF4877206206C
:105D2000FCF7FEFC04B010BD0023E0E7989C0320C4
:105D30008BAF000400000000841E00002906004014
:105D40005A9E0320BC810320BB810320014B18789D
:105D5000704700BF5A9E0320014B01221A70704702
:105D60005A9E032037B51B4B1B7804462BB11A49AA
:105D70004FF494720620FCF7D3FCB4F57A7F27D356
:105D800004F100436FF00045AB4238BF2C46FFF7EB
:105D900011F801A8FDF7BEFD0199631C18BF091990
:105DA0000E4C08BF4919207801910122FDF79EFE93
:105DB00000F003FAFFF70EF8FEF748FF00F0FEF9D7
:105DC0002078FDF757FEFEF7ADFA08B1FEF7F0FABE
:105DD00003B030BD8A9C03208BAF0004989C032045
:105DE00010B1012803D07047024B19607047024B75
:105DF000FBE700BFC46B0142E46B014210B1012814
:105E000003D07047024B19607047024BFBE700BF9D
:105E1000C86B0142E86B01420C4B53F8203010B5BF
:105E200004462BB920460021BDE81040FFF7D8BF3B
:105E30009847031EF6DB14B1012C04D010BD044AB0
:105E4000DBB21370FAE7034ADBB2FAE79C9C03204B
:105E5000A0100040B010004037B50E4C0E4A0F4B5A
:105E600000284FEA800504EB800018BF1346C26883
:105E70009B788DF807302AB909494FF48F720620B4
:105E8000FCF74EFC63190121DB680DF10700984710
:105E900003B030BD9C9C0320B0100040A010004017
:105EA00096AF0004024B00221A765A76704700BF64
:105EB0009C9C0320534B70B50028534C18BF1C46C4
:105EC0004FF001054FF00203657263724FF0040357
:105ED0006372A37803D0A84257D0002501E04B4B52
:105EE0001D604B4A52F820300BB1002D50D108B93B
:105EF000484B18600021FFF773FF012303FA00F1FC
:105F0000137E23EA0103137602EB80038600DB682D
:105F1000002B51D0002D4FD030B93F490B7803F002
:105F2000FC0343F002030B700121FFF767FF48B940
:105F30003A490B7803F0E10343F010030B70384B40
:105F400001211960517E012383400B4353760028C1
:105F500041D1344B0121196052F8203003B12DB9E1
:105F60009319DB68002B48D0002D46D0002836D08E
:105F700001283CD03244D36833B12DB1630103F121
:105F800084430122C3F8E02070BD274B1860A4E7CA
:105F900068B921490B7803F0F3030B708B7D03F094
:105FA000E10343F00E038B751A4B01211960117E3A
:105FB000012383400B43A6E7630103F184430021DF
:105FC000C3F8E010FFF71AFF012806D00028C3D15C
:105FD000134B1860BDE70128BED1144BBAE7144B30
:105FE0004FF080411960094B00211960C2E7104B46
:105FF0004FF0004119600C4BF6E70028F3D0012860
:10600000F9D0B7E7B0100040A01000402C010142C9
:106010009C9C032000E400420A0700401F07004048
:10602000E0E30042A464014230010142A064014265
:1060300000E100E02DE9F84F9DF82850824689469E
:106040009046C3F38106DFB2C3F3031B4DB1022DAB
:1060500005D91D4940F279220620FCF761FB1B4C53
:1060600000E01B4C1B4BA4F8048003EB8502BBF142
:10607000080FC2F80CA04FF0000243F82590DA6137
:1060800005D9114940F29D220620FCF749FBA2796F
:106090000BF1FF3302F0F00203F00F031343A3717F
:1060A000A2793B0103F0300302F0CF021343A37146
:1060B000640104F18444C034013EA6612846BDE871
:1060C000F84FFFF7F7BE00BF96AF0004B0100040D6
:1060D000A01000409C9C032007B58623009210224C
:1060E000FFF7A8FF03B05DF804FB000002289FBF84
:1060F000044B1B7E43FA00F000F0010088BF002033
:10610000704700BF9C9C03200121FFF769BE00007F
:1061100002280CD8064B074A002818BF13465B011B
:1061200003F1844303F580731A68002AFCD070479A
:10613000A0100040B01000401A4B2DE9F0411A4D5C
:106140001A4FDFF87080041E18BF1D466D01FEF760
:1061500031FE05F1844505F5827500262B6813B1E3
:106160002046FFF759FE6CB1012C0ED0002EF5D160
:106170002046FFF7CDFF5CB1012C0FD0BDE8F04108
:10618000FEF728BE3E68F6B2F0E7D8F80060FAE7FE
:10619000074B4FF08042C3F88021EFE7044B4FF0EC
:1061A0000042F8E7B0100040A0100040C46B01426C
:1061B00000E100E0E46B0142704770477047000067
:1061C0000D4B186810B520B1BDE810400020FFF756
:1061D00043BE0A4B1B681BB1BDE81040FFF71CBE55
:1061E000074B1B683BB1074CE26902B19047064A76
:1061F00000231360E36110BD487301424473014200
:10620000407301429C9C0320C06B0142084B1B68F9
:1062100013B10120FFF720BE064B1B6813B101200C
:10622000FFF7FABD044A12680AB1044A13607047C6
:10623000687301426473014260730142E06B014282
:10624000024B03EB800300221A6070472077024262
:106250002DE9F843FEF7AEFD0F4B104F1C78DFF829
:106260004090E4B200264FF00C08F5B21CB9BDE82E
:10627000F843FEF7AFBDE3070AD52846FFF7E0FF76
:1062800057F8253008FB05F59847012305F8093034
:1062900064080136E9E700BF9C0B0040BC9C03206A
:1062A00088130040054B00221A75054B4FF08052B1
:1062B0001A60044B01221A60704700BFBC9C032087
:1062C00000E100E0E8640142064B1B6813F0FF0F99
:1062D0000CBF0001C000062802D9063800F040BCFF
:1062E000704700BFA004014238B504464FF6FF7561
:1062F000013CA4B2AC4200D138BD4FF47A70FFF734
:10630000E3FFF5E708B500F0A1FABDE8084002494F
:10631000AE220620FCF704BAA0AF000400F00CBCCB
:10632000684620F007018D4601B5FEF7DFFEFFF756
:106330000DFBFEF7E1FEBDE801408546704768466B
:1063400020F007018D4601B5FEF7D0FEFFF7E6FF0E
:10635000FEF7D2FEBDE8014085467047684620F052
