:020000040400F6
:1000100000000000000000000000000014000400C8
:10002000815C3A6900000000000000000000000050
:1000300000000000000000000000000000000000C0
:1000400000000000000000000000000000000000B0
:1000500000000000000000000000000000000000A0
:100060000000000000000000000000000000000090
:100070000000000000000000000000000000000080
:10080000CC8B03200000000000000000000000006E
:1008100000000000000000000000000000000000D8
:1008400001F4AAB9FFF304BC00F03EBE00F03CBEC8
:1008500000F03ABEFFF3FEBBFFF3FEBBFFF3FEBBAF
:10086000FFF3FEBBFFF3FEBBFFF3FEBBFFF3FEBBDC
:10087000FFF3FEBBFFF3FEBBFFF3FEBBFFF3FEBBCC
:10088000FFF3FEBBFFF3FEBBFFF3FEBBFFF3FEBBBC
:10089000FFF3FEBBFFF3FEBB00F016BEFFF3FEBB93
:1008A000FFF3FEBBFFF3FEBBFFF3FEBBFFF3FEBB9C
:1008B00000F00ABEFFF3FCBB00F006BE00F004BE71
:1008C00000F002BE00F000BEFFF3F8BBFFF3F8BB80
:1008D000FFF3F8BBFFF3F8BB00F0F6BD00F0F4BD8A
:1008E00000F0F2BD00F0F0BD00F0EEBD00F0ECBD98
:1008F00000F0EABDFFF3ECBBFFF3ECBBFFF3ECBB96
:10090000FFF3ECBB00F0E0BD00F0DEBDFFF3E8BBA1
:1009100000F0DABD00F0D8BD00F0D6BDFFF3E2BBB9
:10092000FFF3E2BBFFF3E2BBFFF3E2BBFFF3E2BB8B
:1009300000F0CABD00F0C8BD00F0C6BD00F0C4BDE7
:1009400000F0C2BD00F0C0BD00F0BEBD00F0BCBDF7
:1009500000F0BABD00F0B8BD00F0B6BD00F0B4BD07
:1009600000F0B2BD00F0B0BD00F0AEBD00F0ACBD17
:1009700000F0AABD00F0A8BDFFF3BEBBFFF3BEBBF5
:1009800000F0A2BD00F0A0BD00F09EBD00F09CBD37
:1009900000F09ABD00F098BD00F096BD00F094BD47
:1009A00000F092BDFFF3ACBB00F08EBD00F08CBD3B
:1009B00000F08ABD01F42CBD01F4F4BC01F408BDC3
:1009C00001F47CBD00F080BD00F07EBD00F07CBD78
:1009D00000F07ABD00F078BD00F076BD00F074BD87
:1009E00000F072BD00F070BD00F06EBD00F06CBD97
:1009F00000F06ABD00F068BD00F066BD00F064BDA7
:100A000000F062BD00F060BDFFF37CBB00F05CBD98
:100A100000F05ABDFFF378BBFFF378BBFFF378BB60
:100A2000FFF378BBFFF378BBFFF378BBFFF378BB32
:100A3000FFF378BBFFF378BBFFF378BB00F044BD56
:100A400000F042BD00F040BD00F03EBD00F03CBDF6
:100A500000F03ABD00F038BD00F036BD00F034BD06
:100A600000F032BD00F030BD00F02EBD00F02CBD16
:100A700000F02ABD00F028BD00F026BD00F024BD26
:100A800000F022BD00F020BD00F01EBD00F01CBD36
:100A900000F01ABD00F018BD00F016BD00F014BD46
:100AA00000F012BD00F010BD00F00EBD00F00CBD56
:100AB00000F00ABD00F008BD00F006BD00F004BD66
:100AC00000F002BD00F000BD00F0FEBCFFF330BB43
:100AD00000F0FABC00F0F8BC00F0F6BC00F0F4BC8A
:100AE000FFF328BBFFF328BBFFF328BBFFF328BBB2
:100AF000FFF328BBFFF328BBFFF328BBFFF328BBA2
:100B0000FFF328BBFFF328BBFFF328BBFFF328BB91
:100B1000FFF328BB00F0D8BC00F0D6BCFFF324BB29
:100B2000FFF324BBFFF324BBFFF324BB00F0CCBCDA
:100B3000FFF324BBFFF324BBFFF324BBFFF324BB71
:100B4000FFF324BBFFF324BBFFF324BBFFF324BB61
:100B5000FFF324BBFFF324BBFFF324BBFFF324BB51
:100B6000FFF324BBFFF324BBFFF324BBFFF324BB41
:100B7000FFF324BBFFF324BBFFF324BB00F0A4BCB2
:100B800000F0A2BCFFF320BBFFF320BBFFF320BBB0
:100B9000FFF320BBFFF320BBFFF320BB00F094BCAE
:100BA00000F092BC00F090BC00F08EBCFFF318BBCC
:100BB000FFF318BBFFF318BBFFF318BBFFF318BB21
:100BC000FFF318BB00F080BC00F07EBC00F07CBCE2
:100BD000FFF312BBFFF312BBFFF312BBFFF312BB19
:100BE000FFF312BBFFF312BBFFF312BBFFF312BB09
:100BF000FFF312BBFFF312BBFFF312BBFFF312BBF9
:100C0000FFF312BBFFF312BBFFF312BBFFF312BBE8
:100C1000FFF312BBFFF312BBFFF312BBFFF312BBD8
:100C2000FFF312BBFFF312BBFFF312BBFFF312BBC8
:100C3000FFF312BBFFF312BBFFF312BBFFF312BBB8
:100C4000FFF312BB00F040BCFFF312BBFFF312BB7B
:100C5000FFF312BB00F038BC00F036BC00F034BC2F
:100C600000F032BC00F030BC00F02EBC00F02CBC18
:100C700000F02ABC00F028BC00F026BC00F024BC28
:100C800000F022BC00F020BC00F01EBC00F01CBC38
:100C900000F01ABC00F018BC00F016BC00F014BC48
:100CA00000F012BC00F010BC00F00EBC00F00CBC58
:100CB00000F00ABC00F008BC00F006BC00F004BC68
:100CC00000F002BC00F000BC00F0FEBB00F0FCBB7A
:100CD00000F0FABB00F0F8BB00F0F6BB00F0F4BB8C
:100CE00000F0F2BB00F0F0BB00F0EEBB00F0ECBB9C
:100CF00000F0EABB00F0E8BB00F0E6BB00F0E4BBAC
:100D000000F0E2BB00F0E0BB00F0DEBB00F0DCBBBB
:100D100000F0DABB00F0D8BB00F0D6BB00F0D4BBCB
:100D200000F0D2BB00F0D0BB00F466BFFFF3A6BA60
:100D3000FFF3A6BAFFF3A6BA00F0C6BB00F0C4BB2F
:100D400000F0C2BB00F0C0BBFFF39EBA00F0BCBB1A
:100D5000FFF39CBA00F0B8BB00F0B6BBFFF398BA43
:100D600000F0B2BBFFF396BAFFF396BA00F0ACBB4B
:100D7000FFF394BA00F0A8BBFFF392BA00F0A4BB53
:100D8000FFF390BA00F0A0BBFFF38EBAFFF38EBA68
:100D900000F09ABBFFF38CBAFFF38CBAFFF38CBA66
:100DA000FFF38CBAFFF38CBAFFF38CBAFFF38CBA63
:100DB000FFF38CBAFFF38CBAFFF38CBAFFF38CBA53
:100DC000FFF38CBAFFF38CBAFFF38CBAFFF38CBA43
:100DD000FFF38CBAFFF38CBAFFF38CBAFFF38CBA33
:100DE000FFF38CBAFFF38CBAFFF38CBAFFF38CBA23
:100DF000FFF38CBAFFF38CBAFFF38CBAFFF38CBA13
:100E0000FFF38CBAFFF38CBAFFF38CBAFFF38CBA02
:100E1000FFF38CBAFFF38CBAFFF38CBAFFF38CBAF2
:100E2000FFF38CBAFFF38CBAFFF38CBAFFF38CBAE2
:100E3000FFF38CBAFFF38CBAFFF38CBAFFF38CBAD2
:100E4000FFF38CBAFFF38CBAFFF38CBAFFF38CBAC2
:100E5000FFF38CBAFFF38CBAFFF38CBA00F034BB0B
:100E600000F032BB00F030BBFFF386BAFFF386BA66
:100E7000FFF386BAFFF386BA00F026BB00F024BB6E
:100E8000FFF382BAFFF382BAFFF382BAFFF382BAAA
:100E9000FFF382BAFFF382BAFFF382BAFFF382BA9A
:100EA000FFF382BAFFF382BAFFF382BAFFF382BA8A
:100EB000FFF382BAFFF382BAFFF382BAFFF382BA7A
:100EC000FFF382BAFFF382BAFFF382BAFFF382BA6A
:100ED000FFF382BAFFF382BAFFF382BAFFF382BA5A
:100EE000FFF382BAFFF382BAFFF382BAFFF382BA4A
:100EF000FFF382BAFFF382BAFFF382BAFFF382BA3A
:100F0000FFF382BAFFF382BAFFF382BAFFF382BA29
:100F1000FFF382BAFFF382BAFFF382BAFFF382BA19
:100F2000FFF382BAFFF382BAFFF382BAFFF382BA09
:100F3000FFF382BAFFF382BAFFF382BAFFF382BAF9
:100F4000FFF382BAFFF382BAFFF382BAFFF382BAE9
:100F5000FFF382BAFFF382BAFFF382BAFFF382BAD9
:100F6000FFF382BAFFF382BAFFF382BAFFF382BAC9
:100F7000FFF382BAFFF382BAFFF382BAFFF382BAB9
:100F8000FFF382BAFFF382BAFFF382BAFFF382BAA9
:100F9000FFF382BAFFF382BAFFF382BAFFF382BA99
:100FA000FFF382BAFFF382BAFFF382BAFFF382BA89
:100FB000FFF382BAFFF382BAFFF382BAFFF382BA79
:100FC000FFF382BAFFF382BAFFF382BAFFF382BA69
:100FD000FFF382BAFFF382BAFFF382BAFFF382BA59
:100FE000FFF382BAFFF382BA00F06EBA00F06CBA77
:100FF00000F06ABA00F068BA00F066BA00F064BAAD
:1010000000F062BA00F060BA00F05EBA00F05CBABC
:1010100000F05ABA00F058BA00F056BA00F054BACC
:1010200000F052BA00F050BA00F04EBA00F04CBADC
:1010300000F04ABA00F048BA00F046BA00F044BAEC
:1010400000F042BA00F040BA00F03EBA00F03CBAFC
:1010500000F03ABA00F038BA00F036BA00F034BA0C
:1010600000F032BAFFF344BAFFF344BAFFF344BAD4
:10107000FFF344BAFFF344BAFFF344BAFFF344BAB0
:10108000FFF344BAFFF344BAFFF344BAFFF344BAA0
:10109000FFF344BAFFF344BAFFF344BAFFF344BA90
:1010A000FFF344BAFFF344BAFFF344BAFFF344BA80
:1010B000FFF344BAFFF344BAFFF344BA00F4FCBDB3
:1010C000FFF342BA00F000BAFFF342BAFFF342BAAC
:1010D000FFF342BAFFF342BAFFF342BA00F0F4B9A9
:1010E000FFF342BAFFF342BAFFF342BA00F4D4BDB1
:1010F00000F4E3BD00F4E2BD00F4FFBD00F408BE5F
:1011000000F420BE00F43EBE00F458BE00F478BEE9
:1011100000F4B2BE00F4B1BE00F496BE02F418BAF8
:1011200002F406BA02F470BB02F47FBB02F485BB82
:1011300002F493BB03F452B903F44AB902F4ECB9D4
:1011400002F4CABB00F0C0B9FFF318BAFFF318BA33
:10115000FFF31CBAFFF31CBAFFF31EBAFFF31EBA6B
:10116000FFF31EBAFFF31EBAFFF31EBAFFF31EBA57
:10117000FFF31EBAFFF31EBAFFF31EBAFFF31EBA47
:10118000FFF31EBAFFF31EBAFFF31EBAFFF31EBA37
:10119000FFF31EBAFFF31EBAFFF31EBAFFF31EBA27
:1011A000FFF31EBAFFF31EBAFFF31EBAFFF31EBA17
:1011B000FFF31EBAFFF31EBAFFF31EBAFFF31EBA07
:1011C000FFF31EBAFFF31EBAFFF31EBAFFF31EBAF7
:1011D000FFF31EBAFFF31EBAFFF31EBAFFF31EBAE7
:1011E000FFF31EBAFFF31EBA00F06EB9FFF31CBA8C
:1011F000FFF31CBAFFF31CBAFFF31CBAFFF31CBACF
:10120000FFF31CBAFFF31CBAFFF31CBAFFF31CBABE
:10121000FFF31CBAFFF31CBAFFF31CBAFFF31CBAAE
:10122000FFF31CBAFFF31CBAFFF31CBAFFF31CBA9E
:10123000FFF31CBAFFF31CBAFFF31CBAFFF31CBA8E
:10124000FFF31CBAFFF31CBAFFF31CBAFFF31CBA7E
:10125000FFF31CBAFFF31CBAFFF31CBAFFF31CBA6E
:10126000FFF31CBAFFF31CBAFFF31CBAFFF31CBA5E
:10127000FFF31CBAFFF31CBAFFF31CBAFFF31CBA4E
:10128000FFF31CBAFFF31CBAFFF31CBAFFF31CBA3E
:10129000FFF31CBAFFF31CBAFFF31CBAFFF31CBA2E
:1012A000FFF31CBAFFF31CBAFFF31CBAFFF31CBA1E
:1012B000FFF31CBAFFF31CBAFFF31CBAFFF31CBA0E
:1012C000FFF31CBAFFF31CBAFFF31CBAFFF31CBAFE
:1012D000FFF31CBAFFF31CBAFFF31CBAFFF31CBAEE
:1012E000FFF31CBAFFF31CBAFFF31CBAFFF31CBADE
:1012F000FFF31CBAFFF31CBA00F0E6B8FFF31ABA0A
:10130000FFF31ABAFFF31ABAFFF31ABAFFF31ABAC5
:10131000FFF31ABAFFF31ABAFFF31ABAFFF31ABAB5
:10132000FFF31ABAFFF31ABAFFF31ABAFFF31ABAA5
:10133000FFF31ABAFFF31ABAFFF31ABAFFF31ABA95
:10134000FFF31ABAFFF31ABAFFF31ABAFFF31ABA85
:10135000FFF31ABAFFF31ABAFFF31ABAFFF31ABA75
:0813600000F0B2B800F0B0B8D3
:1014000000800520652D00040132000441490004DC
:101410004049000440490004404900040000000025
:10142000000000000000000000000000404900042F
:101430004049000400000000FB4800041949000472
:101440001D4500043B450004594500047745000450
:1014500095450004B3450004D1450004EF45000460
:101460000D4600042B46000449460004674600046C
:1014700085460004A3460004C1460004DF4600047C
:10148000FD4600041B470004394700045747000489
:101490007547000493470004B1470004CF47000498
:1014A000ED4700040B4800042948000447480004A5
:1014B0006548000483480004A1480004BF480004B4
:0414C000DD480004FF
:1014C800704600F493BBEC46A0E8F00FA0E800508B
:1014D800EFF3148CC0F800C04FF0000070470029EB
:1014E80008BF0131B0E8F00FB0E80050026892F090
:1014F800020F0CBF8CF309888CF3088882F31488D8
:1015080008007047844641EA000313F003036DD1D5
:10151800403A41D351F8043B40F8043B51F8043BAE
:1015280040F8043B51F8043B40F8043B51F8043BB5
:1015380040F8043B51F8043B40F8043B51F8043BA5
:1015480040F8043B51F8043B40F8043B51F8043B95
:1015580040F8043B51F8043B40F8043B51F8043B85
:1015680040F8043B51F8043B40F8043B51F8043B75
:1015780040F8043B51F8043B40F8043B51F8043B65
:1015880040F8043B51F8043B40F8043B51F8043B55
:1015980040F8043B403ABDD2303211D351F8043BF5
:1015A80040F8043B51F8043B40F8043B51F8043B35
:1015B80040F8043B51F8043B40F8043B103AEDD2A4
:1015C8000C3205D351F8043B40F8043B043AF9D2F5
:1015D800043208D0D2071CBF11F8013B00F8013BC8
:1015E80001D30B8803806046704700BF082A13D3D5
:1015F8008B078DD010F003038AD0C3F10403D21AED
:10160800DB071CBF11F8013B00F8013B80D331F820
:10161800023B20F8023B7BE7043AD9D3013A11F8A0
:10162800013B00F8013BF9D20B7803704B7843700B
:101638008B7883706046704753B94AB9002908BF50
:1016480000281CBF4FF0FF314FF0FF3000F06CB99D
:10165800ADF1080C6DE904CE00F006F8DDF804E001
:10166800DDE9022304B070472DE9F047089E0D46D6
:1016780004468E46002B40F082808A42174646D99F
:10168800B2FA82F24AB1C2F1200105FA02F320FA55
:1016980001F1974041EA030E94404FEA1748230CA2
:1016A800BEFBF8FCB9B208FB1CEE43EA0E430CFB88
:1016B80001F098420AD9FB180CF1FF3580F0168129
:1016C800984240F21381ACF1020C3B441B1AA4B2BD
:1016D800B3FBF8F008FB103344EA034400FB01F1C4
:1016E800A14209D93C1900F1FF3380F00181A142E0
:1016F80040F2FE8002383C44641A40EA0C40002163
:101708001EB1D4400023C6E90043BDE8F08702B902
:10171800FFDEB2FA82F2002A4FD1CB1B4FEA174EF6
:101728001FFA87F80121B3FBFEFC250C0EFB1C33C6
:1017380045EA034508FB0CF3AB4207D97D190CF1C8
:10174800FF3002D2AB4200F2E7808446ED1AA3B222
:10175800B5FBFEF00EFB105543EA054408FB00F804
:10176800A04507D93C1900F1FF3302D2A04500F289
:10177800D7801846A4EB080440EA0C40C0E78B4227
:1017880008D9002E00F0AF800021C6E90005084600
:10179800BDE8F087B3FA83F100294BD1AB4202D3FD
:1017A800824200F2B780841A65EB030301209E464B
:1017B800002EAAD0C6E9004EA7E7C2F1200C01FA14
:1017C80002F3974020FA0CF04FEA174E21FA0CFC6E
:1017D8001843BCFBFEF1050C0EFB11CC1FFA87F871
:1017E80045EA0C4501FB08F3AB4204FA02F409D9B7
:1017F8007D1901F1FF3C80F08B80AB4240F288807C
:1018080002393D44EB1A85B2B3FBFEF00EFB1033F0
:1018180045EA034500FB08F3AB4207D97D1900F1FF
:10182800FF3C71D2AB426FD902383D44EB1A40EA13
:10183800014178E7C1F1200C8B4022FA0CF71F43D5
:1018480020FA0CF405FA01F34FEA174E25FA0CF5C5
:101858001C43230CB5FBFEF91FFA87F80EFB19553C
:1018680043EA054509FB08FAAA4502FA01F200FA1B
:1018780001F308D97D1909F1FF3047D2AA4545D9A6
:10188800A9F102093D44A5EB0A05A4B2B5FBFEF097
:101898000EFB105544EA054400FB08F8A04507D99B
:1018A8003C1900F1FF352DD2A0452BD902383C4414
:1018B80040EA0940A4EB0804A0FB02894C45C6464F
:1018C8004D4619D316D05EB1B3EB0E0264EB050496
:1018D80004FA0CFCCA404CEA0202CC40C6E90024D7
:1018E8000021BDE8F087314630460EE7AC46EDE60C
:1018F800184601E74345E6D2B8EB020E69EB070547
:101908000138E0E72846D3E760468FE78146BAE723
:10191800614677E708464BE7ACF1020C3D4415E712
:1019280002383C4426E700BF704700BF70B5494DF8
:10193800494CAE7D304602F0ADFC002871D12378C9
:101948006BB90A2002F0D2FD304602F0A3FC30B990
:10195800424B012222701968002960D01860EE7885
:10196800304602F097FC002860D163786BB90A20F2
:1019780002F0BCFD304602F08DFC30B9374B012235
:101988006270196800294FD018606E79304602F0ED
:1019980081FC00284FD1A3786BB90A2002F0A6FD7C
:1019A800304602F077FC30B92C4B0122A27019683E
:1019B80000293ED01860AE78304602F06BFC002853
:1019C8003ED1E37863B90A2002F090FD304602F078
:1019D80061FC28B9214B0122E270196871B31860C3
:1019E8002C79204602F056FC68BB0A2002F07EFDE6
:1019F800204602F04FFC10B9194B01221A602C78CE
:101A0800204602F047FC08BB0A2002F06FFD204682
:101A180002F040FC10B9134B01221A6070BD1A6025
:101A28009DE7002323709AE71A60AEE700236370EE
:101A3800ABE71A60BFE70023A370BCE71A60CFE7E3
:101A48000023E370CCE7064B0022D7E7054B0022C2
:101A5800E3E700BFF44A0004B88903208029024262
:101A6800002902420028024238B51E4B1E4D0024B0
:101A78001C600121162002F01BFCA87D214602F003
:101A880011FC0121032002F013FCE878214602F042
:101A980009FC0121052002F00BFC6879214602F0BF
:101AA80001FC0121204602F003FC2878214602F0BF
:101AB800F9FB0121022002F0FBFBA878214602F085
:101AC800F1FB0121042002F0F3FB2879214602F002
:101AD800E9FB064AFF23137002F8043C02F80C3CA9
:101AE80038BD00BFE0E20042F44A00044D11004056
:101AF80008B501F075FD4FF47A7002F0F7FC01F0BB
:101B0800E7FCFFF7B1FF024B00221A6008BD00BFD7
:101B1800B889032008B5FFF7EBFFFFF707FFFCE7DD
:101B2800032810B5044606D901F0F2FC042002F09F
:101B3800CDFC201F10BD0020FCE7000013B50648AF
:101B4800046834B18DF80010ADF80230019268468F
:101B5800A04702B010BD00BFBC89032073B50123A4
:101B68000A4D8DF807301C4600269DF807300BB942
:101B780002B070BD01F0CCFC2B682BB12E604FF485
:101B8800FA7002F0B3FCF0E72C60F8E70028024294
:101B980008B513460A4601460020FFF7CFFFBDE807
:101BA8000840FFF7DBBFF8B50D4616461F46FFF79E
:101BB800B7FF044620B93A4631462846FFF7E8FF02
:101BC8002046F8BD084B00221A7001225A700222E2
:101BD8009A700322DA7004221A7105225A710622B9
:101BE8009A710722DA7170474C0C00400020704748
:101BF8002DE9F74F244FDFF8948001910646002520
:101C0800B54202D303B0BDE8F08F741B102C28BF77
:101C18001024FEF375F4D8E9001200F00303E4B2CF
:101C28003B744FF0000C49F2690B44F2506A03EB25
:101C38000C0E88B20EF0030E090C0BFB001190B2CB
:101C4800120C0AFB002257F82E0002EB01490CF196
:101C5800010C89EA0000BCF1040F47F82E00E6D118
:101C6800C8E90012019A9B0050190022D1B28C4297
:101C780002D82544EDB2C3E7991801F00F010132EB
:101C8800795C00F8011BF1E7C08903209C890320D7
:101C980010B5054C054823460A22182100F016F80D
:101CA80000232382A37410BDD88B0320EC8B032060
:101CB800704770477047036823B1586043681BB189
:101CC800186070474860F9E70860704770B5013AD6
:101CD8000546002489B2A24206D84A438118002446
:101CE8008450C3E9000170BD6E182E60013435467A
:101CF800F1E710B5044601F017FC0023C4E90033EE
:101D0800BDE8104001F020BC10B5044630B10A4BC4
:101D18001B781BB1206848B9002010BDA322002100
:101D28000420FFF735FF002CF4D1F5E703682360A2
:101D380003B963600830F0E7A28B032038B5044686
:101D48000D4611B10C4B1B7823B9CD22002104207C
:101D5800FFF71EFF24B9CE2221460420FFF718FF03
:101D6800A4F108006B684360002344F8083C294646
:101D7800BDE83840FFF79FBFA28B032070B5064629
:101D88000C46154612B10A4B1B7823B9DE220021F6
:101D98000420FFF7FDFEA6F10800083C63684360D5
:101DA800294646F8084CBDE87040FFF784BF00BFDD
:101DB800A28B032038B504460D4611B10D4B1B7894
:101DC80023B9F02200210420FFF7E2FE24B9F4220F
:101DD80021460420FFF7DCFE54E902232BB11A60E8
:101DE80054F8082C1AB1536038BD2A60F8E76B60C4
:101DF800FAE700BFA28B032038B505460C4611B19F
:101E08000E4B1B782BB940F21D1200210420FFF75E
:101E1800BFFE2DB940F2211229460420FFF7B8FE73
:101E28006268A5F1080302B113600022636045F8F7
:101E3800082C226802B9236038BD00BFA28B03209A
:101E480038B50A4B04461B78006803F0FF0100F11F
:101E5800080523B940F23D120420FFF799FE2368D4
:101E6800002B14BF2846002038BD00BFA28B0320DA
:101E78007047704708B500F0FBFD012804D1BDE8A4
:101E88000840002000F0D4BD08BD000010B1084B88
:101E980040221A70074B1860C3F86C0703F58E438D
:101EA80038331860A3F58E43303B1960704700BF84
:101EB8006E090040202001420A4B10B580220A4CCE
:101EC8001860596042F2107003F81C2C23683BB16B
:101ED80040F2071300220721FFF765FE0028F5D11D
:101EE80010BD00BF2409004050210142024B40228E
:101EF8001A70BFF34F8F70470809004008B500F00B
:101F0800B7FD012819D1144B18680003134B0022A0
:101F180018605A60012203F82B2C114A1368002B11
:101F2800FCD1104A1368002BFCD0012002F0CEFA35
:101F38000D4A1368002BFCD108BD48B9064B5968F7
:101F48000A4B08059A88090B0023FFF775FBDDE7A4
:101F58004FF08040DAE700BFA4890320340900402D
:101F68005C2101424C21014250210142D4890320C5
:101F780010B50446E8B900F099FDC0B9154B997938
:101F8800B1FA81F14909C9B20120FFF77FFF94B97D
:101F98001149104B0A789B8802F08F020A70013BA6
:101FA8000E4A9BB21380BDE81040FFF79FBF012186
:101FB800E9E70121E8E7012C0AD1074A137803F081
:101FC8008F0343F010031370044BFF221A80EAE7D3
:101FD80010BD00BFD4890320010900400209004058
:101FE80008B5084B00211972D8601B78012B04D062
:101FF80040F2E2220720FFF7CBFDBDE808400020B1
:10200800FFF7B6BFD48903207FB5104D04461022D0
:10201800002168462E7A02F0BFFCA4B9FF2E12D127
:1020280005238DF800300A4942F21073684601937F
:1020380000F054FDFF28287205D140F2C62221463F
:102048000720FFF7A5FD04B070BD00BFA4890320D9
:102058008D200004094B70B51D6855B9084B1E68E2
:1020680000F006FD044630B93046FFF7B9FF2046B8
:1020780070BD0124FBE72C46F9E700BF5867014211
:102088000C09004010B500F0F3FC044600F00EFD0A
:10209800A4B978B10A4B1B6843B10A4B1B7A2BB918
:1020A800094B196811B90846FFF7F0FEBDE8104062
:1020B800FFF7D0BF034B5B78002BF7D110BD00BFF3
:1020C80058670142D489032028200142F8B5431EED
:1020D80017469BB240F6FE72934206460D4605D956
:1020E80040F2C51200210720FFF752FD6B1E1F2B7F
:1020F80005D94FF4E37200210720FFF749FD104C82
:1021080001230021802204F110002370A680A5700D
:10211800677002F041FC217A002384F89030A371A3
:1021280069B9084B4FF0FF325A60074B1B6833B14F
:102138000846FFF7ABFEBDE8F840FFF78BBFF8BDD8
:10214800D4890320A48903205867014208B5134B9A
:1021580000209871A3F8920083F89400D86083F85F
:102168009000024610330130202843F8042BFAD19E
:102178000B4A13889BB26BB10A4B108819785A78AE
:1021880080B2C9B2D2B2FFF7A1FF074BFF221A7281
:102198005A7208BD01220821F5E700BFD48903203F
:1021A8006000380462003804A4890320F8B5444B61
:1021B8001B682BB3434B01221A60BFF34F8F424A6F
:1021C80015880232ADB2127845EA024500221A603B
:1021D8003E4C237A012B37D1284600F025FD0546D1
:1021E80070B300210846FFF751FE012D384E0AD082
:1021F800022D20D00223E3714FF0FF33336007E054
:102208004FF0FF35E4E70323E37100F0A1FD3060F0
:1022180000F06AFDE379022B01D1FFF72BFE2D4B6D
:1022280000221A607368013348D12B4B1868BDE847
:10223800F840FFF7D5BE0323E37100F073FDE6E72E
:10224800BDE8F840FFF752BE002B37D16E1CF7D01F
:10225800A6782EB940F2A13231460720FFF798FC44
:1022680094F8903004EB830201331561B3FBF6F266
:102278001A4D06FB1233002284F890301346D1B26F
:10228800B14210D3751A68426841A07199B94FF0EC
:10229800FF330F4A8E425360D2D10021BDE8F84087
:1022A8000846FFF7F3BD55F8040B571C0028E9D082
:1022B80003443A46E3E7B3FBF2F3EAE7F8BD00BFAD
:1022C800682101422C2001421C090040D4890320C6
:1022D800A489032040C000420C090040E48903207F
:1022E800012806D9022809D14FF496716420FFF716
:1022F800E3BD40F2A4614FF49660F8E70021084678
:10230800F5E7000008B500F0B3FB02280DD0074B35
:1023180018680538B0F5C87F38BF4FF4C870BDE8F5
:10232800084000F5FA71FFF7C7BD08BD2409004051
:1023380038B505460C4601F0F7F805F00700ED083A
:1023480005F18045231E4FF0010218BF012395F8BF
:10235800381B824083401340DBB221EA0202134358
:1023680085F8383BBDE8384001F0EEB8094B1B68EA
:1023780010B504462BB140F2F63200210720FFF7D2
:1023880007FC01F0D1F8044B1B682360BDE810403E
:1023980001F0DAB8542101420C090040094A08B595
:1023A800B2F8923013F0010004D143F00103A2F80F
:1023B800923008BD072040F20E420021FFF7E8FBEB
:1023C800FF20F6E7D489032038B5054628B140F246
:1023D800154200210720FFF7DBFB0A4CB4F89210E6
:1023E800294111F0010104D140F216420720FFF7FC
:1023F800CFFB0120A840B4F8925025EA0005A4F8C4
:10240800925038BDD48903202DE9F84305460C467F
:1024180029B140F21C4200210720FFF7B9FB01F067
:1024280083F8E708012304F00706204A03FA06F6B2
:1024380007F18047F6B287F842691370BFF34F8FF0
:10244800DFF86C9042F21070C846D9F800303BB102
:1024580040F2214300220721FFF7A5FB0028F4D111
:1024680004F1022440342B462401103518685968B9
:10247800224603C20833AB421446F7D10B4B87F808
:10248800406901221A70BFF34F8F42F21070D8F8DA
:1024980000303BB140F2264300220721FFF783FBBF
:1024A8000028F4D1BDE8F84301F04EB84E090040C9
:1024B800F82B014238B5044628B140F22F420021DA
:1024C8000720FFF765FB01F02FF804F102234033E2
:1024D8001B019D7B05F00F05042D1BD0012204F084
:1024E8000703E40802FA03F304F18044DBB284F83A
:1024F80042390A4B1A70BFF34F8F094C42F21070E1
:1025080023683BB140F2374300220721FFF74BFB1A
:102518000028F5D101F018F8284638BD4E090040CA
:10252800F82B01422DE9F8430F461646044628B118
:1025380040F2414200210720FFF72AFB4FEAD40866
:1025480004F007054FF0010904F1022408F180485E
:1025580009FA05F54034EDB2240100F0E5FF052045
:1025680088F8425901F0B2FF2760A67388F84059ED
:1025780000F0EAFF024B83F80090BDE8F88300BF43
:102588004E09004008B500F073FA02280DD0074B39
:1025980018686430B0F57A6F28BF4FF47A60BDE8E8
:1025A800084000F5FA71FFF787BC08BD2409004010
:1025B800014BD879704700BFD4890320234B1B688F
:1025C80010B54BB1224B02221A70224B1B68002B0C
:1025D8003AD0BDE8104018471F4B197811F00F0189
:1025E80003D0A3F502730F22EEE71C4B1B6823B13F
:1025F8004FF4FB720720FFF7CBFA194B1B6833B176
:10260800184B40221A70BDE81040FFF7CFBD164B9B
:10261800198889B231B9BDE8104040F20E2207206E
:10262800FFF7B6BACB070FD5104B1B78C3F30113CE
:10263800023B012B01D8FFF7A5FF064B5B6803B1EE
:1026480098470B4B01221A8010BD00BFE46E01426F
:102658006F0900406C8A0320760B0040E06E01424F
:10266800D86E01426E090040680900400E2400201F
:102678006C09004010B5034C236803B910BDFFF77F
:102688009DFFF9E79C60014210B5084B01241C60CE
:102698000A2043F8084C1C6101F018FF044B20463F
:1026A8001C60BDE8104001F011BF00BF3CA701420B
:1026B80050A701423A4A00232DE9F047137002F16E
:1026C800007202F5784204251360536002F51E4239
:1026D800C0321360334B4FF444721A804FF43C728B
:1026E80023F8022C022003F80B5C5C7E01F0EEFE5E
:1026F8002D4B012628461E7001F0E8FE2B4B1B8847
:102708009BB2B3F5407F04F01F04A3F54077B4BF34
:1027180035464FF0FF358CB31F2C08BF4FF0FF35FF
:10272800DFF88C80DFF88090DFF880A02C44E3B2DB
:1027380088F80030022001F0C9FE012389F8003032
:10274800042001F0C3FEBAF80030012DA4EB050601
:102758009BB215D1B3F5407F1CDA1F2C14D1C3F5F9
:102768004073002FB8BF7F429F4216DA104BF6B273
:102778001E70BDE8F047022001F0A8BE3546CFE73D
:10278800B3F5407F05DD2CB1A3F5407706EB450492
:10279800CDE7E4D1A3F54073E3E7BDE8F08700BFD8
:1027A800000D00400C0D00402A0D0040200D004097
:1027B800020D0040214B70B500241C600A2001F076
:1027C80085FE1F4E1F48204D346001232C60036096
:1027D80040F8043C40F8143C1C4B1D4C80201870F9
:1027E80042F210702368012B06D0852300220721AE
:1027F800FFF7D9F90028F5D1144C80232370022063
:1028080001F064FE1023237020232370114A402313
:102818002370012313700022336004202A600821EA
:10282800022223702270207021700B490A700870F0
:1028380001F82A3C094B1A7070BD00BF34A7014249
:1028480000050142D4A3014204050142280D0040BD
:102858009CA50142290D00402A0D004004080040B3
:102868000C4B10B501220C4C1A6042F21070236810
:10287800012B06D09E2300220721FFF794F9002898
:10288800F5D1FFF701FFFFF715FFBDE81040FFF78F
:1028980091BF00BF3CC00042A0C40042124B10B51B
:1028A8000122124C1A6042F210702368012B06D0E4
:1028B800A72300220721FFF776F90028F5D10C4A53
:1028C8000023137002F1007202F57842136053601E
:1028D80002F51E42C0321360C2F89033C2F88C333E
:1028E800C2F87C3310BD00BF38C00042A4C4004207
:1028F800000D00400B4B10B501220B4C1A6042F240
:1029080010702368012B06D0B42300220721FFF79B
:102918004AF90028F5D1FFF7B7FEBDE81040FFF7E8
:1029280049BF00BF3CC00042A0C40042014B012285
:102938001A6070479CC6004270470000174B1B88FE
:1029480010B59CB21B0505D54FF4AC7200210720C9
:10295800FFF71EF9C4F384130F2B05D04FF4B072A0
:1029680000210720FFF714F9E30B05D04FF4B172EB
:1029780000210720FFF70CF904F03F04013C032C69
:102988008CBFFF240024064BFF2C1C7005D1054A80
:10299800127802F0FF0102B1197010BD0008004062
:1029A800748A03200B01380438B50D4B01251D60CE
:1029B800A3F5FF5300221A600446FFF791FC09496A
:1029C8000B7803F0FC0204F0030313430B70023C82
:1029D800054B18BF01241C60A3F294531D6038BD39
:1029E8003C20014200060040E005014210B50446C3
:1029F80000F09AFD0C4A13786CB1012B9DBF0B4B6C
:102A08000121197003F1FF3398BF00231370BDE84B
:102A1800104000F099BD0133DBB2012B137004BFE5
:102A2800024B1C70F3E700BFAE8903202E0800405C
:102A3800012810B504460AD1FFF7BAFD022806D1CD
:102A48000720EC220021FFF7A3F8C22010BD074B96
:102A58001B7803F003039C4205D02046FFF7A4FF30
:102A68002046FFF7D1FA0020F0E700BF000600403B
:102A7800024B187800F00300704700BF00060040C2
:102A880008B5054B1B6823B1452200210720FFF735
:102A98007FF8024B186808BD542101420C09004018
:102AA800014B5870704700BF788A0320014B587853
:102AB800704700BF788A032038B5064C0025A570FA
:102AC8002570657001F0ACF9034800F0D7FCE5709B
:102AD800656038BD788A032000E204002DE9F843D8
:102AE800144CA378052B0546894621D8FFF7C8FF63
:102AF800A378804633B901F0BBFB08F51C531033AB
:102B08002081E36095E80F00A7781C2606FB07469E
:102B180006F1100C8CE80F0068682389338540445F
:102B28007B1CC6F820907062A3703846BDE8F88315
:102B3800FF27FAE7788A0320F8B5394CA3788BB3D6
:102B4800FFF79EFFE368C31A002B01DA63787BB1B5
:102B580000F51C501030E060FFF792FF314D07463A
:102B68000026A3789E421ED363780BB100236370BE
:102B7800FFF786FFD4F8B830C31A002B12DB00F534
:102B8800742000F51070C4F8B80001F071FB10F55E
:102B9800004F07D0E3786568032B1ED8013305443E
:102BA800E3706560F8BD23783341D80701D56378B1
:102BB80053B92A78D10703D56B69FB1A002B03DABE
:102BC800520707D563782BB16B683B446B61284685
:102BD8002B69984701361C35C3E7002DB8BF03356C
:102BE800002345F38F0500270E4EE37025816760AB
:102BF800A3789F42D6D233789B070ED5B6F9183002
:102C08007288EB1A002BB8BF5B429BB29A4204D879
:102C18003369358335813046984701371C36E7E7F5
:102C2800788A0320888A032038B52E4A948C034674
:102C380092F826000134A4B201289484114626D0C3
:102C4800022835D0002844D15D1C08D1C82C3ED1BB
:102C5800012381F8263000238B848B6238E0926A46
:102C6800551EAB4210D3013293420DD891F82D3046
:102C7800013381F82D3091F82D3091F82C20013353
:102C88009A42E3DC012023E08B620023F1E7591C20
:102C980025D0906AB4F5807F0344936217D11B0A4C
:102CA80000209362022382F82630D06290840FE0DD
:102CB800926A934234BFD31A9B1ACA6A5B43D318E9
:102CC80028BF4FF0FF33B4F5807FCB6200D00020DF
:102CD80038BD4FF4B27200210720FEF759FF0320D8
:102CE800F6E700BF348B03200C4B93F826001A46F6
:102CF80030B993F82C1093F82D30013399420CDD3C
:102D0800536A074923F07F438B4204D1D06A431C9E
:102D180003D0000A70474FF0FF307047348B032010
:102D280000010200084B09495A6A22F07F428A4290
:102D380002D1986A000A704793F82620022A0CBF2D
:102D4800986A4FF0FF307047348B03200001010070
:102D5800014B986A704700BF348B0320684620F007
:102D680007018D46F1B5FFF7E1FD72B6614B1C68AE
:102D780014F0FF0401BF604B1C68B4FA84F46409C2
:102D88000120FFF78DFE002C40F0F0805B4B83F3B1
:102D98000888594A5A4B15681460B3EB153F37D069
:102DA800584B552119705849584B802008701460A9
:102DB800574A022111705988A2F81A116FF45970F4
:102DC8000244197953481170191D0322013211F870
:102DD800014F04700A2AF9D14F4905220132212AEC
:102DE80033F812000880F9D14C4A1368012BFCD043
:102DF8004B4A4C490123136093604B4A32F8023B1B
:102E0800002B70D1494A01211160A2F500721360AC
:102E1800474A484F002313603B60474B1B6823B168
:102E280002F25C421368002BFCD0A90707D5374B88
:102E38001A781B78414ADBB21370FFF75BFD6A070B
:102E480048BF3F4B374E3F4C44BF00221A602B0708
:102E580042BF3D4B01221A603C4A01231360536074
:102E680002F5894258321360394B726D1A60B26D9F
:102E78005A6006F15C050FCD0FC40FCD0FC4324662
:102E88002B68236052F8800F324B5168324C03C3D1
:102E980090681860A3F55163D6F88C205A60D6F86C
:102EA80090201A604FF47A7023683BB140F25F13A8
:102EB80000220621FEF777FE0028F5D1FFF722FA57
:102EC800264A01233B601370254B00221A7062B614
:102ED80024492548C022FEF715FB00F083FABDE817
:102EE800F1408546704703F1804311F8010B1870D3
:102EF80084E700BF8006014200800320207F052070
:102F0800BCAB0A0024110040910E0040BC81032094
:102F1800260800408F04004080050040C091004210
:102F2800E404014238820320404A000410030142AD
:102F380044C00042180301423CC00042020D004058
:102F4800A004014200E400E0A404014208C00042D9
:102F580000E100E018ED00E054210142000B0040C0
:102F6800A28B0320CC820320407F0520854B9A68E2
:102F78003AB19A689B68844AC3F30F211B0E1180EB
:102F88009370824A82498348FEF7BCFA824A834892
:102F9800002101F001FD01F0DBFC814B814AC3F304
:102FA8008F031380804BC3F38F0322F8023C7F4BBF
:102FB800C3F38F0322F8443C7D4B0C221A807F22F6
:102FC8001A71012283F859204FF4E852A3F85A20C5
:102FD80002F1005202F6BE124FF4F051518001F195
:102FE8000051002301F6C7011370137103200F224B
:102FF8000A704870CA7006206E4A8870FB211170EA
:103008003F2151706C4940F6B830A1F840004FF4A8
:10301800AF70A1F8420041F2F800A1F844009620F0
:1030280081F846006548C1F84A00022081F84E0040
:1030380040F20120A1F85A006148C1F85E00AA20B8
:1030480081F86A004FF6FF7245F255500A80A1F8E0
:103058006E00552081F870001E2081F8710042F240
:103068003810A1F8760000F1A850A0F56D00A0F680
:103078002770C1F8820000F1043081F87830C1F877
:10308800860000F1043000F18070C1F88A0000F178
:10309800806000F1051000F5A060C1F88E0000F115
:1030A8000430C1F8920000F10430C1F8960000F134
:1030B8000430C1F89A0000F10430C1F89E0000F114
:1030C8000430C1F8A20000F1F37000F5EE3000F50D
:1030D8008270C1F8A60081F8C6201020394A81F80C
:1030E800C4007031FF2111704FF4F851A2F84A1052
:1030F8004FF40251A2F84E10082182F84C3082F8A1
:10310800501082F8543042F2B8012F4BA2F85210F6
:1031180033221A702D482422402101F03DFC2C4B0B
:10312800202283F81B232B4B1B681BB12A4A1368E8
:10313800002BFCD0294B01241C60FFF791FB284B86
:103148001C60284B1C70284B1C60A3F500730022E0
:103158001A60FEF737FD254A1368002BFCD1244A74
:10316800137062B6234C4FF47A7023683BB14FF466
:10317800EA7300220621FEF716FD0028F5D1FEF7B6
:10318800C9FCFEE700ED00E0400C0040180000001C
:10319800144B00049C89032028030000B8890320ED
:1031A8008C030000440E00408C0500009C050000C4
:1031B80062260020CB260020CE26002020FFD0FF4C
:1031C800D6BE898E962700202E07004000E400E036
:1031D80000E100E03CC00042A0C40042EC0401420F
:1031E800A4040142000B004010030142C80601423A
:1031F800A28B032054210142684620F007018D4626
:103208002DE9F1434E4ADFF89481DFF89491D8F81C
:10321800003011684B4C00294B494FEA8303096879
:10322800DBB20CBF022700270B433B43DFB2474BFF
:1032380000251D70A3F2CB23012616601E70FEF731
:103248005DFE042389F80030414B1B78DBB2237004
:10325800C8F80050FFF722FB3E4B1D605D6003F588
:10326800894358331D603C4B1B7803F00303022B42
:103278002DD13A4E3A493B4DC02206F19400FEF753
:1032880041F9394B1A6872655B68B3650FCD06F171
:103298005C040FC40FCD0FC42B682360334B03CBE2
:1032A800C6F88410C6F880001868C6F88800A3F528
:1032B80051635A68C6F88C201B68C6F890302C4BAE
:1032C80008221A70FFF738FB384600F0AFF8294B90
:1032D8001D60294B89F8006040221A70A3F25353ED
:1032E800A01C1B886380254B254A1B788370254BBF
:1032F800043412F8021B01F03F019A4204F8011F3E
:10330800F7D1214B214A224932F8024B23F8024FC8
:103318008A42F9D11F4B1B1A412B05D840F2BA2219
:1033280000210620FEF734FC1B4A0C4932F8023B08
:10333800002B9ED003F180431B7801F8013BF5E791
:10334800A0040142BC810320C0A30142000B00403D
:10335800250D004008C000420006004038820320C6
:10336800407F052000E400E000E100E018ED00E007
:1033780035080040E4040142910E0040C1040040B9
:10338800800400408E040040C68103208E05004062
:10339800C605004038820320404A0004A4040142C4
:1033A80026080040704770470B4A0C48136943F0E1
:1033B800040310B51361FEF786F8094C40B972B6DC
:1033C800BFF36F8F00F0FAFF10B1237803B930BF55
:1033D80062B60023237010BD00ED00E0688B032067
:1033E800A38B032001480121FEF779B8688B0320DD
:1033F8000B4B1B780E28DBB285BF03F0030209488C
:1034080040B280560E2981BF064AC3F382039B1837
:103418001979054B090149B2084383F83800704708
:1034280029060040E84A0004688B032008B50F49C4
:103438000F4B104A1B780978126801F00301022922
:103448000D494FEA401003F0070391F8381002F0D5
:10345800080242EA0302C3B20CBF1020002042EA6D
:1034680001221843104301F06DFA00BF0006004026
:103478000208004000800320688B032038B5114DF6
:103488002B7804462BB140F2AD1200210620FEF73E
:103498007FFB0D4B0D490022013CE0201A605C6067
:1034A80081F823009A601A6842F004021A601A68C8
:1034B80042F002021A601A6842F001021A600123FF
:1034C8002B7038BDA18B032010E000E000ED00E078
:1034D80010B5102000F0FAFF094B0A480A4C552293
:1034E8001A700A4B00221A6023683BB14FF4F47338
:1034F80000220621FEF757FB0028F5D110BD00BFBA
:103508002411004040420F00E024024200240242FD
:10351800034B1B6813B9034BAA221A70704700BFEC
:10352800E02402422411004072B6064B5A7812B9C0
:10353800202282F311885A780132D2B25A7062B6C8
:10354800704700BFA18B032072B6084A5378012B3D
:1035580083BF537803F1FF33DBB200238ABF537074
:103568005370202383F3118862B67047A18B032020
:1035780038B50446FFF7D8FF102000F0A7FF12491E
:10358800124A134D55230B70124B1C80137803F00D
:10359800F10343F0040313700F4A012313605360CF
:1035A80042F8A03CFFF7D0FF0C480C462B683BB113
:1035B80040F2D51300220621FEF7F5FA0028F5D1CE
:1035C800AA23237038BD00BF2411004020110040F9
:1035D800E024024222110040A024024240420F008F
:1035E8006D4A6E4838B5012100231170036004202C
:1035F80010706B4A6B4C11606B4A6C4DFF20107059
:103608006B4A1160227802F0C10242F00E02227069
:10361800684A1160684A1360684A1070627C02F058
:10362800C10242F006026274654A116002F5A232D4
:103638001360644A1070A27C02F0C10242F00802D2
:10364800A274614A116002F5A2326032136094F8E4
:10365800812C02F0F00242F0070284F8812C5B4AC8
:103668001080138411715A4A5A481160027802F086
:10367800F80242F002020270A0F63F20027802F03F
:10368800FC0242F003020270534A107800F0FC007A
:1036980040F00200107051480360107800F0CF002D
:1036A80040F0200010704E480360107800F03F0092
:1036B80040F0800010704B4803604B48047804F0D9
:1036C800FC0444F002040470484C2360047804F0BD
:1036D800F30444F008040470454C23602C7804F08B
:1036E800CF0444F020042C70424C2360424B1C78D9
:1036F80004F0FC041C701C7804F0F3041C701378AC
:1037080003F0CF031370137803F03F031370A2F292
:103718007D62137803F0F80343F002031370D37843
:1037280003F0C70343F01003D37092F8833203F019
:10373800C70343F0380382F8833292F8833203F0E8
:10374800F80343F0070382F883322C4B197003788F
:1037580003F0CF0343F010030370037803F03F0333
:1037680043F04003037092F8803603F0F30343F00C
:10377800040382F88036FFF7E1F8FFF79DF9FEF7BA
:10378800E5FC00F0ABFD4FF6FF70FFF7F1FEBDE87A
:10379800384000F089BE00BF350800408468014207
:1037A8008868014217070040411100400D0700409A
:1037B80044280242E0E20042002802424911004047
:1037C80000E500424D11004020E500429A130040F8
:1037D800287702424F1100400807004020000242AB
:1037E800280002422C000242090700403000024231
:1037F80034000242780002420A07004007030040F2
:10380800024B5878B0FA80F040097047A18B03202A
:1038180010B50023934200D110BDCC5CC4540133D1
:10382800F8E703460244934200D1704703F8011BAE
:10383800F9E7FFF7EDBF30B501390024A24201D105
:10384800002005E0035D01340D5DAB42F6D0581B46
:1038580030BDFFF7F0BF0000014B01229A7070479E
:10386800A18B032070470000014B00221A607047AB
:103878009C640142014B00221A707047280B0040DB
:1038880008B50B4B1B682BB140F2C1320021062052
:10389800FEF77EF9074B1B6813B1074B00221A602D
:1038A800064B1B6813B1064B00221A6008BD00BF07
:1038B80008700142047001428468014200700142AC
:1038C80080680142014B0122DA707047A18B032006
:1038D80038B5FFF729FE154B154D1B68A3B1FFF747
:1038E80033FE0124D0B1FEF7C5FEFFF71DFE114BD4
:1038F8001C6043F8104C104B1C70104B1C600023CC
:10390800AB70FFF721FE09E00D4B1B68002BE6D1D9
:103918000C4B1C68FFF718FE002CE2D1EB781BB1AA
:10392800FFF70AF90023EB70204638BD9C6001427E
:10393800A18B0320AC640142280B0040886401423B
:1039480088600142C060014211F0FA0FF0B501D061
:103958000B2931D1234BDFF8A0E01F78002307F0B3
:10396800030707261C461D463EF823201FFA82FC43
:1039780002F00F02914209D11CF4005F18BF012424
:103988001CF4805FCCF3422618BF012501339F4207
:10399800EAD2F5B98CB1144B1A882C4612B2134BE3
:1039A8001B889BB201210BB949F69A130670417026
:1039B80084708280C380F0BD07260D4B1A880024CE
:1039C80012B20C4B1B889BB24BB9194649F6C0136F
:1039D800ECE70CB10022E2E72C460022F1E70021D7
:1039E800E4E700BF411000404E0038044C003804A2
:1039F8004A0038044800380444100040104B114A6B
:103A08001B8812881BB2B0F5FE4FD4BFC3EB000071
:103A1800C3F5FE4000F5883049F69A1192B200F5D8
:103A28009370002A08BF0A4640F23B230002B0FB0D
:103A3800F3F00002B0FBF2F000F5007080B27047BE
:103A4800440038044C003804F7B506466846FFF7CA
:103A58007BFF9DF80030BDF90450BDF80670B40234
:103A6800062B1BD8DFE803F00412161A051A1800F3
:103A7800A4089DF80100B8B1B4FBF7F405F2FD15F0
:103A88002C44A4B20134A0B203B0F0BD0323B4FBAC
:103A9800F3F4EEE76408ECE7F402EAE7AD2200216C
:103AA8000620FEF775F8E4E76400B4FBF7F405FABE
:103AB80084F3002BE4DA0446E4E700002DE9F04F34
:103AC800174685B0B34A019111780293BDF838B012
:103AD800BDF83C909DF84030044631B940F2CD1213
:103AE80006200393FEF754F8039BAB4A128864B18F
:103AF800012C0AD0022C00F08580032C00F0848071
:103B08000B2C02D00C2C18BFFF24A44DA4492E78EE
:103B18006A78FF3E18BF0126FF2AAA7818BF013627
:103B2800FF2A0A7818BF013602F0F80218BFF6B269
:103B38000A7016B99B4A01211160DFF8D4A2DFF898
:103B4800D482002F62D040F2FF32AAF80020A8F8F1
:103B580000200C2C5FD1944B01221A604BF60C63A9
:103B68002A78FF2A7CD1914A1A4042F01003904AE1
:103B780001211170029A0AB143F48073022E99B29E
:103B88008C4AC3F3074300F09180032E00F098801D
:103B9800012E00F081808848018088490B701378D5
:103BA80003F0FC031370019B002B40F093803A1E36
:103BB80018BF0122029B002B40F09780002F00F0D5
:103BC8008B8040F2FF33AAF80030A8F800302B7839
:103BD800FF2B40F0C6807A492C700B7803F09F03C6
:103BE80043EA42130B700123714A137053706C4AF5
:103BF800137803F0F80343F001031370012005B0B4
:103C0800BDE8F08F042480E705247EE7AAF8007059
:103C1800A8F800709DE70B2C20D02BB144F4844306
:103C28002CB9684A14609BE744F49043F8E7012CE8
:103C380003D1654A0021116092E7042C01D1634A3F
:103C4800F8E7052C01D1624AF4E740F22A22002164
:103C580006200393FDF79CFF039B81E75D4B7FE7FD
:103C68006A78FF2A06D15C4A1A4042F020030221F2
:103C78004F4A7EE7AA78FF2A06D1584A1A4042F0EE
:103C8800400304214A4A74E740F2432206200021F7
:103C9800FDF77EFF0020B2E75148018051490B70C3
:103CA800137803F0FC0343F001037BE74E480180DF
:103CB8004E490B70137803F0FC0343F0020371E7DD
:103CC8004B4801804B490B70137803F0FC0343F019
:103CD800030367E702226DE7019B002B3FF477AFF0
:103CE800AAF80070A8F8007071E70C2C26D10FFA1A
:103CF8008BFB5846FFF782FE5846FFF77FFE0FFA08
:103D080089F9AAF800004846FFF778FE4846FFF709
:103D180075FE274BA8F8000008221A70364A0123BE
:103D28001360364A1360364A202111701021117031
:103D3800344A1360344A1370002248E72146584633
:103D4800FFF782FE21465846FFF77EFE2146AAF875
:103D580000004846FFF778FE21464846FFF774FE04
:103D6800D7E76B78FF2B08D128496C700B7803F0E4
:103D7800FC0313430B70022336E7AB78FF2B4BD1C0
:103D88002249AC700B7803F0E70343EAC2030B70D7
:103D9800042329E7A88B03205C100040AF89032087
:103DA800401000400C080242A40D0242EFFF03003D
:103DB8005A10004041100040441000404610004096
:103DC80058100040D0E50042D4E50042C0E500426A
:103DD800C4E500420B700300DFFF0300BFFF0300D0
:103DE800481000404A1000404C1000404E1000405F
:103DF8005010004052100040B064014200E100E061
:103E08005B1000409C6B01425D0B00405910004064
:103E180056100040541000404FF4307236E700BF8F
:103E28000D4B1A78BAB901221A7002F1804202F5D4
:103E38008252137803F0F30343F0080313701378E6
:103E480003F00F0343F02003137012F8013C03F052
:103E5800F80302F8013C7047A88B03200C2937B5FA
:103E6800054623D12C4B1A8849F69A1192B2002A9A
:103E780008BF0A46A0F500746243121240F23B20C4
:103E8800083B504300121B88A0F58830A0F59370BA
:103E980000FA83F0214B9842B8BF1846B0F5FE4FA0
:103EA800A8BF4FF4FE4080B203B030BD6846FFF7AC
:103EB8004BFD9DF80140BDF90400BDF8063074B112
:103EC8006FF4FE72AC18241A5C439DF80030062B80
:103ED8001BD8DFE803F00A13161A0B1A1800A842B9
:103EE800BCBF2C1A5C436408EFE7A400A00A4FF695
:103EF800FF74844228BF0446A0B2D5E704EB44040B
:103F0800F4E76400F2E76408F0E7AD220021062038
:103F1800FDF73EFEEAE700BF4C0038040080FFFFD3
:103F280038B5414B1978044621B940F20D320620C4
:103F3800FDF72EFE54B1012C08D0022C18D0032C0A
:103F480018D00B2C02D00C2C18BFFF24374B1A7832
:103F5800A24225D1364B1B7813F0600F0CD00023FA
:103F6800344A01211170B2F80300C0F3090010E0CF
:103F78000424EBE70524E9E72F4D64202B681BB9DF
:103F8800FDF7CEFD0028F9D100280CBF012300233E
:103F9800E6D1002B45D12146BDE83840FFF75EBF8A
:103FA8005A78A24218D1254B1B789B0706D00023CC
:103FB800204A02211170B2F80500D6E7204D64208E
:103FC8002B681BB9FDF7ACFD0028F9D100280CBF00
:103FD80001230023DDD0EBE79B78A34219D1174BCF
:103FE8001B7813F0180F06D00023124A0421117011
:103FF800B2F80700B9E7134D64202B681BB9FDF729
:104008008FFD0028F9D100280CBF01230023C0D060
:10401800EBE740F23B3200210620FDF7B9FD002016
:1040280038BD40F24732F6E7A88B0320AF8903205A
:10403800581000405B100040C00C0242591000406C
:10404800C40C0242C80C024238B5144C144DFFF798
:104058006BFA226832B9296821B940F27B3206200E
:10406800FDF796FD23684BB10E4B00205B6898471F
:104078000D4B00221A600D4B20221A702B684BB191
:10408800084B01205B689847094B00221A701022E0
:1040980083F8FE24BDE83840FFF756BA1C73014286
:1040A80020730142A88B03209C6B01425B100040E7
:1040B8005D0B00401FB502930023CDE90033FFF7E5
:1040C800FDFC05B05DF804FBF8B54B4B19780446C8
:1040D80021B94FF470720620FDF75AFD54B1012C36
:1040E80008D0022C50D0032C50D00B2C02D00C2C12
:1040F80018BFFF24414A137803F0F8031370404BAC
:104108001A78A24244D1FF221A701D785A789B78F7
:10411800FF3D18BF0125FF2A18BF0135FF2B1CBF23
:104128000135ADB20C2C3FD1364B00221A6036490E
:10413800364E0B78002203F003039A421BD836F858
:10414800220000F00F00844206EB820746D10020CF
:104158009A42388007D003F1805202F2114292004D
:10416800128892B23A8033B10A78013B02F0FC021D
:10417800DBB213430B709DB3204A137803F0F803A6
:1041880043F001031370F8BD0424B3E70524B1E735
:104198005A78A24202D1FF225A70B6E79A78A24210
:1041A80004BFFF229A70B0E70B2CC0D014B9184B8B
:1041B8000122BBE7012C02D1164B1C60B7E7042C87
:1041C80001D1154BF4E7052C01D1144BF0E740F26F
:1041D800F93200210620FDF7DBFCA8E70132ACE745
:1041E8000F4C322023681BB1FDF79AFC0028F9D147
:1041F8000C4B00221A60C6E7A88B03204010004031
:10420800AF890320A40D0242411000404410004031
:10421800D0E50042D4E50042C0E50042C4E50042D2
:10422800B80C02420C08024238B5104B1978044603
:10423800154621B940F232420620FDF7A9FC2DB9F6
:1042480040F2334229460620FDF7A2FC0022012352
:1042580011462046FFF72EFF38B12046FFF760FED3
:1042680028802046FFF730FF012038BDA88B0320A7
:1042780007B500210DF106020C20FFF7D5FF18B98C
:104288004FF40043ADF80630BDF9060003B05DF801
:1042980004FB0000024BC0B2C058C0B2704700BF58
:1042A800E0000242014BC0B2C150704720000242F8
:1042B80000F003035A0011B102219140C9B28008ED
:1042C80000F180400323934090F80827194022EA20
:1042D8000302114380F80817704700001FB5102229
:1042E8000021684600F058FBFEF758F82C4CFF28D0
:1042F800207004D1802200210620FDF749FCFF230D
:104308008DF80F30684643F60473ADF80C30FEF7AD
:104318002DF8009B217803F10043013B00939DF8A1
:104328000E3023F00F0343F0010368468DF80E307A
:10433800FEF76AF82078FEF7BDF801212078FDF72E
:10434800F7FF0120FEF752FB164A002A0CBF002196
:104358000521B2F5803F21D8B2F5004F8CBF10235C
:1043680018230AB943F004030F4AB2F5005F0F4A55
:1043780098BF43F0020313700520FFF739F80C4B80
:1043880001221A700B4A0C4B9A4205D84FF48772D7
:1043980000210620FDF7FCFB04B010BD0023E0E778
:1043A800B08B032000000000DD0C0000290600404F
:1043B800DC8C0320BC810320BB810320014B1878CF
:1043C800704700BFDC8C0320014B01221A70704734
:1043D800DC8C032037B5194B1B7804462BB14FF4FE
:1043E800947200210620FDF7D3FBB4F57A7F23D31E
:1043F80004F100436FF00045AB4238BF2C46FFF78D
:1044080093F801A8FDF7B2FF0199631C18BF0919B9
:104418000B4C08BF4919207801910122FEF782F858
:10442800FFF792F8FEF7C0FF2078FEF743F8FEF793
:104438003DFB08B1FEF780FB03B030BDA28B032023
:10444800B08B0320024B03EB800300221A607047F5
:10445800207702422DE9F843FFF766F80F4B104F1B
:104468001C78DFF84090E4B200264FF00C08F5B253
:104478001CB9BDE8F843FFF767B8E3070AD5284633
:10448800FFF7E0FF57F8253008FB05F598470123AB
:1044980005F8093064080136E9E700BF9C0B0040C5
:1044A800B48B032088130040054B00221A75054B76
:1044B8004FF080521A60044B01221A60704700BF07
:1044C800B48B032000E100E0E8640142064B1B685E
:1044D80013F0FF0F0CBF0001C000062802D90638F0
:1044E80000F026BA704700BFA004014238B5044660
:1044F8004FF6FF75013CA4B2AC4200D138BD4FF471
:104508007A70FFF7E3FFF5E7AE2200210620FDF7FA
:104518003FBB7047684620F007018D4601B5FFF79D
:104528009BF9FFF791FDFFF79DF9BDE8014085462E
:104538007047684620F007018D4601B5FFF78CF9F2
:10454800FFF7E7FFFFF78EF9BDE8014085467047A2
:10455800684620F007018D4601B5FFF77DF9FFF7A2
:10456800D8FFFFF77FF9BDE80140854670476846E8
:1045780020F007018D4601B5FFF76EF9FFF7C9FF77
:10458800FFF770F9BDE8014085467047684620F09E
:1045980007018D4601B5FFF75FF9FFF765F9FFF7EA
:1045A80061F9BDE8014085467047684620F007017B
:1045B8008D4601B5FFF750F9FFF7ABFFFFF752F94A
:1045C800BDE8014085467047684620F007018D46E2
:1045D80001B5FFF741F9FFF79CFFFFF743F9BDE885
:1045E800014085467047684620F007018D4601B5B1
:1045F800FFF732F9FFF78DFFFFF734F9BDE8014007
:1046080085467047684620F007018D4601B5FFF7DB
:1046180023F9FFF77EFFFFF725F9BDE8014085463E
:104628007047684620F007018D4601B5FFF714F979
:10463800FFF76FFFFFF716F9BDE8014085467047A1
:10464800684620F007018D4601B5FFF705F9FFF729
:1046580060FFFFF707F9BDE80140854670476846E7
:1046680020F007018D4601B5FFF7F6F8FFF702F9CC
:10467800FFF7F8F8BDE8014085467047684620F026
:1046880007018D4601B5FFF7E7F8FFF742FFFFF78F
:10469800E9F8BDE8014085467047684620F0070103
:1046A8008D4601B5FFF7D8F8FFF733FFFFF7DAF8C3
:1046B800BDE8014085467047684620F007018D46F1
:1046C80001B5FFF7C9F8FFF724FFFFF7CBF8BDE8FE
:1046D800014085467047684620F007018D4601B5C0
:1046E800FFF7BAF8FFF715FFFFF7BCF8BDE8014080
:1046F80085467047684620F007018D4601B5FFF7EB
:10470800ABF8FFF706FFFFF7ADF8BDE801408546B7
:104718007047684620F007018D4601B5FFF79CF801
:10472800FFF7F7FEFFF79EF8BDE8014085467047A2
:10473800684620F007018D4601B5FFF78DF8FFF7B1
:10474800E8FEFFF78FF8BDE80140854670476846E8
:1047580020F007018D4601B5FFF77EF8FFF7D9FE77
:10476800FFF780F8BDE8014085467047684620F0AD
:1047780007018D4601B5FFF76FF8FFF7CAFEFFF78F
:1047880071F8BDE8014085467047684620F007018A
:104798008D4601B5FFF760F8FFF7BBFEFFF762F83B
:1047A800BDE8014085467047684620F007018D4600
:1047B80001B5FFF751F8FFF7ACFEFFF753F8BDE876
:1047C800014085467047684620F007018D4601B5CF
:1047D800FFF742F8FFF79DFEFFF744F8BDE80140F8
:1047E80085467047684620F007018D4601B5FFF7FA
:1047F80033F8FFF78EFEFFF735F8BDE80140854630
:104808007047684620F007018D4601B5FFF724F888
:10481800FFF77FFEFFF726F8BDE8014085467047A1
:10482800684620F007018D4601B5FFF715F8FFF738
:1048380070FEFFF717F8BDE80140854670476846E7
:1048480020F007018D4601B5FFF706F8FFF718F8C5
:10485800FFF708F8BDE8014085467047684620F034
:1048680007018D4601B5FEF7F7FFFFF7F3FDFEF7E9
:10487800F9FFBDE8014085467047684620F007010A
:104888008D4601B5FEF7E8FFFFF743FEFEF7EAFFA6
:10489800BDE8014085467047684620F007018D460F
:1048A80001B5FEF7D9FFFFF734FEFEF7DBFFBDE8E1
:1048B800014085467047684620F007018D4601B5DE
:1048C800FEF7CAFFFFF725FEFEF7CCFFBDE8014063
:1048D80085467047684620F007018D4601B5FEF70A
:1048E800BBFFFFF716FEFEF7BDFFBDE8014085469A
:1048F8007047684620F007018D4601B5FEF7ACFF0A
:10490800FFF707FEFEF7AEFFBDE80140854670479A
:10491800684620F007018D4601B5FEF79DFFFEF7BA
:10492800D1FFFEF79FFFBDE80140854670470000B4
:1049380000BF0138FCD2704768462DE9F00F694680
:10494800FFF7E2BDDFF804C06047000011008004F3
:1049580070B50D4E0D4D761BB61006D0002455F8D7
:10496800043B01349847A642F9D1094E094D761BFC
:10497800FEF718FDB61006D0002455F8043B0134A4
:104988009847A642F9D170BDB4890320B4890320A1
:10499800B4890320B4890320F0B4860746D0541E96
:1049A800002A3CD0CAB2034601E0013C37D303F8E1
:1049B800012B9D07F9D1032C2AD9CDB245EA05254B
:1049C8000F2C45EA054534D9A4F1100222F00F0C4A
:1049D80003F120071609674403F1100242E9045560
:1049E80042E902551032BA42F8D1721C14F00C0F89
:1049F80003EB021204F00F0613D0331F23F0030356
:104A08000433134442F8045B9342FBD106F00304D9
:104A18002CB1CAB21C4403F8012B9C42FBD1F0BC58
:104A2800704734461346002CF3D1F8E71446034682
:104A3800C1E71A462646E0E780008100820022028C
:104A480023028A02BC02BD02070309030C030E03FA
:104A58000F03100711071207480C490C4C0C4D0C9A
:104A68004E0C4F0C500C510C520C530C940E950ECE
:104A78000A100B100C10681069106A106B106C107B
:104A88006D10401141114511481149114C114D113A
:104A9800821383138E138F1398139A139B13A413E3
:104AA800A613A713B013B213B313001401140814F8
:104AB800091410141114181419142014211428148A
:104AC800291430143114381439144014411448147A
:104AD80049145014511458145914601461140000E6
:104AE8000E0C0C000F0F0F0F0F0E0E000004080C19
:104AF8001014181C2024282C3034383C4044484CCE
:034B0800505458AE
:104B1400E5559A15B53B121FFFFFFFFFFFFFFFFF8F
:084B2400FFFF01FFFFFF00008D
:0400000504002D6561
:00000001FF
