:020000040400F6
:1000100000000000000000000000000014000400C8
:10002000815C3A6900000000000000000000000050
:1000300000000000000000000000000000000000C0
:1000400000000000000000000000000000000000B0
:1000500000000000000000000000000000000000A0
:100060000000000000000000000000000000000090
:100070000000000000000000000000000000000080
:1008000048930320000000000000000000000000EA
:1008100000000000000000000000000000000000D8
:1008400001F490BAFFF304BC00F05ABE00F058BEA9
:1008500000F056BEFFF3FEBBFFF3FEBBFFF3FEBB93
:10086000FFF3FEBBFFF3FEBBFFF3FEBBFFF3FEBBDC
:10087000FFF3FEBBFFF3FEBBFFF3FEBBFFF3FEBBCC
:10088000FFF3FEBBFFF3FEBBFFF3FEBBFFF3FEBBBC
:10089000FFF3FEBBFFF3FEBB00F032BEFFF3FEBB77
:1008A000FFF3FEBBFFF3FEBBFFF3FEBBFFF3FEBB9C
:1008B00000F026BEFFF3FCBB00F022BE00F020BE1D
:1008C00000F01EBE00F01CBEFFF3F8BBFFF3F8BB48
:1008D000FFF3F8BBFFF3F8BB00F012BE00F010BE50
:1008E00000F00EBE00F00CBE00F00ABE00F008BE24
:1008F00000F006BEFFF3ECBBFFF3ECBBFFF3ECBB79
:10090000FFF3ECBB00F0FCBD00F0FABDFFF3E8BB69
:1009100000F0F6BD00F0F4BD00F0F2BDFFF3E2BB65
:10092000FFF3E2BBFFF3E2BBFFF3E2BBFFF3E2BB8B
:1009300000F0E6BD00F0E4BD00F0E2BD00F0E0BD77
:1009400000F0DEBD01F432BB01F458BB01F4A0BAE3
:1009500001F49CBA01F498BA00F0D2BD00F0D0BD09
:1009600000F0CEBD00F0CCBD00F0CABD00F0C8BDA7
:1009700000F0C6BD00F0C4BDFFF3BEBBFFF3BEBBBD
:1009800000F0BEBD00F0BCBD00F0BABD00F0B8BDC7
:1009900000F0B6BD00F0B4BD00F0B2BD00F0B0BDD7
:1009A00000F0AEBDFFF3ACBB00F0AABD00F0A8BDE7
:1009B00000F0A6BD02F420BC02F4E4BB02F4FABBD2
:1009C00002F476BC00F09CBD00F09ABD00F098BD2A
:1009D00000F096BD00F094BD00F092BD00F090BD17
:1009E00000F08EBD00F08CBD00F08ABD00F088BD27
:1009F00000F086BD00F084BD00F082BD00F080BD37
:100A000000F07EBD00F07CBDFFF37CBB01F410BEA6
:100A100001F4C4BEFFF378BBFFF378BBFFF378BBF0
:100A2000FFF378BBFFF378BBFFF378BBFFF378BB32
:100A3000FFF378BBFFF378BBFFF378BB00F060BD3A
:100A400000F05EBD00F05CBD00F05ABD00F058BD86
:100A500000F056BD00F054BD00F052BD00F050BD96
:100A600000F04EBD00F04CBD00F04ABD00F048BDA6
:100A700000F046BD00F044BD00F042BD00F040BDB6
:100A800000F03EBD00F03CBD00F03ABD00F038BDC6
:100A900000F036BD00F034BD00F032BD00F030BDD6
:100AA00000F02EBD00F02CBD00F02ABD00F028BDE6
:100AB00000F026BD00F024BD00F022BD00F020BDF6
:100AC00000F01EBD00F01CBD00F01ABDFFF330BBEE
:100AD00000F016BD00F014BD00F012BD00F010BD16
:100AE000FFF328BBFFF328BBFFF328BBFFF328BBB2
:100AF000FFF328BBFFF328BBFFF328BBFFF328BBA2
:100B0000FFF328BBFFF328BBFFF328BBFFF328BB91
:100B1000FFF328BB00F0F4BC00F0F2BCFFF324BBF1
:100B2000FFF324BBFFF324BBFFF324BB00F0E8BCBE
:100B3000FFF324BBFFF324BBFFF324BBFFF324BB71
:100B4000FFF324BBFFF324BBFFF324BBFFF324BB61
:100B5000FFF324BBFFF324BBFFF324BBFFF324BB51
:100B6000FFF324BBFFF324BBFFF324BBFFF324BB41
:100B7000FFF324BBFFF324BBFFF324BB00F0C0BC96
:100B800000F0BEBCFFF320BBFFF320BBFFF320BB94
:100B9000FFF320BBFFF320BBFFF320BB00F0B0BC92
:100BA00000F0AEBC00F0ACBC00F0AABCFFF318BB78
:100BB000FFF318BBFFF318BBFFF318BBFFF318BB21
:100BC000FFF318BB00F09CBC00F09ABC00F098BC8E
:100BD000FFF312BBFFF312BBFFF312BBFFF312BB19
:100BE000FFF312BBFFF312BBFFF312BBFFF312BB09
:100BF000FFF312BBFFF312BBFFF312BBFFF312BBF9
:100C0000FFF312BBFFF312BBFFF312BBFFF312BBE8
:100C1000FFF312BBFFF312BBFFF312BBFFF312BBD8
:100C2000FFF312BBFFF312BBFFF312BBFFF312BBC8
:100C3000FFF312BBFFF312BBFFF312BBFFF312BBB8
:100C4000FFF312BB00F05CBCFFF312BBFFF312BB5F
:100C5000FFF312BB00F054BC00F052BC00F050BCDB
:100C600000F04EBC00F04CBC00F04ABC00F048BCA8
:100C700000F046BC00F044BC00F042BC00F040BCB8
:100C800000F03EBC00F03CBC00F03ABC00F038BCC8
:100C900000F036BC00F034BC00F032BC00F030BCD8
:100CA00000F02EBC00F02CBC00F02ABC00F028BCE8
:100CB00000F026BC00F024BC00F022BC00F020BCF8
:100CC00000F01EBC00F01CBC00F01ABC00F018BC08
:100CD00000F016BC00F014BC00F012BC00F010BC18
:100CE00000F00EBC00F00CBC00F00ABC00F008BC28
:100CF00000F006BC00F004BC00F002BC00F000BC38
:100D000000F0FEBB00F0FCBB00F0FABB00F0F8BB4B
:100D100000F0F6BB00F0F4BB00F0F2BB00F0F0BB5B
:100D200000F0EEBB00F0ECBB01F450BDFFF3A6BA3F
:100D3000FFF3A6BAFFF3A6BA00F0E2BB00F0E0BBF7
:100D400000F0DEBB00F0DCBBFFF39EBA00F0D8BBC6
:100D5000FFF39CBA00F0D4BB00F0D2BBFFF398BA0B
:100D600000F0CEBBFFF396BAFFF396BA00F0C8BB13
:100D7000FFF394BA00F0C4BBFFF392BA00F0C0BB1B
:100D8000FFF390BA00F0BCBBFFF38EBAFFF38EBA4C
:100D900000F0B6BBFFF38CBAFFF38CBAFFF38CBA4A
:100DA000FFF38CBAFFF38CBAFFF38CBAFFF38CBA63
:100DB000FFF38CBAFFF38CBAFFF38CBAFFF38CBA53
:100DC000FFF38CBAFFF38CBAFFF38CBAFFF38CBA43
:100DD000FFF38CBAFFF38CBAFFF38CBAFFF38CBA33
:100DE000FFF38CBAFFF38CBAFFF38CBAFFF38CBA23
:100DF000FFF38CBAFFF38CBAFFF38CBAFFF38CBA13
:100E0000FFF38CBAFFF38CBAFFF38CBAFFF38CBA02
:100E1000FFF38CBAFFF38CBAFFF38CBAFFF38CBAF2
:100E2000FFF38CBAFFF38CBAFFF38CBAFFF38CBAE2
:100E3000FFF38CBAFFF38CBAFFF38CBAFFF38CBAD2
:100E4000FFF38CBAFFF38CBAFFF38CBAFFF38CBAC2
:100E5000FFF38CBAFFF38CBAFFF38CBA00F050BBEF
:100E600000F04EBB00F04CBBFFF386BAFFF386BA2E
:100E7000FFF386BAFFF386BA00F042BB00F040BB36
:100E8000FFF382BAFFF382BAFFF382BAFFF382BAAA
:100E9000FFF382BAFFF382BAFFF382BAFFF382BA9A
:100EA000FFF382BAFFF382BAFFF382BAFFF382BA8A
:100EB000FFF382BAFFF382BAFFF382BAFFF382BA7A
:100EC000FFF382BAFFF382BAFFF382BAFFF382BA6A
:100ED000FFF382BAFFF382BAFFF382BAFFF382BA5A
:100EE000FFF382BAFFF382BAFFF382BAFFF382BA4A
:100EF000FFF382BAFFF382BAFFF382BAFFF382BA3A
:100F0000FFF382BAFFF382BAFFF382BAFFF382BA29
:100F1000FFF382BAFFF382BAFFF382BAFFF382BA19
:100F2000FFF382BAFFF382BAFFF382BAFFF382BA09
:100F3000FFF382BAFFF382BAFFF382BAFFF382BAF9
:100F4000FFF382BAFFF382BAFFF382BAFFF382BAE9
:100F5000FFF382BAFFF382BAFFF382BAFFF382BAD9
:100F6000FFF382BAFFF382BAFFF382BAFFF382BAC9
:100F7000FFF382BAFFF382BAFFF382BAFFF382BAB9
:100F8000FFF382BAFFF382BAFFF382BAFFF382BAA9
:100F9000FFF382BAFFF382BAFFF382BAFFF382BA99
:100FA000FFF382BAFFF382BAFFF382BAFFF382BA89
:100FB000FFF382BAFFF382BAFFF382BAFFF382BA79
:100FC000FFF382BAFFF382BAFFF382BAFFF382BA69
:100FD000FFF382BAFFF382BAFFF382BAFFF382BA59
:100FE000FFF382BAFFF382BA00F08ABA00F088BA3F
:100FF00000F086BA00F084BA00F082BA00F080BA3D
:1010000000F07EBA00F07CBA00F07ABA00F078BA4C
:1010100000F076BA00F074BA00F072BA00F070BA5C
:1010200000F06EBA00F06CBA00F06ABA00F068BA6C
:1010300000F066BA00F064BA00F062BA00F060BA7C
:1010400000F05EBA00F05CBA00F05ABA00F058BA8C
:1010500000F056BA00F054BA00F052BA00F050BA9C
:1010600000F04EBAFFF344BAFFF344BAFFF344BAB8
:10107000FFF344BAFFF344BAFFF344BAFFF344BAB0
:10108000FFF344BAFFF344BAFFF344BAFFF344BAA0
:10109000FFF344BAFFF344BAFFF344BAFFF344BA90
:1010A000FFF344BAFFF344BAFFF344BAFFF344BA80
:1010B000FFF344BAFFF344BAFFF344BA01F41CBC93
:1010C000FFF342BA00F01CBAFFF342BAFFF342BA90
:1010D000FFF342BAFFF342BAFFF342BA00F010BA8C
:1010E000FFF342BAFFF342BAFFF342BA01F4DCBBAA
:1010F00001F403BC01F402BC01F41FBC01F428BCE0
:1011000001F442BC01F462BC01F47EBC01F4A0BC59
:1011100001F4DCBC01F4DBBC01F4C0BC03F422BB71
:1011200003F410BB03F47EBC03F48DBC03F493BC46
:1011300003F4A1BC04F40ABB04F402BB03F4E4BA54
:1011400003F4DABC00F0DCB9FFF318BAFFF318BA05
:10115000FFF31CBAFFF31CBAFFF31EBAFFF31EBA6B
:10116000FFF31EBAFFF31EBAFFF31EBAFFF31EBA57
:10117000FFF31EBAFFF31EBAFFF31EBAFFF31EBA47
:10118000FFF31EBAFFF31EBAFFF31EBAFFF31EBA37
:10119000FFF31EBAFFF31EBAFFF31EBAFFF31EBA27
:1011A000FFF31EBAFFF31EBAFFF31EBAFFF31EBA17
:1011B000FFF31EBAFFF31EBAFFF31EBAFFF31EBA07
:1011C000FFF31EBAFFF31EBAFFF31EBAFFF31EBAF7
:1011D000FFF31EBAFFF31EBAFFF31EBAFFF31EBAE7
:1011E000FFF31EBAFFF31EBA00F08AB9FFF31CBA70
:1011F000FFF31CBAFFF31CBAFFF31CBAFFF31CBACF
:10120000FFF31CBAFFF31CBAFFF31CBAFFF31CBABE
:10121000FFF31CBAFFF31CBAFFF31CBAFFF31CBAAE
:10122000FFF31CBAFFF31CBAFFF31CBAFFF31CBA9E
:10123000FFF31CBAFFF31CBAFFF31CBAFFF31CBA8E
:10124000FFF31CBAFFF31CBAFFF31CBAFFF31CBA7E
:10125000FFF31CBAFFF31CBAFFF31CBAFFF31CBA6E
:10126000FFF31CBAFFF31CBAFFF31CBAFFF31CBA5E
:10127000FFF31CBAFFF31CBAFFF31CBAFFF31CBA4E
:10128000FFF31CBAFFF31CBAFFF31CBAFFF31CBA3E
:10129000FFF31CBAFFF31CBAFFF31CBAFFF31CBA2E
:1012A000FFF31CBAFFF31CBAFFF31CBAFFF31CBA1E
:1012B000FFF31CBAFFF31CBAFFF31CBAFFF31CBA0E
:1012C000FFF31CBAFFF31CBAFFF31CBAFFF31CBAFE
:1012D000FFF31CBAFFF31CBAFFF31CBAFFF31CBAEE
:1012E000FFF31CBAFFF31CBAFFF31CBAFFF31CBADE
:1012F000FFF31CBAFFF31CBA00F002B9FFF31ABAED
:10130000FFF31ABAFFF31ABAFFF31ABAFFF31ABAC5
:10131000FFF31ABAFFF31ABAFFF31ABAFFF31ABAB5
:10132000FFF31ABAFFF31ABAFFF31ABAFFF31ABAA5
:10133000FFF31ABAFFF31ABAFFF31ABAFFF31ABA95
:10134000FFF31ABAFFF31ABAFFF31ABAFFF31ABA85
:10135000FFF31ABAFFF31ABAFFF31ABAFFF31ABA75
:0813600000F0CEB800F0CCB89B
:1014000000800520FD3E00042544000469680004B6
:101410006868000468680004686800040000000050
:1014200000000000000000000000000068680004E8
:101430006868000400000000FF6300041D640004ED
:10144000216000043F6000045D6000047B600004D4
:1014500099600004B7600004D5600004F3600004E4
:10146000116100042F6100044D6100046B610004F0
:1014700089610004A7610004C5610004E361000400
:10148000016200041F6200043D6200045B6200040C
:101490007962000497620004B5620004D36200041C
:1014A000F16200040F6300042D6300044B63000429
:1014B0006963000487630004A5630004C363000438
:0414C000E1630004E0
:10150000704601F473B8EC46A0E8F00FA0E8005074
:10151000EFF3148CC0F800C04FF0000070470029B2
:1015200008BF0131B0E8F00FB0E80050026892F057
:10153000020F0CBF8CF309888CF3088882F314889F
:1015400008007047844641EA000313F003036DD19D
:10155000403A41D351F8043B40F8043B51F8043B76
:1015600040F8043B51F8043B40F8043B51F8043B7D
:1015700040F8043B51F8043B40F8043B51F8043B6D
:1015800040F8043B51F8043B40F8043B51F8043B5D
:1015900040F8043B51F8043B40F8043B51F8043B4D
:1015A00040F8043B51F8043B40F8043B51F8043B3D
:1015B00040F8043B51F8043B40F8043B51F8043B2D
:1015C00040F8043B51F8043B40F8043B51F8043B1D
:1015D00040F8043B403ABDD2303211D351F8043BBD
:1015E00040F8043B51F8043B40F8043B51F8043BFD
:1015F00040F8043B51F8043B40F8043B103AEDD26C
:101600000C3205D351F8043B40F8043B043AF9D2BC
:10161000043208D0D2071CBF11F8013B00F8013B8F
:1016200001D30B8803806046704700BF082A13D39C
:101630008B078DD010F003038AD0C3F10403D21AB4
:10164000DB071CBF11F8013B00F8013B80D331F8E8
:10165000023B20F8023B7BE7043AD9D3013A11F868
:10166000013B00F8013BF9D20B7803704B784370D3
:101670008B78837060467047000000000000000017
:1016800090F800F06DE9024520F007016FF0000CC2
:1016900010F0070491F820F040F049804FF000046A
:1016A0006FF00700D1E9002391F840F000F1080045
:1016B00082FA4CF2A4FA8CF283FA4CF3A2FA8CF37D
:1016C0004BBBD1E9022382FA4CF200F10800A4FAE4
:1016D0008CF283FA4CF3A2FA8CF3E3B9D1E9042338
:1016E00082FA4CF200F10800A4FA8CF283FA4CF36F
:1016F000A2FA8CF37BB9D1E9062301F1200182FA29
:101700004CF200F10800A4FA8CF283FA4CF3A2FA2E
:101710008CF3002BC6D0002A04BF04301A4612BA3C
:10172000B2FA82F2FDE8024500EBD2007047D1E93F
:10173000002304F00305C4F100004FEAC50514F0CE
:10174000040F91F840F00CFA05F562EA05021CBF9F
:1017500063EA050362464FF00004A9E753B94AB9AA
:10176000002908BF00281CBF4FF0FF314FF0FF30A9
:1017700000F06CB9ADF1080C6DE904CE00F006F88C
:10178000DDF804E0DDE9022304B070472DE9F047FD
:10179000089E0D4604468E46002B40F082808A4209
:1017A000174646D9B2FA82F24AB1C2F1200105FACF
:1017B00002F320FA01F1974041EA030E94404FEA08
:1017C0001748230CBEFBF8FCB9B208FB1CEE43EA39
:1017D0000E430CFB01F098420AD9FB180CF1FF35BF
:1017E00080F01681984240F21381ACF1020C3B4428
:1017F0001B1AA4B2B3FBF8F008FB103344EA03440D
:1018000000FB01F1A14209D93C1900F1FF3380F03E
:101810000181A14240F2FE8002383C44641A40EA51
:101820000C4000211EB1D4400023C6E90043BDE8AE
:10183000F08702B9FFDEB2FA82F2002A4FD1CB1B49
:101840004FEA174E1FFA87F80121B3FBFEFC250C67
:101850000EFB1C3345EA034508FB0CF3AB4207D9EA
:101860007D190CF1FF3002D2AB4200F2E7808446D2
:10187000ED1AA3B2B5FBFEF00EFB105543EA05448A
:1018800008FB00F8A04507D93C1900F1FF3302D24C
:10189000A04500F2D7801846A4EB080440EA0C40AB
:1018A000C0E78B4208D9002E00F0AF800021C6E9C6
:1018B00000050846BDE8F087B3FA83F100294BD153
:1018C000AB4202D3824200F2B780841A65EB030375
:1018D00001209E46002EAAD0C6E9004EA7E7C2F11D
:1018E000200C01FA02F3974020FA0CF04FEA174E51
:1018F00021FA0CFC1843BCFBFEF1050C0EFB11CCCD
:101900001FFA87F845EA0C4501FB08F3AB4204FADD
:1019100002F409D97D1901F1FF3C80F08B80AB42C4
:1019200040F2888002393D44EB1A85B2B3FBFEF0E9
:101930000EFB103345EA034500FB08F3AB4207D921
:101940007D1900F1FF3C71D2AB426FD902383D44A2
:10195000EB1A40EA014178E7C1F1200C8B4022FAF2
:101960000CF71F4320FA0CF405FA01F34FEA174E67
:1019700025FA0CF51C43230CB5FBFEF91FFA87F87A
:101980000EFB195543EA054509FB08FAAA4502FA78
:1019900001F200FA01F308D97D1909F1FF3047D2AD
:1019A000AA4545D9A9F102093D44A5EB0A05A4B20F
:1019B000B5FBFEF00EFB105544EA054400FB08F8A9
:1019C000A04507D93C1900F1FF352DD2A0452BD9F0
:1019D00002383C4440EA0940A4EB0804A0FB028919
:1019E0004C45C6464D4619D316D05EB1B3EB0E0238
:1019F00064EB050404FA0CFCCA404CEA0202CC4039
:101A0000C6E900240021BDE8F087314630460EE7E4
:101A1000AC46EDE6184601E74345E6D2B8EB020EC8
:101A200069EB07050138E0E72846D3E760468FE712
:101A30008146BAE7614677E708464BE7ACF1020C0E
:101A40003D4415E702383C4426E700BF704700BF1D
:101A5000024B034900201860FEF35EB56467014243
:101A6000251B0004064B642828BF642018706423DB
:101A7000C0EB0020B0FBF3F0024BC0B2187070470F
:101A80009C8903204911004010B5C4B2022C20D01B
:101A9000032C36D0012C31D102211D48FEF346F52E
:101AA0001C491D4A0B782BB91078FFF7DBFF1B4B45
:101AB0001C600C7012780132D2B21046FFF7D2FFD0
:101AC000632A1BD80122BDE8104011491448FEF3D7
:101AD00025B501210E48FEF329F50F4B1A78022A8D
:101AE00038BF0222013AD2B21046FFF7BBFF012AEB
:101AF00005D10A4A00231360064A137010BD22461E
:101B0000E1E7BDE8104002480021FEF30FB500BF39
:101B1000891A0004B88903209C8903200029024205
:101B2000A0860100184B10B5987D184C03F044FDB9
:101B3000637898B199070CD51548FEF3F3F4034682
:101B4000C8B901210846134A00F072FD0320FFF7CF
:101B50009BFF637823F00203637008E09A0706D4C2
:101B600043F002030A490C486370FEF3D5F40B4BB3
:101B700001221A6010BD0648FEF3D2F40449002089
:101B8000FEF3CAF4E5E700BFDA6B0004B88903206E
:101B9000A11B0004166C0004E0930400646701427A
:101BA00038B5184B5C7814F002041D4615D101219C
:101BB000154A0846234600F03BFD2A7813492AB10E
:101BC0000C60B2FA82F35B092B7038BD104B1878A9
:101BD000FFF748FF01230B60F3E71B7853B10121A6
:101BE00008460C4A002300F023FD0220BDE83840DF
:101BF000FFF74ABF01210846074A00F019FD0120FE
:101C0000F4E700BFB88903203F6C000400290242BA
:101C10009C8903204C6C00045E6C000408B5012113
:101C2000162003F0D7FC034B0021987DBDE8084047
:101C300003F0CABCDA6B000407B50321162003F0D9
:101C4000DFFCFF2301A88DF8043001F09FFB04485E
:101C500001F028FC034B01221A6003B05DF804FB7D
:101C6000511A00046467014208B500F095F8FFF7C7
:101C7000D5FFBDE80840FFF7DFBF032810B50446D5
:101C800006D902F041FD042004F094F9201F10BD94
:101C90000020FCE7F0B51446164A8FB00D46064604
:101CA0005168106803AB03C31E271189927A19800B
:101CB0009A7000213A460DF1170004F005FE02F07B
:101CC00041FD0D4B1D600D4B3A4629460DF11600A6
:101CD0001C8004F049FE00F061FD022303AA0021EC
:101CE0003046009400F0A4FC00F058FD02F03AFDEC
:101CF0000FB0F0BDD0690004249303202893032083
:101D000007B5084611461A46074B1B684BB18DF8BC
:101D10000000ADF8022001916846984703B05DF8D5
:101D200004FBFFF7B7FFF9E7BC89032073B5012374
:101D30000B4D8DF807301C4600269DF807300BB977
:101D400002B070BD02F0E0FC2B683BB12E604FF496
:101D5000FA7004F03FF900F021FDEEE72C60F6E7A1
:101D60000028024208B513460A4601460020FFF744
:101D7000C7FFBDE80840FFF7D9BFF8B50D461646C6
:101D80001F46FFF77AFF044620B93A4631462846F7
:101D9000FFF7E8FF2046F8BD07B500F045F800F072
:101DA0003BFC002001F0F2FD19481A4903680A784B
:101DB00043F4843343F08403036042F00103164A82
:101DC0000B701168154B0B431360FEF341F1144A7D
:101DD000009000230121232000F02AFCFEF338F1BB
:101DE00028B910494FF489722320FFF7BBFFFEF397
:101DF0007FF3FEF387F30020FEF37EF300F038FD5F
:101E000001F082FD03B05DF804EB00F02FBD00BFD0
:101E1000240B0040280B004000E100E010082408DB
:101E20006E6C0004F969000408B500F093F8BDE891
:101E3000084000F071BA000010B504460C48984301
:101E400008D00C48984305D00B48984302D00B4863
:101E5000984304D1204600F07BFA00B110BD0B2C52
:101E600004D00749F2220A20FFF77CFF0020F5E7A3
:101E700001000080020000800020008000400080FF
:101E8000106A000400F042BB00F050BB00F05EBBE3
:101E900000F00CBB10B502F055FC0B49087810F0AF
:101EA000010302D083070CD401230122074C9A407E
:101EB000024388200A7000FB034402F053FC2046D2
:101EC00010BD0024F9E700BFC0890320C4890320A6
:101ED00010B5044602F036FC0F4B9C42A3F10401FE
:101EE0000BD088339C4214D002F03CFCBDE810407B
:101EF0000A49EA220A20FFF735BF0022012303FA2C
:101F000002F20B7823EA02030B70BDE8104002F0E6
:101F100029BC0122F2E700BFC4890320176A00042C
:101F200038B5054602F00EFC094BD3F814411CB13C
:101F3000D3F8182152B9012403EB8403C3F81451D8
:101F400002F010FCA01E18BF012038BD0224F7E7E4
:101F5000C0890320064B0022C3E9452283F81C21D7
:101F6000C3F8202183F82421C3F828211A70704770
:101F7000C089032010B40C4B827993F81C11914254
:101F800002D1D3F8204134B993F82411914208D1F9
:101F9000D3F828412CB10268C11D2346808810BCAB
:101FA000184710BC704700BFC0890320034BD3F80B
:101FB0001401003818BF0120704700BFC0890320FA
:101FC00010B500F0CAFA02F0BDFB0B4BD3F8144178
:101FD00034B1D3F81821C3F814210022C3F8182112
:101FE00002F0C0FB3CB12046FFF7C4FF2046BDE82D
:101FF0001040FFF76DBF10BDC0890320FFF7E0BFA1
:1020000038B50546FFF78CFF044680B92846FFF730
:102010005FFF074A234601210A2000F009FBBDE8C3
:102020003840044940F263220A20FFF79BBE38BDC6
:102030009C6C0004176A00042DE9F04F87B0431828
:10204000DFF87891DFF878A1DFF878B105931446CE
:10205000064601274FF00008059BB34203D13846DE
:1020600007B0BDE8F08FA17916F8015B022958D0BE
:10207000032923897AD019BB052B21D8DFE803F087
:10208000031E383A3C4F532DE6D10023A38001278D
:10209000B8F1000F14D12946201D00F033FD23892B
:1020A00001339BB2052B2381D6D96389A4F808801C
:1020B000002B14BF02230323A371CDE7592DE7D0D2
:1020C0002389A27903B952B16189CDE90053CDE9E1
:1020D000022108234A4601210A2000F0A9FA2068BB
:1020E00018B1FFF7F5FE002323604FF001085DE013
:1020F0004E2DE4E76581CBE761892B0203F4706321
:102100000B449BB27F2B6381C2D97F22CDE9003281
:10211000012104235A460A2000F08AFAD0E72573E9
:10212000B6E7236853B9FFF7B5FE0346206028B928
:10213000524601210A2000F07BFAC1E72189236879
:102140000B44201DDD71294600F0DCFC23896189E8
:1021500001339BB29942238103D80323A371002347
:102160002381B8F1000F3FF477AFA9E733B1012B1A
:10217000A6D1A188B5EB112FA2D102E021798D4221
:102180009ED1B8F1000F9BD101339BB2012B23816B
:102190007FF662AF63894BB120688380237B8371B4
:1021A00023690360FFF72CFFC4F800800023A371AC
:1021B000A36023734FEA48074EE700BFCC6C0004CE
:1021C000BC6C0004AF6C000408B50A4B33EA000194
:1021D00000EA030202D00849814303D1D01A18BF94
:1021E000012008BD0A200549B822FFF7BBFDFF20EA
:1021F000F7E700BF0100008002000080216A0004B0
:102200002DE9F84F99460B88DDF828808342044673
:102210000F46164644D31288DFF88CA0B8F80000A9
:10222000944250441AD94946FFF78CF93588A4EBFB
:10223000050B1FFA8BFB09EB05015A465046FFF7C9
:1022400081F9A8F800B0308804442D1B3C8825444F
:10225000ADB23D8035800020BDE8F88F224649466A
:10226000FFF770F9B8F8003023449BB2B3F5C06FA4
:10227000A8F8003005D90B4940F26D120A20FFF78B
:1022800071FDB8F80030B3F5C06F24BF0023A8F883
:1022900000303B881B1B3B803088041B3480DAE70E
:1022A0000120D9E7216A0004EC8A032008B5054B18
:1022B000834305D0FFF788FFBDE8084000F07EB9F2
:1022C00008BD00BF0020008008B5FFF77DFF054B6B
:1022D00003EB4003B3F80006B3F80236C01A18BF88
:1022E000012008BDEC8A032010B5FFF76DFF0949F6
:1022F00001EB40024FF4C064B2F8003604FB00105A
:10230000C05C01339BB2A34228BF0023A2F8003671
:1023100010BD00BFEC8A032010B50B4C02F012FA7E
:102320000023A4F80236A4F8003684F80436A4F892
:102330000636064BFF221A7500F030F902F012FA49
:10234000012384F8083610BDEC8A03202C93032067
:102350002DE9F04389B081460E4690461F46FFF7AF
:1023600091FD20B90024204609B0BDE8F08338462D
:10237000FFF72AFF04460028F4D14A4DADF81400B7
:1023800045F65313ADF818304E238DF81A3095F8F2
:1023900009368DF81B60C6F3032242EA03120133AB
:1023A00003F007038DF81C2006A9062205A885F86E
:1023B00009368DF81D9000F08BFB05A8324641468A
:1023C00000F086FB02F0BEF9B5F80006B5F802365B
:1023D00098421AD800F2FF50C01AC3F5C062ADF897
:1023E0001000ADF81220BDF8101006F1080292B2EC
:1023F000914212D2012385F80436B5F8063601332E
:10240000A5F8063602F0AEF9ADE70138C01A80B281
:10241000ADF81000ADF81200E5E795F80426002AA3
:10242000EBD10DF11609ADF81630CDF8009006ABE2
:102430000DF1120204A90620FFF7E2FE0446E8B9F6
:10244000CDF8009043460DF1120204A93046FFF783
:10245000D7FE044690B9BDF81430ADF80C30CDF875
:10246000009003AB0DF1120204A90220FFF7C8FE91
:10247000044618B9BDF81630A5F8023602F072F914
:1024800002F060F92CB1084940F28A320A20FFF7C5
:1024900069FC3846B4FA84F4FFF708FF640902F0D7
:1024A00061F960E7EC8A0320216A000437B5154D15
:1024B00095F8043623B302F045F9B5F80036B5F8BF
:1024C0000226934294BF03F2FF5403F1FF34A41A8F
:1024D000A4B202F047F9802C12D9B5F806360024D0
:1024E00085F8044663B102228DF80420ADF805306A
:1024F00001AA054B03210A20FFF79EFCA5F806461A
:1025000003B030BDEC8A03200100008008B5002034
:1025100003F09EFB044A034692F8080610B1181E09
:1025200018BF012008BD00BFEC8A032008B5FFF7E3
:10253000EDFF38B1044BB3F80006B3F80236C01A09
:1025400018BF012008BD00BFEC8A032008B500F0C9
:102550002FF8BDE80840FFF7A9BF00F02CB8000035
:10256000024A034B1361FFF767BD00BF2C930320A2
:102570000100008010B502F0E5F80748FFF7A4FE5F
:1025800038B10548FFF7B0FE04B202F0EBF8204680
:1025900010BD4FF0FF34F8E7010000800249034806
:1025A000002203F04BBB00BF752500046125000429
:1025B000002003F085BB002003F02ABC08B903F01B
:1025C0005FBB7047084B00221A7001225A7002222A
:1025D0009A700322DA7004221A7105225A710622B7
:1025E0009A710722DA7170474C0C004007B500233E
:1025F0000090074A01213C2000F01AF805494D22BD
:102600003C20FFF7AFFB002003B05DF804FB00BFE8
:10261000E16C00042F6A000408B502F093F8034B44
:1026200000221A70BDE8084002F09CB8F690032022
:1026300008B42DE9F0479DB007461646FFF722FC87
:10264000002839D04E4B1B6823B14E4945220B2040
:10265000FFF788FB4C4B3046D3F80090FFF710F89B
:10266000C4B204F1010A5FFA8AFA0AF10908B8F162
:10267000530F26DD454D286869682A7A01AB03C3EC
:102680001A700C22002431460DEB0200CDF80D40EB
:10269000CDF81140CDF8154004F066F901AA2146A5
:1026A000384623468DF81840FFF7C2FF4FF4B17249
:1026B000E91F0B20FFF756FB1DB0BDE8F04701B046
:1026C0007047022300258DF81C308DF81D70ADF881
:1026D0001E5002F037F82E4A13780133DBB2137024
:1026E0008DF820304FEA591902F03CF85246314635
:1026F0000DF12500CDF82190FEF724FF04F10A0129
:1027000026AB07AA23480093C9B290441CAA2A44C6
:1027100012F84B2C2AB9204B07AA0B20FFF78CFB91
:10272000CAE7252A11D11CAA2A4412F84A4CA4F15E
:102730003002092A0CD96C2C0DD10431532999D8B7
:1027400053F8042B48F8042BC9B20135EDB2DDE78C
:102750000135EDB2E7E704F0DF02582A07D0633C09
:10276000E4B2122CF1D820FA04F4E207EDD50231DC
:1027700053293FF67FAF53F8042B28F8022BE3E7E9
:1027800054210142486A00040C0900404F6A0004C9
:10279000F69003204300040001000080FFF776BBA1
:1027A00038B5002001F044F9074D102400F0C4FEB4
:1027B000013C14F0FF0405F8010BF7D1BDE83840E7
:1027C000012001F035B900BFF89003202DE9F74F43
:1027D000244FDFF89480019106460025B54202D3CC
:1027E00003B0BDE8F08F741B102C28BF1024FDF33C
:1027F0008BF6D8E9001200F00303E4B23B744FF00B
:10280000000C49F2690B44F2506A03EB0C0E88B2DB
:102810000EF0030E090C0BFB001190B2120C0AFB18
:10282000002257F82E0002EB01490CF1010C89EA55
:102830000000BCF1040F47F82E00E6D1C8E90012F1
:10284000019A9B0050190022D1B28C4202D8254433
:10285000EDB2C3E7991801F00F010132795C00F87D
:10286000011BF1E7F8900320A0890320FFF798BF30
:1028700007B50B4B18681B7900908DF8043001F0F8
:102880004FFF04280AD801F04BFF02AB184410F8A0
:10289000083C044A137003B05DF804FB0023F8E71A
:1028A000646A00044493032010B5064C064823468E
:1028B0000A22182100F02EF84FF48073238200239F
:1028C000A37410BD549303206893032008B572B617
:1028D000054B01221A7001F093FF01F043FFBDE8A0
:1028E0000840FFF7C1B900BFDA92032008B5FFF72F
:1028F000EDFFFDF323F6FCE7704770477047036870
:1029000023B1586043681BB1186070474860F9E70D
:102910000860704770B5013A0546002489B2A242AA
:1029200006D84A43811800248450C3E9000170BDD1
:102930006E182E6001343546F1E710B5044601F0FB
:1029400001FF0023C4E90033BDE8104001F00ABFD5
:1029500010B5044630B10A4B1B781BB1206848B94A
:10296000002010BD0749A3220420FFF7FBF9002C2B
:10297000F4D1F5E70368236003B963600830F0E73A
:10298000DA920320696A000438B505460C4611B195
:102990000C4B1B7823B90C49CD220420FFF7E2F938
:1029A00025B90949CE220420FFF7DCF9A5F108007A
:1029B00063684360002345F8083C2146BDE8384081
:1029C000FFF79DBFDA920320696A000470B50646DE
:1029D0000C46154612B10A4B1B7823B90949DE2271
:1029E0000420FFF7BFF9A6F10800083C63684360C4
:1029F000294646F8084CBDE87040FFF780BF00BF8D
:102A0000DA920320696A000438B504460D4611B114
:102A10000D4B1B7823B90D49F0220420FFF7A2F9D2
:102A200024B90A49F4220420FFF79CF954E902234F
:102A30002BB11A6054F8082C1AB1536038BD2A60C3
:102A4000F8E76B60FAE700BFDA920320696A0004D6
:102A500038B505460C4611B10E4B1B782BB90E4903
:102A600040F21D120420FFF77DF92DB90A4940F20A
:102A700021120420FFF776F96268A5F1080302B17C
:102A800013600022636045F8082C226802B92360B5
:102A900038BD00BFDA920320696A000438B5094BDB
:102AA00004461B78006800F108052BB9064940F27E
:102AB0003D120420FFF756F92368002B14BF284667
:102AC000002038BDDA920320696A0004704770471D
:102AD000F0B501394FF6FF754AF20106013A92B29C
:102AE000AA4200D1F0BD048811F8013F63400824D8
:102AF00003F001075B080FB173409BB2013CF7D1B3
:102B00000380EBE707B501228DF807100DF10701EF
:102B1000FFF7DEFF03B05DF804FB000038B50D469B
:102B2000044648B1134B402201281A7004D91249B7
:102B3000E7220720FFF716F9104B012C1C6004D97F
:102B40000D49E9220720FFF70DF90D4B012C1C6000
:102B500004D90949EA220720FFF704F9094B012D9E
:102B60001C6004D90449EC220720FFF7FBF8064B50
:102B70001D6038BD6E090040756A000420200142C6
:102B80008C270142586701422820014238B50A4B80
:102B90000A4C0B4D18608022596042F2107003F805
:102BA0001C2C23683BB140F207132A460721FFF78C
:102BB000E4F80028F5D138BD240900405021014235
:102BC000756A0004024B40221A70BFF34F8F7047A2
:102BD0000809004010B500F085FF012822D1214CE2
:102BE0002268013205D1204940F20F220720FFF769
:102BF000B9F8206800031D4B002218605A600122BA
:102C000003F82B2C1A4A1368002BFCD1194A1368BD
:102C1000002BFCD0012003F0CDF9174A1368002BDC
:102C2000FCD110BD90B90F4C6268013205D10E493C
:102C30004FF405720720FFF795F861680F4B080500
:102C40009A88090B0023FEF789FDD4E7022805D0F6
:102C5000054940F21B220720FFF784F84FF080401F
:102C6000C9E700BFA8890320756A00043409004041
:102C70005C2101424C210142502101420C91032070
:102C800010B5044630BB00F0B7FF08BB1D4B997967
:102C9000B1FA81F14909C9B20120FFF73FFFDCB960
:102CA000184B194A9C881378B4F5805F03F08F03A2
:102CB000137005D9154940F29A220720FFF752F800
:102CC000134B013CA4B21C80BDE81040FFF77ABF53
:102CD0000121E0E70121DFE7012C0AD10A4A13783C
:102CE00003F08F0343F010031370094BFF221A8087
:102CF000EAE7BDE81040054940F2AA220720FFF7A5
:102D000031B800BF0C91032001090040756A00042E
:102D10000209004038B50E4B1B6804460D462BB126
:102D20000C494FF436720720FFF71CF80A4BDC7190
:102D30004CB99D601B78012B05D0064940F2E22278
:102D40000720FFF70FF82046BDE83840FFF798BF8F
:102D500058670142756A00040C91032038B5074B8F
:102D60001D68074B01240A201C7301F021F8294635
:102D70002046BDE83840FFF7CDBF00BF0C0900403A
:102D80000C9103207FB5104D0446102200216846A7
:102D90002E7A03F099FDA4B9FF2E12D105238DF8E8
:102DA00000300A4942F210736846019300F03CFF7C
:102DB000FF28287205D1064940F2C6220720FEF7F7
:102DC000D1FF04B070BD00BFA8890320052E000408
:102DD000756A0004094B70B51D6855B9084B1E682B
:102DE00000F080FE044630B93146FFF793FF2046DD
:102DF00070BD0124FBE72C46F9E700BF586701428C
:102E00000C09004010B500F06DFE044600F0F4FE21
:102E1000A4B978B10A4B1B6843B10A4BDB792BB9D3
:102E2000094B196811B90846FFF778FEBDE8104054
:102E3000FFF7D0BF034B5B78002BF7D110BD00BF6D
:102E4000586701420C91032028200142F8B5431E27
:102E500017469BB240F6FE72934206460D4605D9D0
:102E6000174940F2C5120720FEF77CFF6B1E1F2B8F
:102E700005D913494FF4E3720720FEF773FF114C95
:102E800001230021802204F110002370A680A57088
:102E9000677003F019FDE179002384F89030A37185
:102EA00069B9094B4FF0FF325A60084B1B6833B1C8
:102EB0000846FFF733FEBDE8F840FFF78BBFF8BDCB
:102EC000756A00040C910320A88903205867014209
:102ED00008B5134B00209871A3F8920083F8940072
:102EE000986083F89000024610330130202843F8A0
:102EF000042BFAD10B4A13889BB26BB10A4B108892
:102F000019785A7880B2C9B2D2B2FFF79FFF074B47
:102F1000FF221A725A7208BD01220821F5E700BF8C
:102F20000C9103206000380462003804A889032053
:102F3000022808B50ED100F0D5FD0128014609D1BF
:102F400000230720044AFFF773FBBDE80840002078
:102F500000F09EBD08BD00BF056D0004F8B54A4BEA
:102F60001B685BB3494B01221A60BFF34F8F484A7D
:102F700015880232ADB2127845EA024500221A6085
:102F8000444CE779012F3CD1284600F01BFF054651
:102F900098B300210846FFF7C1FD012D3E4E10D029
:102FA000022D25D000233D4A39460720FFF740FB7C
:102FB000022323734FF0FF33336007E04FF0FF35F8
:102FC000DEE70323237300F093FF306000F05CFF23
:102FD0000146207BFFF7ACFF314B0020186073687F
:102FE000013350D12F4B1968BDE8F840FFF792BE6E
:102FF0000323237300F066FFE7E7BDE8F840FFF71F
:10300000E1BD002F37D16E1CF7D0A6782EB9264926
:1030100040F2A1320720FEF7A5FE94F8903004EBB1
:10302000830201331561B3FBF6F2204D06FB123328
:10303000002284F890301346D1B2B14210D3751AF1
:1030400068426841A07199B94FF0FF33124A8E422D
:103050005360D2D10021BDE8F8400846FFF75EBDBD
:1030600055F8040B571C0028E9D003443A46E3E71F
:10307000B3FBF2F3EAE7BDE8F8400B4940F29632C1
:103080000720FEF76FBEF8BD682101422C200142E7
:103090001C0900400C910320A8890320306D000416
:1030A00040C000420C090040756A00041C910320D6
:1030B000012808B50DD9022810D00A49072040F28E
:1030C000C332FEF74FFE00210846BDE80840FFF777
:1030D0005DBD40F2A4614FF49660F6E74FF496713F
:1030E0006420F2E7756A000408B500F0FBFC0228D2
:1030F0000DD0074B18680538B0F5C87F38BF4FF4BE
:10310000C870BDE8084000F5FA71FFF73FBD08BD83
:103110002409004038B505460C4601F013FB05F0C4
:103120000700ED0805F18045231E4FF0010218BF8E
:10313000012395F8381B824083401340DBB221EA1B
:103140000202134385F8383BBDE8384001F00ABB62
:10315000094B1B6810B504462BB1084940F2F63202
:103160000720FEF7FFFD01F0EDFA054B1B68236019
:10317000BDE8104001F0F6BA54210142756A00041E
:103180000C090040094A08B5B2F8923013F001006A
:1031900004D143F00103A2F8923008BD072004498E
:1031A00040F20E42FEF7DEFDFF20F6E70C91032011
:1031B000756A000438B5054628B10D4940F215423C
:1031C0000720FEF7CFFD0B4CB4F892302B41DB0704
:1031D00005D4074940F216420720FEF7C3FD01203F
:1031E000A840B4F8925025EA0005A4F8925038BDE2
:1031F000756A00040C9103202DE9F04705460C4642
:1032000029B1284940F21C420720FEF7ABFD01F02E
:1032100099FAE708012304F00706234A03FA06F6A1
:1032200007F18047F6B287F842691370BFF34F8FFA
:10323000DFF87890DFF86CA042F21070C846D9F839
:1032400000303BB140F2214352460721FEF795FD85
:103250000028F4D104F1022440342B462401103517
:1032600018685968224603C20833AB421446F7D1A6
:103270000D4B87F8406901221A70BFF34F8F094C3C
:1032800042F21070D8F800303BB140F2264322469B
:103290000721FEF772FD0028F4D1BDE8F04701F0E8
:1032A00061BA00BF756A00044E090040F82B014264
:1032B00070B5044628B1194940F22F420720FEF7A5
:1032C00051FD01F03FFA04F1022340331B019D7BC5
:1032D00005F00F05042D1CD0012204F00703E408BB
:1032E00002FA03F304F18044DBB284F842390C4B58
:1032F0001A70BFF34F8F0B4C084E42F210702368C8
:103300003BB140F2374332460721FEF736FD002835
:10331000F5D101F027FA284670BD00BF756A000498
:103320004E090040F82B01422DE9F8430F4616469E
:10333000044628B1134940F241420720FEF712FD2E
:103340004FEAD40804F007054FF0010904F1022404
:1033500008F1804809FA05F54034EDB2240101F086
:10336000F1F9052088F8425902F024FE2760A6737F
:1033700088F8405901F0F6F9034B83F80090BDE856
:10338000F88300BF756A00044E09004010B504467A
:1033900001F0D8F9044B22781A70044B0122BDE8E1
:1033A00010401A6001F0DEB94A09004028290142A4
:1033B00008B500F097FB02280DD0074B1868643061
:1033C000B0F57A6F28BF4FF47A60BDE8084000F589
:1033D000FA71FFF7DBBB08BD24090040014B187BE5
:1033E000704700BF0C910320234B1B6810B54BB1F5
:1033F000224B02221A70224B1B68002B3AD0BDE8E8
:10340000104018471F4B1B781A0702D01E4B0F2283
:10341000F0E71E4B1B682BB11D494FF4FB720720D0
:10342000FEF7A0FC1B4B1B6833B1174B40221A70F0
:10343000BDE81040FFF792BD174B1B889BB23BB90C
:10344000BDE81040124940F20E220720FEF78ABC68
:10345000DB070FD5114B1B78C3F30113023B012B84
:1034600001D8FFF7A5FF064B5B6803B198470C4BEB
:1034700001221A8010BD00BFE46E01426F090040B6
:10348000A4910320760B00406E090040E06E0142DB
:103490007F6A0004D86E0142680900400E240020B3
:1034A0006C090040024B1A6818601046704700BF54
:1034B000A491032010B5034C236803B910BDFFF796
:1034C00093FFF9E79C6001422DE9F047134BDFF8C9
:1034D0005C80134F134EDFF85890DFF858A001249A
:1034E00000251C6064205C60C8F800503D603560B9
:1034F000C9F80040CAF8004002F05CFD0A4BCAF867
:1035000000500222C9F800501C701A7004221A7070
:10351000C8F800403C603460BDE8F087049A00427F
:1035200004690142006901420F010040086901423B
:10353000009A004214830042034B01221A60034A9E
:10354000107800221A607047009A0042D4040040AC
:1035500010B5084B01241C600A2043F8084C1C617C
:1035600002F028FD044B20461C60BDE8104002F02C
:1035700021BD00BF3CA7014250A70142414A0023A0
:103580002DE9F047137002F1007202F5784204262B
:103590001360536002F51E42C03213603A4B4FF481
:1035A00044721A804FF43C7223F8022C022003F874
:1035B0000B6C5C7E02F0FEFC344B01251D70304626
:1035C00002F0F8FC324B1B889BB2B3F5407F04F04D
:1035D0001F04A3F54076B4BFAA464FF0FF3A002C73
:1035E0003ED01F2C08BF4FF0FF3ADFF8AC90294FB8
:1035F000DFF8988054441F2CA4EB0A0504DD5E22FA
:1036000049460720FEF7AEFBE3B23B70022002F012
:10361000D1FC012388F80030042002F0CBFC1C4BC5
:103620001B88BAF1010F9BB21CD1B3F5407F23DA9E
:103630001F2C1BD1C3F54073002EB8BF76429E42AB
:103640001DDA1F2D04DD144976220720FEF78AFBC0
:10365000104BEDB21D70BDE8F047022002F0AABC8D
:10366000AA46C2E7B3F5407F05DD2CB1A3F540764D
:1036700005EB4A04BFE7DDD1A3F54073DCE7BDE805
:10368000F08700BF000D00400C0D00402A0D0040E7
:10369000200D0040020D00408A6A0004F8B5214B5D
:1036A000214E224D224F00241C600A2002F082FC91
:1036B0002048346001232C60036040F8043C40F84B
:1036C000143C1D4B1D4C8020187042F21070236872
:1036D000012B06D085233A460721FEF74EFB002832
:1036E000F5D1154C80232370022002F063FC1023D7
:1036F000237020232370124A402323700123137068
:103700000022336004202A600821022223702270E4
:10371000207021700B490A70087001F82A3C0A4B8E
:103720001A70F8BD34A701420005014204050142A8
:103730008A6A0004D4A30142280D00409CA50142DE
:10374000290D00402A0D00400408004038B50C4BFC
:103750000C4C0D4D01221A6042F210702368012BAF
:1037600006D09E232A460721FEF707FB0028F5D145
:10377000FFF7EEFEFFF702FFBDE83840FFF78EBF10
:103780003CC00042A0C400428A6A000438B5124B13
:10379000124C134D01221A6042F210702368012B63
:1037A00006D0A7232A460721FEF7E7FA0028F5D11D
:1037B0000C4A0023137002F1007202F57842136084
:1037C000536002F51E42C0321360C2F89033C2F853
:1037D0008C33C2F87C3338BD38C00042A4C40042E8
:1037E0008A6A0004000D004038B50B4B0B4C0C4DA1
:1037F00001221A6042F210702368012B06D0B42314
:103800002A460721FEF7B9FA0028F5D1FFF7A0FEF6
:10381000BDE83840FFF742BF3CC00042A0C40042B0
:103820008A6A0004014B01221A6070479CC600425C
:1038300070470000134B144919221A7026225A703F
:103840005A7906331B789B1A104ADBB2137003F1C6
:103850000C02D2B20A7015330D4ADBB213700D4A56
:103860000023136002F5E132DC3213600A4A137858
:1038700003F01F0343F0E0031370084B01221A60AA
:10388000704700BF3D020040400200403F02004040
:1038900041020040844A00422C06004030C70042EA
:1038A000154B03221A70154A0123022113709173DC
:1038B00004211177124A136053609360D3600C3275
:1038C000536193619363D36353659365D3651366C3
:1038D00053679367C2F88030C2F88430C2F88830EA
:1038E000C2F88C30C2F89030064A4FF6FF7313804E
:1038F00022F84C3C704700BFBB26002080260020E9
:10390000E0D80422CE26002008B5FFF727FA00F001
:1039100037F9BDE80840012000F08AB8174B1B8832
:1039200010B59CB21B0505D515494FF4AC720720A4
:10393000FEF718FAC4F384130F2B05D010494FF487
:10394000B0720720FEF70EFAE30B05D00C494FF4D6
:10395000B1720720FEF706FA04F03F04013C032C85
:103960008CBFFF240024074BFF2C1C7005D1064A96
:10397000127802F0FF0102B1197010BD000800407A
:10398000956A0004AC9103200B01380413B5FFF7CE
:10399000C5FF0B4B01241C60FFF782FFFFF794FD6E
:1039A000FFF748FF00F03CF8FF238DF80430054B8B
:1039B00001A81C60FFF7EAFC00F09CF802B010BD03
:1039C00040C0004264670142114B012210B51A60E9
:1039D000A3F5FF53002204461A60FFF769FB032C8E
:1039E00004D90C4997220720FEF7BCF90A490B7845
:1039F00003F0FC0204F0030313430B70023C074B7B
:103A000018BF01241C60A3F2945301221A6010BD58
:103A10003C200142A26A000400060040E005014289
:103A2000024B012202201A70FFF7CEBFB289032099
:103A300038B5144C054600F085FE237895B1012B6E
:103A400005D9013B2370BDE8384000F08BBE23B997
:103A50000D49BC220720FEF785F90C4B01221A7094
:103A60000023EFE70133DBB2012B237004BF074BC8
:103A70001D702378002BE6D10349DA220720FEF7D8
:103A800071F9E0E7B2890320A26A00042E08004021
:103A9000012810B5044610D1FFF7A0FC02280CD174
:103AA0000D4A002321460720FEF7C2FD07200B49DF
:103AB000EC22FEF757F9C22010BD094B1B7803F02A
:103AC00003039C4205D02046FFF77EFF2046FFF708
:103AD00059F90020F0E700BF5B6D0004A26A000402
:103AE00000060040024B187800F00300704700BF4A
:103AF0000006004002480E22002102F0E5BE00BF91
:103B00005894032007B5B0F908301A49002BB4BF08
:103B1000803B80330A7843F307233B2B42F3421266
:103B20001CDD032A11D00B7803F01F0343F0600360
:103B30000B700B7843F34213CDE9002301210E4AA9
:103B400000230720FEF774FD0AE03C2B08D1094949
:103B50000B7803F01F0343F0E003E9E7531CF6D1B1
:103B6000044B064A1B7843F34213137003B05DF80D
:103B700004FB00BF2C060040756D0004B3890320D0
:103B80001FB50E4B7F221A7000211022684602F0EA
:103B90009BFE02238DF8003009494FF4A06368466C
:103BA000ADF8023000F040F8FF2804D10549562254
:103BB0000720FEF7D7F805B05DF804FBB3890320B2
:103BC000053B0004AF6A000408B5054B1B6823B130
:103BD000044945220720FEF7C5F8034B186808BDC5
:103BE00054210142C56A00040C090040014B587081
:103BF000704700BFB0910320014B5878704700BF59
:103C0000B091032038B5064C0025A570257065706D
:103C100001F08EFA034800F04BFDE570656038BD99
:103C2000B091032000E204002DE9F84389460546DF
:103C300028B921494FF492720720FEF793F8B9F1A1
:103C4000000F05D11C4940F225120720FEF78AF823
:103C50002B78DB0708D56B68002B05DA16494FF483
:103C600093720720FEF77EF8144CA378052B21D819
:103C7000FFF7AAFFA378804633B901F08BFC08F563
:103C80001C5310332081E36095E80F00A7781C26B1
:103C900006FB074606F1100C8CE80F0068682389C4
:103CA000338540447B1CC6F820907062A370384670
:103CB000BDE8F883FF27FAE7C56A0004B091032046
:103CC000F8B5394CA3788BB3FFF77EFFE368C31ACE
:103CD000002B01DA63787BB100F51C501030E060F6
:103CE000FFF772FF314D07460026A3789E421ED390
:103CF00063780BB100236370FFF766FFD4F8B83028
:103D0000C31A002B12DB00F5742000F51070C4F804
:103D1000B80001F03FFC10F5004F07D0E37865686C
:103D2000032B1ED801330544E3706560F8BD23788A
:103D30003341D80701D5637853B92A78D10703D521
:103D40006B69FB1A002B03DA520707D563782BB196
:103D50006B683B446B6128462B69984701361C35DC
:103D6000C3E7002DB8BF0335002345F38F050027B7
:103D70000E4EE37025816760A3789F42D6D23378D8
:103D80009B070ED5B6F918307288EB1A002BB8BF16
:103D90005B429BB29A4204D8336935833581304601
:103DA000984701371C36E7E7B0910320C091032004
:103DB000034B0022DA62C3E9092283F82C00704722
:103DC0006C92032038B52E4A948C034692F8260054
:103DD0000134A4B201289484114626D0022835D09B
:103DE000002844D15D1C08D1C82C3ED1012381F8A4
:103DF000263000238B848B6238E0926A551EAB42DA
:103E000010D3013293420DD891F82D30013381F84F
:103E10002D3091F82D3091F82C2001339A42E3DCBB
:103E2000012023E08B620023F1E7591C25D0906A22
:103E3000B4F5807F0344936217D11B0A002093627C
:103E4000022382F82630D06290840FE0926A934277
:103E500034BFD31A9B1ACA6A5B43D31828BF4FF0EA
:103E6000FF33B4F5807FCB6200D0002038BD054918
:103E70004FF4B2720720FDF775FF0320F6E700BF8D
:103E80006C920320D86A00040C4B93F826001A4663
:103E900030B993F82C1093F82D30013399420CDD92
:103EA000536A074923F07F438B4204D1D06A431CF5
:103EB00003D0000A70474FF0FF3070476C92032028
:103EC00000010200084B09495A6A22F07F428A42E7
:103ED00002D1986A000A704793F82620022A0CBF84
:103EE000986A4FF0FF3070476C9203200001010088
:103EF000014B986A704700BF6C920320684620F01F
:103F000007018D462DE9F143FFF78CFC72B66D4B2E
:103F10001C6814F0FF0401BF6B4B1C68B4FA84F4F6
:103F200064090120FFF762FE002C40F00981674B15
:103F300083F30888644A664B15681460B3EB153F39
:103F400044D0644BDFF8C091DFF8F081552119703F
:103F50006149624B802008701460614A022111702F
:103F60005988A2F81A116FF4597002441979117026
:103F70001F1D07261C4617F8013F3F2B05D940F2AD
:103F8000872249460620FDF7EDFE3B7888F8003091
:103F9000013EF0D1534A05230133212B34F813108D
:103FA0001180F9D1504A1368012BFCD04F4A504977
:103FB0000123136093604F4A32F8023B002B7AD101
:103FC0004D4A01211160A2F5007213604B4A4C4F1B
:103FD000002313603B604B4B1B6823B102F25C4231
:103FE0001368002BFCD0A90710D53C4C227822780E
:103FF0001F2A05D944494FF4A3720620FDF7B2FEEB
:104000002378424ADBB21370FFF7EEFB6A0748BF22
:104010003F4B374E3F4C44BF00221A602B0742BF34
:104020003D4B01221A603D4A01231360536002F5A3
:104030008942583213603A4B726D1A60B26D5A6001
:1040400006F15C050FCD0FC40FCD0FC432462B68AF
:10405000236052F8800F334B5168334C2A4D03C311
:1040600090681860A3F55163D6F88C205A60D6F892
:1040700090201A604FF47A7023683BB140F25F13CE
:104080002A460621FDF779FE0028F5D1FFF72CF826
:10409000264A01233B601370254B00221A7062B63A
:1040A00024492548C022FDF74DFA00F0B7FABDE8D3
:1040B000F1438546704703F1804311F8010B1870F6
:1040C0007AE700BF8006014200800320207F0520A0
:1040D000BCAB0A0024110040910E0040BC810320BB
:1040E0002608004080050040C0910042E4040142DF
:1040F00038820320066B00041003014244C00042D2
:10410000180301423CC00042F46A0004020D004062
:10411000A004014200E400E0A404014208C00042FF
:1041200000E100E018ED00E054210142000B0040E6
:10413000DA920320CC820320407F05208F040040C8
:10414000984B9A688AB19A689B68002B05DA964961
:1041500040F289120620FDF705FE924B934A9B68B8
:10416000C3F30F211B0E11809370914A914992481D
:10417000924CFDF7E7F9924A9248002102F0A4FB25
:1041800002F07EFBB4F5004F05D3874940F293124D
:104190000620FDF7E7FD8C4BC4F38F041C808B4C8D
:1041A000B4F5004F05D380494FF4CA720620FDF7DD
:1041B000D9FD874BC4F38F041C80864CB4F5004FA7
:1041C00005D3794940F295120620FDF7CBFD824BCD
:1041D000C4F38F041C80814B0C221A807F221A7139
:1041E000012283F859204FF4E852A3F85A2002F133
:1041F000005202F6BE124FF4F051518001F100510D
:10420000002301F6C7011370137103200F220A70F7
:104210004870CA700620724A8870FB2111703F21D5
:104220005170704940F6B830A1F840004FF4AF70BB
:10423000A1F8420041F2F800A1F84400962081F86C
:1042400046006948C1F84A00022081F84E0040F259
:104250000120A1F85A006548C1F85E00AA2081F843
:104260006A004FF6FF7245F255500A80A1F86E00C1
:10427000552081F870001E2081F8710042F238103C
:10428000A1F8760000F1A850A0F56D00A0F6277007
:10429000C1F8820000F10430C1F8860000F104305A
:1042A00000F18070C1F88A0000F1806000F1051013
:1042B00000F5A06081F87830C1F88E0000F104307C
:1042C000C1F8920000F10430C1F8960000F104300A
:1042D000C1F89A0000F10430C1F89E0000F10430EA
:1042E000C1F8A20000F1F37000F5EE3000F5827025
:1042F000C1F8A60081F8C62010203D4A81F8C4000C
:104300007031FF2111704FF4F851A2F84A104FF4A8
:104310000251A2F84E10082182F84C3082F8501059
:1043200082F8543042F2B801324BA2F852103322D4
:104330001A7031482422402102F0C6FA2F4B202265
:1043400083F81B232E4B1B681BB12E4A1368002BCE
:10435000FCD02D4B01241C60FFF7F8F92B4B1C609F
:104360002B4B1C702B4B1C60A3F5007300221A60B2
:10437000FEF728F9284A1368002BFCD1274A13704E
:1043800062B6274C084D4FF47A7023683BB14FF466
:10439000EA732A460621FDF7F0FC0028F5D1FEF766
:1043A000A5FAFEE700ED00E0F46A0004400C0040CE
:1043B0001C000000F07000049C8903208C030000A6
:1043C000C00A0000B8890320440E00408C0500009C
:1043D000420E00409C050000000E004062260020B6
:1043E000CB260020CE26002020FFD0FFD6BE898E0F
:1043F000962700202E07004000E400E000E100E0E6
:104400003CC00042A0C40042EC040142A4040142AA
:10441000000B004010030142C8060142DA9203205B
:1044200054210142684620F007018D462DE9F143F1
:10443000504ADFF8A081DFF8A091D8F80030116869
:104440004D4C00294D494FEA83030968DBB20CBF8C
:10445000022700270B433B43DFB2494B00251D7069
:10446000A3F2CB23012616601E70FEF7B3FB0423D4
:1044700089F80030434B1B78DBB22370C8F800503A
:10448000FFF784F9404B1D605D6003F589435833A5
:104490001D603E4B1B7803F00303022B31D13C4ED1
:1044A0003C493D4DC02206F19400FDF74BF83B4BD3
:1044B0001A6872655B68B3650FCD06F15C040FC4C2
:1044C0000FCD0FC42B682360354B03CBC6F8841087
:1044D000C6F880001868C6F88800A3F551635A68CA
:1044E000C6F88C201B68C6F890302E4B08221A7034
:1044F000FFF79EF9384600F0B5F8BDE8F143854670
:104500007047294B1D60294B89F8006040221A70C2
:10451000A3F25353A01C1B886380254B254A1B78AC
:104520008370254B043412F8021B01F03F019A42BC
:1045300004F8011FF7D1214B214A224932F8024BDE
:1045400023F8024F8A42F9D11F4B1B1A412B05D881
:104550001E4940F2BA220620FDF704FC1C4A0C4911
:1045600032F8023B002B9AD003F180431B7801F80C
:10457000013BF5E7A0040142BC810320C0A3014236
:10458000000B0040250D004008C00042000600401E
:1045900038820320407F052000E400E000E100E0D5
:1045A00018ED00E035080040E4040142910E00409F
:1045B000C1040040800400408E040040C6810320F6
:1045C0008E050040C605004038820320F46A0004CE
:1045D000066B0004A404014226080040704770479F
:1045E0000B4A0C48136943F0040310B51361FCF740
:1045F0008AFF094C40B972B6BFF36F8F01F09AF889
:1046000010B1237803B930BF62B60023237010BD08
:1046100000ED00E0A0920320DB920320014801217D
:10462000FCF77DBFA09203200B4B1B780E28DBB25A
:1046300085BF03F00302094840B280560E2981BFAE
:10464000064AC3F382039B181979054B090149B245
:10465000084383F83800704729060040AE6B000419
:10466000A09203200E4B0F491B7809780E4A01F0E7
:104670000301022912680D494FEA401003F00703B5
:1046800091F8381002F0080242EA0302C3B20CBFEC
:104690001020002042EA01221843104302F0EAB839
:1046A000020800400006004000800320A092032082
:1046B00038B5114D2B7804462BB1104940F2AD129C
:1046C0000620FDF74FFB0E4B0E490022013CE02077
:1046D0001A605C6081F823009A601A6842F0040254
:1046E0001A601A6842F002021A601A6842F0010267
:1046F0001A6001232B7038BDD9920320BA6B0004D5
:1047000010E000E000ED00E0034B1B6813B9034B21
:10471000AA221A70704700BFE02402422411004010
:10472000064B1A78D3B212075FBF03F00F02044B97
:104730009B18587948BF0020704700BF24060040EE
:10474000BA6B000472B6064B5A7812B9202282F373
:1047500011885A780132D2B25A7062B6704700BFDF
:10476000D992032072B6084A5378012B83BF53783D
:1047700003F1FF33DBB200238ABF53705370202351
:1047800083F3118862B67047D992032070B504464E
:10479000FFF7D8FF102001F00DFC1249124A134D0B
:1047A000134E55230B70134B1C80137803F0F10349
:1047B00043F004031370104A01231360536042F85E
:1047C000A03CFFF7CFFF0D480C462B683BB140F2F1
:1047D000D51332460621FDF7D0FA0028F5D1AA23D9
:1047E000237070BD2411004020110040E0240242DB
:1047F000BA6B000422110040A024024240420F0084
:104800006E4A6F4838B501210023117003600420FF
:1048100010706C4A6C4C11606C4A6D4DFF2010702A
:104820006C4A1160227802F0C10242F00E0222703E
:10483000694A1160694A1360694A1070627C02F02B
:10484000C10242F006026274664A116002F5A232A9
:104850001360654A1070A27C02F0C10242F00802A7
:10486000A274624A116002F5A2326032136094F8B9
:10487000812C02F0F00242F0070284F8812C5C4A9D
:104880001080138411715B4A5B481160027802F05A
:10489000F80242F002020270A0F63F20027802F015
:1048A000FC0242F003020270544A107800F0FC004F
:1048B00040F00200107052480360107800F0CF0002
:1048C00040F0200010704F480360107800F03F0067
:1048D00040F0800010704C4803604C48047804F0AD
:1048E000FC0444F002040470494C2360047804F092
:1048F000F30444F008040470464C23602C7804F060
:10490000CF0444F020042C70434C2360434B1C78AC
:1049100004F0FC041C701C7804F0F3041C70137881
:1049200003F0CF031370137803F03F031370A2F268
:104930007D62137803F0F80343F002031370D37819
:1049400003F0C70343F01003D37092F8833203F0EF
:10495000C70343F0380382F8833292F8833203F0BE
:10496000F80343F0070382F883322D4B1970037864
:1049700003F0CF0343F010030370037803F03F0309
:1049800043F04003037092F8803603F0F30343F0E2
:10499000040382F88036FEF7C1FFFFF733F9FEF714
:1049A00097FA00F055FE00F0CDFF4FF6FF70FFF7CD
:1049B000EDFEBDE8384001F0EBBA00BF350800401D
:1049C0008468014288680142170700404111004095
:1049D0000D07004044280242E0E200420028024263
:1049E0004911004000E500424D11004020E5004221
:1049F0009A130040287702424F11004008070040F8
:104A000020000242280002422C0002420907004016
:104A10003000024234000242780002420A0700409D
:104A200007030040024B5878B0FA80F04009704705
:104A3000D992032010B50023934200D110BDCC5C65
:104A4000C4540133F8E703460244934200D170474F
:104A500003F8011BF9E7FFF7EDBF30B5013900247A
:104A6000A24201D1002005E0035D01340D5DAB429F
:104A7000F6D0581B30BDFFF7F0BF0000014B0122FC
:104A80009A707047D992032070470000014B0022B2
:104A90001A6070479C640142014B00221A707047F3
:104AA000280B004008B50B4B1B682BB10A4940F29C
:104AB000C1320620FDF756F9084B1B6813B1084BAD
:104AC00000221A60074B1B6813B1074B00221A60C3
:104AD00008BD00BF08700142BA6B000404700142B7
:104AE000846801420070014280680142014B01224A
:104AF000DA707047D992032038B5FFF723FE154BC3
:104B0000154D1B68A3B1FFF72DFE0124D0B1FEF7B0
:104B1000D1FCFFF717FE114B1C6043F8104C104BF3
:104B20001C70104B1C600023AB70FFF71BFE09E0EC
:104B30000D4B1B68002BE6D10C4B1C68FFF712FED7
:104B4000002CE2D1EB781BB1FFF7BAF80023EB7031
:104B5000204638BD9C600142D9920320AC640142DA
:104B6000280B00408864014288600142C060014215
:104B700011F0FA0FF0B501D00B2931D1234BDFF83A
:104B8000A0E01F78002307F0030707261C461D46F8
:104B90003EF823201FFA82FC02F00F02914209D155
:104BA0001CF4005F18BF01241CF4805FCCF3422684
:104BB00018BF012501339F42EAD2F5B98CB1144BDD
:104BC0001A882C4612B2134B1B889BB201210BB9D9
:104BD00049F69A130670417084708280C380F0BDDC
:104BE00007260D4B1A88002412B20C4B1B889BB26F
:104BF0004BB9194649F6C013ECE70CB10022E2E7C5
:104C00002C460022F1E70021E4E700BF41100040FC
:104C10004E0038044C0038044A0038044800380478
:104C200044100040104B114A1B8812881BB2B0F58B
:104C3000FE4FD4BFC3EB0000C3F5FE4000F5883043
:104C400049F69A1192B200F59370002A08BF0A46FD
:104C500040F23B230002B0FBF3F00002B0FBF2F0A5
:104C600000F5007080B27047440038044C003804EE
:104C700013B5044606291BD8DFE801F0040B131A0C
:104C8000061A16001AB18408204602B010BD84002E
:104C9000FAE71AB10323B0FBF3F4F5E700EB4004A5
:104CA000F2E71AB16408EFE7002AFBD06400EBE7F3
:104CB0000091064A002301210620FDF7B9FC0449B2
:104CC000AD220620FDF74EF8DEE700BFA46D00041C
:104CD000C76B000473B505466846FFF749FF01221C
:104CE0009DF80010BDF90440BDF80660A802FFF76A
:104CF000BFFF9DF801204AB1B0FBF6F004F2FD14AD
:104D0000204480B2013080B202B070BD4000B0FBE0
:104D1000F6F304FA83F1002901DBE018F1E710460D
:104D2000F0E700002DE9F74F0193964BBDF8309066
:104D30001B78BDF834809DF838B0009104461746C2
:104D40002BB9914940F2CD120620FDF70BF88F4B9D
:104D50001B8864B1012C0AD0022C00F09680032C31
:104D600000F095800B2C02D00C2C18BFFF24009B68
:104D700033B12FB1844940F2D3120620FCF7F2FF81
:104D8000834D844A2E786B78FF3E18BF0126FF2B97
:104D9000AB7818BF0136FF2B137818BF013603F02C
:104DA000F80318BFF6B2137016B97B4B01221A60D4
:104DB0000F2C05D9744940F2E7120620FCF7D2FF08
:104DC000DFF82CA2002F64D0744A40F2FF33AAF817
:104DD000003013800C2C61D1714B01221A604BF60C
:104DE0000C6B2B78FF2B40F085806E4B6E4A0BEAE4
:104DF000030343F0100301211170019A0AB143F437
:104E00008073022E99B2694AC3F3074300F09A8077
:104E1000032E00F0A180012E00F08A8064480180FA
:104E200064490B70137803F0FC031370009B002B94
:104E300040F09C803A1E18BF0122019B002B40F0DD
:104E4000DB80002F00F09480544940F2FF33AAF831
:104E500000300B802B78FF2B40F03C8156492C70A2
:104E60000B7803F09F0343EA42130B7001234E4A71
:104E700013705370474A137803F0F80343F00103AB
:104E80001370012003B0BDE8F08F04246FE7052400
:104E90006DE7424BAAF800701F809BE70B2C26D0D1
:104EA000BBF1000F05D044F4844B2CB9434B1C607C
:104EB00097E744F4904BF8E7012C03D1404B0022D4
:104EC0001A608EE7042C01D13E4BF8E7052C01D186
:104ED0003D4BF4E73D4A002301210620FDF7A8FBE6
:104EE000294940F22A220620FCF73CFF79E7DFF847
:104EF00004B176E76B78FF2B07D1354B2A4A0BEAD2
:104F0000030343F02003022176E7AB78FF2B07D1A0
:104F1000304B254A0BEA030343F0400304216BE7BF
:104F200040F2432206201849FCF71CFF0020A9E7A5
:104F30002948018029490B70137803F0FC0343F0E2
:104F4000010372E72648018026490B70137803F0AD
:104F5000FC0343F0020368E72348018023490B70F8
:104F6000137803F0FC0343F003035EE7022264E7D7
:104F7000009B002B3FF46EAF084BAAF800701F8017
:104F800068E700BFE0920320C76B00045C1000409C
:104F9000B4890320401000400C0802425410004025
:104FA000A40D0242EFFF03005A10004041100040E0
:104FB000441000404610004058100040D0E5004228
:104FC000D4E50042C0E50042C4E50042BE6D0004E5
:104FD000DFFF0300BFFF0300481000404A100040FD
:104FE0004C1000404E100040501000405210004045
:104FF000561000400B7003000C2C3ED10FFA89F9BB
:105000004846FFF70FFE4846FFF70CFEB0F5806FED
:1050100005D33E4940F28A220620FCF7A3FE48460B
:10502000FFF700FE0FFA88F8AAF800004046FFF7E5
:10503000F9FD4046FFF7F6FDB0F5806F05D3334923
:1050400040F28B220620FCF78DFE4046FFF7EAFD7A
:105050002F4B18802F4B08221A702F4A0123136000
:105060002E4A13602E4A20211170102111702D4AF2
:1050700013602D4A13700022ECE621464846FFF7E4
:1050800029FE21464846FFF725FEB0F5806F05D37F
:105090001E4940F28F220620FCF764FE2146484656
:1050A000FFF718FE2146AAF800004046FFF712FE5F
:1050B00021464046FFF70EFEB0F5806F05D3134939
:1050C0004FF424720620FCF74DFE21464046FFF7C0
:1050D00001FEBDE76B78FF2B08D114496C700B788B
:1050E00003F0FC0313430B700223C0E6AB78FF2BE5
:1050F00009D10E49AC700B7803F0E70343EAC20311
:105100000B700423B3E64FF430720BE7C76B000457
:10511000541000405A100040B064014200E100E029
:105120005B1000409C6B01425D0B00405910004039
:105130000D4B1A78BAB901221A7002F1804202F5B9
:105140008252137803F0F30343F0080313701378CB
:1051500003F00F0343F02003137012F8013C03F037
:10516000F80302F8013C7047E09203200C2913B5C4
:10517000044623D1224B1A8849F69A1192B2002A8A
:1051800008BF0A46A0F500746243121240F23B20A9
:10519000083B504300121B88A0F58830A0F593709F
:1051A00000FA83F0174B9842B8BF1846B0F5FE4F8F
:1051B000A8BF4FF4FE4080B202B010BD6846FFF7B2
:1051C000D7FC9DF80100BDF90430BDF8062080B180
:1051D0006FF4FE716018C01A50439DF80010002251
:1051E000FFF746FD4FF6FF73800A984228BF184626
:1051F000E1E7A342BCBFE01A50434008EDE700BF1F
:105200004C0038040080FFFF38B5424B1B78044641
:105210002BB9414940F20D320620FCF7A3FD54B1F1
:10522000012C08D0022C18D0032C18D00B2C02D043
:105230000C2C18BFFF24394B1A78A24225D1384BC9
:105240001B7813F0600F0CD00023364A0121117037
:10525000B2F80300C0F3090010E00424EBE70524D2
:10526000E9E7314D64202B681BB9FCF706FD0028E7
:10527000F9D100280CBF01230023E6D1002B45D132
:105280002146BDE83840FFF771BF5A78A24218D1D5
:10529000264B1B789B0706D00023224A022111705F
:1052A000B2F80500D6E7224D64202B681BB9FCF745
:1052B000E4FC0028F9D100280CBF01230023DDD035
:1052C000EBE79B78A34219D1184B1B7813F0180F0A
:1052D00006D00023134A04211170B2F80700B9E781
:1052E000144D64202B681BB9FCF7C7FC0028F9D1CA
:1052F00000280CBF01230023C0D0EBE740F23B3273
:1053000005490620FCF72EFD002038BD40F247324B
:10531000F6E700BFE0920320C76B0004B4890320C6
:10532000581000405B100040C00C02425910004071
:10533000C40C0242C80C024238B5154C154DFFF79B
:1053400001FA22683AB92B682BB9134940F27B3233
:105350000620FCF707FD23684BB1104B00205B686B
:1053600098470F4B00221A600E4B20221A702B68B0
:105370004BB10A4B01205B6898470B4B00221A7017
:10538000102283F8FE24BDE83840FFF7EBB900BFD8
:105390001C73014220730142C76B0004E09203209A
:1053A0009C6B01425B1000405D0B00401FB50293F7
:1053B0000023CDE90033FFF7B5FC05B05DF804FB31
:1053C000F8B5524B1B7804462BB951494FF4707213
:1053D0000620FCF7C7FC54B1012C08D0022C32D0B7
:1053E000032C32D00B2C02D00C2C18BFFF24494ABE
:1053F000137803F0F8031370474B1A78A24226D1B2
:10540000FF221A701D785A789B78FF3D18BF01253E
:10541000FF2A18BF0135FF2B1CBF0135ADB20C2C84
:1054200021D13E4B00221A603D493E4E0B780022AE
:1054300003F003039A4236D935494FF4E17206204E
:10544000FCF790FC4BE00424D1E70524CFE75A7821
:10545000A24202D1FF225A70D4E79A78A24204BF36
:10546000FF229A70CEE70B2CDED014B92E4B01220E
:10547000D9E7012C02D12D4B1C60D5E7042C01D1BA
:105480002B4BF4E7052C01D12A4BF0E72A4A0023E5
:1054900001210620FDF7CCF81D4940F2F932062023
:1054A000FCF760FCC0E736F8220000F00F008442F1
:1054B00006EB82071CD100209A42388007D003F106
:1054C000805202F211429200128892B23A8033B1B5
:1054D0000A78013B02F0FC02DBB213430B704DB1C2
:1054E0000C4A137803F0F80343F001031370F8BD7E
:1054F00001329FE7114C322023681BB1FCF7BDFB42
:105500000028F9D10E4B00221A60F0E7E092032048
:10551000C76B000440100040B4890320A40D024270
:105520004110004044100040D0E50042D4E5004264
:10553000C0E50042C4E50042BE6D0004B80C024262
:105540000C08024238B5114B1B78044615462BB99E
:105550000F4940F232420620FCF704FC2DB90C49F9
:1055600040F233420620FCF7FDFB002201231146E6
:105570002046FFF71BFF38B12046FFF745FE288085
:105580002046FFF71DFF012038BD00BFE092032039
:10559000C76B000407B500210DF106020C20FFF7D0
:1055A000D1FF18B94FF40043ADF80630BDF906003D
:1055B00003B05DF804FB0000024BC0B2C058C0B29B
:1055C000704700BFE0000242014BC0B2C1507047BB
:1055D0002000024200F003035A0011B10221914061
:1055E000C9B2800800F180400323934090F8082757
:1055F000194022EA0302114380F80817704700009F
:10560000162810B414D800F003028008520000F1EC
:10561000804099B9032390F80C469340914019407B
:1056200024EA0304C9B2214380F80C1610BC704769
:10563000064910BCCB220620FCF794BB0129E9D017
:105640000229E7D0032918BFFF21E3E7D06B00044C
:105650001FB510220021684601F036F9FDF792FDD2
:105660002C4CFF28207004D12B4980220620FCF707
:1056700079FBFF238DF80F30684643F60473ADF8CD
:105680000C30FDF765FD009B217803F10043013BE1
:1056900000939DF80E3023F00F0343F0010368469A
:1056A0008DF80E30FDF7A8FD2078FDF701FE0121F1
:1056B0002078FDF72FFD0120FEF7BAF9174A002ADE
:1056C0000CBF00210521B2F5803F21D8B2F5004F73
:1056D0008CBF102318230AB943F00403104AB2F513
:1056E000005F104A98BF43F0020313700520FEF7D5
:1056F0009BFF0D4B01221A700C4A0D4B9A4205D8A4
:1057000005494FF487720620FCF72CFB04B010BD4E
:105710000023E0E7E8920320F16B000400000000A2
:10572000771400002906004076940320BC810320F2
:10573000BB810320014B1878704700BF769403208B
:10574000014B01221A7070477694032037B5384B0D
:105750001B7804462BB137494FF494720620FCF7AE
:1057600001FBB4F57A7F61D304F100436FF000458B
:10577000AB4238BF2C46FEF7E5FF01A8FDF7E8FC79
:105780000199631C08BF49192B4D18BF09192878C6
:1057900001910122FDF7C8FD01342C4630D1274A82
:1057A000274B1B781568274AA3F1FF0C1188264A5E
:1057B000DCF100031068254A43EB0C03002D08BF01
:1057C000002389B21288002908BF0023002808BFDF
:1057D000002392B203B19AB91D4B1B6883B91D4BCC
:1057E0001B686BB91C4B1B6853B91C4A012106206E
:1057F000FCF71EFF0F494FF4A3720620FCF7B2FA24
:1058000000F007FBFEF7AEFF6846FDF7A1FCFEF7D0
:10581000E7FE00F0FFFA2078FDF74AFD01A8FDF74A
:1058200097FCFEF7E9F908B1FEF74AFA03B030BD7C
:10583000DA920320F16B0004E89203202829014248
:105840004A090040380B00409C6401420C060040AD
:10585000AC6401420065014284640142E36D0004CE
:1058600030B1012807D00549A6220620FCF77ABAF4
:10587000034B19607047034BFBE700BFFC6B000450
:10588000C46B0142E46B014230B101280ED00849DB
:10589000C4220620FCF766BA31B1064A137803F039
:1058A000E10343F00E031370034B1960704700BF10
:1058B000FC6B00042007004000E4004230B10128E6
:1058C0000ED00849CE220620FCF74CBA31B1064A68
:1058D000137803F0E10343F010031370034B1960D6
:1058E000704700BFFC6B00041F070040E0E300426C
:1058F000104B53F8203010B504462BB92046002138
:10590000BDE81040FFF7ACBF9847031EF6DB4CB173
:10591000012C0BD0BDE81040074940F25A22062066
:10592000FCF720BA054ADBB2137010BD044ADBB2A3
:10593000FAE700BFEC920320FC6B0004A0100040CB
:10594000B0100040024B00221A735A73704700BF18
:10595000EC9203202DE9F843044648B1022805D90A
:10596000764940F205320620FCF7FCF9744D00E060
:10597000744D022201236B726A7204226A72AA7841
:10598000002C00F0D4809C4200F0D5806B4940F29E
:105990001B320620FCF7E6F96849B9220620FCF71D
:1059A000E1F94FF00008684F57F8243013B1B8F10F
:1059B000000F19D100212046FFF766FF0021204685
:1059C000FFF74EFF012303FA04F23B7B23EA0203B5
:1059D0003B730CB3012C05D0584940F245320620E8
:1059E000FCF7C0F9002618E044B1012C0BD0534954
:1059F00040F231320620FCF7B5F904E0534A13783F
:105A000003F0F303137001212046FFF73DFF3A7BBB
:105A10000123A3401343DBE7012607EB84034FEA8E
:105A200084091B695BB356B36CB1012C7CD043492C
:105A300040F256320620FCF795F94049B022062084
:105A4000FCF790F909E0414A137803F0FC0343F0B6
:105A5000020313703E4B01221A6001212046FFF71A
:105A60002DFF7A7B0123A34013437B730CB3012CDE
:105A70001DD032499C220620FCF774F91CE06B0112
:105A800003F184430022C3F8E0203CB1012C0CD088
:105A90002A49B0220620FCF765F901E02C4B1C6076
:105AA00000212046FFF70AFFE0E72A4B1A602A4B45
:105AB00000E02A4B01221A6057F8243013B1B8F1E4
:105AC000000F04D107EB09031B6943B33EB36CB16C
:105AD000012C1ED019494FF460720620FCF742F9E0
:105AE0001649B9220620FCF73DF906E01C4B4FF0A1
:105AF00080421A601B4B00221A604F443B6933B14D
:105B00002EB16D0105F184450123C5F8E030BDE8F3
:105B1000F883134B4FF000421A60134BEBE7002C55
:105B2000E8D0012CF9D0DBE70A4B1C6095E70D4A61
:105B30009846136037E70C4B1C6032E7FC6B00049F
:105B4000B0100040A0100040EC9203200A07004073
:105B5000C86B0142E86B0142A0640142A4640142A7
:105B600000E100E02C010142300101422DE9F84F33
:105B70009DF8287083468A469146C3F38108DEB2B9
:105B8000C3F303144FB1022F05D9284940F27922FB
:105B90000620FCF7E7F8264D00E0264D264B03EBE8
:105BA0008702B9F5805FC2F810B04FF0000243F8E9
:105BB00027A0DA6105D31D4940F29A220620FCF79E
:105BC000D1F8082CA5F8049005D9184940F29D2277
:105BD0000620FCF7C7F8AB79013C03F0F00304F0B2
:105BE0000F041C43AC71AB79360106F0300603F0AC
:105BF000CF031E43B8F1030F05F10609AE7105D1BD
:105C00000A494FF429720620FCF7ACF8C9F31309CE
:105C10004FEA491909F1844908F1FF33C9F81830EE
:105C20003846BDE8F84FFFF795BE00BFFC6B000497
:105C3000B0100040A0100040EC92032007B586236E
:105C400000921022FFF792FF03B05DF804FB000002
:105C5000022808B508D90620074940F29232FCF71D
:105C600081F80020C0B208BD044B1B7B43FA00F052
:105C700000F00100F6E700BFFC6B0004EC9203208B
:105C80000121FFF7EDBD0000022805D9094940F2C6
:105C9000B6320620FCF766B8074B084A002818BF42
:105CA00013465B0103F1844303F580731A68002AED
:105CB000FCD07047FC6B0004A0100040B010004006
:105CC0002DE9F843204B214D214FDFF88880DFF884
:105CD0008C90041E18BF1D466D01FEF733FD05F1C3
:105CE000844505F5827500262B6813B12046FFF721
:105CF000FFFD44B1012C17D04FF4767241460620C7
:105D0000FCF730F801E03E68F6B2002EECD12046F8
:105D1000FFF7BAFF5CB1012C12D00E4940F2E1321C
:105D20000620FCF71FF807E0D9F80060ECE70A4B03
:105D30004FF08042C3F88021BDE8F843FEF712BD62
:105D4000054B4FF00042F5E7B0100040A0100040B6
:105D5000C46B0142FC6B000400E100E0E46B014213
:105D6000264BF0B5264F041E18BF1F467D0105F1D6
:105D7000844505F58075EE682B69003E85B018BF37
:105D800001260BB146F002066B69ABB146F0040682
:105D90002046FFF795FF1B4A0096002301210620AD
:105DA000FCF746FC2046FFF78BFF17494FF488723B
:105DB0000620FBF7D7FF01E0002EE9D1AB682BB935
:105DC00011494FF48E720620FBF7CCFFBB788DF89B
:105DD0000F300E4BA50003EB840422691C462AB940
:105DE00009494FF48F720620FBF7BCFF63190121AC
:105DF0001B690DF10F00984705B0F0BDB0100040D1
:105E0000A0100040FA6D0004FC6B0004EC9203202B
:105E10007047704770470000114B186810B520B1EB
:105E2000BDE810400020FFF79BBF0E4B1B681BB165
:105E3000BDE81040FFF75CBD0B4B1B6843B10B4C3A
:105E4000E26902B190470A4A00231360E36110BD82
:105E5000BDE81040074940F267420620FBF782BFC9
:105E6000487301424473014240730142EC920320A3
:105E7000C06B0142FC6B00040B4B1B6813B101208B
:105E8000FFF76EBF094B1B6813B10120FFF730BD50
:105E9000074A126812B1074A13607047064940F278
:105EA0007E420620FBF75EBF6873014264730142C5
:105EB00060730142E06B0142FC6B0004042838B5BA
:105EC00005460C4604D908499C220620FBF74AFFE8
:105ED000012C04D904499D220620FBF743FF034807
:105EE00000EB85052C6038BD066C0004207702426B
:105EF000042810B5044604D90549A9220620FBF759
:105F000031FF20460021BDE81040FFF7D7BF00BF9A
:105F1000066C00042DE9F843FEF714FC184B194FEA
:105F20001C78DFF86890E4B20026F5B21CB9BDE831
:105F3000F843FEF717BCE2071FD53B782B41DB0780
:105F400004D411494C220620FBF70CFF2846FFF72A
:105F5000CFFF07EB85034FEA85085B6823B90A4941
:105F600051220620FBF7FEFEB844D8F804309847CB
:105F70000C235D43012305F8093064080136D4E79A
:105F80009C0B00400C930320066C00048813004017
:105F9000054B00221A70054B4FF080521A60044BDB
:105FA00001221A60704700BF0C93032000E100E05B
:105FB000E8640142064B1B6813F0FF0F0CBF0001A1
:105FC000C000062802D9063800F04ABC704700BF5E
:105FD000A004014238B504464FF6FF75013CA4B257
:105FE000AC4200D138BD4FF47A70FFF7E3FFF5E71C
:105FF00008B500F0ABFABDE808400249AE22062021
:10600000FBF7B0BE116C000408B500F015FCBDE84C
:1060100008400249B7220620FBF7A4BE116C000419
:10602000684620F007018D4601B5FEF727FDFFF712
:1060300083F9FEF729FDBDE80140854670476846B3
:1060400020F007018D4601B5FEF718FDFFF7DCFFD4
:10605000FEF71AFDBDE8014085467047684620F00E
:1060600007018D4601B5FEF709FDFFF7CDFFFEF7ED
:106070000BFDBDE8014085467047684620F00701EA
:106080008D4601B5FEF7FAFCFFF7BEFFFEF7FCFCFC
:10609000BDE8014085467047684620F007018D46FF
:1060A00001B5FEF7EBFCFEF7F1FCFEF7EDFCBDE8F9
:1060B000014085467047684620F007018D4601B5CE
:1060C000FEF7DCFCFFF7A0FFFEF7DEFCBDE80140B9
:1060D00085467047684620F007018D4601B5FEF7FA
:1060E000CDFCFFF791FFFEF7CFFCBDE801408546F0
:1060F0007047684620F007018D4601B5FEF7BEFCEB
:10610000FFF782FFFEF7C0FCBDE8014085467047FF
:10611000684620F007018D4601B5FEF7AFFCFFF79A
:1061200073FFFEF7B1FCBDE8014085467047684645
:1061300020F007018D4601B5FEF7A0FCFFF764FFD4
:10614000FEF7A2FCBDE8014085467047684620F096
:1061500007018D4601B5FEF791FCFFF755FFFEF7ED
:1061600093FCBDE8014085467047684620F0070172
:106170008D4601B5FEF782FCFEF78EFCFEF784FC2F
:10618000BDE8014085467047684620F007018D460E
:1061900001B5FEF773FCFFF737FFFEF775FCBDE8AE
:1061A000014085467047684620F007018D4601B5DD
:1061B000FEF764FCFFF728FFFEF766FCBDE8014030
:1061C00085467047684620F007018D4601B5FEF709
:1061D00055FCFFF719FFFEF757FCBDE80140854667
:1061E0007047684620F007018D4601B5FEF746FC72
:1061F000FFF70AFFFEF748FCBDE8014085467047FF
:10620000684620F007018D4601B5FEF737FCFFF721
:10621000FBFEFEF739FCBDE8014085467047684645
:1062200020F007018D4601B5FEF728FCFFF7ECFED4
:10623000FEF72AFCBDE8014085467047684620F01D
:1062400007018D4601B5FEF719FCFFF7DDFEFEF7ED
:106250001BFCBDE8014085467047684620F00701F9
:106260008D4601B5FEF70AFCFFF7CEFEFEF70CFCEB
:10627000BDE8014085467047684620F007018D461D
:1062800001B5FEF7FBFBFFF7BFFEFEF7FDFBBDE828
:10629000014085467047684620F007018D4601B5EC
:1062A000FEF7ECFBFFF7B0FEFEF7EEFBBDE80140AA
:1062B00085467047684620F007018D4601B5FEF718
:1062C000DDFBFFF7A1FEFEF7DFFBBDE801408546E1
:1062D0007047684620F007018D4601B5FEF7CEFBFA
:1062E000FFF792FEFEF7D0FBBDE801408546704700
:1062F000684620F007018D4601B5FEF7BFFBFFF7AA
:1063000083FEFEF7C1FBBDE8014085467047684645
:1063100020F007018D4601B5FEF7B0FBFFF774FED4
:10632000FEF7B2FBBDE8014085467047684620F0A5
:1063300007018D4601B5FEF7A1FBFFF765FEFEF7ED
:10634000A3FBBDE8014085467047684620F0070181
:106350008D4601B5FEF792FBFEF7A4FBFEF794FB1A
