:020000040400F6
:1000100000000000000000000000000014000400C8
:10002000815C3A6900000000000000000000000050
:1000300000000000000000000000000000000000C0
:1000400000000000000000000000000000000000B0
:1000500000000000000000000000000000000000A0
:100060000000000000000000000000000000000090
:100070000000000000000000000000000000000080
:10080000E48B032000000000000000000000000056
:1008100000000000000000000000000000000000D8
:1008400001F458B9FFF304BC00F03EBE00F03CBE1A
:1008500000F03ABEFFF3FEBBFFF3FEBBFFF3FEBBAF
:10086000FFF3FEBBFFF3FEBBFFF3FEBBFFF3FEBBDC
:10087000FFF3FEBBFFF3FEBBFFF3FEBBFFF3FEBBCC
:10088000FFF3FEBBFFF3FEBBFFF3FEBBFFF3FEBBBC
:10089000FFF3FEBBFFF3FEBB00F016BEFFF3FEBB93
:1008A000FFF3FEBBFFF3FEBBFFF3FEBBFFF3FEBB9C
:1008B00000F00ABEFFF3FCBB00F006BE00F004BE71
:1008C00000F002BE00F000BEFFF3F8BBFFF3F8BB80
:1008D000FFF3F8BBFFF3F8BB00F0F6BD00F0F4BD8A
:1008E00000F0F2BD00F0F0BD00F0EEBD00F0ECBD98
:1008F00000F0EABDFFF3ECBBFFF3ECBBFFF3ECBB96
:10090000FFF3ECBB00F0E0BD00F0DEBDFFF3E8BBA1
:1009100000F0DABD00F0D8BD00F0D6BDFFF3E2BBB9
:10092000FFF3E2BBFFF3E2BBFFF3E2BBFFF3E2BB8B
:1009300000F0CABD00F0C8BD00F0C6BD00F0C4BDE7
:1009400000F0C2BD00F0C0BD00F0BEBD00F0BCBDF7
:1009500000F0BABD00F0B8BD00F0B6BD00F0B4BD07
:1009600000F0B2BD00F0B0BD00F0AEBD00F0ACBD17
:1009700000F0AABD00F0A8BDFFF3BEBBFFF3BEBBF5
:1009800000F0A2BD00F0A0BD00F09EBD00F09CBD37
:1009900000F09ABD00F098BD00F096BD00F094BD47
:1009A00000F092BDFFF3ACBB00F08EBD00F08CBD3B
:1009B00000F08ABD01F4A8BD01F470BD01F484BD4E
:1009C00001F4F8BD00F080BD00F07EBD00F07CBDFC
:1009D00000F07ABD00F078BD00F076BD00F074BD87
:1009E00000F072BD00F070BD00F06EBD00F06CBD97
:1009F00000F06ABD00F068BD00F066BD00F064BDA7
:100A000000F062BD00F060BDFFF37CBB00F05CBD98
:100A100000F05ABDFFF378BBFFF378BBFFF378BB60
:100A2000FFF378BBFFF378BBFFF378BBFFF378BB32
:100A3000FFF378BBFFF378BBFFF378BB00F044BD56
:100A400000F042BD00F040BD00F03EBD00F03CBDF6
:100A500000F03ABD00F038BD00F036BD00F034BD06
:100A600000F032BD00F030BD00F02EBD00F02CBD16
:100A700000F02ABD00F028BD00F026BD00F024BD26
:100A800000F022BD00F020BD00F01EBD00F01CBD36
:100A900000F01ABD00F018BD00F016BD00F014BD46
:100AA00000F012BD00F010BD00F00EBD00F00CBD56
:100AB00000F00ABD00F008BD00F006BD00F004BD66
:100AC00000F002BD00F000BD00F0FEBCFFF330BB43
:100AD00000F0FABC00F0F8BC00F0F6BC00F0F4BC8A
:100AE000FFF328BBFFF328BBFFF328BBFFF328BBB2
:100AF000FFF328BBFFF328BBFFF328BBFFF328BBA2
:100B0000FFF328BBFFF328BBFFF328BBFFF328BB91
:100B1000FFF328BB00F0D8BC00F0D6BCFFF324BB29
:100B2000FFF324BBFFF324BBFFF324BB00F0CCBCDA
:100B3000FFF324BBFFF324BBFFF324BBFFF324BB71
:100B4000FFF324BBFFF324BBFFF324BBFFF324BB61
:100B5000FFF324BBFFF324BBFFF324BBFFF324BB51
:100B6000FFF324BBFFF324BBFFF324BBFFF324BB41
:100B7000FFF324BBFFF324BBFFF324BB00F0A4BCB2
:100B800000F0A2BCFFF320BBFFF320BBFFF320BBB0
:100B9000FFF320BBFFF320BBFFF320BB00F094BCAE
:100BA00000F092BC00F090BC00F08EBCFFF318BBCC
:100BB000FFF318BBFFF318BBFFF318BBFFF318BB21
:100BC000FFF318BB00F080BC00F07EBC00F07CBCE2
:100BD000FFF312BBFFF312BBFFF312BBFFF312BB19
:100BE000FFF312BBFFF312BBFFF312BBFFF312BB09
:100BF000FFF312BBFFF312BBFFF312BBFFF312BBF9
:100C0000FFF312BBFFF312BBFFF312BBFFF312BBE8
:100C1000FFF312BBFFF312BBFFF312BBFFF312BBD8
:100C2000FFF312BBFFF312BBFFF312BBFFF312BBC8
:100C3000FFF312BBFFF312BBFFF312BBFFF312BBB8
:100C4000FFF312BB00F040BCFFF312BBFFF312BB7B
:100C5000FFF312BB00F038BC00F036BC00F034BC2F
:100C600000F032BC00F030BC00F02EBC00F02CBC18
:100C700000F02ABC00F028BC00F026BC00F024BC28
:100C800000F022BC00F020BC00F01EBC00F01CBC38
:100C900000F01ABC00F018BC00F016BC00F014BC48
:100CA00000F012BC00F010BC00F00EBC00F00CBC58
:100CB00000F00ABC00F008BC00F006BC00F004BC68
:100CC00000F002BC00F000BC00F0FEBB00F0FCBB7A
:100CD00000F0FABB00F0F8BB00F0F6BB00F0F4BB8C
:100CE00000F0F2BB00F0F0BB00F0EEBB00F0ECBB9C
:100CF00000F0EABB00F0E8BB00F0E6BB00F0E4BBAC
:100D000000F0E2BB00F0E0BB00F0DEBB00F0DCBBBB
:100D100000F0DABB00F0D8BB00F0D6BB00F0D4BBCB
:100D200000F0D2BB00F0D0BB00F464BFFFF3A6BA62
:100D3000FFF3A6BAFFF3A6BA00F0C6BB00F0C4BB2F
:100D400000F0C2BB00F0C0BBFFF39EBA00F0BCBB1A
:100D5000FFF39CBA00F0B8BB00F0B6BBFFF398BA43
:100D600000F0B2BBFFF396BAFFF396BA00F0ACBB4B
:100D7000FFF394BA00F0A8BBFFF392BA00F0A4BB53
:100D8000FFF390BA00F0A0BBFFF38EBAFFF38EBA68
:100D900000F09ABBFFF38CBAFFF38CBAFFF38CBA66
:100DA000FFF38CBAFFF38CBAFFF38CBAFFF38CBA63
:100DB000FFF38CBAFFF38CBAFFF38CBAFFF38CBA53
:100DC000FFF38CBAFFF38CBAFFF38CBAFFF38CBA43
:100DD000FFF38CBAFFF38CBAFFF38CBAFFF38CBA33
:100DE000FFF38CBAFFF38CBAFFF38CBAFFF38CBA23
:100DF000FFF38CBAFFF38CBAFFF38CBAFFF38CBA13
:100E0000FFF38CBAFFF38CBAFFF38CBAFFF38CBA02
:100E1000FFF38CBAFFF38CBAFFF38CBAFFF38CBAF2
:100E2000FFF38CBAFFF38CBAFFF38CBAFFF38CBAE2
:100E3000FFF38CBAFFF38CBAFFF38CBAFFF38CBAD2
:100E4000FFF38CBAFFF38CBAFFF38CBAFFF38CBAC2
:100E5000FFF38CBAFFF38CBAFFF38CBA00F034BB0B
:100E600000F032BB00F030BBFFF386BAFFF386BA66
:100E7000FFF386BAFFF386BA00F026BB00F024BB6E
:100E8000FFF382BAFFF382BAFFF382BAFFF382BAAA
:100E9000FFF382BAFFF382BAFFF382BAFFF382BA9A
:100EA000FFF382BAFFF382BAFFF382BAFFF382BA8A
:100EB000FFF382BAFFF382BAFFF382BAFFF382BA7A
:100EC000FFF382BAFFF382BAFFF382BAFFF382BA6A
:100ED000FFF382BAFFF382BAFFF382BAFFF382BA5A
:100EE000FFF382BAFFF382BAFFF382BAFFF382BA4A
:100EF000FFF382BAFFF382BAFFF382BAFFF382BA3A
:100F0000FFF382BAFFF382BAFFF382BAFFF382BA29
:100F1000FFF382BAFFF382BAFFF382BAFFF382BA19
:100F2000FFF382BAFFF382BAFFF382BAFFF382BA09
:100F3000FFF382BAFFF382BAFFF382BAFFF382BAF9
:100F4000FFF382BAFFF382BAFFF382BAFFF382BAE9
:100F5000FFF382BAFFF382BAFFF382BAFFF382BAD9
:100F6000FFF382BAFFF382BAFFF382BAFFF382BAC9
:100F7000FFF382BAFFF382BAFFF382BAFFF382BAB9
:100F8000FFF382BAFFF382BAFFF382BAFFF382BAA9
:100F9000FFF382BAFFF382BAFFF382BAFFF382BA99
:100FA000FFF382BAFFF382BAFFF382BAFFF382BA89
:100FB000FFF382BAFFF382BAFFF382BAFFF382BA79
:100FC000FFF382BAFFF382BAFFF382BAFFF382BA69
:100FD000FFF382BAFFF382BAFFF382BAFFF382BA59
:100FE000FFF382BAFFF382BA00F06EBA00F06CBA77
:100FF00000F06ABA00F068BA00F066BA00F064BAAD
:1010000000F062BA00F060BA00F05EBA00F05CBABC
:1010100000F05ABA00F058BA00F056BA00F054BACC
:1010200000F052BA00F050BA00F04EBA00F04CBADC
:1010300000F04ABA00F048BA00F046BA00F044BAEC
:1010400000F042BA00F040BA00F03EBA00F03CBAFC
:1010500000F03ABA00F038BA00F036BA00F034BA0C
:1010600000F032BAFFF344BAFFF344BAFFF344BAD4
:10107000FFF344BAFFF344BAFFF344BAFFF344BAB0
:10108000FFF344BAFFF344BAFFF344BAFFF344BAA0
:10109000FFF344BAFFF344BAFFF344BAFFF344BA90
:1010A000FFF344BAFFF344BAFFF344BAFFF344BA80
:1010B000FFF344BAFFF344BAFFF344BA00F438BE76
:1010C000FFF342BA00F000BAFFF342BAFFF342BAAC
:1010D000FFF342BAFFF342BAFFF342BAFFF342BA58
:1010E000FFF342BAFFF342BAFFF342BA00F4F0BD95
:1010F00000F41FBE00F41EBE00F43BBE00F444BE6C
:1011000000F45CBE00F47ABE00F494BE00F4B4BEF9
:1011100000F4EEBE00F4EDBE00F4D2BE02F4DEBB7D
:1011200002F4CCBB02F438BD02F447BD02F44DBD5D
:1011300002F45BBD03F41CBB03F414BB02F4A2BBBA
:1011400002F492BD00F0C0B9FFF318BAFFF318BA69
:10115000FFF31CBAFFF31CBAFFF31EBAFFF31EBA6B
:10116000FFF31EBAFFF31EBAFFF31EBAFFF31EBA57
:10117000FFF31EBAFFF31EBAFFF31EBAFFF31EBA47
:10118000FFF31EBAFFF31EBAFFF31EBAFFF31EBA37
:10119000FFF31EBAFFF31EBAFFF31EBAFFF31EBA27
:1011A000FFF31EBAFFF31EBAFFF31EBAFFF31EBA17
:1011B000FFF31EBAFFF31EBAFFF31EBAFFF31EBA07
:1011C000FFF31EBAFFF31EBAFFF31EBAFFF31EBAF7
:1011D000FFF31EBAFFF31EBAFFF31EBAFFF31EBAE7
:1011E000FFF31EBAFFF31EBA00F06EB9FFF31CBA8C
:1011F000FFF31CBAFFF31CBAFFF31CBAFFF31CBACF
:10120000FFF31CBAFFF31CBAFFF31CBAFFF31CBABE
:10121000FFF31CBAFFF31CBAFFF31CBAFFF31CBAAE
:10122000FFF31CBAFFF31CBAFFF31CBAFFF31CBA9E
:10123000FFF31CBAFFF31CBAFFF31CBAFFF31CBA8E
:10124000FFF31CBAFFF31CBAFFF31CBAFFF31CBA7E
:10125000FFF31CBAFFF31CBAFFF31CBAFFF31CBA6E
:10126000FFF31CBAFFF31CBAFFF31CBAFFF31CBA5E
:10127000FFF31CBAFFF31CBAFFF31CBAFFF31CBA4E
:10128000FFF31CBAFFF31CBAFFF31CBAFFF31CBA3E
:10129000FFF31CBAFFF31CBAFFF31CBAFFF31CBA2E
:1012A000FFF31CBAFFF31CBAFFF31CBAFFF31CBA1E
:1012B000FFF31CBAFFF31CBAFFF31CBAFFF31CBA0E
:1012C000FFF31CBAFFF31CBAFFF31CBAFFF31CBAFE
:1012D000FFF31CBAFFF31CBAFFF31CBAFFF31CBAEE
:1012E000FFF31CBAFFF31CBAFFF31CBAFFF31CBADE
:1012F000FFF31CBAFFF31CBA00F0E6B8FFF31ABA0A
:10130000FFF31ABAFFF31ABAFFF31ABAFFF31ABAC5
:10131000FFF31ABAFFF31ABAFFF31ABAFFF31ABAB5
:10132000FFF31ABAFFF31ABAFFF31ABAFFF31ABAA5
:10133000FFF31ABAFFF31ABAFFF31ABAFFF31ABA95
:10134000FFF31ABAFFF31ABAFFF31ABAFFF31ABA85
:10135000FFF31ABAFFF31ABAFFF31ABAFFF31ABA75
:0813600000F0B2B800F0B0B8D3
:101400000080052011310004AD350004595000045E
:1014100058500004585000045850000400000000C8
:101420000000000000000000000000005850000410
:1014300058500004000000000F5000042D5000041C
:10144000314C00044F4C00046D4C00048B4C0004E4
:10145000A94C0004C74C0004E54C0004034D0004F3
:10146000214D00043F4D00045D4D00047B4D000400
:10147000994D0004B74D0004D54D0004F34D000410
:10148000114E00042F4E00044D4E00046B4E00041C
:10149000894E0004A74E0004C54E0004E34E00042C
:1014A000014F00041F4F00043D4F00045B4F000438
:1014B000794F0004974F0004B54F0004D34F000448
:0414C000F14F0004E4
:1014C800704600F47BBBEC46A0E8F00FA0E80050A3
:1014D800EFF3148CC0F800C04FF0000070470029EB
:1014E80008BF0131B0E8F00FB0E80050026892F090
:1014F800020F0CBF8CF309888CF3088882F31488D8
:1015080008007047844641EA000313F003036DD1D5
:10151800403A41D351F8043B40F8043B51F8043BAE
:1015280040F8043B51F8043B40F8043B51F8043BB5
:1015380040F8043B51F8043B40F8043B51F8043BA5
:1015480040F8043B51F8043B40F8043B51F8043B95
:1015580040F8043B51F8043B40F8043B51F8043B85
:1015680040F8043B51F8043B40F8043B51F8043B75
:1015780040F8043B51F8043B40F8043B51F8043B65
:1015880040F8043B51F8043B40F8043B51F8043B55
:1015980040F8043B403ABDD2303211D351F8043BF5
:1015A80040F8043B51F8043B40F8043B51F8043B35
:1015B80040F8043B51F8043B40F8043B103AEDD2A4
:1015C8000C3205D351F8043B40F8043B043AF9D2F5
:1015D800043208D0D2071CBF11F8013B00F8013BC8
:1015E80001D30B8803806046704700BF082A13D3D5
:1015F8008B078DD010F003038AD0C3F10403D21AED
:10160800DB071CBF11F8013B00F8013B80D331F820
:10161800023B20F8023B7BE7043AD9D3013A11F8A0
:10162800013B00F8013BF9D20B7803704B7843700B
:101638008B7883706046704753B94AB9002908BF50
:1016480000281CBF4FF0FF314FF0FF3000F06CB99D
:10165800ADF1080C6DE904CE00F006F8DDF804E001
:10166800DDE9022304B070472DE9F047089E0D46D6
:1016780004468E46002B40F082808A42174646D99F
:10168800B2FA82F24AB1C2F1200105FA02F320FA55
:1016980001F1974041EA030E94404FEA1748230CA2
:1016A800BEFBF8FCB9B208FB1CEE43EA0E430CFB88
:1016B80001F098420AD9FB180CF1FF3580F0168129
:1016C800984240F21381ACF1020C3B441B1AA4B2BD
:1016D800B3FBF8F008FB103344EA034400FB01F1C4
:1016E800A14209D93C1900F1FF3380F00181A142E0
:1016F80040F2FE8002383C44641A40EA0C40002163
:101708001EB1D4400023C6E90043BDE8F08702B902
:10171800FFDEB2FA82F2002A4FD1CB1B4FEA174EF6
:101728001FFA87F80121B3FBFEFC250C0EFB1C33C6
:1017380045EA034508FB0CF3AB4207D97D190CF1C8
:10174800FF3002D2AB4200F2E7808446ED1AA3B222
:10175800B5FBFEF00EFB105543EA054408FB00F804
:10176800A04507D93C1900F1FF3302D2A04500F289
:10177800D7801846A4EB080440EA0C40C0E78B4227
:1017880008D9002E00F0AF800021C6E90005084600
:10179800BDE8F087B3FA83F100294BD1AB4202D3FD
:1017A800824200F2B780841A65EB030301209E464B
:1017B800002EAAD0C6E9004EA7E7C2F1200C01FA14
:1017C80002F3974020FA0CF04FEA174E21FA0CFC6E
:1017D8001843BCFBFEF1050C0EFB11CC1FFA87F871
:1017E80045EA0C4501FB08F3AB4204FA02F409D9B7
:1017F8007D1901F1FF3C80F08B80AB4240F288807C
:1018080002393D44EB1A85B2B3FBFEF00EFB1033F0
:1018180045EA034500FB08F3AB4207D97D1900F1FF
:10182800FF3C71D2AB426FD902383D44EB1A40EA13
:10183800014178E7C1F1200C8B4022FA0CF71F43D5
:1018480020FA0CF405FA01F34FEA174E25FA0CF5C5
:101858001C43230CB5FBFEF91FFA87F80EFB19553C
:1018680043EA054509FB08FAAA4502FA01F200FA1B
:1018780001F308D97D1909F1FF3047D2AA4545D9A6
:10188800A9F102093D44A5EB0A05A4B2B5FBFEF097
:101898000EFB105544EA054400FB08F8A04507D99B
:1018A8003C1900F1FF352DD2A0452BD902383C4414
:1018B80040EA0940A4EB0804A0FB02894C45C6464F
:1018C8004D4619D316D05EB1B3EB0E0264EB050496
:1018D80004FA0CFCCA404CEA0202CC40C6E90024D7
:1018E8000021BDE8F087314630460EE7AC46EDE60C
:1018F800184601E74345E6D2B8EB020E69EB070547
:101908000138E0E72846D3E760468FE78146BAE723
:10191800614677E708464BE7ACF1020C3D4415E712
:1019280002383C4426E700BF704700BF044BB3F9B8
:101938000000421C1CBF4FF6FF721A80704700BFA0
:101948009C89032008B501F0B5FF094B53220020FC
:101958001A8003F0BBF801F0BDFF0120FEF3C8F5C3
:10196800044B02221A70044B01221A6008BD00BF02
:101978009C8903206F09004064670142F8B50E4F47
:1019880005460C4601F096FF0023DAB2A24203F1A5
:1019980001060AD30948FEF3BFF508490848FEF3D3
:1019A800B7F5BDE8F84001F095BFAB5C3B8000207F
:1019B80003F08CF83346E8E79C8903204D190004AE
:1019C80040420F000D4B10B500241C602046FEF36A
:1019D8008FF501F06FFF0A4B3E2220461A8003F074
:1019E80075F801F077FF0748FEF398F528B9BDE8C8
:1019F800104004490448FEF38BB510BD64670142EA
:101A08009C8903204D19000440420F0007B50321AB
:101A1800082002F006FEFF2301A88DF8043000F02C
:101A28002DFE064800F0B4FE054B02221A70054B45
:101A380001221A6003B05DF804FB00BFCD19000451
:101A48006F0900406467014213B5002400F068F88C
:101A5800FFF7DCFF0749084800948623102202F0AC
:101A6800E7FF204601F058F9012002B0BDE8104018
:101A7800FEF33EB53519000485190004032810B596
:101A8800044606D901F0FAFE042003F0A9F8201F45
:101A980010BD0020FCE7000013B50648046834B107
:101AA8008DF80010ADF8023001926846A04702B0E8
:101AB80010BD00BFB889032073B501230A4D8DF806
:101AC80007301C4600269DF807300BB902B070BDE0
:101AD80001F0D4FE2B682BB12E604FF4FA7003F09E
:101AE8008FF8F0E72C60F8E70028024208B51346A3
:101AF8000A4601460020FFF7CFFFBDE80840FFF780
:101B0800DBBFF8B50D4616461F46FFF7B7FF04467C
:101B180020B93A4631462846FFF7E8FF2046F8BD87
:101B280008B5002001F08EF81648174903680A78AE
:101B380043F4843343F08403036042F00103134AFF
:101B48000B701168124B0B431360FEF37DF20146D4
:101B580020B94FF489722320FFF7C8FFFEF3C4F4BD
:101B68004FF0FF3000F0C2F8FEF3C8F40020FEF397
:101B7800BFF400F08DF801F025F8BDE8084000F04A
:101B880085B800BF240B0040280B004000E100E0AE
:101B980010082408084B00221A7001225A700222E9
:101BA8009A700322DA7004221A7105225A710622E9
:101BB8009A710722DA7170474C0C00400020704778
:101BC80038B5002001F086F8074D102400F02AFEF1
:101BD800013C14F0FF0405F8010BF7D1BDE83840CB
:101BE800012001F077B800BFBC8903202DE9F74F29
:101BF800244FDFF89480019106460025B54202D3B0
:101C080003B0BDE8F08F741B102C28BF1024FEF31E
:101C180077F4D8E9001200F00303E4B23B744FF004
:101C2800000C49F2690B44F2506A03EB0C0E88B2BF
:101C38000EF0030E090C0BFB001190B2120C0AFBFC
:101C4800002257F82E0002EB01490CF1010C89EA39
:101C58000000BCF1040F47F82E00E6D1C8E90012D5
:101C6800019A9B0050190022D1B28C4202D8254417
:101C7800EDB2C3E7991801F00F010132795C00F861
:101C8800011BF1E7BC890320A0890320FFF798BF57
:101C980007B50B4B18681B7900908DF8043001F0DC
:101CA800F9FD04280AD801F0F5FD02AB184410F834
:101CB800083C044A137003B05DF804FB0023F8E7FE
:101CC80058510004E18B032010B5064C0648234602
:101CD8000A22182100F036F8012323820023A37476
:101CE80010BD00BFF08B0320048C0320014B9860CB
:101CF80001207047E48B032008B572B6054B01221A
:101D08001A7001F033FE01F0E5FDBDE80840FFF769
:101D18009BBE00BF9A8B032008B5FFF7EDFFFEF3CB
:101D2800E9F3FEF307F4FAE7704770477047036872
:101D380023B1586043681BB1186070474860F9E7E1
:101D48000860704770B5013A0546002489B2A2427E
:101D580006D84A43811800248450C3E9000170BDA5
:101D68006E182E6001343546F1E710B5044601F0CF
:101D7800A1FD0023C4E90033BDE8104001F0AABD6D
:101D880010B5044630B10A4B1B781BB1206848B91E
:101D9800002010BDA32200210420FFF7A7FE002C7D
:101DA800F4D1F5E70368236003B963600830F0E70E
:101DB8009A8B032038B504460D4611B10C4B1B789D
:101DC80023B9CD2200210420FFF790FE24B9CE22AA
:101DD80021460420FFF78AFEA4F108006B684360DF
:101DE800002344F8083C2946BDE83840FFF79FBF68
:101DF8009A8B032070B506460C46154612B10A4B5D
:101E08001B7823B9DE2200210420FFF76FFEA6F11C
:101E18000800083C63684360294646F8084CBDE85A
:101E28007040FFF784BF00BF9A8B032038B5044683
:101E38000D4611B10D4B1B7823B9F0220021042067
:101E4800FFF754FE24B9F42221460420FFF74EFE82
:101E580054E902232BB11A6054F8082C1AB15360C4
:101E680038BD2A60F8E76B60FAE700BF9A8B032059
:101E780038B505460C4611B10E4B1B782BB940F20C
:101E88001D1200210420FFF731FE2DB940F2211266
:101E980029460420FFF72AFE6268A5F1080302B16B
:101EA80013600022636045F8082C226802B9236099
:101EB80038BD00BF9A8B032038B50A4B04461B78FF
:101EC800006803F0FF0100F1080523B940F23D1254
:101ED8000420FFF70BFE2368002B14BF28460020C0
:101EE80038BD00BF9A8B03207047704708B500F0D3
:101EF80033FF012804D1BDE80840002000F00CBFE2
:101F080008BD000010B1084B40221A70074B18603A
:101F1800C3F86C0703F58E4338331860A3F58E4376
:101F2800303B1960704700BF6E0900402020014215
:101F38000A4B10B580220A4C1860596042F21070A2
:101F480003F81C2C23683BB140F207130022072139
:101F5800FFF7D7FD0028F5D110BD00BF24090040C8
:101F68005021014208B5064B1B681BB105490648BC
:101F7800FEF3CEF2054B40221A70BFF34F8F08BD17
:101F8800282001423D210004404B4C000809004034
:101F980008B500F0E1FE012819D1144B18680003B8
:101FA800134B002218605A60012203F82B2C114AA7
:101FB8001368002BFCD1104A1368002BFCD00120B9
:101FC80002F00EFE0D4A1368002BFCD108BD48B97B
:101FD800064B59680A4B08059A88090B0023FFF736
:101FE8002BFBDDE74FF08040DAE700BFA88903202C
:101FF800340900405C2101424C2101425021014238
:10200800D089032010B50446E8B900F01BFFC0B919
:10201800154B9979B1FA81F14909C9B20120FFF745
:1020280071FF94B91149104B0A789B8802F08F020E
:102038000A70013B0E4A9BB21380BDE81040FFF7BF
:1020480091BF0121E9E70121E8E7012C0AD1074AFC
:10205800137803F08F0343F010031370044BFF222F
:102068001A80EAE710BD00BFD089032001090040AB
:102078000209004038B5074D074B01240A201B68A8
:10208800EC7100F09DFF2C722046BDE83840FFF748
:10209800B9BF00BFD08903200C09004008B5084B20
:1020A80000211972D8601B78012B04D040F2E2227B
:1020B8000720FFF71BFDBDE808400020FFF7A2BF7F
:1020C800D0890320002170B506460846FFF71AFF9D
:1020D800012E144D144C07D0022E1DD00223EB7193
:1020E8004FF0FF33236004E00323EB7101F006F89F
:1020F800206000F0CFFFEB79022B01D1FFF7F6FE4D
:102108000A4B00221A60636801330AD1084BBDE804
:1021180070401868FFF7C2BF0323EB7100F0D8FFC7
:10212800E6E770BDD0890320A889032040C000429B
:102138000C090040054B197A21B1012905D103206A
:10214800FFF7C0BF0846FFF7DDBE7047D089032000
:102158007FB5104D04461022002168462E7A02F001
:10216800A7FFA4B9FF2E12D105238DF800300A4924
:1021780042F210736846019300F07CFEFF28287233
:1021880005D140F2C62221460720FFF7AFFC04B074
:1021980070BD00BFA8890320D5210004094B70B584
:1021A8001D6855B9084B1E6800F0D6FD044630B9C5
:1021B8003046FFF773FF204670BD0124FBE72C462D
:1021C800F9E700BF586701420C09004010B500F05C
:1021D800C3FD044600F036FEA4B978B10A4B1B686B
:1021E80043B10A4B1B7A2BB9094B196811B9084638
:1021F800FFF788FEBDE81040FFF7D0BF034B5B78C0
:10220800002BF7D110BD00BF58670142D0890320C9
:1022180028200142F8B5431E17469BB240F6FE72CD
:10222800934206460D4605D940F2C5120021072003
:10223800FFF75CFC6B1E1F2B05D94FF4E3720021DE
:102248000720FFF753FC104C01230021802204F1E2
:1022580010002370A680A570677002F029FF217A0C
:10226800002384F89030A37169B9084B4FF0FF320E
:102278005A60074B1B6833B10846FFF743FEBDE8B9
:10228800F840FFF78BBFF8BDD0890320A889032049
:102298005867014208B5134B00209871A3F89200C3
:1022A80083F89400D86083F8900002461033013018
:1022B800202843F8042BFAD10B4A13889BB26BB140
:1022C8000A4B108819785A7880B2C9B2D2B2FFF78F
:1022D800A1FF074BFF221A725A7208BD012208217A
:1022E800F5E700BFD0890320600038046200380495
:1022F800A8890320F8B53148FEF30EF1304B1B686E
:10230800CBB1304B01221A60BFF34F8F2E4A15888C
:102318000232ADB2127845EA024500221A602B4C0F
:10232800237A012B0ED1284600F054FE30B1BDE8C7
:10233800F840FFF7C7BE4FF0FF35F0E7BDE8F840BB
:10234800FFF710BE002B37D16E1CF7D0A6782EB938
:1023580040F2A13231460720FFF7C8FB94F89030CD
:1023680004EB830201331561B3FBF6F2184D06FB4B
:102378001233002284F890301346D1B2B14210D300
:10238800751A68426841A07199B94FF0FF33114A34
:102398008E425360D2D10021BDE8F8400846FFF7CD
:1023A800B1BD55F8040B571C0028E9D003443A4640
:1023B800E3E7B3FBF2F3EAE7F8BD00BF3D21000411
:1023C800682101422C2001421C090040D0890320C9
:1023D800E0890320A8890320012806D9022809D109
:1023E8004FF496716420FFF7A3BD40F2A4614FF447
:1023F8009660F8E700210846F5E7000008B500F008
:10240800ABFC02280DD0074B18680538B0F5C87F1B
:1024180038BF4FF4C870BDE8084000F5FA71FFF7FF
:1024280087BD08BD2409004038B505460C4601F0B3
:1024380041FA05F00700ED0805F18045231E4FF02D
:10244800010218BF012395F8381B824083401340CE
:10245800DBB221EA0202134385F8383BBDE8384075
:1024680001F038BA094B1B6810B504462BB140F28D
:10247800F63200210720FFF739FB01F01BFA044B65
:102488001B682360BDE8104001F024BA54210142C2
:102498000C090040094A08B5B2F8923013F001005F
:1024A80004D143F00103A2F8923008BD072040F29E
:1024B8000E420021FFF71AFBFF20F6E7D089032020
:1024C80038B5054628B140F2154200210720FFF72C
:1024D8000DFB0A4CB4F89210294111F0010104D106
:1024E80040F216420720FFF701FB0120A840B4F88C
:1024F800925025EA0005A4F8925038BDD0890320EF
:102508002DE9F84305460C4629B140F21C4200214A
:102518000720FFF7EBFA01F0CDF9E708012304F0F3
:102528000706204A03FA06F607F18047F6B287F84D
:1025380042691370BFF34F8FDFF86C9042F210704E
:10254800C846D9F800303BB140F2214300220721A8
:10255800FFF7D7FA0028F4D104F1022440342B46BF
:102568002401103518685968224603C20833AB4263
:102578001446F7D10B4B87F8406901221A70BFF354
:102588004F8F42F21070D8F800303BB140F226432A
:1025980000220721FFF7B5FA0028F4D1BDE8F84377
:1025A80001F098B94E090040F82B014238B50446AD
:1025B80028B140F22F4200210720FFF797FA01F0D7
:1025C80079F904F1022340331B019D7B05F00F05C7
:1025D800042D1BD0012204F00703E40802FA03F3D8
:1025E80004F18044DBB284F842390A4B1A70BFF315
:1025F8004F8F094C42F2107023683BB140F23743C9
:1026080000220721FFF77DFA0028F5D101F062F9D1
:10261800284638BD4E090040F82B01422DE9F84301
:102628000F461646044628B140F2414200210720D1
:10263800FFF75CFA4FEAD40804F007054FF00109E8
:1026480004F1022408F1804809FA05F54034EDB296
:10265800240101F02FF9052088F8425902F0C0FA48
:102668002760A67388F8405901F034F9024B83F8C3
:102678000090BDE8F88300BF4E09004010B504463D
:1026880001F018F9044B22781A70044B0122BDE8B6
:1026980010401A6001F01EB94A0900402829014279
:1026A80008B500F059FB02280DD0074B18686430B4
:1026B800B0F57A6F28BF4FF47A60BDE8084000F59E
:1026C800FA71FFF735BC08BD24090040014BD879E1
:1026D800704700BFD0890320234B1B6810B54BB14E
:1026E800224B02221A70224B1B68002B3AD0BDE8FD
:1026F800104018471F4B197811F00F0103D0A3F5AC
:1027080002730F22EEE71C4B1B6823B14FF4FB72D8
:102718000720FFF7EBF9194B1B6833B1184B402220
:102728001A70BDE81040FFF7E5BD164B198889B24D
:1027380031B9BDE8104040F20E220720FFF7D6B9A4
:10274800CB070FD5104B1B78C3F30113023B012BAA
:1027580001D8FFF7A5FF064B5B6803B198470B4B01
:1027680001221A8010BD00BFE46E01426F090040CB
:10277800688A0320760B0040E06E0142D86E014261
:102788006E090040680900400E2400206C090040D2
:10279800024B1A6818601046704700BF688A032009
:1027A80010B5034C236803B910BDFFF795FFF9E78F
:1027B8009C6001422DE9F047134BDFF85C80134F12
:1027C800134EDFF85890DFF858A0012400251C604C
:1027D80064205C60C8F800503D603560C9F800406E
:1027E800CAF8004002F0FCF90A4BCAF8005002226D
:1027F800C9F800501C701A7004221A70C8F80040FA
:102808003C603460BDE8F087049A004204690142E4
:10281800006901420F01004008690142009A004224
:1028280014830042034B01221A60034A10780022E5
:102838001A607047009A0042D404004010B5084B53
:1028480001241C600A2043F8084C1C6102F0C8F9F6
:10285800044B20461C60BDE8104002F0C1B900BF1F
:102868003CA7014250A701423A4A00232DE9F0470C
:10287800137002F1007202F5784204251360536068
:1028880002F51E42C0321360334B4FF444721A8073
:102898004FF43C7223F8022C022003F80B5C5C7E98
:1028A80002F09EF92D4B012628461E7002F098F979
:1028B8002B4B1B889BB2B3F5407F04F01F04A3F594
:1028C8004077B4BF35464FF0FF358CB31F2C08BF97
:1028D8004FF0FF35DFF88C80DFF88090DFF880A0BC
:1028E8002C44E3B288F80030022002F079F9012381
:1028F80089F80030042002F073F9BAF80030012D8D
:10290800A4EB05069BB215D1B3F5407F1CDA1F2C4A
:1029180014D1C3F54073002FB8BF7F429F4216DA27
:10292800104BF6B21E70BDE8F047022002F058B90D
:102938003546CFE7B3F5407F05DD2CB1A3F54077E9
:1029480006EB4504CDE7E4D1A3F54073E3E7BDE822
:10295800F08700BF000D00400C0D00402A0D00401C
:10296800200D0040020D0040214B70B500241C6072
:102978000A2002F035F91F4E1F48204D346001230C
:102988002C60036040F8043C40F8143C1C4B1D4C80
:102998008020187042F210702368012B06D085231E
:1029A80000220721FFF7ADF80028F5D1144C802349
:1029B8002370022002F014F91023237020232370BF
:1029C800114A40232370012313700022336004202E
:1029D8002A600821022223702270207021700B497E
:1029E8000A70087001F82A3C094B1A7070BD00BFC4
:1029F80034A7014200050142D4A301420405014263
:102A0800280D00409CA50142290D00402A0D0040D8
:102A1800040800400C4B10B501220C4C1A6042F21D
:102A280010702368012B06D09E2300220721FFF790
:102A380068F80028F5D1FFF701FFFFF715FFBDE89B
:102A48001040FFF791BF00BF3CC00042A0C4004245
:102A5800124B10B50122124C1A6042F21070236812
:102A6800012B06D0A72300220721FFF74AF80028E8
:102A7800F5D10C4A0023137002F1007202F5784276
:102A88001360536002F51E42C0321360C2F89033DF
:102A9800C2F88C33C2F87C3310BD00BF38C0004286
:102AA800A4C40042000D00400B4B10B501220B4C92
:102AB8001A6042F210702368012B06D0B42300225A
:102AC8000721FFF71EF80028F5D1FFF7B7FEBDE88C
:102AD8001040FFF749BF00BF3CC00042A0C40042FD
:102AE800014B01221A6070479CC6004270470000E3
:102AF800134B144919221A7026225A705A79063330
:102B08001B789B1A104ADBB2137003F10C02D2B285
:102B18000A7015330D4ADBB213700D4A0023136097
:102B280002F5E132DC3213600A4A137803F01F031E
:102B380043F0E0031370084B01221A60704700BF8E
:102B48003D020040400200403F0200404102004078
:102B5800844A00422C06004030C70042154B03222D
:102B68001A70154A012302211370917304211177F9
:102B7800124A136053609360D3600C3253619361BF
:102B88009363D36353659365D365136653679367FC
:102B9800C2F88030C2F88430C2F88830C2F88C306D
:102BA800C2F89030064A4FF6FF73138022F84C3C67
:102BB800704700BFBB26002080260020E0D80422F2
:102BC800CE26002008B5FFF755FA00F003F9BDE856
:102BD8000840012000F07EB8174B1B8810B59CB246
:102BE8001B0505D54FF4AC7200210720FEF77EFFC8
:102BF800C4F384130F2B05D04FF4B07200210720C3
:102C0800FEF774FFE30B05D04FF4B17200210720E3
:102C1800FEF76CFF04F03F04013C032C8CBFFF243B
:102C28000024064BFF2C1C7005D1054A127802F0CF
:102C3800FF0102B1197010BD00080040708A03201E
:102C48000B01380413B5FFF7C7FF0B4B01241C60B9
:102C5800FFF784FFFFF7AEFDFFF74AFF00F032F8F9
:102C6800FF238DF80430054B01A81C60FFF706FD13
:102C780000F07AF802B010BD40C00042646701421B
:102C880038B50D4B01251D60A3F5FF5300221A60CE
:102C98000446FFF7A1FB09490B7803F0FC0204F096
:102CA800030313430B70023C054B18BF01241C603F
:102CB800A3F294531D6038BD3C2001420006004039
:102CC800E0050142024B012202201A70FFF7D8BF2B
:102CD800B289032010B5044600F0ECFD0C4A1378C5
:102CE8006CB1012B9DBF0B4B0121197003F1FF3310
:102CF80098BF00231370BDE8104000F0EBBD01330E
:102D0800DBB2012B137004BF024B1C70F3E700BF4A
:102D1800B28903202E080040012810B504460AD1C4
:102D2800FFF7D4FC022806D10720EC220021FEF789
:102D3800DDFEC22010BD074B1B7803F003039C4245
:102D480005D02046FFF79CFF2046FFF701FA002038
:102D5800F0E700BF00060040024B187800F00300BF
:102D6800704700BF0006004002480E22002102F012
:102D78009FB900BFF48C0320B0F90830134A002B28
:102D8800B4BF803B8033117843F307233B2B41F3D7
:102D9800421111DD032906D0137803F01F0343F015
:102DA800600313700AE03C2B08D1084A137803F03B
:102DB8001F0343F0E003F4E70131F6D1034B044A63
:102DC8001B7843F342131370704700BF2C06004072
:102DD800B38903201FB50E4B7F221A7000211022E1
:102DE800684602F065F902238DF8003009494FF46E
:102DF800A0636846ADF8023000F03CF8FF2804D123
:102E0800562200210720FEF771FE05B05DF804FB8D
:102E1800B3890320812D000408B5054B1B6823B135
:102E2800452200210720FEF761FE024B186808BD05
:102E3800542101420C090040014B5870704700BFF3
:102E4800748A0320014B5878704700BF748A0320A6
:102E580038B5064C0025A5702570657001F0A8F9F5
:102E6800034800F0E1FCE570656038BD748A032012
:102E780000E204002DE9F843144CA378052B05461D
:102E8800894621D8FFF7C8FFA378804633B901F0F7
:102E9800B7FB08F51C5310332081E36095E80F0059
:102EA800A7781C2606FB074606F1100C8CE80F00D5
:102EB80068682389338540447B1CC6F8209070627B
:102EC800A3703846BDE8F883FF27FAE7748A032021
:102ED800F8B5394CA3788BB3FFF79EFFE368C31AA4
:102EE800002B01DA63787BB100F51C501030E060EC
:102EF800FFF792FF314D07460026A3789E421ED366
:102F080063780BB100236370FFF786FFD4F8B830FD
:102F1800C31A002B12DB00F5742000F51070C4F8FA
:102F2800B80001F06DFB10F5004F07D0E378656835
:102F3800032B1ED801330544E3706560F8BD237880
:102F48003341D80701D5637853B92A78D10703D517
:102F58006B69FB1A002B03DA520707D563782BB18C
:102F68006B683B446B6128462B69984701361C35D2
:102F7800C3E7002DB8BF0335002345F38F050027AD
:102F88000E4EE37025816760A3789F42D6D23378CE
:102F98009B070ED5B6F918307288EB1A002BB8BF0C
:102FA8005B429BB29A4204D83369358335813046F7
:102FB800984701371C36E7E7748A0320848A032080
:102FC800034B0022DA62C3E9092283F82C00704718
:102FD800308B032038B52E4A948C034692F826008D
:102FE8000134A4B201289484114626D0022835D091
:102FF800002844D15D1C08D1C82C3ED1012381F89A
:10300800263000238B848B6238E0926A551EAB42CF
:1030180010D3013293420DD891F82D30013381F845
:103028002D3091F82D3091F82C2001339A42E3DCB1
:10303800012023E08B620023F1E7591C25D0906A18
:10304800B4F5807F0344936217D11B0A0020936272
:10305800022382F82630D06290840FE0926A93426D
:1030680034BFD31A9B1ACA6A5B43D31828BF4FF0E0
:10307800FF33B4F5807FCB6200D0002038BD4FF419
:10308800B27200210720FEF731FD0320F6E700BFEA
:10309800308B03200C4B93F826001A4630B993F86E
:1030A8002C1093F82D30013399420CDD536A0749EF
:1030B80023F07F438B4204D1D06A431C03D0000A1B
:1030C80070474FF0FF307047308B0320000102003B
:1030D800084B09495A6A22F07F428A4202D1986A0B
:1030E800000A704793F82620022A0CBF986A4FF00E
:1030F800FF307047308B032000010100014B986AB4
:10310800704700BF308B0320684620F007018D46CA
:10311800F1B5FFF7E5FC72B6614B1C6814F0FF04CB
:1031280001BF604B1C68B4FA84F464090120FFF7FE
:1031380083FE002C40F0F0805B4B83F30888594AEB
:103148005A4B15681460B3EB153F37D0584B5521CF
:1031580019705849584B802008701460574A02214A
:1031680011705988A2F81A116FF45970024419792C
:1031780053481170191D0322013211F8014F0470D0
:103188000A2AF9D14F4905220132212A33F81200BF
:103198000880F9D14C4A1368012BFCD04B4A4C49A2
:1031A8000123136093604B4A32F8023B002B70D125
:1031B800494A01211160A2F500721360474A484F3D
:1031C800002313603B60474B1B6823B102F25C424B
:1031D8001368002BFCD0A90707D5374B1A781B7842
:1031E800414ADBB21370FFF75FFC6A0748BF3F4BE9
:1031F800374E3F4C44BF00221A602B0742BF3D4B5D
:1032080001221A603C4A01231360536002F5894287
:1032180058321360394B726D1A60B26D5A6006F1FC
:103228005C050FCD0FC40FCD0FC432462B68236049
:1032380052F8800F324B5168324C03C390681860C3
:10324800A3F55163D6F88C205A60D6F890201A60FE
:103258004FF47A7023683BB140F25F1300220621D5
:10326800FEF74FFC0028F5D1FFF7C8F8264A0123DE
:103278003B601370254B00221A7062B6244925481A
:10328800C022FEF73FF900F083FABDE8F140854619
:10329800704703F1804311F8010B187084E700BFF1
:1032A8008006014200800320207F0520BCAB0A0075
:1032B80024110040910E0040BC81032026080040E4
:1032C8008F04004080050040C0910042E4040142A0
:1032D800388203205E5100041003014244C00042BA
:1032E800180301423CC00042020D0040A004014204
:1032F80000E400E0A404014208C0004200E100E04C
:1033080018ED00E054210142000B00409A8B032085
:10331800CC820320407F0520854B9A683AB19A6891
:103328009B68844AC3F30F211B0E11809370824A55
:1033380082498348FEF7E6F8824A8348002101F073
:10334800B7FE01F091FE814B814AC3F38F031380CE
:10335800804BC3F38F0322F8023C7F4BC3F38F03E8
:1033680022F8443C7D4B0C221A807F221A710122DC
:1033780083F859204FF4E852A3F85A2002F100527A
:1033880002F6BE124FF4F051518001F100510023B2
:1033980001F6C7011370137103200F220A704870D9
:1033A800CA7006206E4A8870FB2111703F21517047
:1033B8006C4940F6B830A1F840004FF4AF70A1F85E
:1033C800420041F2F800A1F84400962081F8460036
:1033D8006548C1F84A00022081F84E0040F20120F9
:1033E800A1F85A006148C1F85E00AA2081F86A0075
:1033F8004FF6FF7245F255500A80A1F86E0055202D
:1034080081F870001E2081F8710042F23810A1F88E
:10341800760000F1A850A0F56D00A0F62770C1F85D
:10342800820000F1043081F87830C1F8860000F19C
:10343800043000F18070C1F88A0000F1806000F16A
:10344800051000F5A060C1F88E0000F10430C1F845
:10345800920000F10430C1F8960000F10430C1F880
:103468009A0000F10430C1F89E0000F10430C1F860
:10347800A20000F1F37000F5EE3000F58270C1F89B
:10348800A60081F8C6201020394A81F8C40070319E
:10349800FF2111704FF4F851A2F84A104FF402516D
:1034A800A2F84E10082182F84C3082F8501082F8A9
:1034B800543042F2B8012F4BA2F8521033221A703E
:1034C8002D482422402101F0F3FD2C4B202283F8C3
:1034D8001B232B4B1B681BB12A4A1368002BFCD0FB
:1034E800294B01241C60FFF795FA284B1C60284BD8
:1034F8001C70284B1C60A3F5007300221A60FEF7AD
:1035080049FB254A1368002BFCD1244A137062B684
:10351800234C4FF47A7023683BB14FF4EA730022CE
:103528000621FEF7EEFA0028F5D1FEF7F5FBFEE7D7
:1035380000ED00E0400C00401C0000002452000494
:103548009C8903205C030000B88903208C030000D9
:10355800440E00408C0500009C05000062260020F7
:10356800CB260020CE26002020FFD0FFD6BE898E95
:10357800962700202E07004000E400E000E100E06C
:103588003CC00042A0C40042EC040142A404014231
:10359800000B004010030142C80601429A8B032029
:1035A80054210142684620F007018D462DE9F14378
:1035B8004E4ADFF89481DFF89491D8F8003011680A
:1035C8004B4C00294B494FEA83030968DBB20CBF17
:1035D800022700270B433B43DFB2474B00251D70F2
:1035E800A3F2CB23012616601E70FEF7D1FC04233C
:1035F80089F80030414B1B78DBB22370C8F80050C3
:10360800FFF726FA3E4B1D605D6003F5894358338A
:103618001D603C4B1B7803F00303022B2DD13A4E5F
:103628003A493B4DC02206F19400FDF76BFF394B38
:103638001A6872655B68B3650FCD06F15C040FC448
:103648000FCD0FC42B682360334B03CBC6F884100F
:10365800C6F880001868C6F88800A3F551635A6850
:10366800C6F88C201B68C6F890302C4B08221A70BC
:10367800FFF73CFA384600F0AFF8294B1D60294B9C
:1036880089F8006040221A70A3F25353A01C1B88CB
:103698006380254B254A1B788370254B043412F828
:1036A800021B01F03F019A4204F8011FF7D1214B98
:1036B800214A224932F8024B23F8024F8A42F9D1B3
:1036C8001F4B1B1A412B05D840F2BA2200210620B5
:1036D800FEF70CFA1B4A0C4932F8023B002B9ED02D
:1036E80003F180431B7801F8013BF5E7A004014290
:1036F800BC810320C0A30142000B0040250D0040FF
:1037080008C000420006004038820320407F0520A0
:1037180000E400E000E100E018ED00E035080040BA
:10372800E4040142910E0040C104004080040040BE
:103738008E040040C68103208E050040C605004067
:10374800388203205E510004A40401422608004088
:10375800704770470B4A0C48136943F0040310B5CF
:103768001361FDF7B0FE094C40B972B6BFF36F8F15
:1037780000F0EEFF10B1237803B930BF62B6002322
:10378800237010BD00ED00E0608B03209B8B0320AD
:1037980001480121FDF7A3BE608B03200B4B1B786A
:1037A8000E28DBB285BF03F00302094840B28056F9
:1037B8000E2981BF064AC3F382039B181979054B6A
:1037C800090149B2084383F83800704729060040C8
:1037D80006520004608B032008B50F490F4B104AAE
:1037E8001B780978126801F0030102290D494FEA94
:1037F800401003F0070391F8381002F0080242EA7B
:103808000302C3B20CBF1020002042EA0122184371
:10381800104301F023FC00BF0006004002080040EE
:1038280000800320608B032038B5114D2B780446A7
:103838002BB140F2AD1200210620FEF757F90D4BCF
:103848000D490022013CE0201A605C6081F82300E9
:103858009A601A6842F004021A601A6842F002027A
:103868001A601A6842F001021A6001232B7038BDF1
:10387800998B032010E000E000ED00E0034B1B688B
:1038880013B9034BAA221A70704700BFE024024202
:1038980024110040054B1A78D3B212075DBF044AC1
:1038A80003F00F03D05C0020704700BF24060040DF
:1038B8001252000472B6064B5A7812B9202282F3CB
:1038C80011885A780132D2B25A7062B6704700BF76
:1038D800998B032072B6084A5378012B83BF53781B
:1038E80003F1FF33DBB200238ABF537053702023E8
:1038F80083F3118862B67047998B032038B5044664
:10390800FFF7D8FF102001F06BF91249124A134D46
:1039180055230B70124B1C80137803F0F10343F00E
:10392800040313700F4A01231360536042F8A03C4C
:10393800FFF7D0FF0C480C462B683BB140F2D5137B
:1039480000220621FEF7DDF80028F5D1AA2323700E
:1039580038BD00BF2411004020110040E02402427D
:1039680022110040A024024240420F006E4A6F48D4
:1039780038B50121002311700360042010706C4ACF
:103988006C4C11606C4A6D4DFF2010706C4A1160D0
:10399800227802F0C10242F00E022270694A1160D8
:1039A800694A1360694A1070627C02F0C10242F0F1
:1039B80006026274664A116002F5A2321360654A13
:1039C8001070A27C02F0C10242F00802A274624A9E
:1039D800116002F5A2326032136094F8812C02F073
:1039E800F00242F0070284F8812C5C4A10801384AC
:1039F80011715B4A5B481160027802F0F80242F0EC
:103A080002020270A0F63F20027802F0FC0242F0A7
:103A180003020270544A107800F0FC0040F00200E3
:103A2800107052480360107800F0CF0040F020007A
:103A380010704F480360107800F03F0040F080009D
:103A480010704C4803604C48047804F0FC0444F0BF
:103A580002040470494C2360047804F0F30444F031
:103A680008040470464C23602C7804F0CF0444F01A
:103A780020042C70434C2360434B1C7804F0FC0456
:103A88001C701C7804F0F3041C70137803F0CF0347
:103A98001370137803F03F031370A2F27D6213785A
:103AA80003F0F80343F002031370D37803F0C7035D
:103AB80043F01003D37092F8833203F0C70343F046
:103AC800380382F8833292F8833203F0F80343F024
:103AD800070382F883322D4B1970037803F0CF0364
:103AE80043F010030370037803F03F0343F04003EF
:103AF800037092F8803603F0F30343F0040382F86E
:103B08008036FFF769F8FFF7A3F9FEF7C3FB00F06B
:103B1800AFFD00F0C5FE4FF6FF70FFF7EFFEBDE802
:103B2800384001F04BB800BF3508004084680142B6
:103B38008868014217070040411100400D07004006
:103B480044280242E0E200420028024249110040B3
:103B580000E500424D11004020E500429A13004064
:103B6800287702424F110040080700402000024217
:103B7800280002422C00024209070040300002429D
:103B880034000242780002420A070040070300405E
:103B9800024B5878B0FA80F040097047998B03209F
:103BA80010B50023934200D110BDCC5CC45401333E
:103BB800F8E703460244934200D1704703F8011B1B
:103BC800F9E7FFF7EDBF30B501390024A24201D172
:103BD800002005E0035D01340D5DAB42F6D0581BB3
:103BE80030BDFFF7F0BF0000014B01229A7070470B
:103BF800998B032070470000014B00221A60704720
:103C08009C640142014B00221A707047280B004047
:103C180008B50B4B1B682BB140F2C13200210620BE
:103C2800FDF764FF074B1B6813B1074B00221A60AE
:103C3800064B1B6813B1064B00221A6008BD00BF73
:103C48000870014204700142846801420070014218
:103C580080680142014B0122DA707047998B03207A
:103C680038B5FFF727FE154B154D1B68A3B1FFF7B5
:103C780031FE0124D0B1FEF793FDFFF71BFE114B77
:103C88001C6043F8104C104B1C70104B1C60002338
:103C9800AB70FFF71FFE09E00D4B1B68002BE6D148
:103CA8000C4B1C68FFF716FE002CE2D1EB781BB119
:103CB800FFF70EF90023EB70204638BD9C600142E7
:103CC800998B0320AC640142280B004088640142B0
:103CD80088600142C060014211F0FA0FF0B501D0CE
:103CE8000B2931D1234BDFF8A0E01F78002307F020
:103CF800030707261C461D463EF823201FFA82FCB0
:103D080002F00F02914209D11CF4005F18BF012490
:103D18001CF4805FCCF3422618BF012501339F4273
:103D2800EAD2F5B98CB1144B1A882C4612B2134B4F
:103D38001B889BB201210BB949F69A130670417092
:103D480084708280C380F0BD07260D4B1A8800243A
:103D580012B20C4B1B889BB24BB9194649F6C013DB
:103D6800ECE70CB10022E2E72C460022F1E7002143
:103D7800E4E700BF411000404E0038044C0038040E
:103D88004A0038044800380444100040104B114AD7
:103D98001B8812881BB2B0F5FE4FD4BFC3EB0000DE
:103DA800C3F5FE4000F5883049F69A1192B200F545
:103DB8009370002A08BF0A4640F23B230002B0FB7A
:103DC800F3F00002B0FBF2F000F5007080B270472B
:103DD800440038044C003804F7B506466846FFF737
:103DE8007BFF9DF80030BDF90450BDF80670B402A1
:103DF800062B1BD8DFE803F00412161A051A180060
:103E0800A4089DF80100B8B1B4FBF7F405F2FD155C
:103E18002C44A4B20134A0B203B0F0BD0323B4FB18
:103E2800F3F4EEE76408ECE7F402EAE7AD220021D8
:103E38000620FDF75BFEE4E76400B4FBF7F405FA3F
:103E480084F3002BE4DA0446E4E700002DE9F04FA0
:103E5800174685B0B34A019111780293BDF838B07E
:103E6800BDF83C909DF84030044631B940F2CD127F
:103E780006200393FDF73AFE039BAB4A128864B110
:103E8800012C0AD0022C00F08580032C00F08480DD
:103E98000B2C02D00C2C18BFFF24A44DA4492E785B
:103EA8006A78FF3E18BF0126FF2AAA7818BF013694
:103EB800FF2A0A7818BF013602F0F80218BFF6B2D6
:103EC8000A7016B99B4A01211160DFF8D4A2DFF805
:103ED800D482002F62D040F2FF32AAF80020A8F85E
:103EE80000200C2C5FD1944B01221A604BF60C6316
:103EF8002A78FF2A7CD1914A1A4042F01003904A4E
:103F080001211170029A0AB143F48073022E99B20A
:103F18008C4AC3F3074300F09180032E00F0988089
:103F2800012E00F081808848018088490B70137841
:103F380003F0FC031370019B002B40F093803A1EA2
:103F480018BF0122029B002B40F09780002F00F041
:103F58008B8040F2FF33AAF80030A8F800302B78A5
:103F6800FF2B40F0C6807A492C700B7803F09F0332
:103F780043EA42130B700123714A137053706C4A61
:103F8800137803F0F80343F001031370012005B020
:103F9800BDE8F08F042480E705247EE7AAF80070C6
:103FA800A8F800709DE70B2C20D02BB144F4844373
:103FB8002CB9684A14609BE744F49043F8E7012C55
:103FC80003D1654A0021116092E7042C01D1634AAC
:103FD800F8E7052C01D1624AF4E740F22A220021D1
:103FE80006200393FDF782FD039B81E75D4B7FE786
:103FF8006A78FF2A06D15C4A1A4042F0200302215F
:104008004F4A7EE7AA78FF2A06D1584A1A4042F05A
:10401800400304214A4A74E740F243220620002163
:10402800FDF764FD0020B2E75148018051490B704B
:10403800137803F0FC0343F001037BE74E4801804B
:104048004E490B70137803F0FC0343F0020371E749
:104058004B4801804B490B70137803F0FC0343F085
:10406800030367E702226DE7019B002B3FF477AF5C
:10407800AAF80070A8F8007071E70C2C26D10FFA86
:104088008BFB5846FFF782FE5846FFF77FFE0FFA74
:1040980089F9AAF800004846FFF778FE4846FFF776
:1040A80075FE274BA8F8000008221A70364A01232B
:1040B8001360364A1360364A20211170102111709E
:1040C800344A1360344A1370002248E721465846A0
:1040D800FFF782FE21465846FFF77EFE2146AAF8E2
:1040E80000004846FFF778FE21464846FFF774FE71
:1040F800D7E76B78FF2B08D128496C700B7803F051
:10410800FC0313430B70022336E7AB78FF2B4BD12C
:104118002249AC700B7803F0E70343EAC2030B7043
:10412800042329E7A08B03205C100040B4890320F6
:10413800401000400C080242A40D0242EFFF0300A9
:104148005A10004041100040441000404610004002
:1041580058100040D0E50042D4E50042C0E50042D6
:10416800C4E500420B700300DFFF0300BFFF03003C
:10417800481000404A1000404C1000404E100040CB
:104188005010004052100040B064014200E100E0CD
:104198005B1000409C6B01425D0B004059100040D1
:1041A80056100040541000404FF4307236E700BFFC
:1041B8000D4B1A78BAB901221A7002F1804202F541
:1041C8008252137803F0F30343F008031370137853
:1041D80003F00F0343F02003137012F8013C03F0BF
:1041E800F80302F8013C7047A08B03200C2937B56F
:1041F800054623D12C4B1A8849F69A1192B2002A07
:1042080008BF0A46A0F500746243121240F23B2030
:10421800083B504300121B88A0F58830A0F5937026
:1042280000FA83F0214B9842B8BF1846B0F5FE4F0C
:10423800A8BF4FF4FE4080B203B030BD6846FFF718
:104248004BFD9DF80140BDF90400BDF8063074B17E
:104258006FF4FE72AC18241A5C439DF80030062BEC
:104268001BD8DFE803F00A13161A0B1A1800A84225
:10427800BCBF2C1A5C436408EFE7A400A00A4FF601
:10428800FF74844228BF0446A0B2D5E704EB440477
:10429800F4E76400F2E76408F0E7AD2200210620A5
:1042A800FDF724FCEAE700BF4C0038040080FFFF5C
:1042B80038B5414B1978044621B940F20D32062031
:1042C800FDF714FC54B1012C08D0022C18D0032C93
:1042D80018D00B2C02D00C2C18BFFF24374B1A789F
:1042E800A24225D1364B1B7813F0600F0CD0002367
:1042F800344A01211170B2F80300C0F3090010E03C
:104308000424EBE70524E9E72F4D64202B681BB94B
:10431800FDF7B4FB0028F9D100280CBF01230023C6
:10432800E6D1002B45D12146BDE83840FFF75EBFF6
:104338005A78A24218D1254B1B789B0706D0002338
:10434800204A02211170B2F80500D6E7204D6420FA
:104358002B681BB9FDF792FB0028F9D100280CBF88
:1043680001230023DDD0EBE79B78A34219D1174B3B
:104378001B7813F0180F06D00023124A042111707D
:10438800B2F80700B9E7134D64202B681BB9FDF795
:1043980075FB0028F9D100280CBF01230023C0D0E9
:1043A800EBE740F23B3200210620FDF79FFB00209F
:1043B80038BD40F24732F6E7A08B0320B4890320CA
:1043C800581000405B100040C00C024259100040D9
:1043D800C40C0242C80C024238B5144C144DFFF705
:1043E80069FA226832B9296821B940F27B3206207D
:1043F800FDF77CFB23684BB10E4B00205B689847A8
:104408000D4B00221A600D4B20221A702B684BB1FD
:10441800084B01205B689847094B00221A7010224C
:1044280083F8FE24BDE83840FFF754BA1C730142F4
:1044380020730142A08B03209C6B01425B1000405B
:104448005D0B00401FB502930023CDE90033FFF751
:10445800FDFC05B05DF804FBF8B54B4B1978044634
:1044680021B94FF470720620FDF740FB54B1012CBE
:1044780008D0022C50D0032C50D00B2C02D00C2C7E
:1044880018BFFF24414A137803F0F8031370404B18
:104498001A78A24244D1FF221A701D785A789B7864
:1044A800FF3D18BF0125FF2A18BF0135FF2B1CBF90
:1044B8000135ADB20C2C3FD1364B00221A6036497B
:1044C800364E0B78002203F003039A421BD836F8C5
:1044D800220000F00F00844206EB820746D100203C
:1044E8009A42388007D003F1805202F211429200BA
:1044F800128892B23A8033B10A78013B02F0FC028A
:10450800DBB213430B709DB3204A137803F0F80312
:1045180043F001031370F8BD0424B3E70524B1E7A1
:104528005A78A24202D1FF225A70B6E79A78A2427C
:1045380004BFFF229A70B0E70B2CC0D014B9184BF7
:104548000122BBE7012C02D1164B1C60B7E7042CF3
:1045580001D1154BF4E7052C01D1144BF0E740F2DB
:10456800F93200210620FDF7C1FAA8E70132ACE7CD
:104578000F4C322023681BB1FDF780FA0028F9D1CF
:104588000C4B00221A60C6E7A08B032040100040A5
:10459800B4890320A40D0242411000404410004099
:1045A800D0E50042D4E50042C0E50042C4E500423F
:1045B800B80C02420C08024238B5104B1978044670
:1045C800154621B940F232420620FDF78FFA2DB97F
:1045D80040F2334229460620FDF788FA00220123DB
:1045E80011462046FFF72EFF38B12046FFF760FE40
:1045F80028802046FFF730FF012038BDA08B03201C
:1046080007B500210DF106020C20FFF7D5FF18B9F8
:104618004FF40043ADF80630BDF9060003B05DF86D
:1046280004FB162810B414D800F0030280085200C6
:1046380000F1804099B9032390F80C4693409140CB
:10464800194024EA0304C9B2214380F80C1610BCAF
:10465800704710BCCB2200210620FDF747BA01297C
:10466800E9D00229E7D0032918BFFF21E3E70000BA
:104678001FB510220021684600F01AFDFDF70AFF59
:104688002C4CFF28207004D1802200210620FDF741
:104698002DFAFF238DF80F30684643F60473ADF802
:1046A8000C30FDF7DFFE009B217803F10043013B4E
:1046B80000939DF80E3023F00F0343F00103684682
:1046C8008DF80E30FDF71CFF2078FDF76FFF0121F4
:1046D8002078FDF7A9FE0120FEF7FCFA164A002A09
:1046E8000CBF00210521B2F5803F21D8B2F5004F5B
:1046F8008CBF102318230AB943F004030F4AB2F5FC
:10470800005F0F4A98BF43F0020313700520FFF7BC
:1047180045F80C4B01221A700B4A0C4B9A4205D8EB
:104728004FF4877200210620FDF7E0F904B010BDB0
:104738000023E0E7A88B032000000000130D000011
:1047480029060040128D0320BC810320BB81032071
:10475800014B1878704700BF128D0320014B0122CE
:104768001A707047128D032037B51B4B1B7804460F
:104778002BB14FF4947200210620FDF7B7F9B4F578
:104788007A7F27D304F100436FF00045AB4238BF6E
:104798002C46FFF78FF801A8FDF764FE0199631C0A
:1047A80018BF09190D4C08BF491920780191012239
:1047B800FDF734FF00F08DF9FFF78CF8FEF7CAFF1C
:1047C80000F088F92078FDF7F1FEFEF73BFB08B111
:1047D800FEF77EFB03B030BD9A8B0320A88B032025
:1047E80010B1012803D07047024B19607047024B83
:1047F800FBE700BFC46B0142E46B014210B1012822
:1048080003D07047024B19607047024BFBE700BFAB
:10481800C86B0142E86B01420C4B53F8203010B5CD
:1048280004462BB920460021BDE81040FFF7D8BF49
:104838009847031EF6DB14B1012C04D010BD044ABE
:10484800DBB21370FAE7034ADBB2FAE7AC8B03205A
:10485800A0100040B010004037B50E4C0E4A0F4B68
:1048680000284FEA800504EB800018BF1346C16892
:104878009B788DF8073021B94FF48F720620FDF729
:1048880035F963190121DB680DF10700984703B07A
:1048980030BD00BFAC8B0320B0100040A01000401A
:1048A800024B00221A765A76704700BFAC8B032061
:1048B800534B70B50028534C18BF1C464FF00105E8
:1048C8004FF00203657263724FF004036372A378BA
:1048D80003D0A84257D0002501E04B4B1D604B4A3E
:1048E80052F820300BB1002D50D108B9484B186050
:1048F8000021FFF775FF012303FA00F1137E23EA75
:104908000103137602EB80038600DB68002B51D08D
:10491800002D4FD030B93F490B7803F0FC0343F02A
:1049280002030B700121FFF769FF48B93A490B7878
:1049380003F0E10343F010030B70384B01211960B9
:10494800517E012383400B435376002841D1344BD9
:104958000121196052F8203003B12DB99319DB6891
:10496800002B48D0002D46D0002836D001283CD056
:104978003244D36833B12DB1630103F1844301227A
:10498800C3F8E02070BD274B1860A4E768B9214937
:104998000B7803F0F3030B708B7D03F0E10343F016
:1049A8000E038B751A4B01211960117E0123834078
:1049B8000B43A6E7630103F184430021C3F8E01029
:1049C800FFF71CFF012806D00028C3D1134B18603D
:1049D800BDE70128BED1144BBAE7144B4FF0804114
:1049E8001960094B00211960C2E7104B4FF00041D4
:1049F80019600C4BF6E70028F3D00128F9D0B7E787
:104A0800B0100040A01000402C010142AC8B0320E4
:104A180000E400420A0700401F070040E0E30042AC
:104A2800A464014230010142A064014200E100E0B7
:104A38002DE9F84F9DF82850824689469046C3F3E1
:104A48008106DFB2C3F3031B4DB1022D05D940F235
:104A5800792200210620FDF749F8194C00E0194C8D
:104A6800194BA4F8048003EB85020021BBF1080F61
:104A780043F82590C2F80CA0D96104D940F29D22D0
:104A88000620FDF733F8A2790BF1FF3302F0F002AC
:104A980003F00F031343A371A2793B0103F0300322
:104AA80002F0CF021343A371640104F18444C034BB
:104AB800013EA6612846BDE8F84FFFF7F9BE00BFE2
:104AC800B0100040A0100040AC8B03200121FFF77C
:104AD80087BE7047704700000D4B186810B520B1AD
:104AE800BDE810400020FFF7B7BE0A4B1B681BB19A
:104AF800BDE81040FFF790BE074B1B683BB1074C61
:104B0800E26902B19047064A00231360E36110BDD1
:104B1800487301424473014240730142AC8B032045
:104B2800C06B0142084B1B6813B10120FFF794BE0C
:104B3800064B1B6813B10120FFF76EBE044A1268CA
:104B48000AB1044A136070476873014264730142F2
:104B580060730142E06B0142024B03EB80030022C9
:104B68001A607047207702422DE9F843FEF7A2FE4B
:104B78000F4B104F1C78DFF84090E4B200264FF03E
:104B88000C08F5B21CB9BDE8F843FEF7A3BEE3076D
:104B98000AD52846FFF7E0FF57F8253008FB05F54A
:104BA8009847012305F8093064080136E9E700BF92
:104BB8009C0B0040CC8B032088130040054B00223F
:104BC8001A75054B4FF080521A60044B01221A6087
:104BD800704700BFCC8B032000E100E0E86401428D
:104BE800064B1B6813F0FF0F0CBF0001C00006281E
:104BF80002D9063800F028BA704700BFA004014265
:104C080038B504464FF6FF75013CA4B2AC4200D15A
:104C180038BD4FF47A70FFF7E3FFF5E7AE220021C5
:104C28000620FCF763BF7047684620F007018D46F1
:104C380001B5FEF7D9FFFFF7CFFBFEF7DBFFBDE8B5
:104C4800014085467047684620F007018D4601B54A
:104C5800FEF7CAFFFFF7E7FFFEF7CCFFBDE801400C
:104C680085467047684620F007018D4601B5FEF776
:104C7800BBFFFFF7D8FFFEF7BDFFBDE80140854643
:104C88007047684620F007018D4601B5FEF7ACFF76
:104C9800FFF7C9FFFEF7AEFFBDE801408546704744
:104CA800684620F007018D4601B5FEF79DFFFEF727
:104CB800A3FFFEF79FFFBDE80140854670476846A1
:104CC80020F007018D4601B5FEF78EFFFFF7ABFF19
:104CD800FEF790FFBDE8014085467047684620F022
:104CE80007018D4601B5FEF77FFFFFF79CFFFEF732
:104CF80081FFBDE8014085467047684620F00701FE
:104D08008D4601B5FEF770FFFFF78DFFFEF772FFC6
:104D1800BDE8014085467047684620F007018D468A
:104D280001B5FEF761FFFFF77EFFFEF763FFBDE801
:104D3800014085467047684620F007018D4601B559
:104D4800FEF752FFFFF76FFFFEF754FFBDE8014083
:104D580085467047684620F007018D4601B5FEF785
:104D680043FFFFF760FFFEF745FFBDE801408546BA
:104D78007047684620F007018D4601B5FEF734FFFD
:104D8800FEF740FFFEF736FFBDE801408546704755
:104D9800684620F007018D4601B5FEF725FFFFF7AD
:104DA80042FFFEF727FFBDE8014085467047684689
:104DB80020F007018D4601B5FEF716FFFFF733FF18
:104DC800FEF718FFBDE8014085467047684620F0A9
:104DD80007018D4601B5FEF707FFFFF724FFFEF731
:104DE80009FFBDE8014085467047684620F0070185
:104DF8008D4601B5FEF7F8FEFFF715FFFEF7FAFE40
:104E0800BDE8014085467047684620F007018D4699
:104E180001B5FEF7E9FEFFF706FFFEF7EBFEBDE87A
:104E2800014085467047684620F007018D4601B568
:104E3800FEF7DAFEFFF7F7FEFEF7DCFEBDE80140FD
:104E480085467047684620F007018D4601B5FEF794
:104E5800CBFEFFF7E8FEFEF7CDFEBDE80140854634
:104E68007047684620F007018D4601B5FEF7BCFE85
:104E7800FFF7D9FEFEF7BEFEBDE801408546704744
:104E8800684620F007018D4601B5FEF7ADFEFFF735
:104E9800CAFEFEF7AFFEBDE801408546704768468A
:104EA80020F007018D4601B5FEF79EFEFFF7BBFE19
:104EB800FEF7A0FEBDE8014085467047684620F031
:104EC80007018D4601B5FEF78FFEFFF7ACFEFEF732
:104ED80091FEBDE8014085467047684620F007010D
:104EE8008D4601B5FEF780FEFFF79DFEFEF782FEB8
:104EF800BDE8014085467047684620F007018D46A9
:104F080001B5FEF771FEFFF78EFEFEF773FEBDE8F2
:104F1800014085467047684620F007018D4601B577
:104F2800FEF762FEFFF77FFEFEF764FEBDE8014074
:104F380085467047684620F007018D4601B5FEF7A3
:104F480053FEFFF770FEFEF755FEBDE801408546AB
:104F58007047684620F007018D4601B5FEF744FE0C
:104F6800FEF756FEFEF746FEBDE80140854670474F
:104F7800684620F007018D4601B5FEF735FEFFF7BC
:104F8800F3FDFEF737FEBDE80140854670476846E9
:104F980020F007018D4601B5FEF726FEFFF743FE18
:104FA800FEF728FEBDE8014085467047684620F0B8
:104FB80007018D4601B5FEF717FEFFF78DFDFEF7D9
:104FC80019FEBDE8014085467047684620F0070194
:104FD8008D4601B5FEF708FEFFF7A4FDFEF70AFEB1
:104FE800BDE8014085467047684620F007018D46B8
:104FF80001B5FEF7F9FDFFF716FEFEF7FBFDBDE86C
:10500800014085467047684620F007018D4601B586
:10501800FEF7EAFDFFF707FEFEF7ECFDBDE80140ED
:1050280085467047684620F007018D4601B5FEF7B2
:10503800DBFDFEF70FFEFEF7DDFDBDE8014085460E
:10504800704700000000000000BF0138FCD2704724
:1050580068462DE9F00F6946FFF7E0BDDFF804C0A8
:10506800604700001100800470B50D4E0D4D761B91
:10507800B61006D0002455F8043B01349847A642E0
:10508800F9D1094E094D761BFEF762FBB61006D022
:10509800002455F8043B01349847A642F9D170BD65
:1050A800B8890320B8890320B8890320B889032068
:1050B800F0B4860746D0541E002A3CD0CAB2034634
:1050C80001E0013C37D303F8012B9D07F9D1032CEC
:1050D8002AD9CDB245EA05250F2C45EA054534D92C
:1050E800A4F1100222F00F0C03F1200716096744FF
:1050F80003F1100242E9045542E902551032BA425E
:10510800F8D1721C14F00C0F03EB021204F00F0616
:1051180013D0331F23F003030433134442F8045B12
:105128009342FBD106F003042CB1CAB21C4403F825
:10513800012B9C42FBD1F0BC704734461346002C2F
:10514800F3D1F8E714460346C1E71A462646E0E7D6
:105158000003040102008000810082002202230271
:105168008A02BC02BD02070309030C030E030F03E6
:10517800100711071207480C490C4C0C4D0C4E0C2B
:105188004F0C500C510C520C530C940E950E0A10E7
:105198000B100C10681069106A106B106C106D10F1
:1051A800401141114511481149114C114D118213FB
:1051B80083138E138F1398139A139B13A413A61398
:1051C800A713B013B213B31300140114081409146D
:1051D8001014111418141914201421142814291443
:1051E8003014311438143914401441144814491433
:1051F80050145114581459146014611400000E0C02
:105208000C000F0F0F0F0F0E0E000102000400001C
:02521800000391
:10522400FFFF0000E5559A15B53B121FFFFFFFFF76
:0C523400FFFFFFFFFFFF017FFFFFFF00F7
:0400000504003111B1
:00000001FF
